{"contracts/BuddyDaoFatten.sol":{"BuddyDao":{"abi":[{"inputs":[{"internalType":"uint256","name":"_serviceFee","type":"uint256"},{"internalType":"address","name":"_serviceFeeAddress","type":"address"},{"internalType":"uint256","name":"_maxFixedRate","type":"uint256"}],"stateMutability":"nonpayable","type":"constructor"},{"anonymous":false,"inputs":[{"indexed":true,"internalType":"address","name":"previousOwner","type":"address"},{"indexed":true,"internalType":"address","name":"newOwner","type":"address"}],"name":"OwnershipTransferred","type":"event"},{"anonymous":false,"inputs":[{"indexed":false,"internalType":"address","name":"account","type":"address"}],"name":"Paused","type":"event"},{"anonymous":false,"inputs":[{"indexed":false,"internalType":"address","name":"_lendAddress","type":"address"},{"indexed":false,"internalType":"uint256","name":"_index","type":"uint256"},{"indexed":false,"internalType":"uint256","name":"_payAmount","type":"uint256"}],"name":"Payment","type":"event"},{"anonymous":false,"inputs":[{"indexed":true,"internalType":"address","name":"recieptor","type":"address"},{"indexed":true,"internalType":"address","name":"token","type":"address"},{"indexed":false,"internalType":"uint256","name":"amount","type":"uint256"}],"name":"Redeem","type":"event"},{"anonymous":false,"inputs":[{"indexed":false,"internalType":"address","name":"_approveAddress","type":"address"},{"indexed":false,"internalType":"uint256","name":"_index","type":"uint256"},{"indexed":false,"internalType":"uint256","name":"_cancelAmount","type":"uint256"}],"name":"ReduceTrust","type":"event"},{"anonymous":false,"inputs":[{"indexed":false,"internalType":"uint256","name":"_oldBase","type":"uint256"},{"indexed":false,"internalType":"uint256","name":"_newBase","type":"uint256"}],"name":"SetBaseUnit","type":"event"},{"anonymous":false,"inputs":[{"indexed":false,"internalType":"uint256","name":"_oldFixedRate","type":"uint256"},{"indexed":false,"internalType":"uint256","name":"_newFixedRate","type":"uint256"}],"name":"SetMaxFixedRate","type":"event"},{"anonymous":false,"inputs":[{"indexed":false,"internalType":"uint256","name":"_old","type":"uint256"},{"indexed":false,"internalType":"uint256","name":"_new","type":"uint256"}],"name":"SetServiceFee","type":"event"},{"anonymous":false,"inputs":[{"indexed":false,"internalType":"address","name":"_oldAddress","type":"address"},{"indexed":false,"internalType":"address","name":"_newAddress","type":"address"}],"name":"SetServiceFeeAddress","type":"event"},{"anonymous":false,"inputs":[{"indexed":false,"internalType":"uint256","name":"_oldTimeInternal","type":"uint256"},{"indexed":false,"internalType":"uint256","name":"_newTimeInternal","type":"uint256"}],"name":"SetTimeInterval","type":"event"},{"anonymous":false,"inputs":[{"indexed":true,"internalType":"address","name":"_address","type":"address"},{"indexed":false,"internalType":"string","name":"_alias","type":"string"},{"indexed":false,"internalType":"address","name":"_token","type":"address"},{"indexed":true,"internalType":"uint256","name":"_fixedRate","type":"uint256"},{"indexed":true,"internalType":"uint256","name":"_amount","type":"uint256"}],"name":"Trust","type":"event"},{"anonymous":false,"inputs":[{"indexed":false,"internalType":"address","name":"account","type":"address"}],"name":"Unpaused","type":"event"},{"anonymous":false,"inputs":[{"indexed":false,"internalType":"address","name":"_lendAddress","type":"address"},{"indexed":false,"internalType":"uint256","name":"_index","type":"uint256"},{"indexed":false,"internalType":"uint256","name":"_borrowerAmount","type":"uint256"}],"name":"WithdrawAssets","type":"event"},{"inputs":[{"internalType":"address","name":"","type":"address"},{"internalType":"uint256","name":"","type":"uint256"}],"name":"BorrowerArrary","outputs":[{"internalType":"address","name":"","type":"address"}],"stateMutability":"view","type":"function"},{"inputs":[{"internalType":"address","name":"","type":"address"},{"internalType":"address","name":"","type":"address"}],"name":"BorrowerBool","outputs":[{"internalType":"bool","name":"","type":"bool"}],"stateMutability":"view","type":"function"},{"inputs":[{"internalType":"address","name":"","type":"address"},{"internalType":"address","name":"","type":"address"},{"internalType":"uint256","name":"","type":"uint256"}],"name":"BorrowerData","outputs":[{"internalType":"address","name":"Creditors","type":"address"},{"internalType":"address","name":"Token","type":"address"},{"internalType":"uint256","name":"FixedRate","type":"uint256"},{"internalType":"uint256","name":"CreditLine","type":"uint256"},{"internalType":"uint256","name":"Amount","type":"uint256"},{"internalType":"string","name":"Alias","type":"string"},{"internalType":"bool","name":"isCancel","type":"bool"}],"stateMutability":"view","type":"function"},{"inputs":[{"internalType":"address","name":"","type":"address"},{"internalType":"address","name":"","type":"address"}],"name":"BorrowerIsBool","outputs":[{"internalType":"bool","name":"","type":"bool"}],"stateMutability":"view","type":"function"},{"inputs":[{"internalType":"address","name":"","type":"address"},{"internalType":"uint256","name":"","type":"uint256"}],"name":"BorrowerNumber","outputs":[{"internalType":"address","name":"","type":"address"}],"stateMutability":"view","type":"function"},{"inputs":[{"internalType":"address","name":"_borrowerAddress","type":"address"}],"name":"GetBorrowerAddress","outputs":[{"internalType":"address[]","name":"","type":"address[]"}],"stateMutability":"view","type":"function"},{"inputs":[{"internalType":"address","name":"_borrowerAddress","type":"address"}],"name":"GetBorrowerAddressLengeth","outputs":[{"internalType":"uint256","name":"","type":"uint256"}],"stateMutability":"view","type":"function"},{"inputs":[{"internalType":"address","name":"_borrowerAddress","type":"address"},{"internalType":"address","name":"_creditors","type":"address"}],"name":"GetBorrowerData","outputs":[{"components":[{"internalType":"address","name":"Creditors","type":"address"},{"internalType":"address","name":"Token","type":"address"},{"internalType":"uint256","name":"FixedRate","type":"uint256"},{"internalType":"uint256","name":"CreditLine","type":"uint256"},{"internalType":"uint256","name":"Amount","type":"uint256"},{"internalType":"string","name":"Alias","type":"string"},{"internalType":"bool","name":"isCancel","type":"bool"}],"internalType":"struct BuddyDao.Borrower[]","name":"","type":"tuple[]"}],"stateMutability":"view","type":"function"},{"inputs":[{"internalType":"address","name":"_borrowerAddress","type":"address"},{"internalType":"address","name":"_creditors","type":"address"},{"internalType":"uint256","name":"_index","type":"uint256"}],"name":"GetBorrowerIndexData","outputs":[{"components":[{"internalType":"address","name":"Creditors","type":"address"},{"internalType":"address","name":"Token","type":"address"},{"internalType":"uint256","name":"FixedRate","type":"uint256"},{"internalType":"uint256","name":"CreditLine","type":"uint256"},{"internalType":"uint256","name":"Amount","type":"uint256"},{"internalType":"string","name":"Alias","type":"string"},{"internalType":"bool","name":"isCancel","type":"bool"}],"internalType":"struct BuddyDao.Borrower","name":"","type":"tuple"}],"stateMutability":"view","type":"function"},{"inputs":[{"internalType":"address","name":"_lenderAddress","type":"address"}],"name":"GetLenderAddress","outputs":[{"internalType":"address[]","name":"","type":"address[]"}],"stateMutability":"view","type":"function"},{"inputs":[{"internalType":"address","name":"_lenderAddress","type":"address"}],"name":"GetLenderAddressLengeth","outputs":[{"internalType":"uint256","name":"","type":"uint256"}],"stateMutability":"view","type":"function"},{"inputs":[{"internalType":"address","name":"_lenderAddress","type":"address"},{"internalType":"address","name":"_approveAddress","type":"address"}],"name":"GetLenderData","outputs":[{"components":[{"internalType":"address","name":"Address","type":"address"},{"internalType":"address","name":"Token","type":"address"},{"internalType":"uint256","name":"FixedRate","type":"uint256"},{"internalType":"uint256","name":"CreditLine","type":"uint256"},{"internalType":"uint256","name":"Amount","type":"uint256"},{"internalType":"string","name":"Alias","type":"string"},{"internalType":"bool","name":"isCancel","type":"bool"}],"internalType":"struct BuddyDao.Lender[]","name":"","type":"tuple[]"}],"stateMutability":"view","type":"function"},{"inputs":[{"internalType":"address","name":"_lenderAddress","type":"address"},{"internalType":"address","name":"_approveAddress","type":"address"},{"internalType":"uint256","name":"_index","type":"uint256"}],"name":"GetLenderIndexData","outputs":[{"components":[{"internalType":"address","name":"Address","type":"address"},{"internalType":"address","name":"Token","type":"address"},{"internalType":"uint256","name":"FixedRate","type":"uint256"},{"internalType":"uint256","name":"CreditLine","type":"uint256"},{"internalType":"uint256","name":"Amount","type":"uint256"},{"internalType":"string","name":"Alias","type":"string"},{"internalType":"bool","name":"isCancel","type":"bool"}],"internalType":"struct BuddyDao.Lender","name":"","type":"tuple"}],"stateMutability":"view","type":"function"},{"inputs":[{"internalType":"address","name":"","type":"address"},{"internalType":"address","name":"","type":"address"},{"internalType":"uint256","name":"","type":"uint256"}],"name":"LenderData","outputs":[{"internalType":"address","name":"Address","type":"address"},{"internalType":"address","name":"Token","type":"address"},{"internalType":"uint256","name":"FixedRate","type":"uint256"},{"internalType":"uint256","name":"CreditLine","type":"uint256"},{"internalType":"uint256","name":"Amount","type":"uint256"},{"internalType":"string","name":"Alias","type":"string"},{"internalType":"bool","name":"isCancel","type":"bool"}],"stateMutability":"view","type":"function"},{"inputs":[{"internalType":"address","name":"","type":"address"},{"internalType":"address","name":"","type":"address"}],"name":"LenderIsBool","outputs":[{"internalType":"bool","name":"","type":"bool"}],"stateMutability":"view","type":"function"},{"inputs":[{"internalType":"address","name":"","type":"address"},{"internalType":"uint256","name":"","type":"uint256"}],"name":"LenderNumber","outputs":[{"internalType":"address","name":"","type":"address"}],"stateMutability":"view","type":"function"},{"inputs":[],"name":"MaxFixedRate","outputs":[{"internalType":"uint256","name":"","type":"uint256"}],"stateMutability":"view","type":"function"},{"inputs":[{"internalType":"address","name":"_approveAddress","type":"address"},{"internalType":"string","name":"_alias","type":"string"},{"internalType":"address","name":"_token","type":"address"},{"internalType":"uint256","name":"_fixedRate","type":"uint256"},{"internalType":"uint256","name":"_amount","type":"uint256"}],"name":"NewTrust","outputs":[],"stateMutability":"nonpayable","type":"function"},{"inputs":[{"internalType":"address","name":"_lendAddress","type":"address"},{"internalType":"uint256","name":"_index","type":"uint256"},{"internalType":"uint256","name":"_payAmount","type":"uint256"}],"name":"Pay","outputs":[],"stateMutability":"nonpayable","type":"function"},{"inputs":[{"internalType":"address","name":"_approveAddress","type":"address"},{"internalType":"uint256","name":"_index","type":"uint256"},{"internalType":"uint256","name":"_cancelAmount","type":"uint256"}],"name":"RemoveTrust","outputs":[],"stateMutability":"nonpayable","type":"function"},{"inputs":[],"name":"ServiceFee","outputs":[{"internalType":"uint256","name":"","type":"uint256"}],"stateMutability":"view","type":"function"},{"inputs":[],"name":"ServiceFeeAddress","outputs":[{"internalType":"address","name":"","type":"address"}],"stateMutability":"view","type":"function"},{"inputs":[],"name":"StartTimeInterval","outputs":[{"internalType":"uint256","name":"","type":"uint256"}],"stateMutability":"view","type":"function"},{"inputs":[],"name":"TimeInterval","outputs":[{"internalType":"uint256","name":"","type":"uint256"}],"stateMutability":"view","type":"function"},{"inputs":[{"internalType":"address","name":"","type":"address"},{"internalType":"address","name":"","type":"address"},{"internalType":"uint256","name":"","type":"uint256"}],"name":"TotalBorrowerBool","outputs":[{"internalType":"bool","name":"","type":"bool"}],"stateMutability":"view","type":"function"},{"inputs":[{"internalType":"address","name":"","type":"address"},{"internalType":"address","name":"","type":"address"},{"internalType":"uint256","name":"","type":"uint256"}],"name":"TotalBorrowerIndexArrary","outputs":[{"internalType":"uint256","name":"","type":"uint256"}],"stateMutability":"view","type":"function"},{"inputs":[{"internalType":"address","name":"_lendAddress","type":"address"},{"internalType":"uint256","name":"_index","type":"uint256"},{"internalType":"uint256","name":"_borrowerAmount","type":"uint256"}],"name":"Withdrawal","outputs":[],"stateMutability":"nonpayable","type":"function"},{"inputs":[],"name":"baseYearOrMonth","outputs":[{"internalType":"uint256","name":"","type":"uint256"}],"stateMutability":"view","type":"function"},{"inputs":[{"internalType":"uint256","name":"_balance","type":"uint256"},{"internalType":"uint256","name":"_allowBalance","type":"uint256"},{"internalType":"uint256","name":"_dailyRate","type":"uint256"}],"name":"calculatingActualInterest","outputs":[{"internalType":"uint256","name":"","type":"uint256"}],"stateMutability":"pure","type":"function"},{"inputs":[{"internalType":"address","name":"_lendAddress","type":"address"},{"internalType":"address","name":"_borrower","type":"address"},{"internalType":"uint256","name":"_index","type":"uint256"},{"internalType":"uint256","name":"_payAmount","type":"uint256"}],"name":"calculatingInterest","outputs":[{"internalType":"uint256","name":"","type":"uint256"}],"stateMutability":"view","type":"function"},{"inputs":[{"internalType":"bytes","name":"","type":"bytes"}],"name":"checkUpkeep","outputs":[{"internalType":"bool","name":"upkeepNeeded","type":"bool"},{"internalType":"bytes","name":"","type":"bytes"}],"stateMutability":"view","type":"function"},{"inputs":[{"internalType":"uint256","name":"amount","type":"uint256"}],"name":"getTokenPrice","outputs":[{"internalType":"uint256","name":"","type":"uint256"}],"stateMutability":"view","type":"function"},{"inputs":[{"internalType":"address","name":"","type":"address"}],"name":"isTotalBorrower","outputs":[{"internalType":"bool","name":"","type":"bool"}],"stateMutability":"view","type":"function"},{"inputs":[],"name":"owner","outputs":[{"internalType":"address","name":"","type":"address"}],"stateMutability":"view","type":"function"},{"inputs":[],"name":"paused","outputs":[{"internalType":"bool","name":"","type":"bool"}],"stateMutability":"view","type":"function"},{"inputs":[{"internalType":"bytes","name":"","type":"bytes"}],"name":"performUpkeep","outputs":[],"stateMutability":"nonpayable","type":"function"},{"inputs":[],"name":"renounceOwnership","outputs":[],"stateMutability":"nonpayable","type":"function"},{"inputs":[{"internalType":"uint256","name":"_newBaseUnit","type":"uint256"}],"name":"setBaseUnit","outputs":[],"stateMutability":"nonpayable","type":"function"},{"inputs":[{"internalType":"uint256","name":"_maxFixedRate","type":"uint256"}],"name":"setMaxFixedRate","outputs":[],"stateMutability":"nonpayable","type":"function"},{"inputs":[{"internalType":"uint256","name":"_serviceFee","type":"uint256"}],"name":"setServiceFee","outputs":[],"stateMutability":"nonpayable","type":"function"},{"inputs":[{"internalType":"address","name":"_newAddress","type":"address"}],"name":"setServiceFeeAddress","outputs":[],"stateMutability":"nonpayable","type":"function"},{"inputs":[{"internalType":"uint256","name":"_newTimeInterval","type":"uint256"}],"name":"setTimeInterval","outputs":[],"stateMutability":"nonpayable","type":"function"},{"inputs":[{"internalType":"uint256","name":"","type":"uint256"}],"name":"totalBorrower","outputs":[{"internalType":"address","name":"","type":"address"}],"stateMutability":"view","type":"function"},{"inputs":[{"internalType":"address","name":"newOwner","type":"address"}],"name":"transferOwnership","outputs":[],"stateMutability":"nonpayable","type":"function"}],"evm":{"bytecode":{"linkReferences":{},"object":"6080604052670de0b6b3a76400006006556301e133806007553480156200002557600080fd5b5060405162004a4938038062004a498339810160408190526200004891620001aa565b62000053336200015a565b6000805460ff60a01b1916815560018055839003620000c55760405162461bcd60e51b8152602060048201526024808201527f73657276696365466565206d757374206265206120706f736974697665206e7560448201526336b132b960e11b60648201526084015b60405180910390fd5b600654831115620001295760405162461bcd60e51b815260206004820152602760248201527f43616e6e6f742065786365656420746865206d6178696d756d20696e746572656044820152667374207261746560c81b6064820152608401620000bc565b600580546001600160a01b0319166001600160a01b03939093169290921790915560065560045542600355620001f2565b600080546001600160a01b038381166001600160a01b0319831681178455604051919092169283917f8be0079c531659141344cd1fd0a4f28419497f9722a3daafe3b4186f6b6457e09190a35050565b600080600060608486031215620001c057600080fd5b835160208501519093506001600160a01b0381168114620001e057600080fd5b80925050604084015190509250925092565b61484780620002026000396000f3fe608060405234801561001057600080fd5b50600436106102745760003560e01c80638a173f7411610151578063b71cdec7116100c3578063e37f571511610087578063e37f571514610637578063e3f10b4d14610657578063e946ca731461066a578063f2fde38b1461067d578063f3cc15be14610690578063fb3e80021461069957600080fd5b8063b71cdec7146105bd578063becdd077146105eb578063c457fb37146105fe578063d0a0a45814610611578063df273cb61461062457600080fd5b8063a992262411610115578063a992262414610569578063aadb5b371461057c578063adbdbe9314610585578063afe8ec6c1461058e578063b20e01ef14610597578063b51fbb98146105aa57600080fd5b80638a173f74146104c55780638da5cb5b146104f95780639d6283a21461050a578063a4ec4c441461051d578063a56acda51461054657600080fd5b806356a692c2116101ea5780636bac4f23116101ae5780636bac4f23146104325780636e04ff0d14610452578063715018a61461047357806376e988ec1461047b57806388f0df1f1461048e578063896485d11461049757600080fd5b806356a692c2146103ad57806357d02498146103c05780635c975abb146103d35780635cdf76f8146103f157806360dd53dd1461040457600080fd5b80632fdb5c391161023c5780632fdb5c391461031857806332c8827c146103415780633d38134a146103545780633da1d716146103745780634585e33b146103875780635403f6581461039a57600080fd5b80631d6abdef1461027957806321f5f91f146102a957806325423a1b146102ca57806325e0c61b146102df5780632a90ed5b146102f2575b600080fd5b61028c610287366004613d46565b6106b9565b6040516001600160a01b0390911681526020015b60405180910390f35b6102bc6102b7366004613d72565b6106f1565b6040519081526020016102a0565b6102dd6102d8366004613d9e565b61072e565b005b6102dd6102ed366004613db7565b6107d6565b610305610300366004613dec565b610c8f565b6040516102a09796959493929190613e7d565b6102bc610326366004613ed0565b6001600160a01b031660009081526010602052604090205490565b6102dd61034f366004613db7565b610d93565b610367610362366004613eed565b6112b2565b6040516102a09190613f8f565b6102dd610382366004613ed0565b61141a565b6102dd610395366004613ff1565b6114f1565b6102bc6103a8366004614063565b611bcb565b61028c6103bb366004613d46565b611d0e565b6103056103ce366004613dec565b611d2a565b600054600160a01b900460ff165b60405190151581526020016102a0565b6102dd6103ff366004613d9e565b611d52565b6103e1610412366004613eed565b600a60209081526000928352604080842090915290825290205460ff1681565b610445610440366004613dec565b611e59565b6040516102a091906140a9565b610465610460366004613ff1565b611fce565b6040516102a09291906140bc565b6102dd612000565b6102dd6104893660046140ed565b612014565b6102bc60035481565b6103e16104a5366004613eed565b601360209081526000928352604080842090915290825290205460ff1681565b6103e16104d3366004613dec565b600c60209081526000938452604080852082529284528284209052825290205460ff1681565b6000546001600160a01b031661028c565b610445610518366004613dec565b61270a565b6102bc61052b366004613ed0565b6001600160a01b031660009081526011602052604090205490565b6103e1610554366004613ed0565b60096020526000908152604090205460ff1681565b61028c610577366004613d46565b612775565b6102bc60045481565b6102bc60065481565b6102bc60025481565b6102dd6105a5366004613d9e565b612791565b6102dd6105b8366004613d9e565b6127da565b6103e16105cb366004613eed565b601260209081526000928352604080842090915290825290205460ff1681565b6102bc6105f9366004613dec565b612873565b6102bc61060c366004613d9e565b6128b1565b61028c61061f366004613d9e565b612abf565b6102dd610632366004613db7565b612ae9565b61064a610645366004613ed0565b6135b1565b6040516102a091906141d3565b61064a610665366004613ed0565b613627565b60055461028c906001600160a01b031681565b6102dd61068b366004613ed0565b61369b565b6102bc60075481565b6106ac6106a7366004613eed565b613714565b6040516102a09190614220565b601060205281600052604060002081815481106106d557600080fd5b6000918252602090912001546001600160a01b03169150829050565b60008082851015610712578385101561070b575083610724565b5082610724565b83831015610721575081610724565b50825b90505b9392505050565b61073661386d565b600081116107955760405162461bcd60e51b815260206004820152602160248201527f4e65772054696d6520496e74657276616c206d757374206265206772656174206044820152600360fc1b60648201526084015b60405180910390fd5b60025460408051918252602082018390527f8efd7a06dec059364c6a6d160e9ba026bb1d2a1c7befdd940db032506238a60c910160405180910390a1600255565b6107de6138c7565b6107e6613920565b6001600160a01b0383166108485760405162461bcd60e51b8152602060048201526024808201527f617070726f766541646472657373206973206e6f742061207a65726f206164646044820152637265737360e01b606482015260840161078c565b806000036108b15760405162461bcd60e51b815260206004820152603060248201527f546865206e756d626572206f662063616e63656c6c6174696f6e732063616e6e60448201526f06f7420626520657175616c20746f20360841b606482015260840161078c565b336001600160a01b038416036109095760405162461bcd60e51b815260206004820181905260248201527f617070726f766541646472657373206973206e6f74206d73672e73656e646572604482015260640161078c565b3360009081526012602090815260408083206001600160a01b038716845290915290205460ff166109885760405162461bcd60e51b8152602060048201526024808201527f6c656e646572206973206e6f7420617070726f766520617070726f76654164646044820152637265737360e01b606482015260840161078c565b336000908152600e602090815260408083206001600160a01b0387168452909152902080546109b860018261428b565b8411156109d75760405162461bcd60e51b815260040161078c9061429e565b336000908152600e602090815260408083206001600160a01b03891684529091528120805486908110610a0c57610a0c6142c5565b600091825260208083206001600160a01b038a168452600f825260408085203386529092529220805460079092029092019250610a4a60018261428b565b871115610a925760405162461bcd60e51b81526020600482015260166024820152753137b93937bbb2b91034b73232bc1027bb32b9393ab760511b604482015260640161078c565b6001600160a01b0388166000908152600f602090815260408083203384529091528120805489908110610ac757610ac76142c5565b600091825260209091206006860154600790920201915060ff1615610afe5760405162461bcd60e51b815260040161078c906142db565b80600401548460030154610b12919061428b565b871115610b9f5760405162461bcd60e51b815260206004820152604f60248201527f546865206e756d626572206f662063616e63656c6c6174696f6e732063616e6e60448201527f6f742062652067726561746572207468616e20746865206e756d626572206f6660648201526e20617574686f72697a6174696f6e7360881b608482015260a40161078c565b83600301548703610c03576006808501805460ff1980821660ff9283161517909255918301805491821691909216151790556003840154610be190889061428b565b8460030181905550868160030154610bf9919061428b565b6003820155610c31565b868460030154610c13919061428b565b8460030181905550868160030154610c2b919061428b565b60038201555b604080516001600160a01b038b168152602081018a90529081018890527f62a0e7e6165d97cf606eafbe25e28dd5e6e8033bb30b807959547c4e9ac907a89060600160405180910390a1505050505050610c8a60018055565b505050565b600f6020528260005260406000206020528160005260406000208181548110610cb757600080fd5b60009182526020909120600790910201805460018201546002830154600384015460048501546005860180546001600160a01b039687169a509490951697509195509390929091610d0790614329565b80601f0160208091040260200160405190810160405280929190818152602001828054610d3390614329565b8015610d805780601f10610d5557610100808354040283529160200191610d80565b820191906000526020600020905b815481529060010190602001808311610d6357829003601f168201915b5050506006909301549192505060ff1687565b610d9b6138c7565b610da3613920565b6001600160a01b038316610dc95760405162461bcd60e51b815260040161078c90614363565b336001600160a01b03841603610e215760405162461bcd60e51b815260206004820152601d60248201527f6c656e6441646472657373206973206e6f74206d73672e73656e646572000000604482015260640161078c565b80600003610e415760405162461bcd60e51b815260040161078c906143a5565b3360009081526013602090815260408083206001600160a01b038716845290915290205460ff16610eb45760405162461bcd60e51b815260206004820181905260248201527f6c656e646572206973206e6f7420617070726f7665206d73672e73656e646572604482015260640161078c565b336000908152600f602090815260408083206001600160a01b038716845290915290208054610ee460018261428b565b841115610f035760405162461bcd60e51b815260040161078c9061429e565b336000908152600f602090815260408083206001600160a01b03891684529091528120805486908110610f3857610f386142c5565b906000526020600020906007020190508060040154841115610fd55760405162461bcd60e51b815260206004820152604a60248201527f5468652072657475726e6564207175616e74697479206d757374206265206c6560448201527f7373207468616e206f7220657175616c20746f2074686520626f72726f7765646064820152691038bab0b73a34ba3c9760b11b608482015260a40161078c565b6001810154604051636eb1769f60e11b81523360048201523060248201526000916001600160a01b03169063dd62ed3e90604401602060405180830381865afa158015611026573d6000803e3d6000fd5b505050506040513d601f19601f8201168201806040525081019061104a91906143f6565b90508085111561109c5760405162461bcd60e51b815260206004820152601a60248201527f626f72726f776572206c61636b206f6620616c6c6f77616e6365000000000000604482015260640161078c565b60018201546040516370a0823160e01b81523360048201526000916001600160a01b0316906370a0823190602401602060405180830381865afa1580156110e7573d6000803e3d6000fd5b505050506040513d601f19601f8201168201806040525081019061110b91906143f6565b9050858110156111545760405162461bcd60e51b8152602060048201526014602482015273496e73756666696369656e742062616c616e636560601b604482015260640161078c565b60018301548354600091611177916001600160a01b03918216913391168a61396d565b90508681146111985760405162461bcd60e51b815260040161078c9061440f565b8684600401546111a8919061428b565b60048501556001600160a01b0389166000908152600e60209081526040808320338452909152902080546111dd60018261428b565b8a11156111fc5760405162461bcd60e51b815260040161078c9061429e565b6001600160a01b038b166000908152600e60209081526040808320338452909152812080548c908110611231576112316142c5565b90600052602060002090600702019050898160040154611251919061428b565b6004820155604080516001600160a01b038e168152602081018d90529081018b90527f9643c1b5b172b26d5f028be7fe646349bd5e3cd9367bb18f9e825afa828b7d939060600160405180910390a1505050505050505050610c8a60018055565b6001600160a01b038083166000908152600e602090815260408083209385168352928152828220805484518184028101840190955280855260609492849084015b8282101561140b5760008481526020908190206040805160e0810182526007860290920180546001600160a01b03908116845260018201541693830193909352600283015490820152600382015460608201526004820154608082015260058201805491929160a08401919061136890614329565b80601f016020809104026020016040519081016040528092919081815260200182805461139490614329565b80156113e15780601f106113b6576101008083540402835291602001916113e1565b820191906000526020600020905b8154815290600101906020018083116113c457829003601f168201915b50505091835250506006919091015460ff16151560209182015290825260019290920191016112f3565b50929450505050505b92915050565b61142261386d565b6001600160a01b0381166114885760405162461bcd60e51b815260206004820152602760248201527f7365727669636546656541646472657373206973206e6f742061207a65726f206044820152666164647265737360c81b606482015260840161078c565b600554604080516001600160a01b03928316815291831660208301527f1ae120263ff20a7e40d52789037da1608a0f939f1d05ddf25de34fce9f62d4e0910160405180910390a1600580546001600160a01b0319166001600160a01b0392909216919091179055565b6114f9613920565b6002546003546115099190614465565b421115611bc75760085415611bc25760005b600854811015611bc0576000600b60006008848154811061153e5761153e6142c5565b60009182526020808320909101546001600160a01b031683528281019390935260409182019020805482518185028101850190935280835291929091908301828280156115b457602002820191906000526020600020905b81546001600160a01b03168152600190910190602001808311611596575b5050505050905060005b8151811015611bab576000600f6000600886815481106115e0576115e06142c5565b60009182526020808320909101546001600160a01b031683528201929092526040018120845190919085908590811061161b5761161b6142c5565b60200260200101516001600160a01b03166001600160a01b03168152602001908152602001600020805480602002602001604051908101604052809291908181526020016000905b8282101561177b5760008481526020908190206040805160e0810182526007860290920180546001600160a01b03908116845260018201541693830193909352600283015490820152600382015460608201526004820154608082015260058201805491929160a0840191906116d890614329565b80601f016020809104026020016040519081016040528092919081815260200182805461170490614329565b80156117515780601f1061172657610100808354040283529160200191611751565b820191906000526020600020905b81548152906001019060200180831161173457829003601f168201915b50505091835250506006919091015460ff1615156020918201529082526001929092019101611663565b50505050905080516000036117905750611b99565b6000600d6000600887815481106117a9576117a96142c5565b60009182526020808320909101546001600160a01b03168352820192909252604001812085519091908690869081106117e4576117e46142c5565b60200260200101516001600160a01b03166001600160a01b0316815260200190815260200160002080548060200260200160405190810160405280929190818152602001828054801561185657602002820191906000526020600020905b815481526020019060010190808311611842575b5050505050905060005b8151811015611b955760005b8351811015611b8257838181518110611887576118876142c5565b602002602001015160c00151611b705760008482815181106118ab576118ab6142c5565b6020026020010151608001511115611b705760006119318787815181106118d4576118d46142c5565b602002602001015160088a815481106118ef576118ef6142c5565b9060005260206000200160009054906101000a90046001600160a01b031684888681518110611920576119206142c5565b602002602001015160800151611bcb565b90506000858381518110611947576119476142c5565b6020026020010151602001516001600160a01b03166370a0823160088b81548110611974576119746142c5565b60009182526020909120015460405160e083901b6001600160e01b03191681526001600160a01b039091166004820152602401602060405180830381865afa1580156119c4573d6000803e3d6000fd5b505050506040513d601f19601f820116820180604052508101906119e891906143f6565b9050806000036119f9575050611b70565b6000868481518110611a0d57611a0d6142c5565b6020026020010151602001516001600160a01b031663dd62ed3e60088c81548110611a3a57611a3a6142c5565b60009182526020909120015460405160e083901b6001600160e01b03191681526001600160a01b039091166004820152306024820152604401602060405180830381865afa158015611a90573d6000803e3d6000fd5b505050506040513d601f19601f82011682018060405250810190611ab491906143f6565b905080600003611ac657505050611b70565b6000611ad38383866106f1565b90506000611b49898781518110611aec57611aec6142c5565b60200260200101516020015160088e81548110611b0b57611b0b6142c5565b9060005260206000200160009054906101000a90046001600160a01b03168d8d81518110611b3b57611b3b6142c5565b60200260200101518561396d565b9050818114611b6a5760405162461bcd60e51b815260040161078c9061440f565b50505050505b80611b7a81614478565b91505061186c565b5080611b8d81614478565b915050611860565b5050505b80611ba381614478565b9150506115be565b50508080611bb890614478565b91505061151b565b505b426003555b5050565b60006001600160a01b038516611bf35760405162461bcd60e51b815260040161078c90614363565b81600003611c135760405162461bcd60e51b815260040161078c906143a5565b6001600160a01b038085166000908152600f602090815260408083209389168352929052208054611c4560018261428b565b851115611c645760405162461bcd60e51b815260040161078c9061429e565b6001600160a01b038087166000908152600f60209081526040808320938b168352929052908120805487908110611c9d57611c9d6142c5565b906000526020600020906007020190506000611ce6670de0b6b3a7640000611ce0600754611ce0670de0b6b3a764000087600201546139ab90919063ffffffff16565b90613a2d565b90506000611d00670de0b6b3a7640000611ce089856139ab565b9a9950505050505050505050565b600b60205281600052604060002081815481106106d557600080fd5b600e6020528260005260406000206020528160005260406000208181548110610cb757600080fd5b611d5a61386d565b80600003611db65760405162461bcd60e51b8152602060048201526024808201527f73657276696365466565206d757374206265206120706f736974697665206e7560448201526336b132b960e11b606482015260840161078c565b600654811115611e185760405162461bcd60e51b815260206004820152602760248201527f43616e6e6f742065786365656420746865206d6178696d756d20696e746572656044820152667374207261746560c81b606482015260840161078c565b60045460408051918252602082018390527fb4c698dddf4b6b8fbb270a4c12172c4b2906a081e3c98d45790367411f09fd1a910160405180910390a1600455565b6040805160e0810182526000808252602080830182905282840182905260608084018390526080840183905260a084015260c083018290526001600160a01b038781168352600f825284832090871683529052918220805491929184908110611ec457611ec46142c5565b60009182526020918290206040805160e081018252600790930290910180546001600160a01b03908116845260018201541693830193909352600283015490820152600382015460608201526004820154608082015260058201805491929160a084019190611f3290614329565b80601f0160208091040260200160405190810160405280929190818152602001828054611f5e90614329565b8015611fab5780601f10611f8057610100808354040283529160200191611fab565b820191906000526020600020905b815481529060010190602001808311611f8e57829003601f168201915b50505091835250506006919091015460ff16151560209091015295945050505050565b60006060611fda613920565b600254600354611fea9190614465565b421115611ff957600854151591505b9250929050565b61200861386d565b6120126000613a6f565b565b61201c6138c7565b612024613920565b6001600160a01b0385166120885760405162461bcd60e51b815260206004820152602560248201527f5f617070726f766541646472657373206973206e6f742061207a65726f206164604482015264647265737360d81b606482015260840161078c565b6001600160a01b0383166120de5760405162461bcd60e51b815260206004820152601c60248201527f5f746f6b656e206973206e6f742061207a65726f206164647265737300000000604482015260640161078c565b60065482111561213f5760405162461bcd60e51b815260206004820152602660248201527f4d757374206265206c657373207468616e20746865206d6178696d756d20696e6044820152651d195c995cdd60d21b606482015260840161078c565b336001600160a01b038616036121a15760405162461bcd60e51b815260206004820152602160248201527f617070726f76652061646472657373206973206e6f74206d73672e73656e64656044820152603960f91b606482015260840161078c565b604051636eb1769f60e11b81523360048201523060248201526000906001600160a01b0385169063dd62ed3e90604401602060405180830381865afa1580156121ee573d6000803e3d6000fd5b505050506040513d601f19601f8201168201806040525081019061221291906143f6565b90508082111561225d5760405162461bcd60e51b81526020600482015260166024820152754c656e64206c61636b206f6620616c6c6f77616e636560501b604482015260640161078c565b6040516370a0823160e01b81523360048201526000906001600160a01b038616906370a0823190602401602060405180830381865afa1580156122a4573d6000803e3d6000fd5b505050506040513d601f19601f820116820180604052508101906122c891906143f6565b9050808311156123405760405162461bcd60e51b815260206004820152603860248201527f54686520617574686f72697a6564207175616e74697479206d7573742062652060448201527f67726561746572207468616e207468652062616c616e63650000000000000000606482015260840161078c565b3360009081526012602090815260408083206001600160a01b038b16845290915290205460ff16806123ca573360008181526012602090815260408083206001600160a01b038d16808552908352818420805460ff19811660ff90911615179055938352601082528220805460018101825590835291200180546001600160a01b03191690911790555b6001600160a01b038816600090815260136020908152604080832033845290915290205460ff1680612454576001600160a01b038916600081815260136020908152604080832033808552908352818420805460ff19811660ff90911615179055938352601182528220805460018101825590835291200180546001600160a01b03191690911790555b6000600e6000336001600160a01b03166001600160a01b0316815260200190815260200160002060008b6001600160a01b03166001600160a01b031681526020019081526020016000209050806040518060e001604052808c6001600160a01b031681526020018a6001600160a01b03168152602001898152602001888152602001600081526020018b815260200160001515815250908060018154018082558091505060019003906000526020600020906007020160009091909190915060008201518160000160006101000a8154816001600160a01b0302191690836001600160a01b0316021790555060208201518160010160006101000a8154816001600160a01b0302191690836001600160a01b0316021790555060408201518160020155606082015181600301556080820151816004015560a08201518160050190816125a091906144df565b5060c091820151600691909101805460ff19169115159190911790556001600160a01b038b81166000908152600f6020908152604080832033808552908352818420825160e0810184529182528e86168285019081528284018f8152606084018f815260808501888152865180890190975288875260a08601968752998501889052835460018181018655858a5297909820855160079099020180546001600160a01b0319908116998b169990991781559251968301805490981696909816959095179095559251600285015593516003840155935160048301559251600582019061268c90826144df565b5060c08201518160060160006101000a81548160ff021916908315150217905550505086888c6001600160a01b03167f6a1aece8c884572ea74ceb28400eeff08a21cd618456b7fa364df088155bdfa48d8d6040516126ec92919061459f565b60405180910390a450505050505061270360018055565b5050505050565b6040805160e0810182526000808252602080830182905282840182905260608084018390526080840183905260a084015260c083018290526001600160a01b038781168352600e825284832090871683529052918220805491929184908110611ec457611ec46142c5565b601160205281600052604060002081815481106106d557600080fd5b61279961386d565b60065460408051918252602082018390527f071bd95be08719e929a1ff7d683da62cfb71ae69e3be29a6cd567459ab05c796910160405180910390a1600655565b6127e261386d565b600081116128325760405162461bcd60e51b815260206004820152601d60248201527f4e657720626173652075696e74206d7573742062652067726561742030000000604482015260640161078c565b60075460408051918252602082018390527f8fcde9e17e0cf7ff4c61c958ed4f84559ef4641f2e33866c10566d07d0560b05910160405180910390a1600755565b600d602052826000526040600020602052816000526040600020818154811061289b57600080fd5b9060005260206000200160009250925050505481565b6000807357ae7f7700542d33184ae5b8e879074ec77acbb290506000816001600160a01b031663d21220a76040518163ffffffff1660e01b8152600401602060405180830381865afa15801561290b573d6000803e3d6000fd5b505050506040513d601f19601f8201168201806040525081019061292f91906145c9565b9050600080836001600160a01b0316630902f1ac6040518163ffffffff1660e01b8152600401606060405180830381865afa158015612972573d6000803e3d6000fd5b505050506040513d601f19601f8201168201806040525081019061299691906145fd565b506001600160701b031691506001600160701b031691506000836001600160a01b031663313ce5676040518163ffffffff1660e01b8152600401602060405180830381865afa1580156129ed573d6000803e3d6000fd5b505050506040513d601f19601f82011682018060405250810190612a11919061464d565b612a1c90600a614754565b612a269084614763565b9050836001600160a01b031663313ce5676040518163ffffffff1660e01b8152600401602060405180830381865afa158015612a66573d6000803e3d6000fd5b505050506040513d601f19601f82011682018060405250810190612a8a919061464d565b612a9590600a614754565b82612aa0838a614763565b612aaa919061477a565b612ab4919061477a565b979650505050505050565b60088181548110612acf57600080fd5b6000918252602090912001546001600160a01b0316905081565b612af16138c7565b612af9613920565b6001600160a01b038316612b1f5760405162461bcd60e51b815260040161078c90614363565b336001600160a01b03841603612b775760405162461bcd60e51b815260206004820152601d60248201527f6c656e6441646472657373206973206e6f74206d73672e73656e646572000000604482015260640161078c565b80600003612be25760405162461bcd60e51b815260206004820152603260248201527f546865206e756d626572206f6620626f72726f77657220616d6f756e7420636160448201527106e6e6f7420626520657175616c20746f20360741b606482015260840161078c565b3360009081526013602090815260408083206001600160a01b038716845290915290205460ff16612c555760405162461bcd60e51b815260206004820181905260248201527f6c656e646572206973206e6f7420617070726f7665206d73672e73656e646572604482015260640161078c565b336000908152600f602090815260408083206001600160a01b038716845290915290208054612c8560018261428b565b841115612ca45760405162461bcd60e51b815260040161078c9061429e565b336000908152600f602090815260408083206001600160a01b03891684529091528120805486908110612cd957612cd96142c5565b60009182526020909120600790910201600681015490915060ff1615612d115760405162461bcd60e51b815260040161078c906142db565b80600401548160030154612d25919061428b565b841115612daf5760405162461bcd60e51b815260206004820152604c60248201527f546865206e756d626572206f66207769746864726177616c73206d757374206260448201527f65206c657373207468616e206f7220657175616c20746f20746865206566666560648201526b31ba34bb3290373ab6b132b960a11b608482015260a40161078c565b600181015481546040516370a0823160e01b81526001600160a01b03918216600482015260009291909116906370a0823190602401602060405180830381865afa158015612e01573d6000803e3d6000fd5b505050506040513d601f19601f82011682018060405250810190612e2591906143f6565b905080851115612e955760405162461bcd60e51b815260206004820152603560248201527f546865206c656e642062616c616e6365206973206c657373207468616e2074686044820152746520626f72726f7761626c65207175616e7469747960581b606482015260840161078c565b848260040154612ea59190614465565b60048301556001600160a01b0387166000908152600e6020908152604080832033845290915290208054612eda60018261428b565b881115612ef95760405162461bcd60e51b815260040161078c9061429e565b6001600160a01b0389166000908152600e60209081526040808320338452909152812080548a908110612f2e57612f2e6142c5565b90600052602060002090600702019050878160040154612f4e9190614465565b60048201553360009081526009602052604090205460ff166131a25760088054600181019091557ff3f7a9fe364faab93b216da50a3214154f22a0a2b415b23a84c8169e8b636ee30180546001600160a01b031916339081179091556000908152600960209081526040808320805460ff19811660ff9182161517909155600a83528184206001600160a01b038f168552909252909120541661310e57600b6000336001600160a01b03166001600160a01b031681526020019081526020016000208a9080600181540180825580915050600190039060005260206000200160009091909190916101000a8154816001600160a01b0302191690836001600160a01b03160217905550600a6000336001600160a01b03166001600160a01b0316815260200190815260200160002060008b6001600160a01b03166001600160a01b0316815260200190815260200160002060009054906101000a900460ff1615600a6000336001600160a01b03166001600160a01b0316815260200190815260200160002060008c6001600160a01b03166001600160a01b0316815260200190815260200160002060006101000a81548160ff0219169083151502179055505b336000908152600c602090815260408083206001600160a01b038e16845282528083208c845290915290205460ff166131a257336000818152600d602090815260408083206001600160a01b038f168085529083528184208054600181018255908552838520018e9055938352600c82528083209383529281528282208c8352905220805460ff81161560ff199091161790555b600185015485546000916131c4916001600160a01b039182169116338c61396d565b905088811461324c5760405162461bcd60e51b815260206004820152604860248201527f5468652061637475616c206d6f6e6579206c656e74206973206e6f742074686560448201527f2073616d6520617320746865206d6f6e6579206e656564656420746f20626520606482015267189bdc9c9bddd95960c21b608482015260a40161078c565b60018601546001600160a01b031673ed24fc36d5ee211ea25a80239fb8c4cfd80f12ee036134a457600061327f8a6128b1565b905060006ec097ce7bc90715b34b9f1000000000826004548d6132a29190614763565b6132ac9190614763565b6132b6919061477a565b6040516370a0823160e01b81523360048201529091506000907384e13d8aa38a8230db2dae46a6555a5deec532e6906370a0823190602401602060405180830381865afa15801561330b573d6000803e3d6000fd5b505050506040513d601f19601f8201168201806040525081019061332f91906143f6565b90508181106133c9576005546040516323b872dd60e01b81527384e13d8aa38a8230db2dae46a6555a5deec532e6916323b872dd916133809133916001600160a01b0390911690879060040161479c565b6020604051808303816000875af115801561339f573d6000803e3d6000fd5b505050506040513d601f19601f820116820180604052508101906133c391906147c0565b5061346f565b6000670de0b6b3a76400006004548e6133e29190614763565b6133ec919061477a565b60018b01546005546040516323b872dd60e01b81529293506001600160a01b03918216926323b872dd92613429923392911690869060040161479c565b6020604051808303816000875af1158015613448573d6000803e3d6000fd5b505050506040513d601f19601f8201168201806040525081019061346c91906147c0565b50505b670de0b6b3a76400006004548d6134869190614763565b613490919061477a565b61349a908d61428b565b9b50505050613556565b6000670de0b6b3a76400006004548b6134bd9190614763565b6134c7919061477a565b60018801546005546040516323b872dd60e01b81529293506001600160a01b03918216926323b872dd92613504923392911690869060040161479c565b6020604051808303816000875af1158015613523573d6000803e3d6000fd5b505050506040513d601f19601f8201168201806040525081019061354791906147c0565b50613552818b61428b565b9950505b604080516001600160a01b038d168152602081018c90529081018a90527f1d37c96186f00aa949bfd16bca10aaa0e7f79a45edc5c1f62634322ae1c0f0c89060600160405180910390a15050505050505050610c8a60018055565b6001600160a01b03811660009081526010602090815260409182902080548351818402810184019094528084526060939283018282801561361b57602002820191906000526020600020905b81546001600160a01b031681526001909101906020018083116135fd575b50505050509050919050565b6001600160a01b03811660009081526011602090815260409182902080548351818402810184019094528084526060939283018282801561361b576020028201919060005260206000209081546001600160a01b031681526001909101906020018083116135fd5750505050509050919050565b6136a361386d565b6001600160a01b0381166137085760405162461bcd60e51b815260206004820152602660248201527f4f776e61626c653a206e6577206f776e657220697320746865207a65726f206160448201526564647265737360d01b606482015260840161078c565b61371181613a6f565b50565b6001600160a01b038083166000908152600f602090815260408083209385168352928152828220805484518184028101840190955280855260609492849084015b8282101561140b5760008481526020908190206040805160e0810182526007860290920180546001600160a01b03908116845260018201541693830193909352600283015490820152600382015460608201526004820154608082015260058201805491929160a0840191906137ca90614329565b80601f01602080910402602001604051908101604052809291908181526020018280546137f690614329565b80156138435780601f1061381857610100808354040283529160200191613843565b820191906000526020600020905b81548152906001019060200180831161382657829003601f168201915b50505091835250506006919091015460ff1615156020918201529082526001929092019101613755565b6000546001600160a01b031633146120125760405162461bcd60e51b815260206004820181905260248201527f4f776e61626c653a2063616c6c6572206973206e6f7420746865206f776e6572604482015260640161078c565b6002600154036139195760405162461bcd60e51b815260206004820152601f60248201527f5265656e7472616e637947756172643a207265656e7472616e742063616c6c00604482015260640161078c565b6002600155565b600054600160a01b900460ff16156120125760405162461bcd60e51b815260206004820152601060248201526f14185d5cd8589b194e881c185d5cd95960821b604482015260640161078c565b60006001600160a01b038516613985573491506139a3565b81156139a357846139a16001600160a01b038216868686613abf565b505b509392505050565b6000826000036139bd57506000611414565b60006139c98385614763565b9050826139d6858361477a565b146107275760405162461bcd60e51b815260206004820152602160248201527f536166654d6174683a206d756c7469706c69636174696f6e206f766572666c6f6044820152607760f81b606482015260840161078c565b600061072783836040518060400160405280601a81526020017f536166654d6174683a206469766973696f6e206279207a65726f000000000000815250613b1d565b600080546001600160a01b038381166001600160a01b0319831681178455604051919092169283917f8be0079c531659141344cd1fd0a4f28419497f9722a3daafe3b4186f6b6457e09190a35050565b613b17846323b872dd60e01b858585604051602401613ae09392919061479c565b60408051601f198184030181529190526020810180516001600160e01b03166001600160e01b031990931692909217909152613b54565b50505050565b60008183613b3e5760405162461bcd60e51b815260040161078c91906147e2565b506000613b4b848661477a565b95945050505050565b6000613ba9826040518060400160405280602081526020017f5361666545524332303a206c6f772d6c6576656c2063616c6c206661696c6564815250856001600160a01b0316613c269092919063ffffffff16565b805190915015610c8a5780806020019051810190613bc791906147c0565b610c8a5760405162461bcd60e51b815260206004820152602a60248201527f5361666545524332303a204552433230206f7065726174696f6e20646964206e6044820152691bdd081cdd58d8d9595960b21b606482015260840161078c565b6060610724848460008585843b613c7f5760405162461bcd60e51b815260206004820152601d60248201527f416464726573733a2063616c6c20746f206e6f6e2d636f6e7472616374000000604482015260640161078c565b600080866001600160a01b03168587604051613c9b91906147f5565b60006040518083038185875af1925050503d8060008114613cd8576040519150601f19603f3d011682016040523d82523d6000602084013e613cdd565b606091505b5091509150612ab482828660608315613cf7575081610727565b825115613d075782518084602001fd5b8160405162461bcd60e51b815260040161078c91906147e2565b6001600160a01b038116811461371157600080fd5b8035613d4181613d21565b919050565b60008060408385031215613d5957600080fd5b8235613d6481613d21565b946020939093013593505050565b600080600060608486031215613d8757600080fd5b505081359360208301359350604090920135919050565b600060208284031215613db057600080fd5b5035919050565b600080600060608486031215613dcc57600080fd5b8335613dd781613d21565b95602085013595506040909401359392505050565b600080600060608486031215613e0157600080fd5b8335613e0c81613d21565b92506020840135613e1c81613d21565b929592945050506040919091013590565b60005b83811015613e48578181015183820152602001613e30565b50506000910152565b60008151808452613e69816020860160208601613e2d565b601f01601f19169290920160200192915050565b600060018060a01b03808a16835280891660208401525086604083015285606083015284608083015260e060a0830152613eba60e0830185613e51565b905082151560c083015298975050505050505050565b600060208284031215613ee257600080fd5b813561072781613d21565b60008060408385031215613f0057600080fd5b8235613f0b81613d21565b91506020830135613f1b81613d21565b809150509250929050565b600060018060a01b038083511684528060208401511660208501525060408201516040840152606082015160608401526080820151608084015260a082015160e060a0850152613f7960e0850182613e51565b60c0938401511515949093019390935250919050565b6000602080830181845280855180835260408601915060408160051b870101925083870160005b82811015613fe457603f19888603018452613fd2858351613f26565b94509285019290850190600101613fb6565b5092979650505050505050565b6000806020838503121561400457600080fd5b823567ffffffffffffffff8082111561401c57600080fd5b818501915085601f83011261403057600080fd5b81358181111561403f57600080fd5b86602082850101111561405157600080fd5b60209290920196919550909350505050565b6000806000806080858703121561407957600080fd5b843561408481613d21565b9350602085013561409481613d21565b93969395505050506040820135916060013590565b6020815260006107276020830184613f26565b82151581526040602082015260006107246040830184613e51565b634e487b7160e01b600052604160045260246000fd5b600080600080600060a0868803121561410557600080fd5b853561411081613d21565b9450602086013567ffffffffffffffff8082111561412d57600080fd5b818801915088601f83011261414157600080fd5b813581811115614153576141536140d7565b604051601f8201601f19908116603f0116810190838211818310171561417b5761417b6140d7565b816040528281528b602084870101111561419457600080fd5b8260208601602083013760006020848301015280985050505050506141bb60408701613d36565b94979396509394606081013594506080013592915050565b6020808252825182820181905260009190848201906040850190845b818110156142145783516001600160a01b0316835292840192918401916001016141ef565b50909695505050505050565b6000602080830181845280855180835260408601915060408160051b870101925083870160005b82811015613fe457603f19888603018452614263858351613f26565b94509285019290850190600101614247565b634e487b7160e01b600052601160045260246000fd5b8181038181111561141457611414614275565b6020808252600d908201526c24b73232bc1027bb32b9393ab760991b604082015260600190565b634e487b7160e01b600052603260045260246000fd5b6020808252602e908201527f54686520617574686f72697a6174696f6e206964207265636f7264206861732060408201526d1899595b8818d85b98d95b1b195960921b606082015260800190565b600181811c9082168061433d57607f821691505b60208210810361435d57634e487b7160e01b600052602260045260246000fd5b50919050565b60208082526022908201527f5f6c656e6441646472657373206973206e6f742061207a65726f206164647265604082015261737360f01b606082015260800190565b60208082526031908201527f546865206e756d626572206f66207061796d656e7420616d6f756e742063616e60408201527006e6f7420626520657175616c20746f203607c1b606082015260800190565b60006020828403121561440857600080fd5b5051919050565b60208082526036908201527f5468652061637475616c20616d6f756e7420616e6420746865206465647563746040820152750cac840c2dadeeadce840c8de40dcdee840dac2e8c6d60531b606082015260800190565b8082018082111561141457611414614275565b60006001820161448a5761448a614275565b5060010190565b601f821115610c8a57600081815260208120601f850160051c810160208610156144b85750805b601f850160051c820191505b818110156144d7578281556001016144c4565b505050505050565b815167ffffffffffffffff8111156144f9576144f96140d7565b61450d816145078454614329565b84614491565b602080601f831160018114614542576000841561452a5750858301515b600019600386901b1c1916600185901b1785556144d7565b600085815260208120601f198616915b8281101561457157888601518255948401946001909101908401614552565b508582101561458f5787850151600019600388901b60f8161c191681555b5050505050600190811b01905550565b6040815260006145b26040830185613e51565b905060018060a01b03831660208301529392505050565b6000602082840312156145db57600080fd5b815161072781613d21565b80516001600160701b0381168114613d4157600080fd5b60008060006060848603121561461257600080fd5b61461b846145e6565b9250614629602085016145e6565b9150604084015163ffffffff8116811461464257600080fd5b809150509250925092565b60006020828403121561465f57600080fd5b815160ff8116811461072757600080fd5b600181815b808511156146ab57816000190482111561469157614691614275565b8085161561469e57918102915b93841c9390800290614675565b509250929050565b6000826146c257506001611414565b816146cf57506000611414565b81600181146146e557600281146146ef5761470b565b6001915050611414565b60ff84111561470057614700614275565b50506001821b611414565b5060208310610133831016604e8410600b841016171561472e575081810a611414565b6147388383614670565b806000190482111561474c5761474c614275565b029392505050565b600061072760ff8416836146b3565b808202811582820484141761141457611414614275565b60008261479757634e487b7160e01b600052601260045260246000fd5b500490565b6001600160a01b039384168152919092166020820152604081019190915260600190565b6000602082840312156147d257600080fd5b8151801515811461072757600080fd5b6020815260006107276020830184613e51565b60008251614807818460208701613e2d565b919091019291505056fea264697066735822122001f6d2c37c2d951f91d1c22f0f9a3657dd84ea2e0b4eefe42d69ca187f783fde64736f6c63430008120033","opcodes":"PUSH1 0x80 PUSH1 0x40 MSTORE PUSH8 0xDE0B6B3A7640000 PUSH1 0x6 SSTORE PUSH4 0x1E13380 PUSH1 0x7 SSTORE CALLVALUE DUP1 ISZERO PUSH3 0x25 JUMPI PUSH1 0x0 DUP1 REVERT JUMPDEST POP PUSH1 0x40 MLOAD PUSH3 0x4A49 CODESIZE SUB DUP1 PUSH3 0x4A49 DUP4 CODECOPY DUP2 ADD PUSH1 0x40 DUP2 SWAP1 MSTORE PUSH3 0x48 SWAP2 PUSH3 0x1AA JUMP JUMPDEST PUSH3 0x53 CALLER PUSH3 0x15A JUMP JUMPDEST PUSH1 0x0 DUP1 SLOAD PUSH1 0xFF PUSH1 0xA0 SHL NOT AND DUP2 SSTORE PUSH1 0x1 DUP1 SSTORE DUP4 SWAP1 SUB PUSH3 0xC5 JUMPI PUSH1 0x40 MLOAD PUSH3 0x461BCD PUSH1 0xE5 SHL DUP2 MSTORE PUSH1 0x20 PUSH1 0x4 DUP3 ADD MSTORE PUSH1 0x24 DUP1 DUP3 ADD MSTORE PUSH32 0x73657276696365466565206D757374206265206120706F736974697665206E75 PUSH1 0x44 DUP3 ADD MSTORE PUSH4 0x36B132B9 PUSH1 0xE1 SHL PUSH1 0x64 DUP3 ADD MSTORE PUSH1 0x84 ADD JUMPDEST PUSH1 0x40 MLOAD DUP1 SWAP2 SUB SWAP1 REVERT JUMPDEST PUSH1 0x6 SLOAD DUP4 GT ISZERO PUSH3 0x129 JUMPI PUSH1 0x40 MLOAD PUSH3 0x461BCD PUSH1 0xE5 SHL DUP2 MSTORE PUSH1 0x20 PUSH1 0x4 DUP3 ADD MSTORE PUSH1 0x27 PUSH1 0x24 DUP3 ADD MSTORE PUSH32 0x43616E6E6F742065786365656420746865206D6178696D756D20696E74657265 PUSH1 0x44 DUP3 ADD MSTORE PUSH7 0x73742072617465 PUSH1 0xC8 SHL PUSH1 0x64 DUP3 ADD MSTORE PUSH1 0x84 ADD PUSH3 0xBC JUMP JUMPDEST PUSH1 0x5 DUP1 SLOAD PUSH1 0x1 PUSH1 0x1 PUSH1 0xA0 SHL SUB NOT AND PUSH1 0x1 PUSH1 0x1 PUSH1 0xA0 SHL SUB SWAP4 SWAP1 SWAP4 AND SWAP3 SWAP1 SWAP3 OR SWAP1 SWAP2 SSTORE PUSH1 0x6 SSTORE PUSH1 0x4 SSTORE TIMESTAMP PUSH1 0x3 SSTORE PUSH3 0x1F2 JUMP JUMPDEST PUSH1 0x0 DUP1 SLOAD PUSH1 0x1 PUSH1 0x1 PUSH1 0xA0 SHL SUB DUP4 DUP2 AND PUSH1 0x1 PUSH1 0x1 PUSH1 0xA0 SHL SUB NOT DUP4 AND DUP2 OR DUP5 SSTORE PUSH1 0x40 MLOAD SWAP2 SWAP1 SWAP3 AND SWAP3 DUP4 SWAP2 PUSH32 0x8BE0079C531659141344CD1FD0A4F28419497F9722A3DAAFE3B4186F6B6457E0 SWAP2 SWAP1 LOG3 POP POP JUMP JUMPDEST PUSH1 0x0 DUP1 PUSH1 0x0 PUSH1 0x60 DUP5 DUP7 SUB SLT ISZERO PUSH3 0x1C0 JUMPI PUSH1 0x0 DUP1 REVERT JUMPDEST DUP4 MLOAD PUSH1 0x20 DUP6 ADD MLOAD SWAP1 SWAP4 POP PUSH1 0x1 PUSH1 0x1 PUSH1 0xA0 SHL SUB DUP2 AND DUP2 EQ PUSH3 0x1E0 JUMPI PUSH1 0x0 DUP1 REVERT JUMPDEST DUP1 SWAP3 POP POP PUSH1 0x40 DUP5 ADD MLOAD SWAP1 POP SWAP3 POP SWAP3 POP SWAP3 JUMP JUMPDEST PUSH2 0x4847 DUP1 PUSH3 0x202 PUSH1 0x0 CODECOPY PUSH1 0x0 RETURN INVALID PUSH1 0x80 PUSH1 0x40 MSTORE CALLVALUE DUP1 ISZERO PUSH2 0x10 JUMPI PUSH1 0x0 DUP1 REVERT JUMPDEST POP PUSH1 0x4 CALLDATASIZE LT PUSH2 0x274 JUMPI PUSH1 0x0 CALLDATALOAD PUSH1 0xE0 SHR DUP1 PUSH4 0x8A173F74 GT PUSH2 0x151 JUMPI DUP1 PUSH4 0xB71CDEC7 GT PUSH2 0xC3 JUMPI DUP1 PUSH4 0xE37F5715 GT PUSH2 0x87 JUMPI DUP1 PUSH4 0xE37F5715 EQ PUSH2 0x637 JUMPI DUP1 PUSH4 0xE3F10B4D EQ PUSH2 0x657 JUMPI DUP1 PUSH4 0xE946CA73 EQ PUSH2 0x66A JUMPI DUP1 PUSH4 0xF2FDE38B EQ PUSH2 0x67D JUMPI DUP1 PUSH4 0xF3CC15BE EQ PUSH2 0x690 JUMPI DUP1 PUSH4 0xFB3E8002 EQ PUSH2 0x699 JUMPI PUSH1 0x0 DUP1 REVERT JUMPDEST DUP1 PUSH4 0xB71CDEC7 EQ PUSH2 0x5BD JUMPI DUP1 PUSH4 0xBECDD077 EQ PUSH2 0x5EB JUMPI DUP1 PUSH4 0xC457FB37 EQ PUSH2 0x5FE JUMPI DUP1 PUSH4 0xD0A0A458 EQ PUSH2 0x611 JUMPI DUP1 PUSH4 0xDF273CB6 EQ PUSH2 0x624 JUMPI PUSH1 0x0 DUP1 REVERT JUMPDEST DUP1 PUSH4 0xA9922624 GT PUSH2 0x115 JUMPI DUP1 PUSH4 0xA9922624 EQ PUSH2 0x569 JUMPI DUP1 PUSH4 0xAADB5B37 EQ PUSH2 0x57C JUMPI DUP1 PUSH4 0xADBDBE93 EQ PUSH2 0x585 JUMPI DUP1 PUSH4 0xAFE8EC6C EQ PUSH2 0x58E JUMPI DUP1 PUSH4 0xB20E01EF EQ PUSH2 0x597 JUMPI DUP1 PUSH4 0xB51FBB98 EQ PUSH2 0x5AA JUMPI PUSH1 0x0 DUP1 REVERT JUMPDEST DUP1 PUSH4 0x8A173F74 EQ PUSH2 0x4C5 JUMPI DUP1 PUSH4 0x8DA5CB5B EQ PUSH2 0x4F9 JUMPI DUP1 PUSH4 0x9D6283A2 EQ PUSH2 0x50A JUMPI DUP1 PUSH4 0xA4EC4C44 EQ PUSH2 0x51D JUMPI DUP1 PUSH4 0xA56ACDA5 EQ PUSH2 0x546 JUMPI PUSH1 0x0 DUP1 REVERT JUMPDEST DUP1 PUSH4 0x56A692C2 GT PUSH2 0x1EA JUMPI DUP1 PUSH4 0x6BAC4F23 GT PUSH2 0x1AE JUMPI DUP1 PUSH4 0x6BAC4F23 EQ PUSH2 0x432 JUMPI DUP1 PUSH4 0x6E04FF0D EQ PUSH2 0x452 JUMPI DUP1 PUSH4 0x715018A6 EQ PUSH2 0x473 JUMPI DUP1 PUSH4 0x76E988EC EQ PUSH2 0x47B JUMPI DUP1 PUSH4 0x88F0DF1F EQ PUSH2 0x48E JUMPI DUP1 PUSH4 0x896485D1 EQ PUSH2 0x497 JUMPI PUSH1 0x0 DUP1 REVERT JUMPDEST DUP1 PUSH4 0x56A692C2 EQ PUSH2 0x3AD JUMPI DUP1 PUSH4 0x57D02498 EQ PUSH2 0x3C0 JUMPI DUP1 PUSH4 0x5C975ABB EQ PUSH2 0x3D3 JUMPI DUP1 PUSH4 0x5CDF76F8 EQ PUSH2 0x3F1 JUMPI DUP1 PUSH4 0x60DD53DD EQ PUSH2 0x404 JUMPI PUSH1 0x0 DUP1 REVERT JUMPDEST DUP1 PUSH4 0x2FDB5C39 GT PUSH2 0x23C JUMPI DUP1 PUSH4 0x2FDB5C39 EQ PUSH2 0x318 JUMPI DUP1 PUSH4 0x32C8827C EQ PUSH2 0x341 JUMPI DUP1 PUSH4 0x3D38134A EQ PUSH2 0x354 JUMPI DUP1 PUSH4 0x3DA1D716 EQ PUSH2 0x374 JUMPI DUP1 PUSH4 0x4585E33B EQ PUSH2 0x387 JUMPI DUP1 PUSH4 0x5403F658 EQ PUSH2 0x39A JUMPI PUSH1 0x0 DUP1 REVERT JUMPDEST DUP1 PUSH4 0x1D6ABDEF EQ PUSH2 0x279 JUMPI DUP1 PUSH4 0x21F5F91F EQ PUSH2 0x2A9 JUMPI DUP1 PUSH4 0x25423A1B EQ PUSH2 0x2CA JUMPI DUP1 PUSH4 0x25E0C61B EQ PUSH2 0x2DF JUMPI DUP1 PUSH4 0x2A90ED5B EQ PUSH2 0x2F2 JUMPI JUMPDEST PUSH1 0x0 DUP1 REVERT JUMPDEST PUSH2 0x28C PUSH2 0x287 CALLDATASIZE PUSH1 0x4 PUSH2 0x3D46 JUMP JUMPDEST PUSH2 0x6B9 JUMP JUMPDEST PUSH1 0x40 MLOAD PUSH1 0x1 PUSH1 0x1 PUSH1 0xA0 SHL SUB SWAP1 SWAP2 AND DUP2 MSTORE PUSH1 0x20 ADD JUMPDEST PUSH1 0x40 MLOAD DUP1 SWAP2 SUB SWAP1 RETURN JUMPDEST PUSH2 0x2BC PUSH2 0x2B7 CALLDATASIZE PUSH1 0x4 PUSH2 0x3D72 JUMP JUMPDEST PUSH2 0x6F1 JUMP JUMPDEST PUSH1 0x40 MLOAD SWAP1 DUP2 MSTORE PUSH1 0x20 ADD PUSH2 0x2A0 JUMP JUMPDEST PUSH2 0x2DD PUSH2 0x2D8 CALLDATASIZE PUSH1 0x4 PUSH2 0x3D9E JUMP JUMPDEST PUSH2 0x72E JUMP JUMPDEST STOP JUMPDEST PUSH2 0x2DD PUSH2 0x2ED CALLDATASIZE PUSH1 0x4 PUSH2 0x3DB7 JUMP JUMPDEST PUSH2 0x7D6 JUMP JUMPDEST PUSH2 0x305 PUSH2 0x300 CALLDATASIZE PUSH1 0x4 PUSH2 0x3DEC JUMP JUMPDEST PUSH2 0xC8F JUMP JUMPDEST PUSH1 0x40 MLOAD PUSH2 0x2A0 SWAP8 SWAP7 SWAP6 SWAP5 SWAP4 SWAP3 SWAP2 SWAP1 PUSH2 0x3E7D JUMP JUMPDEST PUSH2 0x2BC PUSH2 0x326 CALLDATASIZE PUSH1 0x4 PUSH2 0x3ED0 JUMP JUMPDEST PUSH1 0x1 PUSH1 0x1 PUSH1 0xA0 SHL SUB AND PUSH1 0x0 SWAP1 DUP2 MSTORE PUSH1 0x10 PUSH1 0x20 MSTORE PUSH1 0x40 SWAP1 KECCAK256 SLOAD SWAP1 JUMP JUMPDEST PUSH2 0x2DD PUSH2 0x34F CALLDATASIZE PUSH1 0x4 PUSH2 0x3DB7 JUMP JUMPDEST PUSH2 0xD93 JUMP JUMPDEST PUSH2 0x367 PUSH2 0x362 CALLDATASIZE PUSH1 0x4 PUSH2 0x3EED JUMP JUMPDEST PUSH2 0x12B2 JUMP JUMPDEST PUSH1 0x40 MLOAD PUSH2 0x2A0 SWAP2 SWAP1 PUSH2 0x3F8F JUMP JUMPDEST PUSH2 0x2DD PUSH2 0x382 CALLDATASIZE PUSH1 0x4 PUSH2 0x3ED0 JUMP JUMPDEST PUSH2 0x141A JUMP JUMPDEST PUSH2 0x2DD PUSH2 0x395 CALLDATASIZE PUSH1 0x4 PUSH2 0x3FF1 JUMP JUMPDEST PUSH2 0x14F1 JUMP JUMPDEST PUSH2 0x2BC PUSH2 0x3A8 CALLDATASIZE PUSH1 0x4 PUSH2 0x4063 JUMP JUMPDEST PUSH2 0x1BCB JUMP JUMPDEST PUSH2 0x28C PUSH2 0x3BB CALLDATASIZE PUSH1 0x4 PUSH2 0x3D46 JUMP JUMPDEST PUSH2 0x1D0E JUMP JUMPDEST PUSH2 0x305 PUSH2 0x3CE CALLDATASIZE PUSH1 0x4 PUSH2 0x3DEC JUMP JUMPDEST PUSH2 0x1D2A JUMP JUMPDEST PUSH1 0x0 SLOAD PUSH1 0x1 PUSH1 0xA0 SHL SWAP1 DIV PUSH1 0xFF AND JUMPDEST PUSH1 0x40 MLOAD SWAP1 ISZERO ISZERO DUP2 MSTORE PUSH1 0x20 ADD PUSH2 0x2A0 JUMP JUMPDEST PUSH2 0x2DD PUSH2 0x3FF CALLDATASIZE PUSH1 0x4 PUSH2 0x3D9E JUMP JUMPDEST PUSH2 0x1D52 JUMP JUMPDEST PUSH2 0x3E1 PUSH2 0x412 CALLDATASIZE PUSH1 0x4 PUSH2 0x3EED JUMP JUMPDEST PUSH1 0xA PUSH1 0x20 SWAP1 DUP2 MSTORE PUSH1 0x0 SWAP3 DUP4 MSTORE PUSH1 0x40 DUP1 DUP5 KECCAK256 SWAP1 SWAP2 MSTORE SWAP1 DUP3 MSTORE SWAP1 KECCAK256 SLOAD PUSH1 0xFF AND DUP2 JUMP JUMPDEST PUSH2 0x445 PUSH2 0x440 CALLDATASIZE PUSH1 0x4 PUSH2 0x3DEC JUMP JUMPDEST PUSH2 0x1E59 JUMP JUMPDEST PUSH1 0x40 MLOAD PUSH2 0x2A0 SWAP2 SWAP1 PUSH2 0x40A9 JUMP JUMPDEST PUSH2 0x465 PUSH2 0x460 CALLDATASIZE PUSH1 0x4 PUSH2 0x3FF1 JUMP JUMPDEST PUSH2 0x1FCE JUMP JUMPDEST PUSH1 0x40 MLOAD PUSH2 0x2A0 SWAP3 SWAP2 SWAP1 PUSH2 0x40BC JUMP JUMPDEST PUSH2 0x2DD PUSH2 0x2000 JUMP JUMPDEST PUSH2 0x2DD PUSH2 0x489 CALLDATASIZE PUSH1 0x4 PUSH2 0x40ED JUMP JUMPDEST PUSH2 0x2014 JUMP JUMPDEST PUSH2 0x2BC PUSH1 0x3 SLOAD DUP2 JUMP JUMPDEST PUSH2 0x3E1 PUSH2 0x4A5 CALLDATASIZE PUSH1 0x4 PUSH2 0x3EED JUMP JUMPDEST PUSH1 0x13 PUSH1 0x20 SWAP1 DUP2 MSTORE PUSH1 0x0 SWAP3 DUP4 MSTORE PUSH1 0x40 DUP1 DUP5 KECCAK256 SWAP1 SWAP2 MSTORE SWAP1 DUP3 MSTORE SWAP1 KECCAK256 SLOAD PUSH1 0xFF AND DUP2 JUMP JUMPDEST PUSH2 0x3E1 PUSH2 0x4D3 CALLDATASIZE PUSH1 0x4 PUSH2 0x3DEC JUMP JUMPDEST PUSH1 0xC PUSH1 0x20 SWAP1 DUP2 MSTORE PUSH1 0x0 SWAP4 DUP5 MSTORE PUSH1 0x40 DUP1 DUP6 KECCAK256 DUP3 MSTORE SWAP3 DUP5 MSTORE DUP3 DUP5 KECCAK256 SWAP1 MSTORE DUP3 MSTORE SWAP1 KECCAK256 SLOAD PUSH1 0xFF AND DUP2 JUMP JUMPDEST PUSH1 0x0 SLOAD PUSH1 0x1 PUSH1 0x1 PUSH1 0xA0 SHL SUB AND PUSH2 0x28C JUMP JUMPDEST PUSH2 0x445 PUSH2 0x518 CALLDATASIZE PUSH1 0x4 PUSH2 0x3DEC JUMP JUMPDEST PUSH2 0x270A JUMP JUMPDEST PUSH2 0x2BC PUSH2 0x52B CALLDATASIZE PUSH1 0x4 PUSH2 0x3ED0 JUMP JUMPDEST PUSH1 0x1 PUSH1 0x1 PUSH1 0xA0 SHL SUB AND PUSH1 0x0 SWAP1 DUP2 MSTORE PUSH1 0x11 PUSH1 0x20 MSTORE PUSH1 0x40 SWAP1 KECCAK256 SLOAD SWAP1 JUMP JUMPDEST PUSH2 0x3E1 PUSH2 0x554 CALLDATASIZE PUSH1 0x4 PUSH2 0x3ED0 JUMP JUMPDEST PUSH1 0x9 PUSH1 0x20 MSTORE PUSH1 0x0 SWAP1 DUP2 MSTORE PUSH1 0x40 SWAP1 KECCAK256 SLOAD PUSH1 0xFF AND DUP2 JUMP JUMPDEST PUSH2 0x28C PUSH2 0x577 CALLDATASIZE PUSH1 0x4 PUSH2 0x3D46 JUMP JUMPDEST PUSH2 0x2775 JUMP JUMPDEST PUSH2 0x2BC PUSH1 0x4 SLOAD DUP2 JUMP JUMPDEST PUSH2 0x2BC PUSH1 0x6 SLOAD DUP2 JUMP JUMPDEST PUSH2 0x2BC PUSH1 0x2 SLOAD DUP2 JUMP JUMPDEST PUSH2 0x2DD PUSH2 0x5A5 CALLDATASIZE PUSH1 0x4 PUSH2 0x3D9E JUMP JUMPDEST PUSH2 0x2791 JUMP JUMPDEST PUSH2 0x2DD PUSH2 0x5B8 CALLDATASIZE PUSH1 0x4 PUSH2 0x3D9E JUMP JUMPDEST PUSH2 0x27DA JUMP JUMPDEST PUSH2 0x3E1 PUSH2 0x5CB CALLDATASIZE PUSH1 0x4 PUSH2 0x3EED JUMP JUMPDEST PUSH1 0x12 PUSH1 0x20 SWAP1 DUP2 MSTORE PUSH1 0x0 SWAP3 DUP4 MSTORE PUSH1 0x40 DUP1 DUP5 KECCAK256 SWAP1 SWAP2 MSTORE SWAP1 DUP3 MSTORE SWAP1 KECCAK256 SLOAD PUSH1 0xFF AND DUP2 JUMP JUMPDEST PUSH2 0x2BC PUSH2 0x5F9 CALLDATASIZE PUSH1 0x4 PUSH2 0x3DEC JUMP JUMPDEST PUSH2 0x2873 JUMP JUMPDEST PUSH2 0x2BC PUSH2 0x60C CALLDATASIZE PUSH1 0x4 PUSH2 0x3D9E JUMP JUMPDEST PUSH2 0x28B1 JUMP JUMPDEST PUSH2 0x28C PUSH2 0x61F CALLDATASIZE PUSH1 0x4 PUSH2 0x3D9E JUMP JUMPDEST PUSH2 0x2ABF JUMP JUMPDEST PUSH2 0x2DD PUSH2 0x632 CALLDATASIZE PUSH1 0x4 PUSH2 0x3DB7 JUMP JUMPDEST PUSH2 0x2AE9 JUMP JUMPDEST PUSH2 0x64A PUSH2 0x645 CALLDATASIZE PUSH1 0x4 PUSH2 0x3ED0 JUMP JUMPDEST PUSH2 0x35B1 JUMP JUMPDEST PUSH1 0x40 MLOAD PUSH2 0x2A0 SWAP2 SWAP1 PUSH2 0x41D3 JUMP JUMPDEST PUSH2 0x64A PUSH2 0x665 CALLDATASIZE PUSH1 0x4 PUSH2 0x3ED0 JUMP JUMPDEST PUSH2 0x3627 JUMP JUMPDEST PUSH1 0x5 SLOAD PUSH2 0x28C SWAP1 PUSH1 0x1 PUSH1 0x1 PUSH1 0xA0 SHL SUB AND DUP2 JUMP JUMPDEST PUSH2 0x2DD PUSH2 0x68B CALLDATASIZE PUSH1 0x4 PUSH2 0x3ED0 JUMP JUMPDEST PUSH2 0x369B JUMP JUMPDEST PUSH2 0x2BC PUSH1 0x7 SLOAD DUP2 JUMP JUMPDEST PUSH2 0x6AC PUSH2 0x6A7 CALLDATASIZE PUSH1 0x4 PUSH2 0x3EED JUMP JUMPDEST PUSH2 0x3714 JUMP JUMPDEST PUSH1 0x40 MLOAD PUSH2 0x2A0 SWAP2 SWAP1 PUSH2 0x4220 JUMP JUMPDEST PUSH1 0x10 PUSH1 0x20 MSTORE DUP2 PUSH1 0x0 MSTORE PUSH1 0x40 PUSH1 0x0 KECCAK256 DUP2 DUP2 SLOAD DUP2 LT PUSH2 0x6D5 JUMPI PUSH1 0x0 DUP1 REVERT JUMPDEST PUSH1 0x0 SWAP2 DUP3 MSTORE PUSH1 0x20 SWAP1 SWAP2 KECCAK256 ADD SLOAD PUSH1 0x1 PUSH1 0x1 PUSH1 0xA0 SHL SUB AND SWAP2 POP DUP3 SWAP1 POP JUMP JUMPDEST PUSH1 0x0 DUP1 DUP3 DUP6 LT ISZERO PUSH2 0x712 JUMPI DUP4 DUP6 LT ISZERO PUSH2 0x70B JUMPI POP DUP4 PUSH2 0x724 JUMP JUMPDEST POP DUP3 PUSH2 0x724 JUMP JUMPDEST DUP4 DUP4 LT ISZERO PUSH2 0x721 JUMPI POP DUP2 PUSH2 0x724 JUMP JUMPDEST POP DUP3 JUMPDEST SWAP1 POP JUMPDEST SWAP4 SWAP3 POP POP POP JUMP JUMPDEST PUSH2 0x736 PUSH2 0x386D JUMP JUMPDEST PUSH1 0x0 DUP2 GT PUSH2 0x795 JUMPI PUSH1 0x40 MLOAD PUSH3 0x461BCD PUSH1 0xE5 SHL DUP2 MSTORE PUSH1 0x20 PUSH1 0x4 DUP3 ADD MSTORE PUSH1 0x21 PUSH1 0x24 DUP3 ADD MSTORE PUSH32 0x4E65772054696D6520496E74657276616C206D75737420626520677265617420 PUSH1 0x44 DUP3 ADD MSTORE PUSH1 0x3 PUSH1 0xFC SHL PUSH1 0x64 DUP3 ADD MSTORE PUSH1 0x84 ADD JUMPDEST PUSH1 0x40 MLOAD DUP1 SWAP2 SUB SWAP1 REVERT JUMPDEST PUSH1 0x2 SLOAD PUSH1 0x40 DUP1 MLOAD SWAP2 DUP3 MSTORE PUSH1 0x20 DUP3 ADD DUP4 SWAP1 MSTORE PUSH32 0x8EFD7A06DEC059364C6A6D160E9BA026BB1D2A1C7BEFDD940DB032506238A60C SWAP2 ADD PUSH1 0x40 MLOAD DUP1 SWAP2 SUB SWAP1 LOG1 PUSH1 0x2 SSTORE JUMP JUMPDEST PUSH2 0x7DE PUSH2 0x38C7 JUMP JUMPDEST PUSH2 0x7E6 PUSH2 0x3920 JUMP JUMPDEST PUSH1 0x1 PUSH1 0x1 PUSH1 0xA0 SHL SUB DUP4 AND PUSH2 0x848 JUMPI PUSH1 0x40 MLOAD PUSH3 0x461BCD PUSH1 0xE5 SHL DUP2 MSTORE PUSH1 0x20 PUSH1 0x4 DUP3 ADD MSTORE PUSH1 0x24 DUP1 DUP3 ADD MSTORE PUSH32 0x617070726F766541646472657373206973206E6F742061207A65726F20616464 PUSH1 0x44 DUP3 ADD MSTORE PUSH4 0x72657373 PUSH1 0xE0 SHL PUSH1 0x64 DUP3 ADD MSTORE PUSH1 0x84 ADD PUSH2 0x78C JUMP JUMPDEST DUP1 PUSH1 0x0 SUB PUSH2 0x8B1 JUMPI PUSH1 0x40 MLOAD PUSH3 0x461BCD PUSH1 0xE5 SHL DUP2 MSTORE PUSH1 0x20 PUSH1 0x4 DUP3 ADD MSTORE PUSH1 0x30 PUSH1 0x24 DUP3 ADD MSTORE PUSH32 0x546865206E756D626572206F662063616E63656C6C6174696F6E732063616E6E PUSH1 0x44 DUP3 ADD MSTORE PUSH16 0x6F7420626520657175616C20746F203 PUSH1 0x84 SHL PUSH1 0x64 DUP3 ADD MSTORE PUSH1 0x84 ADD PUSH2 0x78C JUMP JUMPDEST CALLER PUSH1 0x1 PUSH1 0x1 PUSH1 0xA0 SHL SUB DUP5 AND SUB PUSH2 0x909 JUMPI PUSH1 0x40 MLOAD PUSH3 0x461BCD PUSH1 0xE5 SHL DUP2 MSTORE PUSH1 0x20 PUSH1 0x4 DUP3 ADD DUP2 SWAP1 MSTORE PUSH1 0x24 DUP3 ADD MSTORE PUSH32 0x617070726F766541646472657373206973206E6F74206D73672E73656E646572 PUSH1 0x44 DUP3 ADD MSTORE PUSH1 0x64 ADD PUSH2 0x78C JUMP JUMPDEST CALLER PUSH1 0x0 SWAP1 DUP2 MSTORE PUSH1 0x12 PUSH1 0x20 SWAP1 DUP2 MSTORE PUSH1 0x40 DUP1 DUP4 KECCAK256 PUSH1 0x1 PUSH1 0x1 PUSH1 0xA0 SHL SUB DUP8 AND DUP5 MSTORE SWAP1 SWAP2 MSTORE SWAP1 KECCAK256 SLOAD PUSH1 0xFF AND PUSH2 0x988 JUMPI PUSH1 0x40 MLOAD PUSH3 0x461BCD PUSH1 0xE5 SHL DUP2 MSTORE PUSH1 0x20 PUSH1 0x4 DUP3 ADD MSTORE PUSH1 0x24 DUP1 DUP3 ADD MSTORE PUSH32 0x6C656E646572206973206E6F7420617070726F766520617070726F7665416464 PUSH1 0x44 DUP3 ADD MSTORE PUSH4 0x72657373 PUSH1 0xE0 SHL PUSH1 0x64 DUP3 ADD MSTORE PUSH1 0x84 ADD PUSH2 0x78C JUMP JUMPDEST CALLER PUSH1 0x0 SWAP1 DUP2 MSTORE PUSH1 0xE PUSH1 0x20 SWAP1 DUP2 MSTORE PUSH1 0x40 DUP1 DUP4 KECCAK256 PUSH1 0x1 PUSH1 0x1 PUSH1 0xA0 SHL SUB DUP8 AND DUP5 MSTORE SWAP1 SWAP2 MSTORE SWAP1 KECCAK256 DUP1 SLOAD PUSH2 0x9B8 PUSH1 0x1 DUP3 PUSH2 0x428B JUMP JUMPDEST DUP5 GT ISZERO PUSH2 0x9D7 JUMPI PUSH1 0x40 MLOAD PUSH3 0x461BCD PUSH1 0xE5 SHL DUP2 MSTORE PUSH1 0x4 ADD PUSH2 0x78C SWAP1 PUSH2 0x429E JUMP JUMPDEST CALLER PUSH1 0x0 SWAP1 DUP2 MSTORE PUSH1 0xE PUSH1 0x20 SWAP1 DUP2 MSTORE PUSH1 0x40 DUP1 DUP4 KECCAK256 PUSH1 0x1 PUSH1 0x1 PUSH1 0xA0 SHL SUB DUP10 AND DUP5 MSTORE SWAP1 SWAP2 MSTORE DUP2 KECCAK256 DUP1 SLOAD DUP7 SWAP1 DUP2 LT PUSH2 0xA0C JUMPI PUSH2 0xA0C PUSH2 0x42C5 JUMP JUMPDEST PUSH1 0x0 SWAP2 DUP3 MSTORE PUSH1 0x20 DUP1 DUP4 KECCAK256 PUSH1 0x1 PUSH1 0x1 PUSH1 0xA0 SHL SUB DUP11 AND DUP5 MSTORE PUSH1 0xF DUP3 MSTORE PUSH1 0x40 DUP1 DUP6 KECCAK256 CALLER DUP7 MSTORE SWAP1 SWAP3 MSTORE SWAP3 KECCAK256 DUP1 SLOAD PUSH1 0x7 SWAP1 SWAP3 MUL SWAP1 SWAP3 ADD SWAP3 POP PUSH2 0xA4A PUSH1 0x1 DUP3 PUSH2 0x428B JUMP JUMPDEST DUP8 GT ISZERO PUSH2 0xA92 JUMPI PUSH1 0x40 MLOAD PUSH3 0x461BCD PUSH1 0xE5 SHL DUP2 MSTORE PUSH1 0x20 PUSH1 0x4 DUP3 ADD MSTORE PUSH1 0x16 PUSH1 0x24 DUP3 ADD MSTORE PUSH22 0x3137B93937BBB2B91034B73232BC1027BB32B9393AB7 PUSH1 0x51 SHL PUSH1 0x44 DUP3 ADD MSTORE PUSH1 0x64 ADD PUSH2 0x78C JUMP JUMPDEST PUSH1 0x1 PUSH1 0x1 PUSH1 0xA0 SHL SUB DUP9 AND PUSH1 0x0 SWAP1 DUP2 MSTORE PUSH1 0xF PUSH1 0x20 SWAP1 DUP2 MSTORE PUSH1 0x40 DUP1 DUP4 KECCAK256 CALLER DUP5 MSTORE SWAP1 SWAP2 MSTORE DUP2 KECCAK256 DUP1 SLOAD DUP10 SWAP1 DUP2 LT PUSH2 0xAC7 JUMPI PUSH2 0xAC7 PUSH2 0x42C5 JUMP JUMPDEST PUSH1 0x0 SWAP2 DUP3 MSTORE PUSH1 0x20 SWAP1 SWAP2 KECCAK256 PUSH1 0x6 DUP7 ADD SLOAD PUSH1 0x7 SWAP1 SWAP3 MUL ADD SWAP2 POP PUSH1 0xFF AND ISZERO PUSH2 0xAFE JUMPI PUSH1 0x40 MLOAD PUSH3 0x461BCD PUSH1 0xE5 SHL DUP2 MSTORE PUSH1 0x4 ADD PUSH2 0x78C SWAP1 PUSH2 0x42DB JUMP JUMPDEST DUP1 PUSH1 0x4 ADD SLOAD DUP5 PUSH1 0x3 ADD SLOAD PUSH2 0xB12 SWAP2 SWAP1 PUSH2 0x428B JUMP JUMPDEST DUP8 GT ISZERO PUSH2 0xB9F JUMPI PUSH1 0x40 MLOAD PUSH3 0x461BCD PUSH1 0xE5 SHL DUP2 MSTORE PUSH1 0x20 PUSH1 0x4 DUP3 ADD MSTORE PUSH1 0x4F PUSH1 0x24 DUP3 ADD MSTORE PUSH32 0x546865206E756D626572206F662063616E63656C6C6174696F6E732063616E6E PUSH1 0x44 DUP3 ADD MSTORE PUSH32 0x6F742062652067726561746572207468616E20746865206E756D626572206F66 PUSH1 0x64 DUP3 ADD MSTORE PUSH15 0x20617574686F72697A6174696F6E73 PUSH1 0x88 SHL PUSH1 0x84 DUP3 ADD MSTORE PUSH1 0xA4 ADD PUSH2 0x78C JUMP JUMPDEST DUP4 PUSH1 0x3 ADD SLOAD DUP8 SUB PUSH2 0xC03 JUMPI PUSH1 0x6 DUP1 DUP6 ADD DUP1 SLOAD PUSH1 0xFF NOT DUP1 DUP3 AND PUSH1 0xFF SWAP3 DUP4 AND ISZERO OR SWAP1 SWAP3 SSTORE SWAP2 DUP4 ADD DUP1 SLOAD SWAP2 DUP3 AND SWAP2 SWAP1 SWAP3 AND ISZERO OR SWAP1 SSTORE PUSH1 0x3 DUP5 ADD SLOAD PUSH2 0xBE1 SWAP1 DUP9 SWAP1 PUSH2 0x428B JUMP JUMPDEST DUP5 PUSH1 0x3 ADD DUP2 SWAP1 SSTORE POP DUP7 DUP2 PUSH1 0x3 ADD SLOAD PUSH2 0xBF9 SWAP2 SWAP1 PUSH2 0x428B JUMP JUMPDEST PUSH1 0x3 DUP3 ADD SSTORE PUSH2 0xC31 JUMP JUMPDEST DUP7 DUP5 PUSH1 0x3 ADD SLOAD PUSH2 0xC13 SWAP2 SWAP1 PUSH2 0x428B JUMP JUMPDEST DUP5 PUSH1 0x3 ADD DUP2 SWAP1 SSTORE POP DUP7 DUP2 PUSH1 0x3 ADD SLOAD PUSH2 0xC2B SWAP2 SWAP1 PUSH2 0x428B JUMP JUMPDEST PUSH1 0x3 DUP3 ADD SSTORE JUMPDEST PUSH1 0x40 DUP1 MLOAD PUSH1 0x1 PUSH1 0x1 PUSH1 0xA0 SHL SUB DUP12 AND DUP2 MSTORE PUSH1 0x20 DUP2 ADD DUP11 SWAP1 MSTORE SWAP1 DUP2 ADD DUP9 SWAP1 MSTORE PUSH32 0x62A0E7E6165D97CF606EAFBE25E28DD5E6E8033BB30B807959547C4E9AC907A8 SWAP1 PUSH1 0x60 ADD PUSH1 0x40 MLOAD DUP1 SWAP2 SUB SWAP1 LOG1 POP POP POP POP POP POP PUSH2 0xC8A PUSH1 0x1 DUP1 SSTORE JUMP JUMPDEST POP POP POP JUMP JUMPDEST PUSH1 0xF PUSH1 0x20 MSTORE DUP3 PUSH1 0x0 MSTORE PUSH1 0x40 PUSH1 0x0 KECCAK256 PUSH1 0x20 MSTORE DUP2 PUSH1 0x0 MSTORE PUSH1 0x40 PUSH1 0x0 KECCAK256 DUP2 DUP2 SLOAD DUP2 LT PUSH2 0xCB7 JUMPI PUSH1 0x0 DUP1 REVERT JUMPDEST PUSH1 0x0 SWAP2 DUP3 MSTORE PUSH1 0x20 SWAP1 SWAP2 KECCAK256 PUSH1 0x7 SWAP1 SWAP2 MUL ADD DUP1 SLOAD PUSH1 0x1 DUP3 ADD SLOAD PUSH1 0x2 DUP4 ADD SLOAD PUSH1 0x3 DUP5 ADD SLOAD PUSH1 0x4 DUP6 ADD SLOAD PUSH1 0x5 DUP7 ADD DUP1 SLOAD PUSH1 0x1 PUSH1 0x1 PUSH1 0xA0 SHL SUB SWAP7 DUP8 AND SWAP11 POP SWAP5 SWAP1 SWAP6 AND SWAP8 POP SWAP2 SWAP6 POP SWAP4 SWAP1 SWAP3 SWAP1 SWAP2 PUSH2 0xD07 SWAP1 PUSH2 0x4329 JUMP JUMPDEST DUP1 PUSH1 0x1F ADD PUSH1 0x20 DUP1 SWAP2 DIV MUL PUSH1 0x20 ADD PUSH1 0x40 MLOAD SWAP1 DUP2 ADD PUSH1 0x40 MSTORE DUP1 SWAP3 SWAP2 SWAP1 DUP2 DUP2 MSTORE PUSH1 0x20 ADD DUP3 DUP1 SLOAD PUSH2 0xD33 SWAP1 PUSH2 0x4329 JUMP JUMPDEST DUP1 ISZERO PUSH2 0xD80 JUMPI DUP1 PUSH1 0x1F LT PUSH2 0xD55 JUMPI PUSH2 0x100 DUP1 DUP4 SLOAD DIV MUL DUP4 MSTORE SWAP2 PUSH1 0x20 ADD SWAP2 PUSH2 0xD80 JUMP JUMPDEST DUP3 ADD SWAP2 SWAP1 PUSH1 0x0 MSTORE PUSH1 0x20 PUSH1 0x0 KECCAK256 SWAP1 JUMPDEST DUP2 SLOAD DUP2 MSTORE SWAP1 PUSH1 0x1 ADD SWAP1 PUSH1 0x20 ADD DUP1 DUP4 GT PUSH2 0xD63 JUMPI DUP3 SWAP1 SUB PUSH1 0x1F AND DUP3 ADD SWAP2 JUMPDEST POP POP POP PUSH1 0x6 SWAP1 SWAP4 ADD SLOAD SWAP2 SWAP3 POP POP PUSH1 0xFF AND DUP8 JUMP JUMPDEST PUSH2 0xD9B PUSH2 0x38C7 JUMP JUMPDEST PUSH2 0xDA3 PUSH2 0x3920 JUMP JUMPDEST PUSH1 0x1 PUSH1 0x1 PUSH1 0xA0 SHL SUB DUP4 AND PUSH2 0xDC9 JUMPI PUSH1 0x40 MLOAD PUSH3 0x461BCD PUSH1 0xE5 SHL DUP2 MSTORE PUSH1 0x4 ADD PUSH2 0x78C SWAP1 PUSH2 0x4363 JUMP JUMPDEST CALLER PUSH1 0x1 PUSH1 0x1 PUSH1 0xA0 SHL SUB DUP5 AND SUB PUSH2 0xE21 JUMPI PUSH1 0x40 MLOAD PUSH3 0x461BCD PUSH1 0xE5 SHL DUP2 MSTORE PUSH1 0x20 PUSH1 0x4 DUP3 ADD MSTORE PUSH1 0x1D PUSH1 0x24 DUP3 ADD MSTORE PUSH32 0x6C656E6441646472657373206973206E6F74206D73672E73656E646572000000 PUSH1 0x44 DUP3 ADD MSTORE PUSH1 0x64 ADD PUSH2 0x78C JUMP JUMPDEST DUP1 PUSH1 0x0 SUB PUSH2 0xE41 JUMPI PUSH1 0x40 MLOAD PUSH3 0x461BCD PUSH1 0xE5 SHL DUP2 MSTORE PUSH1 0x4 ADD PUSH2 0x78C SWAP1 PUSH2 0x43A5 JUMP JUMPDEST CALLER PUSH1 0x0 SWAP1 DUP2 MSTORE PUSH1 0x13 PUSH1 0x20 SWAP1 DUP2 MSTORE PUSH1 0x40 DUP1 DUP4 KECCAK256 PUSH1 0x1 PUSH1 0x1 PUSH1 0xA0 SHL SUB DUP8 AND DUP5 MSTORE SWAP1 SWAP2 MSTORE SWAP1 KECCAK256 SLOAD PUSH1 0xFF AND PUSH2 0xEB4 JUMPI PUSH1 0x40 MLOAD PUSH3 0x461BCD PUSH1 0xE5 SHL DUP2 MSTORE PUSH1 0x20 PUSH1 0x4 DUP3 ADD DUP2 SWAP1 MSTORE PUSH1 0x24 DUP3 ADD MSTORE PUSH32 0x6C656E646572206973206E6F7420617070726F7665206D73672E73656E646572 PUSH1 0x44 DUP3 ADD MSTORE PUSH1 0x64 ADD PUSH2 0x78C JUMP JUMPDEST CALLER PUSH1 0x0 SWAP1 DUP2 MSTORE PUSH1 0xF PUSH1 0x20 SWAP1 DUP2 MSTORE PUSH1 0x40 DUP1 DUP4 KECCAK256 PUSH1 0x1 PUSH1 0x1 PUSH1 0xA0 SHL SUB DUP8 AND DUP5 MSTORE SWAP1 SWAP2 MSTORE SWAP1 KECCAK256 DUP1 SLOAD PUSH2 0xEE4 PUSH1 0x1 DUP3 PUSH2 0x428B JUMP JUMPDEST DUP5 GT ISZERO PUSH2 0xF03 JUMPI PUSH1 0x40 MLOAD PUSH3 0x461BCD PUSH1 0xE5 SHL DUP2 MSTORE PUSH1 0x4 ADD PUSH2 0x78C SWAP1 PUSH2 0x429E JUMP JUMPDEST CALLER PUSH1 0x0 SWAP1 DUP2 MSTORE PUSH1 0xF PUSH1 0x20 SWAP1 DUP2 MSTORE PUSH1 0x40 DUP1 DUP4 KECCAK256 PUSH1 0x1 PUSH1 0x1 PUSH1 0xA0 SHL SUB DUP10 AND DUP5 MSTORE SWAP1 SWAP2 MSTORE DUP2 KECCAK256 DUP1 SLOAD DUP7 SWAP1 DUP2 LT PUSH2 0xF38 JUMPI PUSH2 0xF38 PUSH2 0x42C5 JUMP JUMPDEST SWAP1 PUSH1 0x0 MSTORE PUSH1 0x20 PUSH1 0x0 KECCAK256 SWAP1 PUSH1 0x7 MUL ADD SWAP1 POP DUP1 PUSH1 0x4 ADD SLOAD DUP5 GT ISZERO PUSH2 0xFD5 JUMPI PUSH1 0x40 MLOAD PUSH3 0x461BCD PUSH1 0xE5 SHL DUP2 MSTORE PUSH1 0x20 PUSH1 0x4 DUP3 ADD MSTORE PUSH1 0x4A PUSH1 0x24 DUP3 ADD MSTORE PUSH32 0x5468652072657475726E6564207175616E74697479206D757374206265206C65 PUSH1 0x44 DUP3 ADD MSTORE PUSH32 0x7373207468616E206F7220657175616C20746F2074686520626F72726F776564 PUSH1 0x64 DUP3 ADD MSTORE PUSH10 0x1038BAB0B73A34BA3C97 PUSH1 0xB1 SHL PUSH1 0x84 DUP3 ADD MSTORE PUSH1 0xA4 ADD PUSH2 0x78C JUMP JUMPDEST PUSH1 0x1 DUP2 ADD SLOAD PUSH1 0x40 MLOAD PUSH4 0x6EB1769F PUSH1 0xE1 SHL DUP2 MSTORE CALLER PUSH1 0x4 DUP3 ADD MSTORE ADDRESS PUSH1 0x24 DUP3 ADD MSTORE PUSH1 0x0 SWAP2 PUSH1 0x1 PUSH1 0x1 PUSH1 0xA0 SHL SUB AND SWAP1 PUSH4 0xDD62ED3E SWAP1 PUSH1 0x44 ADD PUSH1 0x20 PUSH1 0x40 MLOAD DUP1 DUP4 SUB DUP2 DUP7 GAS STATICCALL ISZERO DUP1 ISZERO PUSH2 0x1026 JUMPI RETURNDATASIZE PUSH1 0x0 DUP1 RETURNDATACOPY RETURNDATASIZE PUSH1 0x0 REVERT JUMPDEST POP POP POP POP PUSH1 0x40 MLOAD RETURNDATASIZE PUSH1 0x1F NOT PUSH1 0x1F DUP3 ADD AND DUP3 ADD DUP1 PUSH1 0x40 MSTORE POP DUP2 ADD SWAP1 PUSH2 0x104A SWAP2 SWAP1 PUSH2 0x43F6 JUMP JUMPDEST SWAP1 POP DUP1 DUP6 GT ISZERO PUSH2 0x109C JUMPI PUSH1 0x40 MLOAD PUSH3 0x461BCD PUSH1 0xE5 SHL DUP2 MSTORE PUSH1 0x20 PUSH1 0x4 DUP3 ADD MSTORE PUSH1 0x1A PUSH1 0x24 DUP3 ADD MSTORE PUSH32 0x626F72726F776572206C61636B206F6620616C6C6F77616E6365000000000000 PUSH1 0x44 DUP3 ADD MSTORE PUSH1 0x64 ADD PUSH2 0x78C JUMP JUMPDEST PUSH1 0x1 DUP3 ADD SLOAD PUSH1 0x40 MLOAD PUSH4 0x70A08231 PUSH1 0xE0 SHL DUP2 MSTORE CALLER PUSH1 0x4 DUP3 ADD MSTORE PUSH1 0x0 SWAP2 PUSH1 0x1 PUSH1 0x1 PUSH1 0xA0 SHL SUB AND SWAP1 PUSH4 0x70A08231 SWAP1 PUSH1 0x24 ADD PUSH1 0x20 PUSH1 0x40 MLOAD DUP1 DUP4 SUB DUP2 DUP7 GAS STATICCALL ISZERO DUP1 ISZERO PUSH2 0x10E7 JUMPI RETURNDATASIZE PUSH1 0x0 DUP1 RETURNDATACOPY RETURNDATASIZE PUSH1 0x0 REVERT JUMPDEST POP POP POP POP PUSH1 0x40 MLOAD RETURNDATASIZE PUSH1 0x1F NOT PUSH1 0x1F DUP3 ADD AND DUP3 ADD DUP1 PUSH1 0x40 MSTORE POP DUP2 ADD SWAP1 PUSH2 0x110B SWAP2 SWAP1 PUSH2 0x43F6 JUMP JUMPDEST SWAP1 POP DUP6 DUP2 LT ISZERO PUSH2 0x1154 JUMPI PUSH1 0x40 MLOAD PUSH3 0x461BCD PUSH1 0xE5 SHL DUP2 MSTORE PUSH1 0x20 PUSH1 0x4 DUP3 ADD MSTORE PUSH1 0x14 PUSH1 0x24 DUP3 ADD MSTORE PUSH20 0x496E73756666696369656E742062616C616E6365 PUSH1 0x60 SHL PUSH1 0x44 DUP3 ADD MSTORE PUSH1 0x64 ADD PUSH2 0x78C JUMP JUMPDEST PUSH1 0x1 DUP4 ADD SLOAD DUP4 SLOAD PUSH1 0x0 SWAP2 PUSH2 0x1177 SWAP2 PUSH1 0x1 PUSH1 0x1 PUSH1 0xA0 SHL SUB SWAP2 DUP3 AND SWAP2 CALLER SWAP2 AND DUP11 PUSH2 0x396D JUMP JUMPDEST SWAP1 POP DUP7 DUP2 EQ PUSH2 0x1198 JUMPI PUSH1 0x40 MLOAD PUSH3 0x461BCD PUSH1 0xE5 SHL DUP2 MSTORE PUSH1 0x4 ADD PUSH2 0x78C SWAP1 PUSH2 0x440F JUMP JUMPDEST DUP7 DUP5 PUSH1 0x4 ADD SLOAD PUSH2 0x11A8 SWAP2 SWAP1 PUSH2 0x428B JUMP JUMPDEST PUSH1 0x4 DUP6 ADD SSTORE PUSH1 0x1 PUSH1 0x1 PUSH1 0xA0 SHL SUB DUP10 AND PUSH1 0x0 SWAP1 DUP2 MSTORE PUSH1 0xE PUSH1 0x20 SWAP1 DUP2 MSTORE PUSH1 0x40 DUP1 DUP4 KECCAK256 CALLER DUP5 MSTORE SWAP1 SWAP2 MSTORE SWAP1 KECCAK256 DUP1 SLOAD PUSH2 0x11DD PUSH1 0x1 DUP3 PUSH2 0x428B JUMP JUMPDEST DUP11 GT ISZERO PUSH2 0x11FC JUMPI PUSH1 0x40 MLOAD PUSH3 0x461BCD PUSH1 0xE5 SHL DUP2 MSTORE PUSH1 0x4 ADD PUSH2 0x78C SWAP1 PUSH2 0x429E JUMP JUMPDEST PUSH1 0x1 PUSH1 0x1 PUSH1 0xA0 SHL SUB DUP12 AND PUSH1 0x0 SWAP1 DUP2 MSTORE PUSH1 0xE PUSH1 0x20 SWAP1 DUP2 MSTORE PUSH1 0x40 DUP1 DUP4 KECCAK256 CALLER DUP5 MSTORE SWAP1 SWAP2 MSTORE DUP2 KECCAK256 DUP1 SLOAD DUP13 SWAP1 DUP2 LT PUSH2 0x1231 JUMPI PUSH2 0x1231 PUSH2 0x42C5 JUMP JUMPDEST SWAP1 PUSH1 0x0 MSTORE PUSH1 0x20 PUSH1 0x0 KECCAK256 SWAP1 PUSH1 0x7 MUL ADD SWAP1 POP DUP10 DUP2 PUSH1 0x4 ADD SLOAD PUSH2 0x1251 SWAP2 SWAP1 PUSH2 0x428B JUMP JUMPDEST PUSH1 0x4 DUP3 ADD SSTORE PUSH1 0x40 DUP1 MLOAD PUSH1 0x1 PUSH1 0x1 PUSH1 0xA0 SHL SUB DUP15 AND DUP2 MSTORE PUSH1 0x20 DUP2 ADD DUP14 SWAP1 MSTORE SWAP1 DUP2 ADD DUP12 SWAP1 MSTORE PUSH32 0x9643C1B5B172B26D5F028BE7FE646349BD5E3CD9367BB18F9E825AFA828B7D93 SWAP1 PUSH1 0x60 ADD PUSH1 0x40 MLOAD DUP1 SWAP2 SUB SWAP1 LOG1 POP POP POP POP POP POP POP POP POP PUSH2 0xC8A PUSH1 0x1 DUP1 SSTORE JUMP JUMPDEST PUSH1 0x1 PUSH1 0x1 PUSH1 0xA0 SHL SUB DUP1 DUP4 AND PUSH1 0x0 SWAP1 DUP2 MSTORE PUSH1 0xE PUSH1 0x20 SWAP1 DUP2 MSTORE PUSH1 0x40 DUP1 DUP4 KECCAK256 SWAP4 DUP6 AND DUP4 MSTORE SWAP3 DUP2 MSTORE DUP3 DUP3 KECCAK256 DUP1 SLOAD DUP5 MLOAD DUP2 DUP5 MUL DUP2 ADD DUP5 ADD SWAP1 SWAP6 MSTORE DUP1 DUP6 MSTORE PUSH1 0x60 SWAP5 SWAP3 DUP5 SWAP1 DUP5 ADD JUMPDEST DUP3 DUP3 LT ISZERO PUSH2 0x140B JUMPI PUSH1 0x0 DUP5 DUP2 MSTORE PUSH1 0x20 SWAP1 DUP2 SWAP1 KECCAK256 PUSH1 0x40 DUP1 MLOAD PUSH1 0xE0 DUP2 ADD DUP3 MSTORE PUSH1 0x7 DUP7 MUL SWAP1 SWAP3 ADD DUP1 SLOAD PUSH1 0x1 PUSH1 0x1 PUSH1 0xA0 SHL SUB SWAP1 DUP2 AND DUP5 MSTORE PUSH1 0x1 DUP3 ADD SLOAD AND SWAP4 DUP4 ADD SWAP4 SWAP1 SWAP4 MSTORE PUSH1 0x2 DUP4 ADD SLOAD SWAP1 DUP3 ADD MSTORE PUSH1 0x3 DUP3 ADD SLOAD PUSH1 0x60 DUP3 ADD MSTORE PUSH1 0x4 DUP3 ADD SLOAD PUSH1 0x80 DUP3 ADD MSTORE PUSH1 0x5 DUP3 ADD DUP1 SLOAD SWAP2 SWAP3 SWAP2 PUSH1 0xA0 DUP5 ADD SWAP2 SWAP1 PUSH2 0x1368 SWAP1 PUSH2 0x4329 JUMP JUMPDEST DUP1 PUSH1 0x1F ADD PUSH1 0x20 DUP1 SWAP2 DIV MUL PUSH1 0x20 ADD PUSH1 0x40 MLOAD SWAP1 DUP2 ADD PUSH1 0x40 MSTORE DUP1 SWAP3 SWAP2 SWAP1 DUP2 DUP2 MSTORE PUSH1 0x20 ADD DUP3 DUP1 SLOAD PUSH2 0x1394 SWAP1 PUSH2 0x4329 JUMP JUMPDEST DUP1 ISZERO PUSH2 0x13E1 JUMPI DUP1 PUSH1 0x1F LT PUSH2 0x13B6 JUMPI PUSH2 0x100 DUP1 DUP4 SLOAD DIV MUL DUP4 MSTORE SWAP2 PUSH1 0x20 ADD SWAP2 PUSH2 0x13E1 JUMP JUMPDEST DUP3 ADD SWAP2 SWAP1 PUSH1 0x0 MSTORE PUSH1 0x20 PUSH1 0x0 KECCAK256 SWAP1 JUMPDEST DUP2 SLOAD DUP2 MSTORE SWAP1 PUSH1 0x1 ADD SWAP1 PUSH1 0x20 ADD DUP1 DUP4 GT PUSH2 0x13C4 JUMPI DUP3 SWAP1 SUB PUSH1 0x1F AND DUP3 ADD SWAP2 JUMPDEST POP POP POP SWAP2 DUP4 MSTORE POP POP PUSH1 0x6 SWAP2 SWAP1 SWAP2 ADD SLOAD PUSH1 0xFF AND ISZERO ISZERO PUSH1 0x20 SWAP2 DUP3 ADD MSTORE SWAP1 DUP3 MSTORE PUSH1 0x1 SWAP3 SWAP1 SWAP3 ADD SWAP2 ADD PUSH2 0x12F3 JUMP JUMPDEST POP SWAP3 SWAP5 POP POP POP POP POP JUMPDEST SWAP3 SWAP2 POP POP JUMP JUMPDEST PUSH2 0x1422 PUSH2 0x386D JUMP JUMPDEST PUSH1 0x1 PUSH1 0x1 PUSH1 0xA0 SHL SUB DUP2 AND PUSH2 0x1488 JUMPI PUSH1 0x40 MLOAD PUSH3 0x461BCD PUSH1 0xE5 SHL DUP2 MSTORE PUSH1 0x20 PUSH1 0x4 DUP3 ADD MSTORE PUSH1 0x27 PUSH1 0x24 DUP3 ADD MSTORE PUSH32 0x7365727669636546656541646472657373206973206E6F742061207A65726F20 PUSH1 0x44 DUP3 ADD MSTORE PUSH7 0x61646472657373 PUSH1 0xC8 SHL PUSH1 0x64 DUP3 ADD MSTORE PUSH1 0x84 ADD PUSH2 0x78C JUMP JUMPDEST PUSH1 0x5 SLOAD PUSH1 0x40 DUP1 MLOAD PUSH1 0x1 PUSH1 0x1 PUSH1 0xA0 SHL SUB SWAP3 DUP4 AND DUP2 MSTORE SWAP2 DUP4 AND PUSH1 0x20 DUP4 ADD MSTORE PUSH32 0x1AE120263FF20A7E40D52789037DA1608A0F939F1D05DDF25DE34FCE9F62D4E0 SWAP2 ADD PUSH1 0x40 MLOAD DUP1 SWAP2 SUB SWAP1 LOG1 PUSH1 0x5 DUP1 SLOAD PUSH1 0x1 PUSH1 0x1 PUSH1 0xA0 SHL SUB NOT AND PUSH1 0x1 PUSH1 0x1 PUSH1 0xA0 SHL SUB SWAP3 SWAP1 SWAP3 AND SWAP2 SWAP1 SWAP2 OR SWAP1 SSTORE JUMP JUMPDEST PUSH2 0x14F9 PUSH2 0x3920 JUMP JUMPDEST PUSH1 0x2 SLOAD PUSH1 0x3 SLOAD PUSH2 0x1509 SWAP2 SWAP1 PUSH2 0x4465 JUMP JUMPDEST TIMESTAMP GT ISZERO PUSH2 0x1BC7 JUMPI PUSH1 0x8 SLOAD ISZERO PUSH2 0x1BC2 JUMPI PUSH1 0x0 JUMPDEST PUSH1 0x8 SLOAD DUP2 LT ISZERO PUSH2 0x1BC0 JUMPI PUSH1 0x0 PUSH1 0xB PUSH1 0x0 PUSH1 0x8 DUP5 DUP2 SLOAD DUP2 LT PUSH2 0x153E JUMPI PUSH2 0x153E PUSH2 0x42C5 JUMP JUMPDEST PUSH1 0x0 SWAP2 DUP3 MSTORE PUSH1 0x20 DUP1 DUP4 KECCAK256 SWAP1 SWAP2 ADD SLOAD PUSH1 0x1 PUSH1 0x1 PUSH1 0xA0 SHL SUB AND DUP4 MSTORE DUP3 DUP2 ADD SWAP4 SWAP1 SWAP4 MSTORE PUSH1 0x40 SWAP2 DUP3 ADD SWAP1 KECCAK256 DUP1 SLOAD DUP3 MLOAD DUP2 DUP6 MUL DUP2 ADD DUP6 ADD SWAP1 SWAP4 MSTORE DUP1 DUP4 MSTORE SWAP2 SWAP3 SWAP1 SWAP2 SWAP1 DUP4 ADD DUP3 DUP3 DUP1 ISZERO PUSH2 0x15B4 JUMPI PUSH1 0x20 MUL DUP3 ADD SWAP2 SWAP1 PUSH1 0x0 MSTORE PUSH1 0x20 PUSH1 0x0 KECCAK256 SWAP1 JUMPDEST DUP2 SLOAD PUSH1 0x1 PUSH1 0x1 PUSH1 0xA0 SHL SUB AND DUP2 MSTORE PUSH1 0x1 SWAP1 SWAP2 ADD SWAP1 PUSH1 0x20 ADD DUP1 DUP4 GT PUSH2 0x1596 JUMPI JUMPDEST POP POP POP POP POP SWAP1 POP PUSH1 0x0 JUMPDEST DUP2 MLOAD DUP2 LT ISZERO PUSH2 0x1BAB JUMPI PUSH1 0x0 PUSH1 0xF PUSH1 0x0 PUSH1 0x8 DUP7 DUP2 SLOAD DUP2 LT PUSH2 0x15E0 JUMPI PUSH2 0x15E0 PUSH2 0x42C5 JUMP JUMPDEST PUSH1 0x0 SWAP2 DUP3 MSTORE PUSH1 0x20 DUP1 DUP4 KECCAK256 SWAP1 SWAP2 ADD SLOAD PUSH1 0x1 PUSH1 0x1 PUSH1 0xA0 SHL SUB AND DUP4 MSTORE DUP3 ADD SWAP3 SWAP1 SWAP3 MSTORE PUSH1 0x40 ADD DUP2 KECCAK256 DUP5 MLOAD SWAP1 SWAP2 SWAP1 DUP6 SWAP1 DUP6 SWAP1 DUP2 LT PUSH2 0x161B JUMPI PUSH2 0x161B PUSH2 0x42C5 JUMP JUMPDEST PUSH1 0x20 MUL PUSH1 0x20 ADD ADD MLOAD PUSH1 0x1 PUSH1 0x1 PUSH1 0xA0 SHL SUB AND PUSH1 0x1 PUSH1 0x1 PUSH1 0xA0 SHL SUB AND DUP2 MSTORE PUSH1 0x20 ADD SWAP1 DUP2 MSTORE PUSH1 0x20 ADD PUSH1 0x0 KECCAK256 DUP1 SLOAD DUP1 PUSH1 0x20 MUL PUSH1 0x20 ADD PUSH1 0x40 MLOAD SWAP1 DUP2 ADD PUSH1 0x40 MSTORE DUP1 SWAP3 SWAP2 SWAP1 DUP2 DUP2 MSTORE PUSH1 0x20 ADD PUSH1 0x0 SWAP1 JUMPDEST DUP3 DUP3 LT ISZERO PUSH2 0x177B JUMPI PUSH1 0x0 DUP5 DUP2 MSTORE PUSH1 0x20 SWAP1 DUP2 SWAP1 KECCAK256 PUSH1 0x40 DUP1 MLOAD PUSH1 0xE0 DUP2 ADD DUP3 MSTORE PUSH1 0x7 DUP7 MUL SWAP1 SWAP3 ADD DUP1 SLOAD PUSH1 0x1 PUSH1 0x1 PUSH1 0xA0 SHL SUB SWAP1 DUP2 AND DUP5 MSTORE PUSH1 0x1 DUP3 ADD SLOAD AND SWAP4 DUP4 ADD SWAP4 SWAP1 SWAP4 MSTORE PUSH1 0x2 DUP4 ADD SLOAD SWAP1 DUP3 ADD MSTORE PUSH1 0x3 DUP3 ADD SLOAD PUSH1 0x60 DUP3 ADD MSTORE PUSH1 0x4 DUP3 ADD SLOAD PUSH1 0x80 DUP3 ADD MSTORE PUSH1 0x5 DUP3 ADD DUP1 SLOAD SWAP2 SWAP3 SWAP2 PUSH1 0xA0 DUP5 ADD SWAP2 SWAP1 PUSH2 0x16D8 SWAP1 PUSH2 0x4329 JUMP JUMPDEST DUP1 PUSH1 0x1F ADD PUSH1 0x20 DUP1 SWAP2 DIV MUL PUSH1 0x20 ADD PUSH1 0x40 MLOAD SWAP1 DUP2 ADD PUSH1 0x40 MSTORE DUP1 SWAP3 SWAP2 SWAP1 DUP2 DUP2 MSTORE PUSH1 0x20 ADD DUP3 DUP1 SLOAD PUSH2 0x1704 SWAP1 PUSH2 0x4329 JUMP JUMPDEST DUP1 ISZERO PUSH2 0x1751 JUMPI DUP1 PUSH1 0x1F LT PUSH2 0x1726 JUMPI PUSH2 0x100 DUP1 DUP4 SLOAD DIV MUL DUP4 MSTORE SWAP2 PUSH1 0x20 ADD SWAP2 PUSH2 0x1751 JUMP JUMPDEST DUP3 ADD SWAP2 SWAP1 PUSH1 0x0 MSTORE PUSH1 0x20 PUSH1 0x0 KECCAK256 SWAP1 JUMPDEST DUP2 SLOAD DUP2 MSTORE SWAP1 PUSH1 0x1 ADD SWAP1 PUSH1 0x20 ADD DUP1 DUP4 GT PUSH2 0x1734 JUMPI DUP3 SWAP1 SUB PUSH1 0x1F AND DUP3 ADD SWAP2 JUMPDEST POP POP POP SWAP2 DUP4 MSTORE POP POP PUSH1 0x6 SWAP2 SWAP1 SWAP2 ADD SLOAD PUSH1 0xFF AND ISZERO ISZERO PUSH1 0x20 SWAP2 DUP3 ADD MSTORE SWAP1 DUP3 MSTORE PUSH1 0x1 SWAP3 SWAP1 SWAP3 ADD SWAP2 ADD PUSH2 0x1663 JUMP JUMPDEST POP POP POP POP SWAP1 POP DUP1 MLOAD PUSH1 0x0 SUB PUSH2 0x1790 JUMPI POP PUSH2 0x1B99 JUMP JUMPDEST PUSH1 0x0 PUSH1 0xD PUSH1 0x0 PUSH1 0x8 DUP8 DUP2 SLOAD DUP2 LT PUSH2 0x17A9 JUMPI PUSH2 0x17A9 PUSH2 0x42C5 JUMP JUMPDEST PUSH1 0x0 SWAP2 DUP3 MSTORE PUSH1 0x20 DUP1 DUP4 KECCAK256 SWAP1 SWAP2 ADD SLOAD PUSH1 0x1 PUSH1 0x1 PUSH1 0xA0 SHL SUB AND DUP4 MSTORE DUP3 ADD SWAP3 SWAP1 SWAP3 MSTORE PUSH1 0x40 ADD DUP2 KECCAK256 DUP6 MLOAD SWAP1 SWAP2 SWAP1 DUP7 SWAP1 DUP7 SWAP1 DUP2 LT PUSH2 0x17E4 JUMPI PUSH2 0x17E4 PUSH2 0x42C5 JUMP JUMPDEST PUSH1 0x20 MUL PUSH1 0x20 ADD ADD MLOAD PUSH1 0x1 PUSH1 0x1 PUSH1 0xA0 SHL SUB AND PUSH1 0x1 PUSH1 0x1 PUSH1 0xA0 SHL SUB AND DUP2 MSTORE PUSH1 0x20 ADD SWAP1 DUP2 MSTORE PUSH1 0x20 ADD PUSH1 0x0 KECCAK256 DUP1 SLOAD DUP1 PUSH1 0x20 MUL PUSH1 0x20 ADD PUSH1 0x40 MLOAD SWAP1 DUP2 ADD PUSH1 0x40 MSTORE DUP1 SWAP3 SWAP2 SWAP1 DUP2 DUP2 MSTORE PUSH1 0x20 ADD DUP3 DUP1 SLOAD DUP1 ISZERO PUSH2 0x1856 JUMPI PUSH1 0x20 MUL DUP3 ADD SWAP2 SWAP1 PUSH1 0x0 MSTORE PUSH1 0x20 PUSH1 0x0 KECCAK256 SWAP1 JUMPDEST DUP2 SLOAD DUP2 MSTORE PUSH1 0x20 ADD SWAP1 PUSH1 0x1 ADD SWAP1 DUP1 DUP4 GT PUSH2 0x1842 JUMPI JUMPDEST POP POP POP POP POP SWAP1 POP PUSH1 0x0 JUMPDEST DUP2 MLOAD DUP2 LT ISZERO PUSH2 0x1B95 JUMPI PUSH1 0x0 JUMPDEST DUP4 MLOAD DUP2 LT ISZERO PUSH2 0x1B82 JUMPI DUP4 DUP2 DUP2 MLOAD DUP2 LT PUSH2 0x1887 JUMPI PUSH2 0x1887 PUSH2 0x42C5 JUMP JUMPDEST PUSH1 0x20 MUL PUSH1 0x20 ADD ADD MLOAD PUSH1 0xC0 ADD MLOAD PUSH2 0x1B70 JUMPI PUSH1 0x0 DUP5 DUP3 DUP2 MLOAD DUP2 LT PUSH2 0x18AB JUMPI PUSH2 0x18AB PUSH2 0x42C5 JUMP JUMPDEST PUSH1 0x20 MUL PUSH1 0x20 ADD ADD MLOAD PUSH1 0x80 ADD MLOAD GT ISZERO PUSH2 0x1B70 JUMPI PUSH1 0x0 PUSH2 0x1931 DUP8 DUP8 DUP2 MLOAD DUP2 LT PUSH2 0x18D4 JUMPI PUSH2 0x18D4 PUSH2 0x42C5 JUMP JUMPDEST PUSH1 0x20 MUL PUSH1 0x20 ADD ADD MLOAD PUSH1 0x8 DUP11 DUP2 SLOAD DUP2 LT PUSH2 0x18EF JUMPI PUSH2 0x18EF PUSH2 0x42C5 JUMP JUMPDEST SWAP1 PUSH1 0x0 MSTORE PUSH1 0x20 PUSH1 0x0 KECCAK256 ADD PUSH1 0x0 SWAP1 SLOAD SWAP1 PUSH2 0x100 EXP SWAP1 DIV PUSH1 0x1 PUSH1 0x1 PUSH1 0xA0 SHL SUB AND DUP5 DUP9 DUP7 DUP2 MLOAD DUP2 LT PUSH2 0x1920 JUMPI PUSH2 0x1920 PUSH2 0x42C5 JUMP JUMPDEST PUSH1 0x20 MUL PUSH1 0x20 ADD ADD MLOAD PUSH1 0x80 ADD MLOAD PUSH2 0x1BCB JUMP JUMPDEST SWAP1 POP PUSH1 0x0 DUP6 DUP4 DUP2 MLOAD DUP2 LT PUSH2 0x1947 JUMPI PUSH2 0x1947 PUSH2 0x42C5 JUMP JUMPDEST PUSH1 0x20 MUL PUSH1 0x20 ADD ADD MLOAD PUSH1 0x20 ADD MLOAD PUSH1 0x1 PUSH1 0x1 PUSH1 0xA0 SHL SUB AND PUSH4 0x70A08231 PUSH1 0x8 DUP12 DUP2 SLOAD DUP2 LT PUSH2 0x1974 JUMPI PUSH2 0x1974 PUSH2 0x42C5 JUMP JUMPDEST PUSH1 0x0 SWAP2 DUP3 MSTORE PUSH1 0x20 SWAP1 SWAP2 KECCAK256 ADD SLOAD PUSH1 0x40 MLOAD PUSH1 0xE0 DUP4 SWAP1 SHL PUSH1 0x1 PUSH1 0x1 PUSH1 0xE0 SHL SUB NOT AND DUP2 MSTORE PUSH1 0x1 PUSH1 0x1 PUSH1 0xA0 SHL SUB SWAP1 SWAP2 AND PUSH1 0x4 DUP3 ADD MSTORE PUSH1 0x24 ADD PUSH1 0x20 PUSH1 0x40 MLOAD DUP1 DUP4 SUB DUP2 DUP7 GAS STATICCALL ISZERO DUP1 ISZERO PUSH2 0x19C4 JUMPI RETURNDATASIZE PUSH1 0x0 DUP1 RETURNDATACOPY RETURNDATASIZE PUSH1 0x0 REVERT JUMPDEST POP POP POP POP PUSH1 0x40 MLOAD RETURNDATASIZE PUSH1 0x1F NOT PUSH1 0x1F DUP3 ADD AND DUP3 ADD DUP1 PUSH1 0x40 MSTORE POP DUP2 ADD SWAP1 PUSH2 0x19E8 SWAP2 SWAP1 PUSH2 0x43F6 JUMP JUMPDEST SWAP1 POP DUP1 PUSH1 0x0 SUB PUSH2 0x19F9 JUMPI POP POP PUSH2 0x1B70 JUMP JUMPDEST PUSH1 0x0 DUP7 DUP5 DUP2 MLOAD DUP2 LT PUSH2 0x1A0D JUMPI PUSH2 0x1A0D PUSH2 0x42C5 JUMP JUMPDEST PUSH1 0x20 MUL PUSH1 0x20 ADD ADD MLOAD PUSH1 0x20 ADD MLOAD PUSH1 0x1 PUSH1 0x1 PUSH1 0xA0 SHL SUB AND PUSH4 0xDD62ED3E PUSH1 0x8 DUP13 DUP2 SLOAD DUP2 LT PUSH2 0x1A3A JUMPI PUSH2 0x1A3A PUSH2 0x42C5 JUMP JUMPDEST PUSH1 0x0 SWAP2 DUP3 MSTORE PUSH1 0x20 SWAP1 SWAP2 KECCAK256 ADD SLOAD PUSH1 0x40 MLOAD PUSH1 0xE0 DUP4 SWAP1 SHL PUSH1 0x1 PUSH1 0x1 PUSH1 0xE0 SHL SUB NOT AND DUP2 MSTORE PUSH1 0x1 PUSH1 0x1 PUSH1 0xA0 SHL SUB SWAP1 SWAP2 AND PUSH1 0x4 DUP3 ADD MSTORE ADDRESS PUSH1 0x24 DUP3 ADD MSTORE PUSH1 0x44 ADD PUSH1 0x20 PUSH1 0x40 MLOAD DUP1 DUP4 SUB DUP2 DUP7 GAS STATICCALL ISZERO DUP1 ISZERO PUSH2 0x1A90 JUMPI RETURNDATASIZE PUSH1 0x0 DUP1 RETURNDATACOPY RETURNDATASIZE PUSH1 0x0 REVERT JUMPDEST POP POP POP POP PUSH1 0x40 MLOAD RETURNDATASIZE PUSH1 0x1F NOT PUSH1 0x1F DUP3 ADD AND DUP3 ADD DUP1 PUSH1 0x40 MSTORE POP DUP2 ADD SWAP1 PUSH2 0x1AB4 SWAP2 SWAP1 PUSH2 0x43F6 JUMP JUMPDEST SWAP1 POP DUP1 PUSH1 0x0 SUB PUSH2 0x1AC6 JUMPI POP POP POP PUSH2 0x1B70 JUMP JUMPDEST PUSH1 0x0 PUSH2 0x1AD3 DUP4 DUP4 DUP7 PUSH2 0x6F1 JUMP JUMPDEST SWAP1 POP PUSH1 0x0 PUSH2 0x1B49 DUP10 DUP8 DUP2 MLOAD DUP2 LT PUSH2 0x1AEC JUMPI PUSH2 0x1AEC PUSH2 0x42C5 JUMP JUMPDEST PUSH1 0x20 MUL PUSH1 0x20 ADD ADD MLOAD PUSH1 0x20 ADD MLOAD PUSH1 0x8 DUP15 DUP2 SLOAD DUP2 LT PUSH2 0x1B0B JUMPI PUSH2 0x1B0B PUSH2 0x42C5 JUMP JUMPDEST SWAP1 PUSH1 0x0 MSTORE PUSH1 0x20 PUSH1 0x0 KECCAK256 ADD PUSH1 0x0 SWAP1 SLOAD SWAP1 PUSH2 0x100 EXP SWAP1 DIV PUSH1 0x1 PUSH1 0x1 PUSH1 0xA0 SHL SUB AND DUP14 DUP14 DUP2 MLOAD DUP2 LT PUSH2 0x1B3B JUMPI PUSH2 0x1B3B PUSH2 0x42C5 JUMP JUMPDEST PUSH1 0x20 MUL PUSH1 0x20 ADD ADD MLOAD DUP6 PUSH2 0x396D JUMP JUMPDEST SWAP1 POP DUP2 DUP2 EQ PUSH2 0x1B6A JUMPI PUSH1 0x40 MLOAD PUSH3 0x461BCD PUSH1 0xE5 SHL DUP2 MSTORE PUSH1 0x4 ADD PUSH2 0x78C SWAP1 PUSH2 0x440F JUMP JUMPDEST POP POP POP POP POP JUMPDEST DUP1 PUSH2 0x1B7A DUP2 PUSH2 0x4478 JUMP JUMPDEST SWAP2 POP POP PUSH2 0x186C JUMP JUMPDEST POP DUP1 PUSH2 0x1B8D DUP2 PUSH2 0x4478 JUMP JUMPDEST SWAP2 POP POP PUSH2 0x1860 JUMP JUMPDEST POP POP POP JUMPDEST DUP1 PUSH2 0x1BA3 DUP2 PUSH2 0x4478 JUMP JUMPDEST SWAP2 POP POP PUSH2 0x15BE JUMP JUMPDEST POP POP DUP1 DUP1 PUSH2 0x1BB8 SWAP1 PUSH2 0x4478 JUMP JUMPDEST SWAP2 POP POP PUSH2 0x151B JUMP JUMPDEST POP JUMPDEST TIMESTAMP PUSH1 0x3 SSTORE JUMPDEST POP POP JUMP JUMPDEST PUSH1 0x0 PUSH1 0x1 PUSH1 0x1 PUSH1 0xA0 SHL SUB DUP6 AND PUSH2 0x1BF3 JUMPI PUSH1 0x40 MLOAD PUSH3 0x461BCD PUSH1 0xE5 SHL DUP2 MSTORE PUSH1 0x4 ADD PUSH2 0x78C SWAP1 PUSH2 0x4363 JUMP JUMPDEST DUP2 PUSH1 0x0 SUB PUSH2 0x1C13 JUMPI PUSH1 0x40 MLOAD PUSH3 0x461BCD PUSH1 0xE5 SHL DUP2 MSTORE PUSH1 0x4 ADD PUSH2 0x78C SWAP1 PUSH2 0x43A5 JUMP JUMPDEST PUSH1 0x1 PUSH1 0x1 PUSH1 0xA0 SHL SUB DUP1 DUP6 AND PUSH1 0x0 SWAP1 DUP2 MSTORE PUSH1 0xF PUSH1 0x20 SWAP1 DUP2 MSTORE PUSH1 0x40 DUP1 DUP4 KECCAK256 SWAP4 DUP10 AND DUP4 MSTORE SWAP3 SWAP1 MSTORE KECCAK256 DUP1 SLOAD PUSH2 0x1C45 PUSH1 0x1 DUP3 PUSH2 0x428B JUMP JUMPDEST DUP6 GT ISZERO PUSH2 0x1C64 JUMPI PUSH1 0x40 MLOAD PUSH3 0x461BCD PUSH1 0xE5 SHL DUP2 MSTORE PUSH1 0x4 ADD PUSH2 0x78C SWAP1 PUSH2 0x429E JUMP JUMPDEST PUSH1 0x1 PUSH1 0x1 PUSH1 0xA0 SHL SUB DUP1 DUP8 AND PUSH1 0x0 SWAP1 DUP2 MSTORE PUSH1 0xF PUSH1 0x20 SWAP1 DUP2 MSTORE PUSH1 0x40 DUP1 DUP4 KECCAK256 SWAP4 DUP12 AND DUP4 MSTORE SWAP3 SWAP1 MSTORE SWAP1 DUP2 KECCAK256 DUP1 SLOAD DUP8 SWAP1 DUP2 LT PUSH2 0x1C9D JUMPI PUSH2 0x1C9D PUSH2 0x42C5 JUMP JUMPDEST SWAP1 PUSH1 0x0 MSTORE PUSH1 0x20 PUSH1 0x0 KECCAK256 SWAP1 PUSH1 0x7 MUL ADD SWAP1 POP PUSH1 0x0 PUSH2 0x1CE6 PUSH8 0xDE0B6B3A7640000 PUSH2 0x1CE0 PUSH1 0x7 SLOAD PUSH2 0x1CE0 PUSH8 0xDE0B6B3A7640000 DUP8 PUSH1 0x2 ADD SLOAD PUSH2 0x39AB SWAP1 SWAP2 SWAP1 PUSH4 0xFFFFFFFF AND JUMP JUMPDEST SWAP1 PUSH2 0x3A2D JUMP JUMPDEST SWAP1 POP PUSH1 0x0 PUSH2 0x1D00 PUSH8 0xDE0B6B3A7640000 PUSH2 0x1CE0 DUP10 DUP6 PUSH2 0x39AB JUMP JUMPDEST SWAP11 SWAP10 POP POP POP POP POP POP POP POP POP POP JUMP JUMPDEST PUSH1 0xB PUSH1 0x20 MSTORE DUP2 PUSH1 0x0 MSTORE PUSH1 0x40 PUSH1 0x0 KECCAK256 DUP2 DUP2 SLOAD DUP2 LT PUSH2 0x6D5 JUMPI PUSH1 0x0 DUP1 REVERT JUMPDEST PUSH1 0xE PUSH1 0x20 MSTORE DUP3 PUSH1 0x0 MSTORE PUSH1 0x40 PUSH1 0x0 KECCAK256 PUSH1 0x20 MSTORE DUP2 PUSH1 0x0 MSTORE PUSH1 0x40 PUSH1 0x0 KECCAK256 DUP2 DUP2 SLOAD DUP2 LT PUSH2 0xCB7 JUMPI PUSH1 0x0 DUP1 REVERT JUMPDEST PUSH2 0x1D5A PUSH2 0x386D JUMP JUMPDEST DUP1 PUSH1 0x0 SUB PUSH2 0x1DB6 JUMPI PUSH1 0x40 MLOAD PUSH3 0x461BCD PUSH1 0xE5 SHL DUP2 MSTORE PUSH1 0x20 PUSH1 0x4 DUP3 ADD MSTORE PUSH1 0x24 DUP1 DUP3 ADD MSTORE PUSH32 0x73657276696365466565206D757374206265206120706F736974697665206E75 PUSH1 0x44 DUP3 ADD MSTORE PUSH4 0x36B132B9 PUSH1 0xE1 SHL PUSH1 0x64 DUP3 ADD MSTORE PUSH1 0x84 ADD PUSH2 0x78C JUMP JUMPDEST PUSH1 0x6 SLOAD DUP2 GT ISZERO PUSH2 0x1E18 JUMPI PUSH1 0x40 MLOAD PUSH3 0x461BCD PUSH1 0xE5 SHL DUP2 MSTORE PUSH1 0x20 PUSH1 0x4 DUP3 ADD MSTORE PUSH1 0x27 PUSH1 0x24 DUP3 ADD MSTORE PUSH32 0x43616E6E6F742065786365656420746865206D6178696D756D20696E74657265 PUSH1 0x44 DUP3 ADD MSTORE PUSH7 0x73742072617465 PUSH1 0xC8 SHL PUSH1 0x64 DUP3 ADD MSTORE PUSH1 0x84 ADD PUSH2 0x78C JUMP JUMPDEST PUSH1 0x4 SLOAD PUSH1 0x40 DUP1 MLOAD SWAP2 DUP3 MSTORE PUSH1 0x20 DUP3 ADD DUP4 SWAP1 MSTORE PUSH32 0xB4C698DDDF4B6B8FBB270A4C12172C4B2906A081E3C98D45790367411F09FD1A SWAP2 ADD PUSH1 0x40 MLOAD DUP1 SWAP2 SUB SWAP1 LOG1 PUSH1 0x4 SSTORE JUMP JUMPDEST PUSH1 0x40 DUP1 MLOAD PUSH1 0xE0 DUP2 ADD DUP3 MSTORE PUSH1 0x0 DUP1 DUP3 MSTORE PUSH1 0x20 DUP1 DUP4 ADD DUP3 SWAP1 MSTORE DUP3 DUP5 ADD DUP3 SWAP1 MSTORE PUSH1 0x60 DUP1 DUP5 ADD DUP4 SWAP1 MSTORE PUSH1 0x80 DUP5 ADD DUP4 SWAP1 MSTORE PUSH1 0xA0 DUP5 ADD MSTORE PUSH1 0xC0 DUP4 ADD DUP3 SWAP1 MSTORE PUSH1 0x1 PUSH1 0x1 PUSH1 0xA0 SHL SUB DUP8 DUP2 AND DUP4 MSTORE PUSH1 0xF DUP3 MSTORE DUP5 DUP4 KECCAK256 SWAP1 DUP8 AND DUP4 MSTORE SWAP1 MSTORE SWAP2 DUP3 KECCAK256 DUP1 SLOAD SWAP2 SWAP3 SWAP2 DUP5 SWAP1 DUP2 LT PUSH2 0x1EC4 JUMPI PUSH2 0x1EC4 PUSH2 0x42C5 JUMP JUMPDEST PUSH1 0x0 SWAP2 DUP3 MSTORE PUSH1 0x20 SWAP2 DUP3 SWAP1 KECCAK256 PUSH1 0x40 DUP1 MLOAD PUSH1 0xE0 DUP2 ADD DUP3 MSTORE PUSH1 0x7 SWAP1 SWAP4 MUL SWAP1 SWAP2 ADD DUP1 SLOAD PUSH1 0x1 PUSH1 0x1 PUSH1 0xA0 SHL SUB SWAP1 DUP2 AND DUP5 MSTORE PUSH1 0x1 DUP3 ADD SLOAD AND SWAP4 DUP4 ADD SWAP4 SWAP1 SWAP4 MSTORE PUSH1 0x2 DUP4 ADD SLOAD SWAP1 DUP3 ADD MSTORE PUSH1 0x3 DUP3 ADD SLOAD PUSH1 0x60 DUP3 ADD MSTORE PUSH1 0x4 DUP3 ADD SLOAD PUSH1 0x80 DUP3 ADD MSTORE PUSH1 0x5 DUP3 ADD DUP1 SLOAD SWAP2 SWAP3 SWAP2 PUSH1 0xA0 DUP5 ADD SWAP2 SWAP1 PUSH2 0x1F32 SWAP1 PUSH2 0x4329 JUMP JUMPDEST DUP1 PUSH1 0x1F ADD PUSH1 0x20 DUP1 SWAP2 DIV MUL PUSH1 0x20 ADD PUSH1 0x40 MLOAD SWAP1 DUP2 ADD PUSH1 0x40 MSTORE DUP1 SWAP3 SWAP2 SWAP1 DUP2 DUP2 MSTORE PUSH1 0x20 ADD DUP3 DUP1 SLOAD PUSH2 0x1F5E SWAP1 PUSH2 0x4329 JUMP JUMPDEST DUP1 ISZERO PUSH2 0x1FAB JUMPI DUP1 PUSH1 0x1F LT PUSH2 0x1F80 JUMPI PUSH2 0x100 DUP1 DUP4 SLOAD DIV MUL DUP4 MSTORE SWAP2 PUSH1 0x20 ADD SWAP2 PUSH2 0x1FAB JUMP JUMPDEST DUP3 ADD SWAP2 SWAP1 PUSH1 0x0 MSTORE PUSH1 0x20 PUSH1 0x0 KECCAK256 SWAP1 JUMPDEST DUP2 SLOAD DUP2 MSTORE SWAP1 PUSH1 0x1 ADD SWAP1 PUSH1 0x20 ADD DUP1 DUP4 GT PUSH2 0x1F8E JUMPI DUP3 SWAP1 SUB PUSH1 0x1F AND DUP3 ADD SWAP2 JUMPDEST POP POP POP SWAP2 DUP4 MSTORE POP POP PUSH1 0x6 SWAP2 SWAP1 SWAP2 ADD SLOAD PUSH1 0xFF AND ISZERO ISZERO PUSH1 0x20 SWAP1 SWAP2 ADD MSTORE SWAP6 SWAP5 POP POP POP POP POP JUMP JUMPDEST PUSH1 0x0 PUSH1 0x60 PUSH2 0x1FDA PUSH2 0x3920 JUMP JUMPDEST PUSH1 0x2 SLOAD PUSH1 0x3 SLOAD PUSH2 0x1FEA SWAP2 SWAP1 PUSH2 0x4465 JUMP JUMPDEST TIMESTAMP GT ISZERO PUSH2 0x1FF9 JUMPI PUSH1 0x8 SLOAD ISZERO ISZERO SWAP2 POP JUMPDEST SWAP3 POP SWAP3 SWAP1 POP JUMP JUMPDEST PUSH2 0x2008 PUSH2 0x386D JUMP JUMPDEST PUSH2 0x2012 PUSH1 0x0 PUSH2 0x3A6F JUMP JUMPDEST JUMP JUMPDEST PUSH2 0x201C PUSH2 0x38C7 JUMP JUMPDEST PUSH2 0x2024 PUSH2 0x3920 JUMP JUMPDEST PUSH1 0x1 PUSH1 0x1 PUSH1 0xA0 SHL SUB DUP6 AND PUSH2 0x2088 JUMPI PUSH1 0x40 MLOAD PUSH3 0x461BCD PUSH1 0xE5 SHL DUP2 MSTORE PUSH1 0x20 PUSH1 0x4 DUP3 ADD MSTORE PUSH1 0x25 PUSH1 0x24 DUP3 ADD MSTORE PUSH32 0x5F617070726F766541646472657373206973206E6F742061207A65726F206164 PUSH1 0x44 DUP3 ADD MSTORE PUSH5 0x6472657373 PUSH1 0xD8 SHL PUSH1 0x64 DUP3 ADD MSTORE PUSH1 0x84 ADD PUSH2 0x78C JUMP JUMPDEST PUSH1 0x1 PUSH1 0x1 PUSH1 0xA0 SHL SUB DUP4 AND PUSH2 0x20DE JUMPI PUSH1 0x40 MLOAD PUSH3 0x461BCD PUSH1 0xE5 SHL DUP2 MSTORE PUSH1 0x20 PUSH1 0x4 DUP3 ADD MSTORE PUSH1 0x1C PUSH1 0x24 DUP3 ADD MSTORE PUSH32 0x5F746F6B656E206973206E6F742061207A65726F206164647265737300000000 PUSH1 0x44 DUP3 ADD MSTORE PUSH1 0x64 ADD PUSH2 0x78C JUMP JUMPDEST PUSH1 0x6 SLOAD DUP3 GT ISZERO PUSH2 0x213F JUMPI PUSH1 0x40 MLOAD PUSH3 0x461BCD PUSH1 0xE5 SHL DUP2 MSTORE PUSH1 0x20 PUSH1 0x4 DUP3 ADD MSTORE PUSH1 0x26 PUSH1 0x24 DUP3 ADD MSTORE PUSH32 0x4D757374206265206C657373207468616E20746865206D6178696D756D20696E PUSH1 0x44 DUP3 ADD MSTORE PUSH6 0x1D195C995CDD PUSH1 0xD2 SHL PUSH1 0x64 DUP3 ADD MSTORE PUSH1 0x84 ADD PUSH2 0x78C JUMP JUMPDEST CALLER PUSH1 0x1 PUSH1 0x1 PUSH1 0xA0 SHL SUB DUP7 AND SUB PUSH2 0x21A1 JUMPI PUSH1 0x40 MLOAD PUSH3 0x461BCD PUSH1 0xE5 SHL DUP2 MSTORE PUSH1 0x20 PUSH1 0x4 DUP3 ADD MSTORE PUSH1 0x21 PUSH1 0x24 DUP3 ADD MSTORE PUSH32 0x617070726F76652061646472657373206973206E6F74206D73672E73656E6465 PUSH1 0x44 DUP3 ADD MSTORE PUSH1 0x39 PUSH1 0xF9 SHL PUSH1 0x64 DUP3 ADD MSTORE PUSH1 0x84 ADD PUSH2 0x78C JUMP JUMPDEST PUSH1 0x40 MLOAD PUSH4 0x6EB1769F PUSH1 0xE1 SHL DUP2 MSTORE CALLER PUSH1 0x4 DUP3 ADD MSTORE ADDRESS PUSH1 0x24 DUP3 ADD MSTORE PUSH1 0x0 SWAP1 PUSH1 0x1 PUSH1 0x1 PUSH1 0xA0 SHL SUB DUP6 AND SWAP1 PUSH4 0xDD62ED3E SWAP1 PUSH1 0x44 ADD PUSH1 0x20 PUSH1 0x40 MLOAD DUP1 DUP4 SUB DUP2 DUP7 GAS STATICCALL ISZERO DUP1 ISZERO PUSH2 0x21EE JUMPI RETURNDATASIZE PUSH1 0x0 DUP1 RETURNDATACOPY RETURNDATASIZE PUSH1 0x0 REVERT JUMPDEST POP POP POP POP PUSH1 0x40 MLOAD RETURNDATASIZE PUSH1 0x1F NOT PUSH1 0x1F DUP3 ADD AND DUP3 ADD DUP1 PUSH1 0x40 MSTORE POP DUP2 ADD SWAP1 PUSH2 0x2212 SWAP2 SWAP1 PUSH2 0x43F6 JUMP JUMPDEST SWAP1 POP DUP1 DUP3 GT ISZERO PUSH2 0x225D JUMPI PUSH1 0x40 MLOAD PUSH3 0x461BCD PUSH1 0xE5 SHL DUP2 MSTORE PUSH1 0x20 PUSH1 0x4 DUP3 ADD MSTORE PUSH1 0x16 PUSH1 0x24 DUP3 ADD MSTORE PUSH22 0x4C656E64206C61636B206F6620616C6C6F77616E6365 PUSH1 0x50 SHL PUSH1 0x44 DUP3 ADD MSTORE PUSH1 0x64 ADD PUSH2 0x78C JUMP JUMPDEST PUSH1 0x40 MLOAD PUSH4 0x70A08231 PUSH1 0xE0 SHL DUP2 MSTORE CALLER PUSH1 0x4 DUP3 ADD MSTORE PUSH1 0x0 SWAP1 PUSH1 0x1 PUSH1 0x1 PUSH1 0xA0 SHL SUB DUP7 AND SWAP1 PUSH4 0x70A08231 SWAP1 PUSH1 0x24 ADD PUSH1 0x20 PUSH1 0x40 MLOAD DUP1 DUP4 SUB DUP2 DUP7 GAS STATICCALL ISZERO DUP1 ISZERO PUSH2 0x22A4 JUMPI RETURNDATASIZE PUSH1 0x0 DUP1 RETURNDATACOPY RETURNDATASIZE PUSH1 0x0 REVERT JUMPDEST POP POP POP POP PUSH1 0x40 MLOAD RETURNDATASIZE PUSH1 0x1F NOT PUSH1 0x1F DUP3 ADD AND DUP3 ADD DUP1 PUSH1 0x40 MSTORE POP DUP2 ADD SWAP1 PUSH2 0x22C8 SWAP2 SWAP1 PUSH2 0x43F6 JUMP JUMPDEST SWAP1 POP DUP1 DUP4 GT ISZERO PUSH2 0x2340 JUMPI PUSH1 0x40 MLOAD PUSH3 0x461BCD PUSH1 0xE5 SHL DUP2 MSTORE PUSH1 0x20 PUSH1 0x4 DUP3 ADD MSTORE PUSH1 0x38 PUSH1 0x24 DUP3 ADD MSTORE PUSH32 0x54686520617574686F72697A6564207175616E74697479206D75737420626520 PUSH1 0x44 DUP3 ADD MSTORE PUSH32 0x67726561746572207468616E207468652062616C616E63650000000000000000 PUSH1 0x64 DUP3 ADD MSTORE PUSH1 0x84 ADD PUSH2 0x78C JUMP JUMPDEST CALLER PUSH1 0x0 SWAP1 DUP2 MSTORE PUSH1 0x12 PUSH1 0x20 SWAP1 DUP2 MSTORE PUSH1 0x40 DUP1 DUP4 KECCAK256 PUSH1 0x1 PUSH1 0x1 PUSH1 0xA0 SHL SUB DUP12 AND DUP5 MSTORE SWAP1 SWAP2 MSTORE SWAP1 KECCAK256 SLOAD PUSH1 0xFF AND DUP1 PUSH2 0x23CA JUMPI CALLER PUSH1 0x0 DUP2 DUP2 MSTORE PUSH1 0x12 PUSH1 0x20 SWAP1 DUP2 MSTORE PUSH1 0x40 DUP1 DUP4 KECCAK256 PUSH1 0x1 PUSH1 0x1 PUSH1 0xA0 SHL SUB DUP14 AND DUP1 DUP6 MSTORE SWAP1 DUP4 MSTORE DUP2 DUP5 KECCAK256 DUP1 SLOAD PUSH1 0xFF NOT DUP2 AND PUSH1 0xFF SWAP1 SWAP2 AND ISZERO OR SWAP1 SSTORE SWAP4 DUP4 MSTORE PUSH1 0x10 DUP3 MSTORE DUP3 KECCAK256 DUP1 SLOAD PUSH1 0x1 DUP2 ADD DUP3 SSTORE SWAP1 DUP4 MSTORE SWAP2 KECCAK256 ADD DUP1 SLOAD PUSH1 0x1 PUSH1 0x1 PUSH1 0xA0 SHL SUB NOT AND SWAP1 SWAP2 OR SWAP1 SSTORE JUMPDEST PUSH1 0x1 PUSH1 0x1 PUSH1 0xA0 SHL SUB DUP9 AND PUSH1 0x0 SWAP1 DUP2 MSTORE PUSH1 0x13 PUSH1 0x20 SWAP1 DUP2 MSTORE PUSH1 0x40 DUP1 DUP4 KECCAK256 CALLER DUP5 MSTORE SWAP1 SWAP2 MSTORE SWAP1 KECCAK256 SLOAD PUSH1 0xFF AND DUP1 PUSH2 0x2454 JUMPI PUSH1 0x1 PUSH1 0x1 PUSH1 0xA0 SHL SUB DUP10 AND PUSH1 0x0 DUP2 DUP2 MSTORE PUSH1 0x13 PUSH1 0x20 SWAP1 DUP2 MSTORE PUSH1 0x40 DUP1 DUP4 KECCAK256 CALLER DUP1 DUP6 MSTORE SWAP1 DUP4 MSTORE DUP2 DUP5 KECCAK256 DUP1 SLOAD PUSH1 0xFF NOT DUP2 AND PUSH1 0xFF SWAP1 SWAP2 AND ISZERO OR SWAP1 SSTORE SWAP4 DUP4 MSTORE PUSH1 0x11 DUP3 MSTORE DUP3 KECCAK256 DUP1 SLOAD PUSH1 0x1 DUP2 ADD DUP3 SSTORE SWAP1 DUP4 MSTORE SWAP2 KECCAK256 ADD DUP1 SLOAD PUSH1 0x1 PUSH1 0x1 PUSH1 0xA0 SHL SUB NOT AND SWAP1 SWAP2 OR SWAP1 SSTORE JUMPDEST PUSH1 0x0 PUSH1 0xE PUSH1 0x0 CALLER PUSH1 0x1 PUSH1 0x1 PUSH1 0xA0 SHL SUB AND PUSH1 0x1 PUSH1 0x1 PUSH1 0xA0 SHL SUB AND DUP2 MSTORE PUSH1 0x20 ADD SWAP1 DUP2 MSTORE PUSH1 0x20 ADD PUSH1 0x0 KECCAK256 PUSH1 0x0 DUP12 PUSH1 0x1 PUSH1 0x1 PUSH1 0xA0 SHL SUB AND PUSH1 0x1 PUSH1 0x1 PUSH1 0xA0 SHL SUB AND DUP2 MSTORE PUSH1 0x20 ADD SWAP1 DUP2 MSTORE PUSH1 0x20 ADD PUSH1 0x0 KECCAK256 SWAP1 POP DUP1 PUSH1 0x40 MLOAD DUP1 PUSH1 0xE0 ADD PUSH1 0x40 MSTORE DUP1 DUP13 PUSH1 0x1 PUSH1 0x1 PUSH1 0xA0 SHL SUB AND DUP2 MSTORE PUSH1 0x20 ADD DUP11 PUSH1 0x1 PUSH1 0x1 PUSH1 0xA0 SHL SUB AND DUP2 MSTORE PUSH1 0x20 ADD DUP10 DUP2 MSTORE PUSH1 0x20 ADD DUP9 DUP2 MSTORE PUSH1 0x20 ADD PUSH1 0x0 DUP2 MSTORE PUSH1 0x20 ADD DUP12 DUP2 MSTORE PUSH1 0x20 ADD PUSH1 0x0 ISZERO ISZERO DUP2 MSTORE POP SWAP1 DUP1 PUSH1 0x1 DUP2 SLOAD ADD DUP1 DUP3 SSTORE DUP1 SWAP2 POP POP PUSH1 0x1 SWAP1 SUB SWAP1 PUSH1 0x0 MSTORE PUSH1 0x20 PUSH1 0x0 KECCAK256 SWAP1 PUSH1 0x7 MUL ADD PUSH1 0x0 SWAP1 SWAP2 SWAP1 SWAP2 SWAP1 SWAP2 POP PUSH1 0x0 DUP3 ADD MLOAD DUP2 PUSH1 0x0 ADD PUSH1 0x0 PUSH2 0x100 EXP DUP2 SLOAD DUP2 PUSH1 0x1 PUSH1 0x1 PUSH1 0xA0 SHL SUB MUL NOT AND SWAP1 DUP4 PUSH1 0x1 PUSH1 0x1 PUSH1 0xA0 SHL SUB AND MUL OR SWAP1 SSTORE POP PUSH1 0x20 DUP3 ADD MLOAD DUP2 PUSH1 0x1 ADD PUSH1 0x0 PUSH2 0x100 EXP DUP2 SLOAD DUP2 PUSH1 0x1 PUSH1 0x1 PUSH1 0xA0 SHL SUB MUL NOT AND SWAP1 DUP4 PUSH1 0x1 PUSH1 0x1 PUSH1 0xA0 SHL SUB AND MUL OR SWAP1 SSTORE POP PUSH1 0x40 DUP3 ADD MLOAD DUP2 PUSH1 0x2 ADD SSTORE PUSH1 0x60 DUP3 ADD MLOAD DUP2 PUSH1 0x3 ADD SSTORE PUSH1 0x80 DUP3 ADD MLOAD DUP2 PUSH1 0x4 ADD SSTORE PUSH1 0xA0 DUP3 ADD MLOAD DUP2 PUSH1 0x5 ADD SWAP1 DUP2 PUSH2 0x25A0 SWAP2 SWAP1 PUSH2 0x44DF JUMP JUMPDEST POP PUSH1 0xC0 SWAP2 DUP3 ADD MLOAD PUSH1 0x6 SWAP2 SWAP1 SWAP2 ADD DUP1 SLOAD PUSH1 0xFF NOT AND SWAP2 ISZERO ISZERO SWAP2 SWAP1 SWAP2 OR SWAP1 SSTORE PUSH1 0x1 PUSH1 0x1 PUSH1 0xA0 SHL SUB DUP12 DUP2 AND PUSH1 0x0 SWAP1 DUP2 MSTORE PUSH1 0xF PUSH1 0x20 SWAP1 DUP2 MSTORE PUSH1 0x40 DUP1 DUP4 KECCAK256 CALLER DUP1 DUP6 MSTORE SWAP1 DUP4 MSTORE DUP2 DUP5 KECCAK256 DUP3 MLOAD PUSH1 0xE0 DUP2 ADD DUP5 MSTORE SWAP2 DUP3 MSTORE DUP15 DUP7 AND DUP3 DUP6 ADD SWAP1 DUP2 MSTORE DUP3 DUP5 ADD DUP16 DUP2 MSTORE PUSH1 0x60 DUP5 ADD DUP16 DUP2 MSTORE PUSH1 0x80 DUP6 ADD DUP9 DUP2 MSTORE DUP7 MLOAD DUP1 DUP10 ADD SWAP1 SWAP8 MSTORE DUP9 DUP8 MSTORE PUSH1 0xA0 DUP7 ADD SWAP7 DUP8 MSTORE SWAP10 DUP6 ADD DUP9 SWAP1 MSTORE DUP4 SLOAD PUSH1 0x1 DUP2 DUP2 ADD DUP7 SSTORE DUP6 DUP11 MSTORE SWAP8 SWAP1 SWAP9 KECCAK256 DUP6 MLOAD PUSH1 0x7 SWAP1 SWAP10 MUL ADD DUP1 SLOAD PUSH1 0x1 PUSH1 0x1 PUSH1 0xA0 SHL SUB NOT SWAP1 DUP2 AND SWAP10 DUP12 AND SWAP10 SWAP1 SWAP10 OR DUP2 SSTORE SWAP3 MLOAD SWAP7 DUP4 ADD DUP1 SLOAD SWAP1 SWAP9 AND SWAP7 SWAP1 SWAP9 AND SWAP6 SWAP1 SWAP6 OR SWAP1 SWAP6 SSTORE SWAP3 MLOAD PUSH1 0x2 DUP6 ADD SSTORE SWAP4 MLOAD PUSH1 0x3 DUP5 ADD SSTORE SWAP4 MLOAD PUSH1 0x4 DUP4 ADD SSTORE SWAP3 MLOAD PUSH1 0x5 DUP3 ADD SWAP1 PUSH2 0x268C SWAP1 DUP3 PUSH2 0x44DF JUMP JUMPDEST POP PUSH1 0xC0 DUP3 ADD MLOAD DUP2 PUSH1 0x6 ADD PUSH1 0x0 PUSH2 0x100 EXP DUP2 SLOAD DUP2 PUSH1 0xFF MUL NOT AND SWAP1 DUP4 ISZERO ISZERO MUL OR SWAP1 SSTORE POP POP POP DUP7 DUP9 DUP13 PUSH1 0x1 PUSH1 0x1 PUSH1 0xA0 SHL SUB AND PUSH32 0x6A1AECE8C884572EA74CEB28400EEFF08A21CD618456B7FA364DF088155BDFA4 DUP14 DUP14 PUSH1 0x40 MLOAD PUSH2 0x26EC SWAP3 SWAP2 SWAP1 PUSH2 0x459F JUMP JUMPDEST PUSH1 0x40 MLOAD DUP1 SWAP2 SUB SWAP1 LOG4 POP POP POP POP POP POP PUSH2 0x2703 PUSH1 0x1 DUP1 SSTORE JUMP JUMPDEST POP POP POP POP POP JUMP JUMPDEST PUSH1 0x40 DUP1 MLOAD PUSH1 0xE0 DUP2 ADD DUP3 MSTORE PUSH1 0x0 DUP1 DUP3 MSTORE PUSH1 0x20 DUP1 DUP4 ADD DUP3 SWAP1 MSTORE DUP3 DUP5 ADD DUP3 SWAP1 MSTORE PUSH1 0x60 DUP1 DUP5 ADD DUP4 SWAP1 MSTORE PUSH1 0x80 DUP5 ADD DUP4 SWAP1 MSTORE PUSH1 0xA0 DUP5 ADD MSTORE PUSH1 0xC0 DUP4 ADD DUP3 SWAP1 MSTORE PUSH1 0x1 PUSH1 0x1 PUSH1 0xA0 SHL SUB DUP8 DUP2 AND DUP4 MSTORE PUSH1 0xE DUP3 MSTORE DUP5 DUP4 KECCAK256 SWAP1 DUP8 AND DUP4 MSTORE SWAP1 MSTORE SWAP2 DUP3 KECCAK256 DUP1 SLOAD SWAP2 SWAP3 SWAP2 DUP5 SWAP1 DUP2 LT PUSH2 0x1EC4 JUMPI PUSH2 0x1EC4 PUSH2 0x42C5 JUMP JUMPDEST PUSH1 0x11 PUSH1 0x20 MSTORE DUP2 PUSH1 0x0 MSTORE PUSH1 0x40 PUSH1 0x0 KECCAK256 DUP2 DUP2 SLOAD DUP2 LT PUSH2 0x6D5 JUMPI PUSH1 0x0 DUP1 REVERT JUMPDEST PUSH2 0x2799 PUSH2 0x386D JUMP JUMPDEST PUSH1 0x6 SLOAD PUSH1 0x40 DUP1 MLOAD SWAP2 DUP3 MSTORE PUSH1 0x20 DUP3 ADD DUP4 SWAP1 MSTORE PUSH32 0x71BD95BE08719E929A1FF7D683DA62CFB71AE69E3BE29A6CD567459AB05C796 SWAP2 ADD PUSH1 0x40 MLOAD DUP1 SWAP2 SUB SWAP1 LOG1 PUSH1 0x6 SSTORE JUMP JUMPDEST PUSH2 0x27E2 PUSH2 0x386D JUMP JUMPDEST PUSH1 0x0 DUP2 GT PUSH2 0x2832 JUMPI PUSH1 0x40 MLOAD PUSH3 0x461BCD PUSH1 0xE5 SHL DUP2 MSTORE PUSH1 0x20 PUSH1 0x4 DUP3 ADD MSTORE PUSH1 0x1D PUSH1 0x24 DUP3 ADD MSTORE PUSH32 0x4E657720626173652075696E74206D7573742062652067726561742030000000 PUSH1 0x44 DUP3 ADD MSTORE PUSH1 0x64 ADD PUSH2 0x78C JUMP JUMPDEST PUSH1 0x7 SLOAD PUSH1 0x40 DUP1 MLOAD SWAP2 DUP3 MSTORE PUSH1 0x20 DUP3 ADD DUP4 SWAP1 MSTORE PUSH32 0x8FCDE9E17E0CF7FF4C61C958ED4F84559EF4641F2E33866C10566D07D0560B05 SWAP2 ADD PUSH1 0x40 MLOAD DUP1 SWAP2 SUB SWAP1 LOG1 PUSH1 0x7 SSTORE JUMP JUMPDEST PUSH1 0xD PUSH1 0x20 MSTORE DUP3 PUSH1 0x0 MSTORE PUSH1 0x40 PUSH1 0x0 KECCAK256 PUSH1 0x20 MSTORE DUP2 PUSH1 0x0 MSTORE PUSH1 0x40 PUSH1 0x0 KECCAK256 DUP2 DUP2 SLOAD DUP2 LT PUSH2 0x289B JUMPI PUSH1 0x0 DUP1 REVERT JUMPDEST SWAP1 PUSH1 0x0 MSTORE PUSH1 0x20 PUSH1 0x0 KECCAK256 ADD PUSH1 0x0 SWAP3 POP SWAP3 POP POP POP SLOAD DUP2 JUMP JUMPDEST PUSH1 0x0 DUP1 PUSH20 0x57AE7F7700542D33184AE5B8E879074EC77ACBB2 SWAP1 POP PUSH1 0x0 DUP2 PUSH1 0x1 PUSH1 0x1 PUSH1 0xA0 SHL SUB AND PUSH4 0xD21220A7 PUSH1 0x40 MLOAD DUP2 PUSH4 0xFFFFFFFF AND PUSH1 0xE0 SHL DUP2 MSTORE PUSH1 0x4 ADD PUSH1 0x20 PUSH1 0x40 MLOAD DUP1 DUP4 SUB DUP2 DUP7 GAS STATICCALL ISZERO DUP1 ISZERO PUSH2 0x290B JUMPI RETURNDATASIZE PUSH1 0x0 DUP1 RETURNDATACOPY RETURNDATASIZE PUSH1 0x0 REVERT JUMPDEST POP POP POP POP PUSH1 0x40 MLOAD RETURNDATASIZE PUSH1 0x1F NOT PUSH1 0x1F DUP3 ADD AND DUP3 ADD DUP1 PUSH1 0x40 MSTORE POP DUP2 ADD SWAP1 PUSH2 0x292F SWAP2 SWAP1 PUSH2 0x45C9 JUMP JUMPDEST SWAP1 POP PUSH1 0x0 DUP1 DUP4 PUSH1 0x1 PUSH1 0x1 PUSH1 0xA0 SHL SUB AND PUSH4 0x902F1AC PUSH1 0x40 MLOAD DUP2 PUSH4 0xFFFFFFFF AND PUSH1 0xE0 SHL DUP2 MSTORE PUSH1 0x4 ADD PUSH1 0x60 PUSH1 0x40 MLOAD DUP1 DUP4 SUB DUP2 DUP7 GAS STATICCALL ISZERO DUP1 ISZERO PUSH2 0x2972 JUMPI RETURNDATASIZE PUSH1 0x0 DUP1 RETURNDATACOPY RETURNDATASIZE PUSH1 0x0 REVERT JUMPDEST POP POP POP POP PUSH1 0x40 MLOAD RETURNDATASIZE PUSH1 0x1F NOT PUSH1 0x1F DUP3 ADD AND DUP3 ADD DUP1 PUSH1 0x40 MSTORE POP DUP2 ADD SWAP1 PUSH2 0x2996 SWAP2 SWAP1 PUSH2 0x45FD JUMP JUMPDEST POP PUSH1 0x1 PUSH1 0x1 PUSH1 0x70 SHL SUB AND SWAP2 POP PUSH1 0x1 PUSH1 0x1 PUSH1 0x70 SHL SUB AND SWAP2 POP PUSH1 0x0 DUP4 PUSH1 0x1 PUSH1 0x1 PUSH1 0xA0 SHL SUB AND PUSH4 0x313CE567 PUSH1 0x40 MLOAD DUP2 PUSH4 0xFFFFFFFF AND PUSH1 0xE0 SHL DUP2 MSTORE PUSH1 0x4 ADD PUSH1 0x20 PUSH1 0x40 MLOAD DUP1 DUP4 SUB DUP2 DUP7 GAS STATICCALL ISZERO DUP1 ISZERO PUSH2 0x29ED JUMPI RETURNDATASIZE PUSH1 0x0 DUP1 RETURNDATACOPY RETURNDATASIZE PUSH1 0x0 REVERT JUMPDEST POP POP POP POP PUSH1 0x40 MLOAD RETURNDATASIZE PUSH1 0x1F NOT PUSH1 0x1F DUP3 ADD AND DUP3 ADD DUP1 PUSH1 0x40 MSTORE POP DUP2 ADD SWAP1 PUSH2 0x2A11 SWAP2 SWAP1 PUSH2 0x464D JUMP JUMPDEST PUSH2 0x2A1C SWAP1 PUSH1 0xA PUSH2 0x4754 JUMP JUMPDEST PUSH2 0x2A26 SWAP1 DUP5 PUSH2 0x4763 JUMP JUMPDEST SWAP1 POP DUP4 PUSH1 0x1 PUSH1 0x1 PUSH1 0xA0 SHL SUB AND PUSH4 0x313CE567 PUSH1 0x40 MLOAD DUP2 PUSH4 0xFFFFFFFF AND PUSH1 0xE0 SHL DUP2 MSTORE PUSH1 0x4 ADD PUSH1 0x20 PUSH1 0x40 MLOAD DUP1 DUP4 SUB DUP2 DUP7 GAS STATICCALL ISZERO DUP1 ISZERO PUSH2 0x2A66 JUMPI RETURNDATASIZE PUSH1 0x0 DUP1 RETURNDATACOPY RETURNDATASIZE PUSH1 0x0 REVERT JUMPDEST POP POP POP POP PUSH1 0x40 MLOAD RETURNDATASIZE PUSH1 0x1F NOT PUSH1 0x1F DUP3 ADD AND DUP3 ADD DUP1 PUSH1 0x40 MSTORE POP DUP2 ADD SWAP1 PUSH2 0x2A8A SWAP2 SWAP1 PUSH2 0x464D JUMP JUMPDEST PUSH2 0x2A95 SWAP1 PUSH1 0xA PUSH2 0x4754 JUMP JUMPDEST DUP3 PUSH2 0x2AA0 DUP4 DUP11 PUSH2 0x4763 JUMP JUMPDEST PUSH2 0x2AAA SWAP2 SWAP1 PUSH2 0x477A JUMP JUMPDEST PUSH2 0x2AB4 SWAP2 SWAP1 PUSH2 0x477A JUMP JUMPDEST SWAP8 SWAP7 POP POP POP POP POP POP POP JUMP JUMPDEST PUSH1 0x8 DUP2 DUP2 SLOAD DUP2 LT PUSH2 0x2ACF JUMPI PUSH1 0x0 DUP1 REVERT JUMPDEST PUSH1 0x0 SWAP2 DUP3 MSTORE PUSH1 0x20 SWAP1 SWAP2 KECCAK256 ADD SLOAD PUSH1 0x1 PUSH1 0x1 PUSH1 0xA0 SHL SUB AND SWAP1 POP DUP2 JUMP JUMPDEST PUSH2 0x2AF1 PUSH2 0x38C7 JUMP JUMPDEST PUSH2 0x2AF9 PUSH2 0x3920 JUMP JUMPDEST PUSH1 0x1 PUSH1 0x1 PUSH1 0xA0 SHL SUB DUP4 AND PUSH2 0x2B1F JUMPI PUSH1 0x40 MLOAD PUSH3 0x461BCD PUSH1 0xE5 SHL DUP2 MSTORE PUSH1 0x4 ADD PUSH2 0x78C SWAP1 PUSH2 0x4363 JUMP JUMPDEST CALLER PUSH1 0x1 PUSH1 0x1 PUSH1 0xA0 SHL SUB DUP5 AND SUB PUSH2 0x2B77 JUMPI PUSH1 0x40 MLOAD PUSH3 0x461BCD PUSH1 0xE5 SHL DUP2 MSTORE PUSH1 0x20 PUSH1 0x4 DUP3 ADD MSTORE PUSH1 0x1D PUSH1 0x24 DUP3 ADD MSTORE PUSH32 0x6C656E6441646472657373206973206E6F74206D73672E73656E646572000000 PUSH1 0x44 DUP3 ADD MSTORE PUSH1 0x64 ADD PUSH2 0x78C JUMP JUMPDEST DUP1 PUSH1 0x0 SUB PUSH2 0x2BE2 JUMPI PUSH1 0x40 MLOAD PUSH3 0x461BCD PUSH1 0xE5 SHL DUP2 MSTORE PUSH1 0x20 PUSH1 0x4 DUP3 ADD MSTORE PUSH1 0x32 PUSH1 0x24 DUP3 ADD MSTORE PUSH32 0x546865206E756D626572206F6620626F72726F77657220616D6F756E74206361 PUSH1 0x44 DUP3 ADD MSTORE PUSH18 0x6E6E6F7420626520657175616C20746F203 PUSH1 0x74 SHL PUSH1 0x64 DUP3 ADD MSTORE PUSH1 0x84 ADD PUSH2 0x78C JUMP JUMPDEST CALLER PUSH1 0x0 SWAP1 DUP2 MSTORE PUSH1 0x13 PUSH1 0x20 SWAP1 DUP2 MSTORE PUSH1 0x40 DUP1 DUP4 KECCAK256 PUSH1 0x1 PUSH1 0x1 PUSH1 0xA0 SHL SUB DUP8 AND DUP5 MSTORE SWAP1 SWAP2 MSTORE SWAP1 KECCAK256 SLOAD PUSH1 0xFF AND PUSH2 0x2C55 JUMPI PUSH1 0x40 MLOAD PUSH3 0x461BCD PUSH1 0xE5 SHL DUP2 MSTORE PUSH1 0x20 PUSH1 0x4 DUP3 ADD DUP2 SWAP1 MSTORE PUSH1 0x24 DUP3 ADD MSTORE PUSH32 0x6C656E646572206973206E6F7420617070726F7665206D73672E73656E646572 PUSH1 0x44 DUP3 ADD MSTORE PUSH1 0x64 ADD PUSH2 0x78C JUMP JUMPDEST CALLER PUSH1 0x0 SWAP1 DUP2 MSTORE PUSH1 0xF PUSH1 0x20 SWAP1 DUP2 MSTORE PUSH1 0x40 DUP1 DUP4 KECCAK256 PUSH1 0x1 PUSH1 0x1 PUSH1 0xA0 SHL SUB DUP8 AND DUP5 MSTORE SWAP1 SWAP2 MSTORE SWAP1 KECCAK256 DUP1 SLOAD PUSH2 0x2C85 PUSH1 0x1 DUP3 PUSH2 0x428B JUMP JUMPDEST DUP5 GT ISZERO PUSH2 0x2CA4 JUMPI PUSH1 0x40 MLOAD PUSH3 0x461BCD PUSH1 0xE5 SHL DUP2 MSTORE PUSH1 0x4 ADD PUSH2 0x78C SWAP1 PUSH2 0x429E JUMP JUMPDEST CALLER PUSH1 0x0 SWAP1 DUP2 MSTORE PUSH1 0xF PUSH1 0x20 SWAP1 DUP2 MSTORE PUSH1 0x40 DUP1 DUP4 KECCAK256 PUSH1 0x1 PUSH1 0x1 PUSH1 0xA0 SHL SUB DUP10 AND DUP5 MSTORE SWAP1 SWAP2 MSTORE DUP2 KECCAK256 DUP1 SLOAD DUP7 SWAP1 DUP2 LT PUSH2 0x2CD9 JUMPI PUSH2 0x2CD9 PUSH2 0x42C5 JUMP JUMPDEST PUSH1 0x0 SWAP2 DUP3 MSTORE PUSH1 0x20 SWAP1 SWAP2 KECCAK256 PUSH1 0x7 SWAP1 SWAP2 MUL ADD PUSH1 0x6 DUP2 ADD SLOAD SWAP1 SWAP2 POP PUSH1 0xFF AND ISZERO PUSH2 0x2D11 JUMPI PUSH1 0x40 MLOAD PUSH3 0x461BCD PUSH1 0xE5 SHL DUP2 MSTORE PUSH1 0x4 ADD PUSH2 0x78C SWAP1 PUSH2 0x42DB JUMP JUMPDEST DUP1 PUSH1 0x4 ADD SLOAD DUP2 PUSH1 0x3 ADD SLOAD PUSH2 0x2D25 SWAP2 SWAP1 PUSH2 0x428B JUMP JUMPDEST DUP5 GT ISZERO PUSH2 0x2DAF JUMPI PUSH1 0x40 MLOAD PUSH3 0x461BCD PUSH1 0xE5 SHL DUP2 MSTORE PUSH1 0x20 PUSH1 0x4 DUP3 ADD MSTORE PUSH1 0x4C PUSH1 0x24 DUP3 ADD MSTORE PUSH32 0x546865206E756D626572206F66207769746864726177616C73206D7573742062 PUSH1 0x44 DUP3 ADD MSTORE PUSH32 0x65206C657373207468616E206F7220657175616C20746F207468652065666665 PUSH1 0x64 DUP3 ADD MSTORE PUSH12 0x31BA34BB3290373AB6B132B9 PUSH1 0xA1 SHL PUSH1 0x84 DUP3 ADD MSTORE PUSH1 0xA4 ADD PUSH2 0x78C JUMP JUMPDEST PUSH1 0x1 DUP2 ADD SLOAD DUP2 SLOAD PUSH1 0x40 MLOAD PUSH4 0x70A08231 PUSH1 0xE0 SHL DUP2 MSTORE PUSH1 0x1 PUSH1 0x1 PUSH1 0xA0 SHL SUB SWAP2 DUP3 AND PUSH1 0x4 DUP3 ADD MSTORE PUSH1 0x0 SWAP3 SWAP2 SWAP1 SWAP2 AND SWAP1 PUSH4 0x70A08231 SWAP1 PUSH1 0x24 ADD PUSH1 0x20 PUSH1 0x40 MLOAD DUP1 DUP4 SUB DUP2 DUP7 GAS STATICCALL ISZERO DUP1 ISZERO PUSH2 0x2E01 JUMPI RETURNDATASIZE PUSH1 0x0 DUP1 RETURNDATACOPY RETURNDATASIZE PUSH1 0x0 REVERT JUMPDEST POP POP POP POP PUSH1 0x40 MLOAD RETURNDATASIZE PUSH1 0x1F NOT PUSH1 0x1F DUP3 ADD AND DUP3 ADD DUP1 PUSH1 0x40 MSTORE POP DUP2 ADD SWAP1 PUSH2 0x2E25 SWAP2 SWAP1 PUSH2 0x43F6 JUMP JUMPDEST SWAP1 POP DUP1 DUP6 GT ISZERO PUSH2 0x2E95 JUMPI PUSH1 0x40 MLOAD PUSH3 0x461BCD PUSH1 0xE5 SHL DUP2 MSTORE PUSH1 0x20 PUSH1 0x4 DUP3 ADD MSTORE PUSH1 0x35 PUSH1 0x24 DUP3 ADD MSTORE PUSH32 0x546865206C656E642062616C616E6365206973206C657373207468616E207468 PUSH1 0x44 DUP3 ADD MSTORE PUSH21 0x6520626F72726F7761626C65207175616E74697479 PUSH1 0x58 SHL PUSH1 0x64 DUP3 ADD MSTORE PUSH1 0x84 ADD PUSH2 0x78C JUMP JUMPDEST DUP5 DUP3 PUSH1 0x4 ADD SLOAD PUSH2 0x2EA5 SWAP2 SWAP1 PUSH2 0x4465 JUMP JUMPDEST PUSH1 0x4 DUP4 ADD SSTORE PUSH1 0x1 PUSH1 0x1 PUSH1 0xA0 SHL SUB DUP8 AND PUSH1 0x0 SWAP1 DUP2 MSTORE PUSH1 0xE PUSH1 0x20 SWAP1 DUP2 MSTORE PUSH1 0x40 DUP1 DUP4 KECCAK256 CALLER DUP5 MSTORE SWAP1 SWAP2 MSTORE SWAP1 KECCAK256 DUP1 SLOAD PUSH2 0x2EDA PUSH1 0x1 DUP3 PUSH2 0x428B JUMP JUMPDEST DUP9 GT ISZERO PUSH2 0x2EF9 JUMPI PUSH1 0x40 MLOAD PUSH3 0x461BCD PUSH1 0xE5 SHL DUP2 MSTORE PUSH1 0x4 ADD PUSH2 0x78C SWAP1 PUSH2 0x429E JUMP JUMPDEST PUSH1 0x1 PUSH1 0x1 PUSH1 0xA0 SHL SUB DUP10 AND PUSH1 0x0 SWAP1 DUP2 MSTORE PUSH1 0xE PUSH1 0x20 SWAP1 DUP2 MSTORE PUSH1 0x40 DUP1 DUP4 KECCAK256 CALLER DUP5 MSTORE SWAP1 SWAP2 MSTORE DUP2 KECCAK256 DUP1 SLOAD DUP11 SWAP1 DUP2 LT PUSH2 0x2F2E JUMPI PUSH2 0x2F2E PUSH2 0x42C5 JUMP JUMPDEST SWAP1 PUSH1 0x0 MSTORE PUSH1 0x20 PUSH1 0x0 KECCAK256 SWAP1 PUSH1 0x7 MUL ADD SWAP1 POP DUP8 DUP2 PUSH1 0x4 ADD SLOAD PUSH2 0x2F4E SWAP2 SWAP1 PUSH2 0x4465 JUMP JUMPDEST PUSH1 0x4 DUP3 ADD SSTORE CALLER PUSH1 0x0 SWAP1 DUP2 MSTORE PUSH1 0x9 PUSH1 0x20 MSTORE PUSH1 0x40 SWAP1 KECCAK256 SLOAD PUSH1 0xFF AND PUSH2 0x31A2 JUMPI PUSH1 0x8 DUP1 SLOAD PUSH1 0x1 DUP2 ADD SWAP1 SWAP2 SSTORE PUSH32 0xF3F7A9FE364FAAB93B216DA50A3214154F22A0A2B415B23A84C8169E8B636EE3 ADD DUP1 SLOAD PUSH1 0x1 PUSH1 0x1 PUSH1 0xA0 SHL SUB NOT AND CALLER SWAP1 DUP2 OR SWAP1 SWAP2 SSTORE PUSH1 0x0 SWAP1 DUP2 MSTORE PUSH1 0x9 PUSH1 0x20 SWAP1 DUP2 MSTORE PUSH1 0x40 DUP1 DUP4 KECCAK256 DUP1 SLOAD PUSH1 0xFF NOT DUP2 AND PUSH1 0xFF SWAP2 DUP3 AND ISZERO OR SWAP1 SWAP2 SSTORE PUSH1 0xA DUP4 MSTORE DUP2 DUP5 KECCAK256 PUSH1 0x1 PUSH1 0x1 PUSH1 0xA0 SHL SUB DUP16 AND DUP6 MSTORE SWAP1 SWAP3 MSTORE SWAP1 SWAP2 KECCAK256 SLOAD AND PUSH2 0x310E JUMPI PUSH1 0xB PUSH1 0x0 CALLER PUSH1 0x1 PUSH1 0x1 PUSH1 0xA0 SHL SUB AND PUSH1 0x1 PUSH1 0x1 PUSH1 0xA0 SHL SUB AND DUP2 MSTORE PUSH1 0x20 ADD SWAP1 DUP2 MSTORE PUSH1 0x20 ADD PUSH1 0x0 KECCAK256 DUP11 SWAP1 DUP1 PUSH1 0x1 DUP2 SLOAD ADD DUP1 DUP3 SSTORE DUP1 SWAP2 POP POP PUSH1 0x1 SWAP1 SUB SWAP1 PUSH1 0x0 MSTORE PUSH1 0x20 PUSH1 0x0 KECCAK256 ADD PUSH1 0x0 SWAP1 SWAP2 SWAP1 SWAP2 SWAP1 SWAP2 PUSH2 0x100 EXP DUP2 SLOAD DUP2 PUSH1 0x1 PUSH1 0x1 PUSH1 0xA0 SHL SUB MUL NOT AND SWAP1 DUP4 PUSH1 0x1 PUSH1 0x1 PUSH1 0xA0 SHL SUB AND MUL OR SWAP1 SSTORE POP PUSH1 0xA PUSH1 0x0 CALLER PUSH1 0x1 PUSH1 0x1 PUSH1 0xA0 SHL SUB AND PUSH1 0x1 PUSH1 0x1 PUSH1 0xA0 SHL SUB AND DUP2 MSTORE PUSH1 0x20 ADD SWAP1 DUP2 MSTORE PUSH1 0x20 ADD PUSH1 0x0 KECCAK256 PUSH1 0x0 DUP12 PUSH1 0x1 PUSH1 0x1 PUSH1 0xA0 SHL SUB AND PUSH1 0x1 PUSH1 0x1 PUSH1 0xA0 SHL SUB AND DUP2 MSTORE PUSH1 0x20 ADD SWAP1 DUP2 MSTORE PUSH1 0x20 ADD PUSH1 0x0 KECCAK256 PUSH1 0x0 SWAP1 SLOAD SWAP1 PUSH2 0x100 EXP SWAP1 DIV PUSH1 0xFF AND ISZERO PUSH1 0xA PUSH1 0x0 CALLER PUSH1 0x1 PUSH1 0x1 PUSH1 0xA0 SHL SUB AND PUSH1 0x1 PUSH1 0x1 PUSH1 0xA0 SHL SUB AND DUP2 MSTORE PUSH1 0x20 ADD SWAP1 DUP2 MSTORE PUSH1 0x20 ADD PUSH1 0x0 KECCAK256 PUSH1 0x0 DUP13 PUSH1 0x1 PUSH1 0x1 PUSH1 0xA0 SHL SUB AND PUSH1 0x1 PUSH1 0x1 PUSH1 0xA0 SHL SUB AND DUP2 MSTORE PUSH1 0x20 ADD SWAP1 DUP2 MSTORE PUSH1 0x20 ADD PUSH1 0x0 KECCAK256 PUSH1 0x0 PUSH2 0x100 EXP DUP2 SLOAD DUP2 PUSH1 0xFF MUL NOT AND SWAP1 DUP4 ISZERO ISZERO MUL OR SWAP1 SSTORE POP JUMPDEST CALLER PUSH1 0x0 SWAP1 DUP2 MSTORE PUSH1 0xC PUSH1 0x20 SWAP1 DUP2 MSTORE PUSH1 0x40 DUP1 DUP4 KECCAK256 PUSH1 0x1 PUSH1 0x1 PUSH1 0xA0 SHL SUB DUP15 AND DUP5 MSTORE DUP3 MSTORE DUP1 DUP4 KECCAK256 DUP13 DUP5 MSTORE SWAP1 SWAP2 MSTORE SWAP1 KECCAK256 SLOAD PUSH1 0xFF AND PUSH2 0x31A2 JUMPI CALLER PUSH1 0x0 DUP2 DUP2 MSTORE PUSH1 0xD PUSH1 0x20 SWAP1 DUP2 MSTORE PUSH1 0x40 DUP1 DUP4 KECCAK256 PUSH1 0x1 PUSH1 0x1 PUSH1 0xA0 SHL SUB DUP16 AND DUP1 DUP6 MSTORE SWAP1 DUP4 MSTORE DUP2 DUP5 KECCAK256 DUP1 SLOAD PUSH1 0x1 DUP2 ADD DUP3 SSTORE SWAP1 DUP6 MSTORE DUP4 DUP6 KECCAK256 ADD DUP15 SWAP1 SSTORE SWAP4 DUP4 MSTORE PUSH1 0xC DUP3 MSTORE DUP1 DUP4 KECCAK256 SWAP4 DUP4 MSTORE SWAP3 DUP2 MSTORE DUP3 DUP3 KECCAK256 DUP13 DUP4 MSTORE SWAP1 MSTORE KECCAK256 DUP1 SLOAD PUSH1 0xFF DUP2 AND ISZERO PUSH1 0xFF NOT SWAP1 SWAP2 AND OR SWAP1 SSTORE JUMPDEST PUSH1 0x1 DUP6 ADD SLOAD DUP6 SLOAD PUSH1 0x0 SWAP2 PUSH2 0x31C4 SWAP2 PUSH1 0x1 PUSH1 0x1 PUSH1 0xA0 SHL SUB SWAP2 DUP3 AND SWAP2 AND CALLER DUP13 PUSH2 0x396D JUMP JUMPDEST SWAP1 POP DUP9 DUP2 EQ PUSH2 0x324C JUMPI PUSH1 0x40 MLOAD PUSH3 0x461BCD PUSH1 0xE5 SHL DUP2 MSTORE PUSH1 0x20 PUSH1 0x4 DUP3 ADD MSTORE PUSH1 0x48 PUSH1 0x24 DUP3 ADD MSTORE PUSH32 0x5468652061637475616C206D6F6E6579206C656E74206973206E6F7420746865 PUSH1 0x44 DUP3 ADD MSTORE PUSH32 0x2073616D6520617320746865206D6F6E6579206E656564656420746F20626520 PUSH1 0x64 DUP3 ADD MSTORE PUSH8 0x189BDC9C9BDDD959 PUSH1 0xC2 SHL PUSH1 0x84 DUP3 ADD MSTORE PUSH1 0xA4 ADD PUSH2 0x78C JUMP JUMPDEST PUSH1 0x1 DUP7 ADD SLOAD PUSH1 0x1 PUSH1 0x1 PUSH1 0xA0 SHL SUB AND PUSH20 0xED24FC36D5EE211EA25A80239FB8C4CFD80F12EE SUB PUSH2 0x34A4 JUMPI PUSH1 0x0 PUSH2 0x327F DUP11 PUSH2 0x28B1 JUMP JUMPDEST SWAP1 POP PUSH1 0x0 PUSH15 0xC097CE7BC90715B34B9F1000000000 DUP3 PUSH1 0x4 SLOAD DUP14 PUSH2 0x32A2 SWAP2 SWAP1 PUSH2 0x4763 JUMP JUMPDEST PUSH2 0x32AC SWAP2 SWAP1 PUSH2 0x4763 JUMP JUMPDEST PUSH2 0x32B6 SWAP2 SWAP1 PUSH2 0x477A JUMP JUMPDEST PUSH1 0x40 MLOAD PUSH4 0x70A08231 PUSH1 0xE0 SHL DUP2 MSTORE CALLER PUSH1 0x4 DUP3 ADD MSTORE SWAP1 SWAP2 POP PUSH1 0x0 SWAP1 PUSH20 0x84E13D8AA38A8230DB2DAE46A6555A5DEEC532E6 SWAP1 PUSH4 0x70A08231 SWAP1 PUSH1 0x24 ADD PUSH1 0x20 PUSH1 0x40 MLOAD DUP1 DUP4 SUB DUP2 DUP7 GAS STATICCALL ISZERO DUP1 ISZERO PUSH2 0x330B JUMPI RETURNDATASIZE PUSH1 0x0 DUP1 RETURNDATACOPY RETURNDATASIZE PUSH1 0x0 REVERT JUMPDEST POP POP POP POP PUSH1 0x40 MLOAD RETURNDATASIZE PUSH1 0x1F NOT PUSH1 0x1F DUP3 ADD AND DUP3 ADD DUP1 PUSH1 0x40 MSTORE POP DUP2 ADD SWAP1 PUSH2 0x332F SWAP2 SWAP1 PUSH2 0x43F6 JUMP JUMPDEST SWAP1 POP DUP2 DUP2 LT PUSH2 0x33C9 JUMPI PUSH1 0x5 SLOAD PUSH1 0x40 MLOAD PUSH4 0x23B872DD PUSH1 0xE0 SHL DUP2 MSTORE PUSH20 0x84E13D8AA38A8230DB2DAE46A6555A5DEEC532E6 SWAP2 PUSH4 0x23B872DD SWAP2 PUSH2 0x3380 SWAP2 CALLER SWAP2 PUSH1 0x1 PUSH1 0x1 PUSH1 0xA0 SHL SUB SWAP1 SWAP2 AND SWAP1 DUP8 SWAP1 PUSH1 0x4 ADD PUSH2 0x479C JUMP JUMPDEST PUSH1 0x20 PUSH1 0x40 MLOAD DUP1 DUP4 SUB DUP2 PUSH1 0x0 DUP8 GAS CALL ISZERO DUP1 ISZERO PUSH2 0x339F JUMPI RETURNDATASIZE PUSH1 0x0 DUP1 RETURNDATACOPY RETURNDATASIZE PUSH1 0x0 REVERT JUMPDEST POP POP POP POP PUSH1 0x40 MLOAD RETURNDATASIZE PUSH1 0x1F NOT PUSH1 0x1F DUP3 ADD AND DUP3 ADD DUP1 PUSH1 0x40 MSTORE POP DUP2 ADD SWAP1 PUSH2 0x33C3 SWAP2 SWAP1 PUSH2 0x47C0 JUMP JUMPDEST POP PUSH2 0x346F JUMP JUMPDEST PUSH1 0x0 PUSH8 0xDE0B6B3A7640000 PUSH1 0x4 SLOAD DUP15 PUSH2 0x33E2 SWAP2 SWAP1 PUSH2 0x4763 JUMP JUMPDEST PUSH2 0x33EC SWAP2 SWAP1 PUSH2 0x477A JUMP JUMPDEST PUSH1 0x1 DUP12 ADD SLOAD PUSH1 0x5 SLOAD PUSH1 0x40 MLOAD PUSH4 0x23B872DD PUSH1 0xE0 SHL DUP2 MSTORE SWAP3 SWAP4 POP PUSH1 0x1 PUSH1 0x1 PUSH1 0xA0 SHL SUB SWAP2 DUP3 AND SWAP3 PUSH4 0x23B872DD SWAP3 PUSH2 0x3429 SWAP3 CALLER SWAP3 SWAP2 AND SWAP1 DUP7 SWAP1 PUSH1 0x4 ADD PUSH2 0x479C JUMP JUMPDEST PUSH1 0x20 PUSH1 0x40 MLOAD DUP1 DUP4 SUB DUP2 PUSH1 0x0 DUP8 GAS CALL ISZERO DUP1 ISZERO PUSH2 0x3448 JUMPI RETURNDATASIZE PUSH1 0x0 DUP1 RETURNDATACOPY RETURNDATASIZE PUSH1 0x0 REVERT JUMPDEST POP POP POP POP PUSH1 0x40 MLOAD RETURNDATASIZE PUSH1 0x1F NOT PUSH1 0x1F DUP3 ADD AND DUP3 ADD DUP1 PUSH1 0x40 MSTORE POP DUP2 ADD SWAP1 PUSH2 0x346C SWAP2 SWAP1 PUSH2 0x47C0 JUMP JUMPDEST POP POP JUMPDEST PUSH8 0xDE0B6B3A7640000 PUSH1 0x4 SLOAD DUP14 PUSH2 0x3486 SWAP2 SWAP1 PUSH2 0x4763 JUMP JUMPDEST PUSH2 0x3490 SWAP2 SWAP1 PUSH2 0x477A JUMP JUMPDEST PUSH2 0x349A SWAP1 DUP14 PUSH2 0x428B JUMP JUMPDEST SWAP12 POP POP POP POP PUSH2 0x3556 JUMP JUMPDEST PUSH1 0x0 PUSH8 0xDE0B6B3A7640000 PUSH1 0x4 SLOAD DUP12 PUSH2 0x34BD SWAP2 SWAP1 PUSH2 0x4763 JUMP JUMPDEST PUSH2 0x34C7 SWAP2 SWAP1 PUSH2 0x477A JUMP JUMPDEST PUSH1 0x1 DUP9 ADD SLOAD PUSH1 0x5 SLOAD PUSH1 0x40 MLOAD PUSH4 0x23B872DD PUSH1 0xE0 SHL DUP2 MSTORE SWAP3 SWAP4 POP PUSH1 0x1 PUSH1 0x1 PUSH1 0xA0 SHL SUB SWAP2 DUP3 AND SWAP3 PUSH4 0x23B872DD SWAP3 PUSH2 0x3504 SWAP3 CALLER SWAP3 SWAP2 AND SWAP1 DUP7 SWAP1 PUSH1 0x4 ADD PUSH2 0x479C JUMP JUMPDEST PUSH1 0x20 PUSH1 0x40 MLOAD DUP1 DUP4 SUB DUP2 PUSH1 0x0 DUP8 GAS CALL ISZERO DUP1 ISZERO PUSH2 0x3523 JUMPI RETURNDATASIZE PUSH1 0x0 DUP1 RETURNDATACOPY RETURNDATASIZE PUSH1 0x0 REVERT JUMPDEST POP POP POP POP PUSH1 0x40 MLOAD RETURNDATASIZE PUSH1 0x1F NOT PUSH1 0x1F DUP3 ADD AND DUP3 ADD DUP1 PUSH1 0x40 MSTORE POP DUP2 ADD SWAP1 PUSH2 0x3547 SWAP2 SWAP1 PUSH2 0x47C0 JUMP JUMPDEST POP PUSH2 0x3552 DUP2 DUP12 PUSH2 0x428B JUMP JUMPDEST SWAP10 POP POP JUMPDEST PUSH1 0x40 DUP1 MLOAD PUSH1 0x1 PUSH1 0x1 PUSH1 0xA0 SHL SUB DUP14 AND DUP2 MSTORE PUSH1 0x20 DUP2 ADD DUP13 SWAP1 MSTORE SWAP1 DUP2 ADD DUP11 SWAP1 MSTORE PUSH32 0x1D37C96186F00AA949BFD16BCA10AAA0E7F79A45EDC5C1F62634322AE1C0F0C8 SWAP1 PUSH1 0x60 ADD PUSH1 0x40 MLOAD DUP1 SWAP2 SUB SWAP1 LOG1 POP POP POP POP POP POP POP POP PUSH2 0xC8A PUSH1 0x1 DUP1 SSTORE JUMP JUMPDEST PUSH1 0x1 PUSH1 0x1 PUSH1 0xA0 SHL SUB DUP2 AND PUSH1 0x0 SWAP1 DUP2 MSTORE PUSH1 0x10 PUSH1 0x20 SWAP1 DUP2 MSTORE PUSH1 0x40 SWAP2 DUP3 SWAP1 KECCAK256 DUP1 SLOAD DUP4 MLOAD DUP2 DUP5 MUL DUP2 ADD DUP5 ADD SWAP1 SWAP5 MSTORE DUP1 DUP5 MSTORE PUSH1 0x60 SWAP4 SWAP3 DUP4 ADD DUP3 DUP3 DUP1 ISZERO PUSH2 0x361B JUMPI PUSH1 0x20 MUL DUP3 ADD SWAP2 SWAP1 PUSH1 0x0 MSTORE PUSH1 0x20 PUSH1 0x0 KECCAK256 SWAP1 JUMPDEST DUP2 SLOAD PUSH1 0x1 PUSH1 0x1 PUSH1 0xA0 SHL SUB AND DUP2 MSTORE PUSH1 0x1 SWAP1 SWAP2 ADD SWAP1 PUSH1 0x20 ADD DUP1 DUP4 GT PUSH2 0x35FD JUMPI JUMPDEST POP POP POP POP POP SWAP1 POP SWAP2 SWAP1 POP JUMP JUMPDEST PUSH1 0x1 PUSH1 0x1 PUSH1 0xA0 SHL SUB DUP2 AND PUSH1 0x0 SWAP1 DUP2 MSTORE PUSH1 0x11 PUSH1 0x20 SWAP1 DUP2 MSTORE PUSH1 0x40 SWAP2 DUP3 SWAP1 KECCAK256 DUP1 SLOAD DUP4 MLOAD DUP2 DUP5 MUL DUP2 ADD DUP5 ADD SWAP1 SWAP5 MSTORE DUP1 DUP5 MSTORE PUSH1 0x60 SWAP4 SWAP3 DUP4 ADD DUP3 DUP3 DUP1 ISZERO PUSH2 0x361B JUMPI PUSH1 0x20 MUL DUP3 ADD SWAP2 SWAP1 PUSH1 0x0 MSTORE PUSH1 0x20 PUSH1 0x0 KECCAK256 SWAP1 DUP2 SLOAD PUSH1 0x1 PUSH1 0x1 PUSH1 0xA0 SHL SUB AND DUP2 MSTORE PUSH1 0x1 SWAP1 SWAP2 ADD SWAP1 PUSH1 0x20 ADD DUP1 DUP4 GT PUSH2 0x35FD JUMPI POP POP POP POP POP SWAP1 POP SWAP2 SWAP1 POP JUMP JUMPDEST PUSH2 0x36A3 PUSH2 0x386D JUMP JUMPDEST PUSH1 0x1 PUSH1 0x1 PUSH1 0xA0 SHL SUB DUP2 AND PUSH2 0x3708 JUMPI PUSH1 0x40 MLOAD PUSH3 0x461BCD PUSH1 0xE5 SHL DUP2 MSTORE PUSH1 0x20 PUSH1 0x4 DUP3 ADD MSTORE PUSH1 0x26 PUSH1 0x24 DUP3 ADD MSTORE PUSH32 0x4F776E61626C653A206E6577206F776E657220697320746865207A65726F2061 PUSH1 0x44 DUP3 ADD MSTORE PUSH6 0x646472657373 PUSH1 0xD0 SHL PUSH1 0x64 DUP3 ADD MSTORE PUSH1 0x84 ADD PUSH2 0x78C JUMP JUMPDEST PUSH2 0x3711 DUP2 PUSH2 0x3A6F JUMP JUMPDEST POP JUMP JUMPDEST PUSH1 0x1 PUSH1 0x1 PUSH1 0xA0 SHL SUB DUP1 DUP4 AND PUSH1 0x0 SWAP1 DUP2 MSTORE PUSH1 0xF PUSH1 0x20 SWAP1 DUP2 MSTORE PUSH1 0x40 DUP1 DUP4 KECCAK256 SWAP4 DUP6 AND DUP4 MSTORE SWAP3 DUP2 MSTORE DUP3 DUP3 KECCAK256 DUP1 SLOAD DUP5 MLOAD DUP2 DUP5 MUL DUP2 ADD DUP5 ADD SWAP1 SWAP6 MSTORE DUP1 DUP6 MSTORE PUSH1 0x60 SWAP5 SWAP3 DUP5 SWAP1 DUP5 ADD JUMPDEST DUP3 DUP3 LT ISZERO PUSH2 0x140B JUMPI PUSH1 0x0 DUP5 DUP2 MSTORE PUSH1 0x20 SWAP1 DUP2 SWAP1 KECCAK256 PUSH1 0x40 DUP1 MLOAD PUSH1 0xE0 DUP2 ADD DUP3 MSTORE PUSH1 0x7 DUP7 MUL SWAP1 SWAP3 ADD DUP1 SLOAD PUSH1 0x1 PUSH1 0x1 PUSH1 0xA0 SHL SUB SWAP1 DUP2 AND DUP5 MSTORE PUSH1 0x1 DUP3 ADD SLOAD AND SWAP4 DUP4 ADD SWAP4 SWAP1 SWAP4 MSTORE PUSH1 0x2 DUP4 ADD SLOAD SWAP1 DUP3 ADD MSTORE PUSH1 0x3 DUP3 ADD SLOAD PUSH1 0x60 DUP3 ADD MSTORE PUSH1 0x4 DUP3 ADD SLOAD PUSH1 0x80 DUP3 ADD MSTORE PUSH1 0x5 DUP3 ADD DUP1 SLOAD SWAP2 SWAP3 SWAP2 PUSH1 0xA0 DUP5 ADD SWAP2 SWAP1 PUSH2 0x37CA SWAP1 PUSH2 0x4329 JUMP JUMPDEST DUP1 PUSH1 0x1F ADD PUSH1 0x20 DUP1 SWAP2 DIV MUL PUSH1 0x20 ADD PUSH1 0x40 MLOAD SWAP1 DUP2 ADD PUSH1 0x40 MSTORE DUP1 SWAP3 SWAP2 SWAP1 DUP2 DUP2 MSTORE PUSH1 0x20 ADD DUP3 DUP1 SLOAD PUSH2 0x37F6 SWAP1 PUSH2 0x4329 JUMP JUMPDEST DUP1 ISZERO PUSH2 0x3843 JUMPI DUP1 PUSH1 0x1F LT PUSH2 0x3818 JUMPI PUSH2 0x100 DUP1 DUP4 SLOAD DIV MUL DUP4 MSTORE SWAP2 PUSH1 0x20 ADD SWAP2 PUSH2 0x3843 JUMP JUMPDEST DUP3 ADD SWAP2 SWAP1 PUSH1 0x0 MSTORE PUSH1 0x20 PUSH1 0x0 KECCAK256 SWAP1 JUMPDEST DUP2 SLOAD DUP2 MSTORE SWAP1 PUSH1 0x1 ADD SWAP1 PUSH1 0x20 ADD DUP1 DUP4 GT PUSH2 0x3826 JUMPI DUP3 SWAP1 SUB PUSH1 0x1F AND DUP3 ADD SWAP2 JUMPDEST POP POP POP SWAP2 DUP4 MSTORE POP POP PUSH1 0x6 SWAP2 SWAP1 SWAP2 ADD SLOAD PUSH1 0xFF AND ISZERO ISZERO PUSH1 0x20 SWAP2 DUP3 ADD MSTORE SWAP1 DUP3 MSTORE PUSH1 0x1 SWAP3 SWAP1 SWAP3 ADD SWAP2 ADD PUSH2 0x3755 JUMP JUMPDEST PUSH1 0x0 SLOAD PUSH1 0x1 PUSH1 0x1 PUSH1 0xA0 SHL SUB AND CALLER EQ PUSH2 0x2012 JUMPI PUSH1 0x40 MLOAD PUSH3 0x461BCD PUSH1 0xE5 SHL DUP2 MSTORE PUSH1 0x20 PUSH1 0x4 DUP3 ADD DUP2 SWAP1 MSTORE PUSH1 0x24 DUP3 ADD MSTORE PUSH32 0x4F776E61626C653A2063616C6C6572206973206E6F7420746865206F776E6572 PUSH1 0x44 DUP3 ADD MSTORE PUSH1 0x64 ADD PUSH2 0x78C JUMP JUMPDEST PUSH1 0x2 PUSH1 0x1 SLOAD SUB PUSH2 0x3919 JUMPI PUSH1 0x40 MLOAD PUSH3 0x461BCD PUSH1 0xE5 SHL DUP2 MSTORE PUSH1 0x20 PUSH1 0x4 DUP3 ADD MSTORE PUSH1 0x1F PUSH1 0x24 DUP3 ADD MSTORE PUSH32 0x5265656E7472616E637947756172643A207265656E7472616E742063616C6C00 PUSH1 0x44 DUP3 ADD MSTORE PUSH1 0x64 ADD PUSH2 0x78C JUMP JUMPDEST PUSH1 0x2 PUSH1 0x1 SSTORE JUMP JUMPDEST PUSH1 0x0 SLOAD PUSH1 0x1 PUSH1 0xA0 SHL SWAP1 DIV PUSH1 0xFF AND ISZERO PUSH2 0x2012 JUMPI PUSH1 0x40 MLOAD PUSH3 0x461BCD PUSH1 0xE5 SHL DUP2 MSTORE PUSH1 0x20 PUSH1 0x4 DUP3 ADD MSTORE PUSH1 0x10 PUSH1 0x24 DUP3 ADD MSTORE PUSH16 0x14185D5CD8589B194E881C185D5CD959 PUSH1 0x82 SHL PUSH1 0x44 DUP3 ADD MSTORE PUSH1 0x64 ADD PUSH2 0x78C JUMP JUMPDEST PUSH1 0x0 PUSH1 0x1 PUSH1 0x1 PUSH1 0xA0 SHL SUB DUP6 AND PUSH2 0x3985 JUMPI CALLVALUE SWAP2 POP PUSH2 0x39A3 JUMP JUMPDEST DUP2 ISZERO PUSH2 0x39A3 JUMPI DUP5 PUSH2 0x39A1 PUSH1 0x1 PUSH1 0x1 PUSH1 0xA0 SHL SUB DUP3 AND DUP7 DUP7 DUP7 PUSH2 0x3ABF JUMP JUMPDEST POP JUMPDEST POP SWAP4 SWAP3 POP POP POP JUMP JUMPDEST PUSH1 0x0 DUP3 PUSH1 0x0 SUB PUSH2 0x39BD JUMPI POP PUSH1 0x0 PUSH2 0x1414 JUMP JUMPDEST PUSH1 0x0 PUSH2 0x39C9 DUP4 DUP6 PUSH2 0x4763 JUMP JUMPDEST SWAP1 POP DUP3 PUSH2 0x39D6 DUP6 DUP4 PUSH2 0x477A JUMP JUMPDEST EQ PUSH2 0x727 JUMPI PUSH1 0x40 MLOAD PUSH3 0x461BCD PUSH1 0xE5 SHL DUP2 MSTORE PUSH1 0x20 PUSH1 0x4 DUP3 ADD MSTORE PUSH1 0x21 PUSH1 0x24 DUP3 ADD MSTORE PUSH32 0x536166654D6174683A206D756C7469706C69636174696F6E206F766572666C6F PUSH1 0x44 DUP3 ADD MSTORE PUSH1 0x77 PUSH1 0xF8 SHL PUSH1 0x64 DUP3 ADD MSTORE PUSH1 0x84 ADD PUSH2 0x78C JUMP JUMPDEST PUSH1 0x0 PUSH2 0x727 DUP4 DUP4 PUSH1 0x40 MLOAD DUP1 PUSH1 0x40 ADD PUSH1 0x40 MSTORE DUP1 PUSH1 0x1A DUP2 MSTORE PUSH1 0x20 ADD PUSH32 0x536166654D6174683A206469766973696F6E206279207A65726F000000000000 DUP2 MSTORE POP PUSH2 0x3B1D JUMP JUMPDEST PUSH1 0x0 DUP1 SLOAD PUSH1 0x1 PUSH1 0x1 PUSH1 0xA0 SHL SUB DUP4 DUP2 AND PUSH1 0x1 PUSH1 0x1 PUSH1 0xA0 SHL SUB NOT DUP4 AND DUP2 OR DUP5 SSTORE PUSH1 0x40 MLOAD SWAP2 SWAP1 SWAP3 AND SWAP3 DUP4 SWAP2 PUSH32 0x8BE0079C531659141344CD1FD0A4F28419497F9722A3DAAFE3B4186F6B6457E0 SWAP2 SWAP1 LOG3 POP POP JUMP JUMPDEST PUSH2 0x3B17 DUP5 PUSH4 0x23B872DD PUSH1 0xE0 SHL DUP6 DUP6 DUP6 PUSH1 0x40 MLOAD PUSH1 0x24 ADD PUSH2 0x3AE0 SWAP4 SWAP3 SWAP2 SWAP1 PUSH2 0x479C JUMP JUMPDEST PUSH1 0x40 DUP1 MLOAD PUSH1 0x1F NOT DUP2 DUP5 SUB ADD DUP2 MSTORE SWAP2 SWAP1 MSTORE PUSH1 0x20 DUP2 ADD DUP1 MLOAD PUSH1 0x1 PUSH1 0x1 PUSH1 0xE0 SHL SUB AND PUSH1 0x1 PUSH1 0x1 PUSH1 0xE0 SHL SUB NOT SWAP1 SWAP4 AND SWAP3 SWAP1 SWAP3 OR SWAP1 SWAP2 MSTORE PUSH2 0x3B54 JUMP JUMPDEST POP POP POP POP JUMP JUMPDEST PUSH1 0x0 DUP2 DUP4 PUSH2 0x3B3E JUMPI PUSH1 0x40 MLOAD PUSH3 0x461BCD PUSH1 0xE5 SHL DUP2 MSTORE PUSH1 0x4 ADD PUSH2 0x78C SWAP2 SWAP1 PUSH2 0x47E2 JUMP JUMPDEST POP PUSH1 0x0 PUSH2 0x3B4B DUP5 DUP7 PUSH2 0x477A JUMP JUMPDEST SWAP6 SWAP5 POP POP POP POP POP JUMP JUMPDEST PUSH1 0x0 PUSH2 0x3BA9 DUP3 PUSH1 0x40 MLOAD DUP1 PUSH1 0x40 ADD PUSH1 0x40 MSTORE DUP1 PUSH1 0x20 DUP2 MSTORE PUSH1 0x20 ADD PUSH32 0x5361666545524332303A206C6F772D6C6576656C2063616C6C206661696C6564 DUP2 MSTORE POP DUP6 PUSH1 0x1 PUSH1 0x1 PUSH1 0xA0 SHL SUB AND PUSH2 0x3C26 SWAP1 SWAP3 SWAP2 SWAP1 PUSH4 0xFFFFFFFF AND JUMP JUMPDEST DUP1 MLOAD SWAP1 SWAP2 POP ISZERO PUSH2 0xC8A JUMPI DUP1 DUP1 PUSH1 0x20 ADD SWAP1 MLOAD DUP2 ADD SWAP1 PUSH2 0x3BC7 SWAP2 SWAP1 PUSH2 0x47C0 JUMP JUMPDEST PUSH2 0xC8A JUMPI PUSH1 0x40 MLOAD PUSH3 0x461BCD PUSH1 0xE5 SHL DUP2 MSTORE PUSH1 0x20 PUSH1 0x4 DUP3 ADD MSTORE PUSH1 0x2A PUSH1 0x24 DUP3 ADD MSTORE PUSH32 0x5361666545524332303A204552433230206F7065726174696F6E20646964206E PUSH1 0x44 DUP3 ADD MSTORE PUSH10 0x1BDD081CDD58D8D95959 PUSH1 0xB2 SHL PUSH1 0x64 DUP3 ADD MSTORE PUSH1 0x84 ADD PUSH2 0x78C JUMP JUMPDEST PUSH1 0x60 PUSH2 0x724 DUP5 DUP5 PUSH1 0x0 DUP6 DUP6 DUP5 EXTCODESIZE PUSH2 0x3C7F JUMPI PUSH1 0x40 MLOAD PUSH3 0x461BCD PUSH1 0xE5 SHL DUP2 MSTORE PUSH1 0x20 PUSH1 0x4 DUP3 ADD MSTORE PUSH1 0x1D PUSH1 0x24 DUP3 ADD MSTORE PUSH32 0x416464726573733A2063616C6C20746F206E6F6E2D636F6E7472616374000000 PUSH1 0x44 DUP3 ADD MSTORE PUSH1 0x64 ADD PUSH2 0x78C JUMP JUMPDEST PUSH1 0x0 DUP1 DUP7 PUSH1 0x1 PUSH1 0x1 PUSH1 0xA0 SHL SUB AND DUP6 DUP8 PUSH1 0x40 MLOAD PUSH2 0x3C9B SWAP2 SWAP1 PUSH2 0x47F5 JUMP JUMPDEST PUSH1 0x0 PUSH1 0x40 MLOAD DUP1 DUP4 SUB DUP2 DUP6 DUP8 GAS CALL SWAP3 POP POP POP RETURNDATASIZE DUP1 PUSH1 0x0 DUP2 EQ PUSH2 0x3CD8 JUMPI PUSH1 0x40 MLOAD SWAP2 POP PUSH1 0x1F NOT PUSH1 0x3F RETURNDATASIZE ADD AND DUP3 ADD PUSH1 0x40 MSTORE RETURNDATASIZE DUP3 MSTORE RETURNDATASIZE PUSH1 0x0 PUSH1 0x20 DUP5 ADD RETURNDATACOPY PUSH2 0x3CDD JUMP JUMPDEST PUSH1 0x60 SWAP2 POP JUMPDEST POP SWAP2 POP SWAP2 POP PUSH2 0x2AB4 DUP3 DUP3 DUP7 PUSH1 0x60 DUP4 ISZERO PUSH2 0x3CF7 JUMPI POP DUP2 PUSH2 0x727 JUMP JUMPDEST DUP3 MLOAD ISZERO PUSH2 0x3D07 JUMPI DUP3 MLOAD DUP1 DUP5 PUSH1 0x20 ADD REVERT JUMPDEST DUP2 PUSH1 0x40 MLOAD PUSH3 0x461BCD PUSH1 0xE5 SHL DUP2 MSTORE PUSH1 0x4 ADD PUSH2 0x78C SWAP2 SWAP1 PUSH2 0x47E2 JUMP JUMPDEST PUSH1 0x1 PUSH1 0x1 PUSH1 0xA0 SHL SUB DUP2 AND DUP2 EQ PUSH2 0x3711 JUMPI PUSH1 0x0 DUP1 REVERT JUMPDEST DUP1 CALLDATALOAD PUSH2 0x3D41 DUP2 PUSH2 0x3D21 JUMP JUMPDEST SWAP2 SWAP1 POP JUMP JUMPDEST PUSH1 0x0 DUP1 PUSH1 0x40 DUP4 DUP6 SUB SLT ISZERO PUSH2 0x3D59 JUMPI PUSH1 0x0 DUP1 REVERT JUMPDEST DUP3 CALLDATALOAD PUSH2 0x3D64 DUP2 PUSH2 0x3D21 JUMP JUMPDEST SWAP5 PUSH1 0x20 SWAP4 SWAP1 SWAP4 ADD CALLDATALOAD SWAP4 POP POP POP JUMP JUMPDEST PUSH1 0x0 DUP1 PUSH1 0x0 PUSH1 0x60 DUP5 DUP7 SUB SLT ISZERO PUSH2 0x3D87 JUMPI PUSH1 0x0 DUP1 REVERT JUMPDEST POP POP DUP2 CALLDATALOAD SWAP4 PUSH1 0x20 DUP4 ADD CALLDATALOAD SWAP4 POP PUSH1 0x40 SWAP1 SWAP3 ADD CALLDATALOAD SWAP2 SWAP1 POP JUMP JUMPDEST PUSH1 0x0 PUSH1 0x20 DUP3 DUP5 SUB SLT ISZERO PUSH2 0x3DB0 JUMPI PUSH1 0x0 DUP1 REVERT JUMPDEST POP CALLDATALOAD SWAP2 SWAP1 POP JUMP JUMPDEST PUSH1 0x0 DUP1 PUSH1 0x0 PUSH1 0x60 DUP5 DUP7 SUB SLT ISZERO PUSH2 0x3DCC JUMPI PUSH1 0x0 DUP1 REVERT JUMPDEST DUP4 CALLDATALOAD PUSH2 0x3DD7 DUP2 PUSH2 0x3D21 JUMP JUMPDEST SWAP6 PUSH1 0x20 DUP6 ADD CALLDATALOAD SWAP6 POP PUSH1 0x40 SWAP1 SWAP5 ADD CALLDATALOAD SWAP4 SWAP3 POP POP POP JUMP JUMPDEST PUSH1 0x0 DUP1 PUSH1 0x0 PUSH1 0x60 DUP5 DUP7 SUB SLT ISZERO PUSH2 0x3E01 JUMPI PUSH1 0x0 DUP1 REVERT JUMPDEST DUP4 CALLDATALOAD PUSH2 0x3E0C DUP2 PUSH2 0x3D21 JUMP JUMPDEST SWAP3 POP PUSH1 0x20 DUP5 ADD CALLDATALOAD PUSH2 0x3E1C DUP2 PUSH2 0x3D21 JUMP JUMPDEST SWAP3 SWAP6 SWAP3 SWAP5 POP POP POP PUSH1 0x40 SWAP2 SWAP1 SWAP2 ADD CALLDATALOAD SWAP1 JUMP JUMPDEST PUSH1 0x0 JUMPDEST DUP4 DUP2 LT ISZERO PUSH2 0x3E48 JUMPI DUP2 DUP2 ADD MLOAD DUP4 DUP3 ADD MSTORE PUSH1 0x20 ADD PUSH2 0x3E30 JUMP JUMPDEST POP POP PUSH1 0x0 SWAP2 ADD MSTORE JUMP JUMPDEST PUSH1 0x0 DUP2 MLOAD DUP1 DUP5 MSTORE PUSH2 0x3E69 DUP2 PUSH1 0x20 DUP7 ADD PUSH1 0x20 DUP7 ADD PUSH2 0x3E2D JUMP JUMPDEST PUSH1 0x1F ADD PUSH1 0x1F NOT AND SWAP3 SWAP1 SWAP3 ADD PUSH1 0x20 ADD SWAP3 SWAP2 POP POP JUMP JUMPDEST PUSH1 0x0 PUSH1 0x1 DUP1 PUSH1 0xA0 SHL SUB DUP1 DUP11 AND DUP4 MSTORE DUP1 DUP10 AND PUSH1 0x20 DUP5 ADD MSTORE POP DUP7 PUSH1 0x40 DUP4 ADD MSTORE DUP6 PUSH1 0x60 DUP4 ADD MSTORE DUP5 PUSH1 0x80 DUP4 ADD MSTORE PUSH1 0xE0 PUSH1 0xA0 DUP4 ADD MSTORE PUSH2 0x3EBA PUSH1 0xE0 DUP4 ADD DUP6 PUSH2 0x3E51 JUMP JUMPDEST SWAP1 POP DUP3 ISZERO ISZERO PUSH1 0xC0 DUP4 ADD MSTORE SWAP9 SWAP8 POP POP POP POP POP POP POP POP JUMP JUMPDEST PUSH1 0x0 PUSH1 0x20 DUP3 DUP5 SUB SLT ISZERO PUSH2 0x3EE2 JUMPI PUSH1 0x0 DUP1 REVERT JUMPDEST DUP2 CALLDATALOAD PUSH2 0x727 DUP2 PUSH2 0x3D21 JUMP JUMPDEST PUSH1 0x0 DUP1 PUSH1 0x40 DUP4 DUP6 SUB SLT ISZERO PUSH2 0x3F00 JUMPI PUSH1 0x0 DUP1 REVERT JUMPDEST DUP3 CALLDATALOAD PUSH2 0x3F0B DUP2 PUSH2 0x3D21 JUMP JUMPDEST SWAP2 POP PUSH1 0x20 DUP4 ADD CALLDATALOAD PUSH2 0x3F1B DUP2 PUSH2 0x3D21 JUMP JUMPDEST DUP1 SWAP2 POP POP SWAP3 POP SWAP3 SWAP1 POP JUMP JUMPDEST PUSH1 0x0 PUSH1 0x1 DUP1 PUSH1 0xA0 SHL SUB DUP1 DUP4 MLOAD AND DUP5 MSTORE DUP1 PUSH1 0x20 DUP5 ADD MLOAD AND PUSH1 0x20 DUP6 ADD MSTORE POP PUSH1 0x40 DUP3 ADD MLOAD PUSH1 0x40 DUP5 ADD MSTORE PUSH1 0x60 DUP3 ADD MLOAD PUSH1 0x60 DUP5 ADD MSTORE PUSH1 0x80 DUP3 ADD MLOAD PUSH1 0x80 DUP5 ADD MSTORE PUSH1 0xA0 DUP3 ADD MLOAD PUSH1 0xE0 PUSH1 0xA0 DUP6 ADD MSTORE PUSH2 0x3F79 PUSH1 0xE0 DUP6 ADD DUP3 PUSH2 0x3E51 JUMP JUMPDEST PUSH1 0xC0 SWAP4 DUP5 ADD MLOAD ISZERO ISZERO SWAP5 SWAP1 SWAP4 ADD SWAP4 SWAP1 SWAP4 MSTORE POP SWAP2 SWAP1 POP JUMP JUMPDEST PUSH1 0x0 PUSH1 0x20 DUP1 DUP4 ADD DUP2 DUP5 MSTORE DUP1 DUP6 MLOAD DUP1 DUP4 MSTORE PUSH1 0x40 DUP7 ADD SWAP2 POP PUSH1 0x40 DUP2 PUSH1 0x5 SHL DUP8 ADD ADD SWAP3 POP DUP4 DUP8 ADD PUSH1 0x0 JUMPDEST DUP3 DUP2 LT ISZERO PUSH2 0x3FE4 JUMPI PUSH1 0x3F NOT DUP9 DUP7 SUB ADD DUP5 MSTORE PUSH2 0x3FD2 DUP6 DUP4 MLOAD PUSH2 0x3F26 JUMP JUMPDEST SWAP5 POP SWAP3 DUP6 ADD SWAP3 SWAP1 DUP6 ADD SWAP1 PUSH1 0x1 ADD PUSH2 0x3FB6 JUMP JUMPDEST POP SWAP3 SWAP8 SWAP7 POP POP POP POP POP POP POP JUMP JUMPDEST PUSH1 0x0 DUP1 PUSH1 0x20 DUP4 DUP6 SUB SLT ISZERO PUSH2 0x4004 JUMPI PUSH1 0x0 DUP1 REVERT JUMPDEST DUP3 CALLDATALOAD PUSH8 0xFFFFFFFFFFFFFFFF DUP1 DUP3 GT ISZERO PUSH2 0x401C JUMPI PUSH1 0x0 DUP1 REVERT JUMPDEST DUP2 DUP6 ADD SWAP2 POP DUP6 PUSH1 0x1F DUP4 ADD SLT PUSH2 0x4030 JUMPI PUSH1 0x0 DUP1 REVERT JUMPDEST DUP2 CALLDATALOAD DUP2 DUP2 GT ISZERO PUSH2 0x403F JUMPI PUSH1 0x0 DUP1 REVERT JUMPDEST DUP7 PUSH1 0x20 DUP3 DUP6 ADD ADD GT ISZERO PUSH2 0x4051 JUMPI PUSH1 0x0 DUP1 REVERT JUMPDEST PUSH1 0x20 SWAP3 SWAP1 SWAP3 ADD SWAP7 SWAP2 SWAP6 POP SWAP1 SWAP4 POP POP POP POP JUMP JUMPDEST PUSH1 0x0 DUP1 PUSH1 0x0 DUP1 PUSH1 0x80 DUP6 DUP8 SUB SLT ISZERO PUSH2 0x4079 JUMPI PUSH1 0x0 DUP1 REVERT JUMPDEST DUP5 CALLDATALOAD PUSH2 0x4084 DUP2 PUSH2 0x3D21 JUMP JUMPDEST SWAP4 POP PUSH1 0x20 DUP6 ADD CALLDATALOAD PUSH2 0x4094 DUP2 PUSH2 0x3D21 JUMP JUMPDEST SWAP4 SWAP7 SWAP4 SWAP6 POP POP POP POP PUSH1 0x40 DUP3 ADD CALLDATALOAD SWAP2 PUSH1 0x60 ADD CALLDATALOAD SWAP1 JUMP JUMPDEST PUSH1 0x20 DUP2 MSTORE PUSH1 0x0 PUSH2 0x727 PUSH1 0x20 DUP4 ADD DUP5 PUSH2 0x3F26 JUMP JUMPDEST DUP3 ISZERO ISZERO DUP2 MSTORE PUSH1 0x40 PUSH1 0x20 DUP3 ADD MSTORE PUSH1 0x0 PUSH2 0x724 PUSH1 0x40 DUP4 ADD DUP5 PUSH2 0x3E51 JUMP JUMPDEST PUSH4 0x4E487B71 PUSH1 0xE0 SHL PUSH1 0x0 MSTORE PUSH1 0x41 PUSH1 0x4 MSTORE PUSH1 0x24 PUSH1 0x0 REVERT JUMPDEST PUSH1 0x0 DUP1 PUSH1 0x0 DUP1 PUSH1 0x0 PUSH1 0xA0 DUP7 DUP9 SUB SLT ISZERO PUSH2 0x4105 JUMPI PUSH1 0x0 DUP1 REVERT JUMPDEST DUP6 CALLDATALOAD PUSH2 0x4110 DUP2 PUSH2 0x3D21 JUMP JUMPDEST SWAP5 POP PUSH1 0x20 DUP7 ADD CALLDATALOAD PUSH8 0xFFFFFFFFFFFFFFFF DUP1 DUP3 GT ISZERO PUSH2 0x412D JUMPI PUSH1 0x0 DUP1 REVERT JUMPDEST DUP2 DUP9 ADD SWAP2 POP DUP9 PUSH1 0x1F DUP4 ADD SLT PUSH2 0x4141 JUMPI PUSH1 0x0 DUP1 REVERT JUMPDEST DUP2 CALLDATALOAD DUP2 DUP2 GT ISZERO PUSH2 0x4153 JUMPI PUSH2 0x4153 PUSH2 0x40D7 JUMP JUMPDEST PUSH1 0x40 MLOAD PUSH1 0x1F DUP3 ADD PUSH1 0x1F NOT SWAP1 DUP2 AND PUSH1 0x3F ADD AND DUP2 ADD SWAP1 DUP4 DUP3 GT DUP2 DUP4 LT OR ISZERO PUSH2 0x417B JUMPI PUSH2 0x417B PUSH2 0x40D7 JUMP JUMPDEST DUP2 PUSH1 0x40 MSTORE DUP3 DUP2 MSTORE DUP12 PUSH1 0x20 DUP5 DUP8 ADD ADD GT ISZERO PUSH2 0x4194 JUMPI PUSH1 0x0 DUP1 REVERT JUMPDEST DUP3 PUSH1 0x20 DUP7 ADD PUSH1 0x20 DUP4 ADD CALLDATACOPY PUSH1 0x0 PUSH1 0x20 DUP5 DUP4 ADD ADD MSTORE DUP1 SWAP9 POP POP POP POP POP POP PUSH2 0x41BB PUSH1 0x40 DUP8 ADD PUSH2 0x3D36 JUMP JUMPDEST SWAP5 SWAP8 SWAP4 SWAP7 POP SWAP4 SWAP5 PUSH1 0x60 DUP2 ADD CALLDATALOAD SWAP5 POP PUSH1 0x80 ADD CALLDATALOAD SWAP3 SWAP2 POP POP JUMP JUMPDEST PUSH1 0x20 DUP1 DUP3 MSTORE DUP3 MLOAD DUP3 DUP3 ADD DUP2 SWAP1 MSTORE PUSH1 0x0 SWAP2 SWAP1 DUP5 DUP3 ADD SWAP1 PUSH1 0x40 DUP6 ADD SWAP1 DUP5 JUMPDEST DUP2 DUP2 LT ISZERO PUSH2 0x4214 JUMPI DUP4 MLOAD PUSH1 0x1 PUSH1 0x1 PUSH1 0xA0 SHL SUB AND DUP4 MSTORE SWAP3 DUP5 ADD SWAP3 SWAP2 DUP5 ADD SWAP2 PUSH1 0x1 ADD PUSH2 0x41EF JUMP JUMPDEST POP SWAP1 SWAP7 SWAP6 POP POP POP POP POP POP JUMP JUMPDEST PUSH1 0x0 PUSH1 0x20 DUP1 DUP4 ADD DUP2 DUP5 MSTORE DUP1 DUP6 MLOAD DUP1 DUP4 MSTORE PUSH1 0x40 DUP7 ADD SWAP2 POP PUSH1 0x40 DUP2 PUSH1 0x5 SHL DUP8 ADD ADD SWAP3 POP DUP4 DUP8 ADD PUSH1 0x0 JUMPDEST DUP3 DUP2 LT ISZERO PUSH2 0x3FE4 JUMPI PUSH1 0x3F NOT DUP9 DUP7 SUB ADD DUP5 MSTORE PUSH2 0x4263 DUP6 DUP4 MLOAD PUSH2 0x3F26 JUMP JUMPDEST SWAP5 POP SWAP3 DUP6 ADD SWAP3 SWAP1 DUP6 ADD SWAP1 PUSH1 0x1 ADD PUSH2 0x4247 JUMP JUMPDEST PUSH4 0x4E487B71 PUSH1 0xE0 SHL PUSH1 0x0 MSTORE PUSH1 0x11 PUSH1 0x4 MSTORE PUSH1 0x24 PUSH1 0x0 REVERT JUMPDEST DUP2 DUP2 SUB DUP2 DUP2 GT ISZERO PUSH2 0x1414 JUMPI PUSH2 0x1414 PUSH2 0x4275 JUMP JUMPDEST PUSH1 0x20 DUP1 DUP3 MSTORE PUSH1 0xD SWAP1 DUP3 ADD MSTORE PUSH13 0x24B73232BC1027BB32B9393AB7 PUSH1 0x99 SHL PUSH1 0x40 DUP3 ADD MSTORE PUSH1 0x60 ADD SWAP1 JUMP JUMPDEST PUSH4 0x4E487B71 PUSH1 0xE0 SHL PUSH1 0x0 MSTORE PUSH1 0x32 PUSH1 0x4 MSTORE PUSH1 0x24 PUSH1 0x0 REVERT JUMPDEST PUSH1 0x20 DUP1 DUP3 MSTORE PUSH1 0x2E SWAP1 DUP3 ADD MSTORE PUSH32 0x54686520617574686F72697A6174696F6E206964207265636F72642068617320 PUSH1 0x40 DUP3 ADD MSTORE PUSH14 0x1899595B8818D85B98D95B1B1959 PUSH1 0x92 SHL PUSH1 0x60 DUP3 ADD MSTORE PUSH1 0x80 ADD SWAP1 JUMP JUMPDEST PUSH1 0x1 DUP2 DUP2 SHR SWAP1 DUP3 AND DUP1 PUSH2 0x433D JUMPI PUSH1 0x7F DUP3 AND SWAP2 POP JUMPDEST PUSH1 0x20 DUP3 LT DUP2 SUB PUSH2 0x435D JUMPI PUSH4 0x4E487B71 PUSH1 0xE0 SHL PUSH1 0x0 MSTORE PUSH1 0x22 PUSH1 0x4 MSTORE PUSH1 0x24 PUSH1 0x0 REVERT JUMPDEST POP SWAP2 SWAP1 POP JUMP JUMPDEST PUSH1 0x20 DUP1 DUP3 MSTORE PUSH1 0x22 SWAP1 DUP3 ADD MSTORE PUSH32 0x5F6C656E6441646472657373206973206E6F742061207A65726F206164647265 PUSH1 0x40 DUP3 ADD MSTORE PUSH2 0x7373 PUSH1 0xF0 SHL PUSH1 0x60 DUP3 ADD MSTORE PUSH1 0x80 ADD SWAP1 JUMP JUMPDEST PUSH1 0x20 DUP1 DUP3 MSTORE PUSH1 0x31 SWAP1 DUP3 ADD MSTORE PUSH32 0x546865206E756D626572206F66207061796D656E7420616D6F756E742063616E PUSH1 0x40 DUP3 ADD MSTORE PUSH17 0x6E6F7420626520657175616C20746F203 PUSH1 0x7C SHL PUSH1 0x60 DUP3 ADD MSTORE PUSH1 0x80 ADD SWAP1 JUMP JUMPDEST PUSH1 0x0 PUSH1 0x20 DUP3 DUP5 SUB SLT ISZERO PUSH2 0x4408 JUMPI PUSH1 0x0 DUP1 REVERT JUMPDEST POP MLOAD SWAP2 SWAP1 POP JUMP JUMPDEST PUSH1 0x20 DUP1 DUP3 MSTORE PUSH1 0x36 SWAP1 DUP3 ADD MSTORE PUSH32 0x5468652061637475616C20616D6F756E7420616E642074686520646564756374 PUSH1 0x40 DUP3 ADD MSTORE PUSH22 0xCAC840C2DADEEADCE840C8DE40DCDEE840DAC2E8C6D PUSH1 0x53 SHL PUSH1 0x60 DUP3 ADD MSTORE PUSH1 0x80 ADD SWAP1 JUMP JUMPDEST DUP1 DUP3 ADD DUP1 DUP3 GT ISZERO PUSH2 0x1414 JUMPI PUSH2 0x1414 PUSH2 0x4275 JUMP JUMPDEST PUSH1 0x0 PUSH1 0x1 DUP3 ADD PUSH2 0x448A JUMPI PUSH2 0x448A PUSH2 0x4275 JUMP JUMPDEST POP PUSH1 0x1 ADD SWAP1 JUMP JUMPDEST PUSH1 0x1F DUP3 GT ISZERO PUSH2 0xC8A JUMPI PUSH1 0x0 DUP2 DUP2 MSTORE PUSH1 0x20 DUP2 KECCAK256 PUSH1 0x1F DUP6 ADD PUSH1 0x5 SHR DUP2 ADD PUSH1 0x20 DUP7 LT ISZERO PUSH2 0x44B8 JUMPI POP DUP1 JUMPDEST PUSH1 0x1F DUP6 ADD PUSH1 0x5 SHR DUP3 ADD SWAP2 POP JUMPDEST DUP2 DUP2 LT ISZERO PUSH2 0x44D7 JUMPI DUP3 DUP2 SSTORE PUSH1 0x1 ADD PUSH2 0x44C4 JUMP JUMPDEST POP POP POP POP POP POP JUMP JUMPDEST DUP2 MLOAD PUSH8 0xFFFFFFFFFFFFFFFF DUP2 GT ISZERO PUSH2 0x44F9 JUMPI PUSH2 0x44F9 PUSH2 0x40D7 JUMP JUMPDEST PUSH2 0x450D DUP2 PUSH2 0x4507 DUP5 SLOAD PUSH2 0x4329 JUMP JUMPDEST DUP5 PUSH2 0x4491 JUMP JUMPDEST PUSH1 0x20 DUP1 PUSH1 0x1F DUP4 GT PUSH1 0x1 DUP2 EQ PUSH2 0x4542 JUMPI PUSH1 0x0 DUP5 ISZERO PUSH2 0x452A JUMPI POP DUP6 DUP4 ADD MLOAD JUMPDEST PUSH1 0x0 NOT PUSH1 0x3 DUP7 SWAP1 SHL SHR NOT AND PUSH1 0x1 DUP6 SWAP1 SHL OR DUP6 SSTORE PUSH2 0x44D7 JUMP JUMPDEST PUSH1 0x0 DUP6 DUP2 MSTORE PUSH1 0x20 DUP2 KECCAK256 PUSH1 0x1F NOT DUP7 AND SWAP2 JUMPDEST DUP3 DUP2 LT ISZERO PUSH2 0x4571 JUMPI DUP9 DUP7 ADD MLOAD DUP3 SSTORE SWAP5 DUP5 ADD SWAP5 PUSH1 0x1 SWAP1 SWAP2 ADD SWAP1 DUP5 ADD PUSH2 0x4552 JUMP JUMPDEST POP DUP6 DUP3 LT ISZERO PUSH2 0x458F JUMPI DUP8 DUP6 ADD MLOAD PUSH1 0x0 NOT PUSH1 0x3 DUP9 SWAP1 SHL PUSH1 0xF8 AND SHR NOT AND DUP2 SSTORE JUMPDEST POP POP POP POP POP PUSH1 0x1 SWAP1 DUP2 SHL ADD SWAP1 SSTORE POP JUMP JUMPDEST PUSH1 0x40 DUP2 MSTORE PUSH1 0x0 PUSH2 0x45B2 PUSH1 0x40 DUP4 ADD DUP6 PUSH2 0x3E51 JUMP JUMPDEST SWAP1 POP PUSH1 0x1 DUP1 PUSH1 0xA0 SHL SUB DUP4 AND PUSH1 0x20 DUP4 ADD MSTORE SWAP4 SWAP3 POP POP POP JUMP JUMPDEST PUSH1 0x0 PUSH1 0x20 DUP3 DUP5 SUB SLT ISZERO PUSH2 0x45DB JUMPI PUSH1 0x0 DUP1 REVERT JUMPDEST DUP2 MLOAD PUSH2 0x727 DUP2 PUSH2 0x3D21 JUMP JUMPDEST DUP1 MLOAD PUSH1 0x1 PUSH1 0x1 PUSH1 0x70 SHL SUB DUP2 AND DUP2 EQ PUSH2 0x3D41 JUMPI PUSH1 0x0 DUP1 REVERT JUMPDEST PUSH1 0x0 DUP1 PUSH1 0x0 PUSH1 0x60 DUP5 DUP7 SUB SLT ISZERO PUSH2 0x4612 JUMPI PUSH1 0x0 DUP1 REVERT JUMPDEST PUSH2 0x461B DUP5 PUSH2 0x45E6 JUMP JUMPDEST SWAP3 POP PUSH2 0x4629 PUSH1 0x20 DUP6 ADD PUSH2 0x45E6 JUMP JUMPDEST SWAP2 POP PUSH1 0x40 DUP5 ADD MLOAD PUSH4 0xFFFFFFFF DUP2 AND DUP2 EQ PUSH2 0x4642 JUMPI PUSH1 0x0 DUP1 REVERT JUMPDEST DUP1 SWAP2 POP POP SWAP3 POP SWAP3 POP SWAP3 JUMP JUMPDEST PUSH1 0x0 PUSH1 0x20 DUP3 DUP5 SUB SLT ISZERO PUSH2 0x465F JUMPI PUSH1 0x0 DUP1 REVERT JUMPDEST DUP2 MLOAD PUSH1 0xFF DUP2 AND DUP2 EQ PUSH2 0x727 JUMPI PUSH1 0x0 DUP1 REVERT JUMPDEST PUSH1 0x1 DUP2 DUP2 JUMPDEST DUP1 DUP6 GT ISZERO PUSH2 0x46AB JUMPI DUP2 PUSH1 0x0 NOT DIV DUP3 GT ISZERO PUSH2 0x4691 JUMPI PUSH2 0x4691 PUSH2 0x4275 JUMP JUMPDEST DUP1 DUP6 AND ISZERO PUSH2 0x469E JUMPI SWAP2 DUP2 MUL SWAP2 JUMPDEST SWAP4 DUP5 SHR SWAP4 SWAP1 DUP1 MUL SWAP1 PUSH2 0x4675 JUMP JUMPDEST POP SWAP3 POP SWAP3 SWAP1 POP JUMP JUMPDEST PUSH1 0x0 DUP3 PUSH2 0x46C2 JUMPI POP PUSH1 0x1 PUSH2 0x1414 JUMP JUMPDEST DUP2 PUSH2 0x46CF JUMPI POP PUSH1 0x0 PUSH2 0x1414 JUMP JUMPDEST DUP2 PUSH1 0x1 DUP2 EQ PUSH2 0x46E5 JUMPI PUSH1 0x2 DUP2 EQ PUSH2 0x46EF JUMPI PUSH2 0x470B JUMP JUMPDEST PUSH1 0x1 SWAP2 POP POP PUSH2 0x1414 JUMP JUMPDEST PUSH1 0xFF DUP5 GT ISZERO PUSH2 0x4700 JUMPI PUSH2 0x4700 PUSH2 0x4275 JUMP JUMPDEST POP POP PUSH1 0x1 DUP3 SHL PUSH2 0x1414 JUMP JUMPDEST POP PUSH1 0x20 DUP4 LT PUSH2 0x133 DUP4 LT AND PUSH1 0x4E DUP5 LT PUSH1 0xB DUP5 LT AND OR ISZERO PUSH2 0x472E JUMPI POP DUP2 DUP2 EXP PUSH2 0x1414 JUMP JUMPDEST PUSH2 0x4738 DUP4 DUP4 PUSH2 0x4670 JUMP JUMPDEST DUP1 PUSH1 0x0 NOT DIV DUP3 GT ISZERO PUSH2 0x474C JUMPI PUSH2 0x474C PUSH2 0x4275 JUMP JUMPDEST MUL SWAP4 SWAP3 POP POP POP JUMP JUMPDEST PUSH1 0x0 PUSH2 0x727 PUSH1 0xFF DUP5 AND DUP4 PUSH2 0x46B3 JUMP JUMPDEST DUP1 DUP3 MUL DUP2 ISZERO DUP3 DUP3 DIV DUP5 EQ OR PUSH2 0x1414 JUMPI PUSH2 0x1414 PUSH2 0x4275 JUMP JUMPDEST PUSH1 0x0 DUP3 PUSH2 0x4797 JUMPI PUSH4 0x4E487B71 PUSH1 0xE0 SHL PUSH1 0x0 MSTORE PUSH1 0x12 PUSH1 0x4 MSTORE PUSH1 0x24 PUSH1 0x0 REVERT JUMPDEST POP DIV SWAP1 JUMP JUMPDEST PUSH1 0x1 PUSH1 0x1 PUSH1 0xA0 SHL SUB SWAP4 DUP5 AND DUP2 MSTORE SWAP2 SWAP1 SWAP3 AND PUSH1 0x20 DUP3 ADD MSTORE PUSH1 0x40 DUP2 ADD SWAP2 SWAP1 SWAP2 MSTORE PUSH1 0x60 ADD SWAP1 JUMP JUMPDEST PUSH1 0x0 PUSH1 0x20 DUP3 DUP5 SUB SLT ISZERO PUSH2 0x47D2 JUMPI PUSH1 0x0 DUP1 REVERT JUMPDEST DUP2 MLOAD DUP1 ISZERO ISZERO DUP2 EQ PUSH2 0x727 JUMPI PUSH1 0x0 DUP1 REVERT JUMPDEST PUSH1 0x20 DUP2 MSTORE PUSH1 0x0 PUSH2 0x727 PUSH1 0x20 DUP4 ADD DUP5 PUSH2 0x3E51 JUMP JUMPDEST PUSH1 0x0 DUP3 MLOAD PUSH2 0x4807 DUP2 DUP5 PUSH1 0x20 DUP8 ADD PUSH2 0x3E2D JUMP JUMPDEST SWAP2 SWAP1 SWAP2 ADD SWAP3 SWAP2 POP POP JUMP INVALID LOG2 PUSH5 0x6970667358 0x22 SLT KECCAK256 ADD 0xF6 0xD2 0xC3 PUSH29 0x2D951F91D1C22F0F9A3657DD84EA2E0B4EEFE42D69CA187F783FDE6473 PUSH16 0x6C634300081200330000000000000000 "},"methodIdentifiers":{"BorrowerArrary(address,uint256)":"56a692c2","BorrowerBool(address,address)":"60dd53dd","BorrowerData(address,address,uint256)":"2a90ed5b","BorrowerIsBool(address,address)":"896485d1","BorrowerNumber(address,uint256)":"a9922624","GetBorrowerAddress(address)":"e3f10b4d","GetBorrowerAddressLengeth(address)":"a4ec4c44","GetBorrowerData(address,address)":"fb3e8002","GetBorrowerIndexData(address,address,uint256)":"6bac4f23","GetLenderAddress(address)":"e37f5715","GetLenderAddressLengeth(address)":"2fdb5c39","GetLenderData(address,address)":"3d38134a","GetLenderIndexData(address,address,uint256)":"9d6283a2","LenderData(address,address,uint256)":"57d02498","LenderIsBool(address,address)":"b71cdec7","LenderNumber(address,uint256)":"1d6abdef","MaxFixedRate()":"adbdbe93","NewTrust(address,string,address,uint256,uint256)":"76e988ec","Pay(address,uint256,uint256)":"32c8827c","RemoveTrust(address,uint256,uint256)":"25e0c61b","ServiceFee()":"aadb5b37","ServiceFeeAddress()":"e946ca73","StartTimeInterval()":"88f0df1f","TimeInterval()":"afe8ec6c","TotalBorrowerBool(address,address,uint256)":"8a173f74","TotalBorrowerIndexArrary(address,address,uint256)":"becdd077","Withdrawal(address,uint256,uint256)":"df273cb6","baseYearOrMonth()":"f3cc15be","calculatingActualInterest(uint256,uint256,uint256)":"21f5f91f","calculatingInterest(address,address,uint256,uint256)":"5403f658","checkUpkeep(bytes)":"6e04ff0d","getTokenPrice(uint256)":"c457fb37","isTotalBorrower(address)":"a56acda5","owner()":"8da5cb5b","paused()":"5c975abb","performUpkeep(bytes)":"4585e33b","renounceOwnership()":"715018a6","setBaseUnit(uint256)":"b51fbb98","setMaxFixedRate(uint256)":"b20e01ef","setServiceFee(uint256)":"5cdf76f8","setServiceFeeAddress(address)":"3da1d716","setTimeInterval(uint256)":"25423a1b","totalBorrower(uint256)":"d0a0a458","transferOwnership(address)":"f2fde38b"}},"storageLayout":{"storage":[{"astId":3799,"contract":"contracts/BuddyDaoFatten.sol:BuddyDao","label":"_owner","offset":0,"slot":"0","type":"t_address"},{"astId":3703,"contract":"contracts/BuddyDaoFatten.sol:BuddyDao","label":"_paused","offset":20,"slot":"0","type":"t_bool"},{"astId":3623,"contract":"contracts/BuddyDaoFatten.sol:BuddyDao","label":"_status","offset":0,"slot":"1","type":"t_uint256"},{"astId":3924,"contract":"contracts/BuddyDaoFatten.sol:BuddyDao","label":"TimeInterval","offset":0,"slot":"2","type":"t_uint256"},{"astId":3926,"contract":"contracts/BuddyDaoFatten.sol:BuddyDao","label":"StartTimeInterval","offset":0,"slot":"3","type":"t_uint256"},{"astId":3928,"contract":"contracts/BuddyDaoFatten.sol:BuddyDao","label":"ServiceFee","offset":0,"slot":"4","type":"t_uint256"},{"astId":3930,"contract":"contracts/BuddyDaoFatten.sol:BuddyDao","label":"ServiceFeeAddress","offset":0,"slot":"5","type":"t_address"},{"astId":3933,"contract":"contracts/BuddyDaoFatten.sol:BuddyDao","label":"MaxFixedRate","offset":0,"slot":"6","type":"t_uint256"},{"astId":3939,"contract":"contracts/BuddyDaoFatten.sol:BuddyDao","label":"baseYearOrMonth","offset":0,"slot":"7","type":"t_uint256"},{"astId":3972,"contract":"contracts/BuddyDaoFatten.sol:BuddyDao","label":"totalBorrower","offset":0,"slot":"8","type":"t_array(t_address)dyn_storage"},{"astId":3976,"contract":"contracts/BuddyDaoFatten.sol:BuddyDao","label":"isTotalBorrower","offset":0,"slot":"9","type":"t_mapping(t_address,t_bool)"},{"astId":3982,"contract":"contracts/BuddyDaoFatten.sol:BuddyDao","label":"BorrowerBool","offset":0,"slot":"10","type":"t_mapping(t_address,t_mapping(t_address,t_bool))"},{"astId":3987,"contract":"contracts/BuddyDaoFatten.sol:BuddyDao","label":"BorrowerArrary","offset":0,"slot":"11","type":"t_mapping(t_address,t_array(t_address)dyn_storage)"},{"astId":3995,"contract":"contracts/BuddyDaoFatten.sol:BuddyDao","label":"TotalBorrowerBool","offset":0,"slot":"12","type":"t_mapping(t_address,t_mapping(t_address,t_mapping(t_uint256,t_bool)))"},{"astId":4002,"contract":"contracts/BuddyDaoFatten.sol:BuddyDao","label":"TotalBorrowerIndexArrary","offset":0,"slot":"13","type":"t_mapping(t_address,t_mapping(t_address,t_array(t_uint256)dyn_storage))"},{"astId":4010,"contract":"contracts/BuddyDaoFatten.sol:BuddyDao","label":"LenderData","offset":0,"slot":"14","type":"t_mapping(t_address,t_mapping(t_address,t_array(t_struct(Lender)3954_storage)dyn_storage))"},{"astId":4018,"contract":"contracts/BuddyDaoFatten.sol:BuddyDao","label":"BorrowerData","offset":0,"slot":"15","type":"t_mapping(t_address,t_mapping(t_address,t_array(t_struct(Borrower)3969_storage)dyn_storage))"},{"astId":4023,"contract":"contracts/BuddyDaoFatten.sol:BuddyDao","label":"LenderNumber","offset":0,"slot":"16","type":"t_mapping(t_address,t_array(t_address)dyn_storage)"},{"astId":4028,"contract":"contracts/BuddyDaoFatten.sol:BuddyDao","label":"BorrowerNumber","offset":0,"slot":"17","type":"t_mapping(t_address,t_array(t_address)dyn_storage)"},{"astId":4034,"contract":"contracts/BuddyDaoFatten.sol:BuddyDao","label":"LenderIsBool","offset":0,"slot":"18","type":"t_mapping(t_address,t_mapping(t_address,t_bool))"},{"astId":4040,"contract":"contracts/BuddyDaoFatten.sol:BuddyDao","label":"BorrowerIsBool","offset":0,"slot":"19","type":"t_mapping(t_address,t_mapping(t_address,t_bool))"}],"types":{"t_address":{"encoding":"inplace","label":"address","numberOfBytes":"20"},"t_array(t_address)dyn_storage":{"base":"t_address","encoding":"dynamic_array","label":"address[]","numberOfBytes":"32"},"t_array(t_struct(Borrower)3969_storage)dyn_storage":{"base":"t_struct(Borrower)3969_storage","encoding":"dynamic_array","label":"struct BuddyDao.Borrower[]","numberOfBytes":"32"},"t_array(t_struct(Lender)3954_storage)dyn_storage":{"base":"t_struct(Lender)3954_storage","encoding":"dynamic_array","label":"struct BuddyDao.Lender[]","numberOfBytes":"32"},"t_array(t_uint256)dyn_storage":{"base":"t_uint256","encoding":"dynamic_array","label":"uint256[]","numberOfBytes":"32"},"t_bool":{"encoding":"inplace","label":"bool","numberOfBytes":"1"},"t_mapping(t_address,t_array(t_address)dyn_storage)":{"encoding":"mapping","key":"t_address","label":"mapping(address => address[])","numberOfBytes":"32","value":"t_array(t_address)dyn_storage"},"t_mapping(t_address,t_array(t_struct(Borrower)3969_storage)dyn_storage)":{"encoding":"mapping","key":"t_address","label":"mapping(address => struct BuddyDao.Borrower[])","numberOfBytes":"32","value":"t_array(t_struct(Borrower)3969_storage)dyn_storage"},"t_mapping(t_address,t_array(t_struct(Lender)3954_storage)dyn_storage)":{"encoding":"mapping","key":"t_address","label":"mapping(address => struct BuddyDao.Lender[])","numberOfBytes":"32","value":"t_array(t_struct(Lender)3954_storage)dyn_storage"},"t_mapping(t_address,t_array(t_uint256)dyn_storage)":{"encoding":"mapping","key":"t_address","label":"mapping(address => uint256[])","numberOfBytes":"32","value":"t_array(t_uint256)dyn_storage"},"t_mapping(t_address,t_bool)":{"encoding":"mapping","key":"t_address","label":"mapping(address => bool)","numberOfBytes":"32","value":"t_bool"},"t_mapping(t_address,t_mapping(t_address,t_array(t_struct(Borrower)3969_storage)dyn_storage))":{"encoding":"mapping","key":"t_address","label":"mapping(address => mapping(address => struct BuddyDao.Borrower[]))","numberOfBytes":"32","value":"t_mapping(t_address,t_array(t_struct(Borrower)3969_storage)dyn_storage)"},"t_mapping(t_address,t_mapping(t_address,t_array(t_struct(Lender)3954_storage)dyn_storage))":{"encoding":"mapping","key":"t_address","label":"mapping(address => mapping(address => struct BuddyDao.Lender[]))","numberOfBytes":"32","value":"t_mapping(t_address,t_array(t_struct(Lender)3954_storage)dyn_storage)"},"t_mapping(t_address,t_mapping(t_address,t_array(t_uint256)dyn_storage))":{"encoding":"mapping","key":"t_address","label":"mapping(address => mapping(address => uint256[]))","numberOfBytes":"32","value":"t_mapping(t_address,t_array(t_uint256)dyn_storage)"},"t_mapping(t_address,t_mapping(t_address,t_bool))":{"encoding":"mapping","key":"t_address","label":"mapping(address => mapping(address => bool))","numberOfBytes":"32","value":"t_mapping(t_address,t_bool)"},"t_mapping(t_address,t_mapping(t_address,t_mapping(t_uint256,t_bool)))":{"encoding":"mapping","key":"t_address","label":"mapping(address => mapping(address => mapping(uint256 => bool)))","numberOfBytes":"32","value":"t_mapping(t_address,t_mapping(t_uint256,t_bool))"},"t_mapping(t_address,t_mapping(t_uint256,t_bool))":{"encoding":"mapping","key":"t_address","label":"mapping(address => mapping(uint256 => bool))","numberOfBytes":"32","value":"t_mapping(t_uint256,t_bool)"},"t_mapping(t_uint256,t_bool)":{"encoding":"mapping","key":"t_uint256","label":"mapping(uint256 => bool)","numberOfBytes":"32","value":"t_bool"},"t_string_storage":{"encoding":"bytes","label":"string","numberOfBytes":"32"},"t_struct(Borrower)3969_storage":{"encoding":"inplace","label":"struct BuddyDao.Borrower","members":[{"astId":3956,"contract":"contracts/BuddyDaoFatten.sol:BuddyDao","label":"Creditors","offset":0,"slot":"0","type":"t_address"},{"astId":3958,"contract":"contracts/BuddyDaoFatten.sol:BuddyDao","label":"Token","offset":0,"slot":"1","type":"t_address"},{"astId":3960,"contract":"contracts/BuddyDaoFatten.sol:BuddyDao","label":"FixedRate","offset":0,"slot":"2","type":"t_uint256"},{"astId":3962,"contract":"contracts/BuddyDaoFatten.sol:BuddyDao","label":"CreditLine","offset":0,"slot":"3","type":"t_uint256"},{"astId":3964,"contract":"contracts/BuddyDaoFatten.sol:BuddyDao","label":"Amount","offset":0,"slot":"4","type":"t_uint256"},{"astId":3966,"contract":"contracts/BuddyDaoFatten.sol:BuddyDao","label":"Alias","offset":0,"slot":"5","type":"t_string_storage"},{"astId":3968,"contract":"contracts/BuddyDaoFatten.sol:BuddyDao","label":"isCancel","offset":0,"slot":"6","type":"t_bool"}],"numberOfBytes":"224"},"t_struct(Lender)3954_storage":{"encoding":"inplace","label":"struct BuddyDao.Lender","members":[{"astId":3941,"contract":"contracts/BuddyDaoFatten.sol:BuddyDao","label":"Address","offset":0,"slot":"0","type":"t_address"},{"astId":3943,"contract":"contracts/BuddyDaoFatten.sol:BuddyDao","label":"Token","offset":0,"slot":"1","type":"t_address"},{"astId":3945,"contract":"contracts/BuddyDaoFatten.sol:BuddyDao","label":"FixedRate","offset":0,"slot":"2","type":"t_uint256"},{"astId":3947,"contract":"contracts/BuddyDaoFatten.sol:BuddyDao","label":"CreditLine","offset":0,"slot":"3","type":"t_uint256"},{"astId":3949,"contract":"contracts/BuddyDaoFatten.sol:BuddyDao","label":"Amount","offset":0,"slot":"4","type":"t_uint256"},{"astId":3951,"contract":"contracts/BuddyDaoFatten.sol:BuddyDao","label":"Alias","offset":0,"slot":"5","type":"t_string_storage"},{"astId":3953,"contract":"contracts/BuddyDaoFatten.sol:BuddyDao","label":"isCancel","offset":0,"slot":"6","type":"t_bool"}],"numberOfBytes":"224"},"t_uint256":{"encoding":"inplace","label":"uint256","numberOfBytes":"32"}}}}}}