{
  "_format": "hh-sol-artifact-1",
  "contractName": "BuddyDao",
  "sourceName": "contracts/BuddyDao.sol",
  "abi": [
    {
      "inputs": [
        {
          "internalType": "uint256",
          "name": "_serviceFee",
          "type": "uint256"
        }
      ],
      "stateMutability": "nonpayable",
      "type": "constructor"
    },
    {
      "anonymous": false,
      "inputs": [
        {
          "indexed": true,
          "internalType": "address",
          "name": "previousOwner",
          "type": "address"
        },
        {
          "indexed": true,
          "internalType": "address",
          "name": "newOwner",
          "type": "address"
        }
      ],
      "name": "OwnershipTransferred",
      "type": "event"
    },
    {
      "anonymous": false,
      "inputs": [
        {
          "indexed": false,
          "internalType": "address",
          "name": "account",
          "type": "address"
        }
      ],
      "name": "Paused",
      "type": "event"
    },
    {
      "anonymous": false,
      "inputs": [
        {
          "indexed": false,
          "internalType": "address",
          "name": "_lendAddress",
          "type": "address"
        },
        {
          "indexed": false,
          "internalType": "uint256",
          "name": "_index",
          "type": "uint256"
        },
        {
          "indexed": false,
          "internalType": "uint256",
          "name": "_payAmount",
          "type": "uint256"
        }
      ],
      "name": "Payment",
      "type": "event"
    },
    {
      "anonymous": false,
      "inputs": [
        {
          "indexed": true,
          "internalType": "address",
          "name": "recieptor",
          "type": "address"
        },
        {
          "indexed": true,
          "internalType": "address",
          "name": "token",
          "type": "address"
        },
        {
          "indexed": false,
          "internalType": "uint256",
          "name": "amount",
          "type": "uint256"
        }
      ],
      "name": "Redeem",
      "type": "event"
    },
    {
      "anonymous": false,
      "inputs": [
        {
          "indexed": false,
          "internalType": "address",
          "name": "_approveAddress",
          "type": "address"
        },
        {
          "indexed": false,
          "internalType": "uint256",
          "name": "_index",
          "type": "uint256"
        },
        {
          "indexed": false,
          "internalType": "uint256",
          "name": "_cancelAmount",
          "type": "uint256"
        }
      ],
      "name": "ReduceTrust",
      "type": "event"
    },
    {
      "anonymous": false,
      "inputs": [
        {
          "indexed": false,
          "internalType": "uint256",
          "name": "_oldBase",
          "type": "uint256"
        },
        {
          "indexed": false,
          "internalType": "uint256",
          "name": "_newBase",
          "type": "uint256"
        }
      ],
      "name": "SetBaseUnit",
      "type": "event"
    },
    {
      "anonymous": false,
      "inputs": [
        {
          "indexed": false,
          "internalType": "uint256",
          "name": "_oldFixedRate",
          "type": "uint256"
        },
        {
          "indexed": false,
          "internalType": "uint256",
          "name": "_newFixedRate",
          "type": "uint256"
        }
      ],
      "name": "SetMaxFixedRate",
      "type": "event"
    },
    {
      "anonymous": false,
      "inputs": [
        {
          "indexed": false,
          "internalType": "uint256",
          "name": "_old",
          "type": "uint256"
        },
        {
          "indexed": false,
          "internalType": "uint256",
          "name": "_new",
          "type": "uint256"
        }
      ],
      "name": "SetServiceFee",
      "type": "event"
    },
    {
      "anonymous": false,
      "inputs": [
        {
          "indexed": false,
          "internalType": "address",
          "name": "_oldAddress",
          "type": "address"
        },
        {
          "indexed": false,
          "internalType": "address",
          "name": "_newAddress",
          "type": "address"
        }
      ],
      "name": "SetServiceFeeAddress",
      "type": "event"
    },
    {
      "anonymous": false,
      "inputs": [
        {
          "indexed": false,
          "internalType": "uint256",
          "name": "_oldTimeInternal",
          "type": "uint256"
        },
        {
          "indexed": false,
          "internalType": "uint256",
          "name": "_newTimeInternal",
          "type": "uint256"
        }
      ],
      "name": "SetTimeInterval",
      "type": "event"
    },
    {
      "anonymous": false,
      "inputs": [
        {
          "indexed": true,
          "internalType": "address",
          "name": "_address",
          "type": "address"
        },
        {
          "indexed": false,
          "internalType": "string",
          "name": "_alias",
          "type": "string"
        },
        {
          "indexed": false,
          "internalType": "address",
          "name": "_token",
          "type": "address"
        },
        {
          "indexed": true,
          "internalType": "uint256",
          "name": "_fixedRate",
          "type": "uint256"
        },
        {
          "indexed": true,
          "internalType": "uint256",
          "name": "_amount",
          "type": "uint256"
        }
      ],
      "name": "Trust",
      "type": "event"
    },
    {
      "anonymous": false,
      "inputs": [
        {
          "indexed": false,
          "internalType": "address",
          "name": "account",
          "type": "address"
        }
      ],
      "name": "Unpaused",
      "type": "event"
    },
    {
      "anonymous": false,
      "inputs": [
        {
          "indexed": false,
          "internalType": "address",
          "name": "_lendAddress",
          "type": "address"
        },
        {
          "indexed": false,
          "internalType": "uint256",
          "name": "_index",
          "type": "uint256"
        },
        {
          "indexed": false,
          "internalType": "uint256",
          "name": "_borrowerAmount",
          "type": "uint256"
        }
      ],
      "name": "WithdrawAssets",
      "type": "event"
    },
    {
      "inputs": [
        {
          "internalType": "address",
          "name": "",
          "type": "address"
        },
        {
          "internalType": "uint256",
          "name": "",
          "type": "uint256"
        }
      ],
      "name": "BorrowerArrary",
      "outputs": [
        {
          "internalType": "address",
          "name": "",
          "type": "address"
        }
      ],
      "stateMutability": "view",
      "type": "function"
    },
    {
      "inputs": [
        {
          "internalType": "address",
          "name": "",
          "type": "address"
        },
        {
          "internalType": "address",
          "name": "",
          "type": "address"
        }
      ],
      "name": "BorrowerBool",
      "outputs": [
        {
          "internalType": "bool",
          "name": "",
          "type": "bool"
        }
      ],
      "stateMutability": "view",
      "type": "function"
    },
    {
      "inputs": [
        {
          "internalType": "address",
          "name": "",
          "type": "address"
        },
        {
          "internalType": "address",
          "name": "",
          "type": "address"
        },
        {
          "internalType": "uint256",
          "name": "",
          "type": "uint256"
        }
      ],
      "name": "BorrowerData",
      "outputs": [
        {
          "internalType": "address",
          "name": "Creditors",
          "type": "address"
        },
        {
          "internalType": "address",
          "name": "Token",
          "type": "address"
        },
        {
          "internalType": "uint256",
          "name": "FixedRate",
          "type": "uint256"
        },
        {
          "internalType": "uint256",
          "name": "CreditLine",
          "type": "uint256"
        },
        {
          "internalType": "uint256",
          "name": "Amount",
          "type": "uint256"
        },
        {
          "internalType": "uint256",
          "name": "BorrowStartTime",
          "type": "uint256"
        },
        {
          "internalType": "bool",
          "name": "isCancel",
          "type": "bool"
        },
        {
          "internalType": "string",
          "name": "Alias",
          "type": "string"
        }
      ],
      "stateMutability": "view",
      "type": "function"
    },
    {
      "inputs": [
        {
          "internalType": "address",
          "name": "",
          "type": "address"
        },
        {
          "internalType": "address",
          "name": "",
          "type": "address"
        }
      ],
      "name": "BorrowerIsBool",
      "outputs": [
        {
          "internalType": "bool",
          "name": "",
          "type": "bool"
        }
      ],
      "stateMutability": "view",
      "type": "function"
    },
    {
      "inputs": [
        {
          "internalType": "address",
          "name": "",
          "type": "address"
        },
        {
          "internalType": "uint256",
          "name": "",
          "type": "uint256"
        }
      ],
      "name": "BorrowerNumber",
      "outputs": [
        {
          "internalType": "address",
          "name": "",
          "type": "address"
        }
      ],
      "stateMutability": "view",
      "type": "function"
    },
    {
      "inputs": [
        {
          "internalType": "address",
          "name": "_borrowerAddress",
          "type": "address"
        }
      ],
      "name": "GetBorrowerAddress",
      "outputs": [
        {
          "internalType": "address[]",
          "name": "",
          "type": "address[]"
        }
      ],
      "stateMutability": "view",
      "type": "function"
    },
    {
      "inputs": [
        {
          "internalType": "address",
          "name": "_borrowerAddress",
          "type": "address"
        }
      ],
      "name": "GetBorrowerAddressLengeth",
      "outputs": [
        {
          "internalType": "uint256",
          "name": "",
          "type": "uint256"
        }
      ],
      "stateMutability": "view",
      "type": "function"
    },
    {
      "inputs": [
        {
          "internalType": "address",
          "name": "_borrowerAddress",
          "type": "address"
        },
        {
          "internalType": "address",
          "name": "_creditors",
          "type": "address"
        }
      ],
      "name": "GetBorrowerData",
      "outputs": [
        {
          "components": [
            {
              "internalType": "address",
              "name": "Creditors",
              "type": "address"
            },
            {
              "internalType": "address",
              "name": "Token",
              "type": "address"
            },
            {
              "internalType": "uint256",
              "name": "FixedRate",
              "type": "uint256"
            },
            {
              "internalType": "uint256",
              "name": "CreditLine",
              "type": "uint256"
            },
            {
              "internalType": "uint256",
              "name": "Amount",
              "type": "uint256"
            },
            {
              "internalType": "uint256",
              "name": "BorrowStartTime",
              "type": "uint256"
            },
            {
              "internalType": "bool",
              "name": "isCancel",
              "type": "bool"
            },
            {
              "internalType": "string",
              "name": "Alias",
              "type": "string"
            }
          ],
          "internalType": "struct BuddyDao.Borrower[]",
          "name": "",
          "type": "tuple[]"
        }
      ],
      "stateMutability": "view",
      "type": "function"
    },
    {
      "inputs": [
        {
          "internalType": "address",
          "name": "_borrowerAddress",
          "type": "address"
        },
        {
          "internalType": "address",
          "name": "_creditors",
          "type": "address"
        },
        {
          "internalType": "uint256",
          "name": "_index",
          "type": "uint256"
        }
      ],
      "name": "GetBorrowerIndexData",
      "outputs": [
        {
          "components": [
            {
              "internalType": "address",
              "name": "Creditors",
              "type": "address"
            },
            {
              "internalType": "address",
              "name": "Token",
              "type": "address"
            },
            {
              "internalType": "uint256",
              "name": "FixedRate",
              "type": "uint256"
            },
            {
              "internalType": "uint256",
              "name": "CreditLine",
              "type": "uint256"
            },
            {
              "internalType": "uint256",
              "name": "Amount",
              "type": "uint256"
            },
            {
              "internalType": "uint256",
              "name": "BorrowStartTime",
              "type": "uint256"
            },
            {
              "internalType": "bool",
              "name": "isCancel",
              "type": "bool"
            },
            {
              "internalType": "string",
              "name": "Alias",
              "type": "string"
            }
          ],
          "internalType": "struct BuddyDao.Borrower",
          "name": "",
          "type": "tuple"
        }
      ],
      "stateMutability": "view",
      "type": "function"
    },
    {
      "inputs": [
        {
          "internalType": "address",
          "name": "_lenderAddress",
          "type": "address"
        }
      ],
      "name": "GetLenderAddress",
      "outputs": [
        {
          "internalType": "address[]",
          "name": "",
          "type": "address[]"
        }
      ],
      "stateMutability": "view",
      "type": "function"
    },
    {
      "inputs": [
        {
          "internalType": "address",
          "name": "_lenderAddress",
          "type": "address"
        }
      ],
      "name": "GetLenderAddressLengeth",
      "outputs": [
        {
          "internalType": "uint256",
          "name": "",
          "type": "uint256"
        }
      ],
      "stateMutability": "view",
      "type": "function"
    },
    {
      "inputs": [
        {
          "internalType": "address",
          "name": "_lenderAddress",
          "type": "address"
        },
        {
          "internalType": "address",
          "name": "_approveAddress",
          "type": "address"
        }
      ],
      "name": "GetLenderData",
      "outputs": [
        {
          "components": [
            {
              "internalType": "address",
              "name": "Token",
              "type": "address"
            },
            {
              "internalType": "address",
              "name": "Address",
              "type": "address"
            },
            {
              "internalType": "uint256",
              "name": "FixedRate",
              "type": "uint256"
            },
            {
              "internalType": "uint256",
              "name": "CreditLine",
              "type": "uint256"
            },
            {
              "internalType": "uint256",
              "name": "Amount",
              "type": "uint256"
            },
            {
              "internalType": "bool",
              "name": "isCancel",
              "type": "bool"
            },
            {
              "internalType": "string",
              "name": "Alias",
              "type": "string"
            }
          ],
          "internalType": "struct BuddyDao.Lender[]",
          "name": "",
          "type": "tuple[]"
        }
      ],
      "stateMutability": "view",
      "type": "function"
    },
    {
      "inputs": [
        {
          "internalType": "address",
          "name": "_lenderAddress",
          "type": "address"
        },
        {
          "internalType": "address",
          "name": "_approveAddress",
          "type": "address"
        },
        {
          "internalType": "uint256",
          "name": "_index",
          "type": "uint256"
        }
      ],
      "name": "GetLenderIndexData",
      "outputs": [
        {
          "components": [
            {
              "internalType": "address",
              "name": "Token",
              "type": "address"
            },
            {
              "internalType": "address",
              "name": "Address",
              "type": "address"
            },
            {
              "internalType": "uint256",
              "name": "FixedRate",
              "type": "uint256"
            },
            {
              "internalType": "uint256",
              "name": "CreditLine",
              "type": "uint256"
            },
            {
              "internalType": "uint256",
              "name": "Amount",
              "type": "uint256"
            },
            {
              "internalType": "bool",
              "name": "isCancel",
              "type": "bool"
            },
            {
              "internalType": "string",
              "name": "Alias",
              "type": "string"
            }
          ],
          "internalType": "struct BuddyDao.Lender",
          "name": "",
          "type": "tuple"
        }
      ],
      "stateMutability": "view",
      "type": "function"
    },
    {
      "inputs": [
        {
          "internalType": "address",
          "name": "",
          "type": "address"
        },
        {
          "internalType": "address",
          "name": "",
          "type": "address"
        },
        {
          "internalType": "uint256",
          "name": "",
          "type": "uint256"
        }
      ],
      "name": "LenderData",
      "outputs": [
        {
          "internalType": "address",
          "name": "Token",
          "type": "address"
        },
        {
          "internalType": "address",
          "name": "Address",
          "type": "address"
        },
        {
          "internalType": "uint256",
          "name": "FixedRate",
          "type": "uint256"
        },
        {
          "internalType": "uint256",
          "name": "CreditLine",
          "type": "uint256"
        },
        {
          "internalType": "uint256",
          "name": "Amount",
          "type": "uint256"
        },
        {
          "internalType": "bool",
          "name": "isCancel",
          "type": "bool"
        },
        {
          "internalType": "string",
          "name": "Alias",
          "type": "string"
        }
      ],
      "stateMutability": "view",
      "type": "function"
    },
    {
      "inputs": [
        {
          "internalType": "address",
          "name": "",
          "type": "address"
        },
        {
          "internalType": "address",
          "name": "",
          "type": "address"
        }
      ],
      "name": "LenderIsBool",
      "outputs": [
        {
          "internalType": "bool",
          "name": "",
          "type": "bool"
        }
      ],
      "stateMutability": "view",
      "type": "function"
    },
    {
      "inputs": [
        {
          "internalType": "address",
          "name": "",
          "type": "address"
        },
        {
          "internalType": "uint256",
          "name": "",
          "type": "uint256"
        }
      ],
      "name": "LenderNumber",
      "outputs": [
        {
          "internalType": "address",
          "name": "",
          "type": "address"
        }
      ],
      "stateMutability": "view",
      "type": "function"
    },
    {
      "inputs": [],
      "name": "MaxFixedRate",
      "outputs": [
        {
          "internalType": "uint256",
          "name": "",
          "type": "uint256"
        }
      ],
      "stateMutability": "view",
      "type": "function"
    },
    {
      "inputs": [
        {
          "internalType": "address",
          "name": "_approveAddress",
          "type": "address"
        },
        {
          "internalType": "string",
          "name": "_alias",
          "type": "string"
        },
        {
          "internalType": "address",
          "name": "_token",
          "type": "address"
        },
        {
          "internalType": "uint256",
          "name": "_fixedRate",
          "type": "uint256"
        },
        {
          "internalType": "uint256",
          "name": "_amount",
          "type": "uint256"
        }
      ],
      "name": "NewTrust",
      "outputs": [],
      "stateMutability": "nonpayable",
      "type": "function"
    },
    {
      "inputs": [
        {
          "internalType": "address",
          "name": "_lendAddress",
          "type": "address"
        },
        {
          "internalType": "uint256",
          "name": "_index",
          "type": "uint256"
        },
        {
          "internalType": "uint256",
          "name": "_payAmount",
          "type": "uint256"
        }
      ],
      "name": "Pay",
      "outputs": [],
      "stateMutability": "nonpayable",
      "type": "function"
    },
    {
      "inputs": [
        {
          "internalType": "address",
          "name": "_approveAddress",
          "type": "address"
        },
        {
          "internalType": "uint256",
          "name": "_index",
          "type": "uint256"
        },
        {
          "internalType": "uint256",
          "name": "_cancelAmount",
          "type": "uint256"
        }
      ],
      "name": "RemoveTrust",
      "outputs": [],
      "stateMutability": "nonpayable",
      "type": "function"
    },
    {
      "inputs": [],
      "name": "ServiceFee",
      "outputs": [
        {
          "internalType": "uint256",
          "name": "",
          "type": "uint256"
        }
      ],
      "stateMutability": "view",
      "type": "function"
    },
    {
      "inputs": [],
      "name": "ServiceFeeAddress",
      "outputs": [
        {
          "internalType": "address",
          "name": "",
          "type": "address"
        }
      ],
      "stateMutability": "view",
      "type": "function"
    },
    {
      "inputs": [],
      "name": "StartTimeInterval",
      "outputs": [
        {
          "internalType": "uint256",
          "name": "",
          "type": "uint256"
        }
      ],
      "stateMutability": "view",
      "type": "function"
    },
    {
      "inputs": [],
      "name": "TimeInterval",
      "outputs": [
        {
          "internalType": "uint256",
          "name": "",
          "type": "uint256"
        }
      ],
      "stateMutability": "view",
      "type": "function"
    },
    {
      "inputs": [
        {
          "internalType": "address",
          "name": "",
          "type": "address"
        },
        {
          "internalType": "address",
          "name": "",
          "type": "address"
        },
        {
          "internalType": "uint256",
          "name": "",
          "type": "uint256"
        }
      ],
      "name": "TotalBorrowerBool",
      "outputs": [
        {
          "internalType": "bool",
          "name": "",
          "type": "bool"
        }
      ],
      "stateMutability": "view",
      "type": "function"
    },
    {
      "inputs": [
        {
          "internalType": "address",
          "name": "",
          "type": "address"
        },
        {
          "internalType": "address",
          "name": "",
          "type": "address"
        },
        {
          "internalType": "uint256",
          "name": "",
          "type": "uint256"
        }
      ],
      "name": "TotalBorrowerIndexArrary",
      "outputs": [
        {
          "internalType": "uint256",
          "name": "",
          "type": "uint256"
        }
      ],
      "stateMutability": "view",
      "type": "function"
    },
    {
      "inputs": [
        {
          "internalType": "address",
          "name": "_lendAddress",
          "type": "address"
        },
        {
          "internalType": "uint256",
          "name": "_index",
          "type": "uint256"
        },
        {
          "internalType": "uint256",
          "name": "_borrowerAmount",
          "type": "uint256"
        }
      ],
      "name": "Withdrawal",
      "outputs": [],
      "stateMutability": "nonpayable",
      "type": "function"
    },
    {
      "inputs": [],
      "name": "baseYearOrMonth",
      "outputs": [
        {
          "internalType": "uint256",
          "name": "",
          "type": "uint256"
        }
      ],
      "stateMutability": "view",
      "type": "function"
    },
    {
      "inputs": [
        {
          "internalType": "address",
          "name": "pairAddress",
          "type": "address"
        },
        {
          "internalType": "uint256",
          "name": "_amount",
          "type": "uint256"
        }
      ],
      "name": "calculateBuddyTokens",
      "outputs": [
        {
          "internalType": "uint256",
          "name": "",
          "type": "uint256"
        }
      ],
      "stateMutability": "view",
      "type": "function"
    },
    {
      "inputs": [
        {
          "internalType": "uint256",
          "name": "_balance",
          "type": "uint256"
        },
        {
          "internalType": "uint256",
          "name": "_allowBalance",
          "type": "uint256"
        },
        {
          "internalType": "uint256",
          "name": "_dailyRate",
          "type": "uint256"
        }
      ],
      "name": "calculatingActualInterest",
      "outputs": [
        {
          "internalType": "uint256",
          "name": "",
          "type": "uint256"
        }
      ],
      "stateMutability": "pure",
      "type": "function"
    },
    {
      "inputs": [
        {
          "internalType": "address",
          "name": "_lendAddress",
          "type": "address"
        },
        {
          "internalType": "address",
          "name": "_borrower",
          "type": "address"
        },
        {
          "internalType": "uint256",
          "name": "_index",
          "type": "uint256"
        },
        {
          "internalType": "uint256",
          "name": "_payAmount",
          "type": "uint256"
        }
      ],
      "name": "calculatingInterest",
      "outputs": [
        {
          "internalType": "uint256",
          "name": "",
          "type": "uint256"
        }
      ],
      "stateMutability": "view",
      "type": "function"
    },
    {
      "inputs": [
        {
          "internalType": "bytes",
          "name": "",
          "type": "bytes"
        }
      ],
      "name": "checkUpkeep",
      "outputs": [
        {
          "internalType": "bool",
          "name": "upkeepNeeded",
          "type": "bool"
        },
        {
          "internalType": "bytes",
          "name": "",
          "type": "bytes"
        }
      ],
      "stateMutability": "view",
      "type": "function"
    },
    {
      "inputs": [
        {
          "internalType": "address",
          "name": "",
          "type": "address"
        }
      ],
      "name": "isTotalBorrower",
      "outputs": [
        {
          "internalType": "bool",
          "name": "",
          "type": "bool"
        }
      ],
      "stateMutability": "view",
      "type": "function"
    },
    {
      "inputs": [],
      "name": "owner",
      "outputs": [
        {
          "internalType": "address",
          "name": "",
          "type": "address"
        }
      ],
      "stateMutability": "view",
      "type": "function"
    },
    {
      "inputs": [],
      "name": "paused",
      "outputs": [
        {
          "internalType": "bool",
          "name": "",
          "type": "bool"
        }
      ],
      "stateMutability": "view",
      "type": "function"
    },
    {
      "inputs": [
        {
          "internalType": "bytes",
          "name": "",
          "type": "bytes"
        }
      ],
      "name": "performUpkeep",
      "outputs": [],
      "stateMutability": "nonpayable",
      "type": "function"
    },
    {
      "inputs": [],
      "name": "renounceOwnership",
      "outputs": [],
      "stateMutability": "nonpayable",
      "type": "function"
    },
    {
      "inputs": [
        {
          "internalType": "uint256",
          "name": "_newBaseUnit",
          "type": "uint256"
        }
      ],
      "name": "setBaseUnit",
      "outputs": [],
      "stateMutability": "nonpayable",
      "type": "function"
    },
    {
      "inputs": [
        {
          "internalType": "uint256",
          "name": "_maxFixedRate",
          "type": "uint256"
        }
      ],
      "name": "setMaxFixedRate",
      "outputs": [],
      "stateMutability": "nonpayable",
      "type": "function"
    },
    {
      "inputs": [
        {
          "internalType": "uint256",
          "name": "_serviceFee",
          "type": "uint256"
        }
      ],
      "name": "setServiceFee",
      "outputs": [],
      "stateMutability": "nonpayable",
      "type": "function"
    },
    {
      "inputs": [
        {
          "internalType": "address",
          "name": "_newAddress",
          "type": "address"
        }
      ],
      "name": "setServiceFeeAddress",
      "outputs": [],
      "stateMutability": "nonpayable",
      "type": "function"
    },
    {
      "inputs": [
        {
          "internalType": "uint256",
          "name": "_newTimeInterval",
          "type": "uint256"
        }
      ],
      "name": "setTimeInterval",
      "outputs": [],
      "stateMutability": "nonpayable",
      "type": "function"
    },
    {
      "inputs": [
        {
          "internalType": "uint256",
          "name": "",
          "type": "uint256"
        }
      ],
      "name": "totalBorrower",
      "outputs": [
        {
          "internalType": "address",
          "name": "",
          "type": "address"
        }
      ],
      "stateMutability": "view",
      "type": "function"
    },
    {
      "inputs": [
        {
          "internalType": "address",
          "name": "newOwner",
          "type": "address"
        }
      ],
      "name": "transferOwnership",
      "outputs": [],
      "stateMutability": "nonpayable",
      "type": "function"
    }
  ],
  "bytecode": "0x6080604052670de0b6b3a76400006006556301e133806007553480156200002557600080fd5b506040516200493f3803806200493f833981016040819052620000489162000186565b620000533362000136565b6000805460ff60a01b1916815560018055819003620000c55760405162461bcd60e51b8152602060048201526024808201527f73657276696365466565206d757374206265206120706f736974697665206e7560448201526336b132b960e11b60648201526084015b60405180910390fd5b600654811115620001295760405162461bcd60e51b815260206004820152602760248201527f43616e6e6f742065786365656420746865206d6178696d756d20696e746572656044820152667374207261746560c81b6064820152608401620000bc565b60045542600355620001a0565b600080546001600160a01b038381166001600160a01b0319831681178455604051919092169283917f8be0079c531659141344cd1fd0a4f28419497f9722a3daafe3b4186f6b6457e09190a35050565b6000602082840312156200019957600080fd5b5051919050565b61478f80620001b06000396000f3fe608060405234801561001057600080fd5b50600436106102745760003560e01c8063896485d111610151578063b51fbb98116100c3578063e37f571511610087578063e37f571514610658578063e3f10b4d14610678578063e946ca731461068b578063f2fde38b1461069e578063f3cc15be146106b1578063fb3e8002146106ba57600080fd5b8063b51fbb98146105de578063b71cdec7146105f1578063becdd0771461061f578063d0a0a45814610632578063df273cb61461064557600080fd5b8063a56acda511610115578063a56acda51461057a578063a99226241461059d578063aadb5b37146105b0578063adbdbe93146105b9578063afe8ec6c146105c2578063b20e01ef146105cb57600080fd5b8063896485d1146104be5780638a173f74146104ec5780638da5cb5b146105205780639d6283a214610531578063a4ec4c441461055157600080fd5b80635403f658116101ea57806360dd53dd116101ae57806360dd53dd1461042b5780636bac4f23146104595780636e04ff0d14610479578063715018a61461049a57806376e988ec146104a257806388f0df1f146104b557600080fd5b80635403f658146103ae57806356a692c2146103c157806357d02498146103d45780635c975abb146103fa5780635cdf76f81461041857600080fd5b80632a90ed5b1161023c5780632a90ed5b146103055780632fdb5c391461032c57806332c8827c146103555780633d38134a146103685780633da1d716146103885780634585e33b1461039b57600080fd5b80631d6abdef146102795780631fd487ca146102a957806321f5f91f146102ca57806325423a1b146102dd57806325e0c61b146102f2575b600080fd5b61028c610287366004613c84565b6106da565b6040516001600160a01b0390911681526020015b60405180910390f35b6102bc6102b7366004613c84565b610712565b6040519081526020016102a0565b6102bc6102d8366004613cb0565b610922565b6102f06102eb366004613cdc565b61095f565b005b6102f0610300366004613cf5565b610a07565b610318610313366004613d2a565b610eb5565b6040516102a0989796959493929190613dbb565b6102bc61033a366004613e16565b6001600160a01b031660009081526010602052604090205490565b6102f0610363366004613cf5565b610fc3565b61037b610376366004613e33565b6114f3565b6040516102a09190613ed3565b6102f0610396366004613e16565b611656565b6102f06103a9366004613f28565b61172d565b6102bc6103bc366004613f9a565b611e07565b61028c6103cf366004613c84565b611f5e565b6103e76103e2366004613d2a565b611f7a565b6040516102a09796959493929190613fe0565b600054600160a01b900460ff165b60405190151581526020016102a0565b6102f0610426366004613cdc565b612081565b610408610439366004613e33565b600a60209081526000928352604080842090915290825290205460ff1681565b61046c610467366004613d2a565b612188565b6040516102a0919061409c565b61048c610487366004613f28565b612332565b6040516102a09291906140af565b6102f061237d565b6102f06104b03660046140e0565b612391565b6102bc60035481565b6104086104cc366004613e33565b601360209081526000928352604080842090915290825290205460ff1681565b6104086104fa366004613d2a565b600c60209081526000938452604080852082529284528284209052825290205460ff1681565b6000546001600160a01b031661028c565b61054461053f366004613d2a565b612a94565b6040516102a091906141c6565b6102bc61055f366004613e16565b6001600160a01b031660009081526011602052604090205490565b610408610588366004613e16565b60096020526000908152604090205460ff1681565b61028c6105ab366004613c84565b612b9e565b6102bc60045481565b6102bc60065481565b6102bc60025481565b6102f06105d9366004613cdc565b612bba565b6102f06105ec366004613cdc565b612c03565b6104086105ff366004613e33565b601260209081526000928352604080842090915290825290205460ff1681565b6102bc61062d366004613d2a565b612c9c565b61028c610640366004613cdc565b612cda565b6102f0610653366004613cf5565b612d04565b61066b610666366004613e16565b6134d5565b6040516102a091906141d9565b61066b610686366004613e16565b61354b565b60055461028c906001600160a01b031681565b6102f06106ac366004613e16565b6135bf565b6102bc60075481565b6106cd6106c8366004613e33565b613638565b6040516102a09190614226565b601060205281600052604060002081815481106106f657600080fd5b6000918252602090912001546001600160a01b03169150829050565b600080839050600080826001600160a01b0316630902f1ac6040518163ffffffff1660e01b8152600401606060405180830381865afa158015610759573d6000803e3d6000fd5b505050506040513d601f19601f8201168201806040525081019061077d9190614292565b50915091506000836001600160a01b0316630dfe16816040518163ffffffff1660e01b8152600401602060405180830381865afa1580156107c2573d6000803e3d6000fd5b505050506040513d601f19601f820116820180604052508101906107e691906142e2565b905060006001600160a01b0382167391167ca639ec2293847acd09c75d5b3b4a6bf0e30361083b578361082184670de0b6b3a7640000614315565b61082b9190614356565b6001600160701b03169050610864565b8261084e85670de0b6b3a7640000614315565b6108589190614356565b6001600160701b031690505b6000606460045489610876919061437c565b6108809190614393565b905060008261088f838b6143a7565b6108a190670de0b6b3a764000061437c565b6108ab9190614393565b9050866001600160a01b031663313ce5676040518163ffffffff1660e01b8152600401602060405180830381865afa1580156108eb573d6000803e3d6000fd5b505050506040513d601f19601f8201168201806040525081019061090f91906143ba565b60ff169750505050505050505b92915050565b60008082851015610943578385101561093c575083610955565b5082610955565b83831015610952575081610955565b50825b90505b9392505050565b610967613799565b600081116109c65760405162461bcd60e51b815260206004820152602160248201527f4e65772054696d6520496e74657276616c206d757374206265206772656174206044820152600360fc1b60648201526084015b60405180910390fd5b60025460408051918252602082018390527f8efd7a06dec059364c6a6d160e9ba026bb1d2a1c7befdd940db032506238a60c910160405180910390a1600255565b610a0f6137f3565b610a1761384c565b6001600160a01b038316610a795760405162461bcd60e51b8152602060048201526024808201527f617070726f766541646472657373206973206e6f742061207a65726f206164646044820152637265737360e01b60648201526084016109bd565b80600003610ae25760405162461bcd60e51b815260206004820152603060248201527f546865206e756d626572206f662063616e63656c6c6174696f6e732063616e6e60448201526f06f7420626520657175616c20746f20360841b60648201526084016109bd565b336001600160a01b03841603610b3a5760405162461bcd60e51b815260206004820181905260248201527f617070726f766541646472657373206973206e6f74206d73672e73656e64657260448201526064016109bd565b3360009081526012602090815260408083206001600160a01b038716845290915290205460ff16610bb95760405162461bcd60e51b8152602060048201526024808201527f6c656e646572206973206e6f7420617070726f766520617070726f76654164646044820152637265737360e01b60648201526084016109bd565b336000908152600e602090815260408083206001600160a01b038716845290915290208054610be96001826143a7565b841115610c085760405162461bcd60e51b81526004016109bd906143dd565b336000908152600e602090815260408083206001600160a01b03891684529091528120805486908110610c3d57610c3d614404565b600091825260208083206001600160a01b038a168452600f825260408085203386529092529220805460079092029092019250610c7b6001826143a7565b871115610cc35760405162461bcd60e51b81526020600482015260166024820152753137b93937bbb2b91034b73232bc1027bb32b9393ab760511b60448201526064016109bd565b6001600160a01b0388166000908152600f602090815260408083203384529091528120805489908110610cf857610cf8614404565b600091825260209091206005860154600890920201915060ff1615610d2f5760405162461bcd60e51b81526004016109bd9061441a565b80600401548460030154610d4391906143a7565b871115610dc25760405162461bcd60e51b815260206004820152604160248201527f43616e63656c6c6174696f6e732063616e6e6f7420626520677265617465722060448201527f7468616e20746865206e756d626572206f6620617574686f72697a6174696f6e6064820152607360f81b608482015260a4016109bd565b83600301548703610e295760058401805460ff1980821660ff928316151790925560068301805492831692909116159190911790556003840154610e079088906143a7565b8460030181905550868160030154610e1f91906143a7565b6003820155610e57565b868460030154610e3991906143a7565b8460030181905550868160030154610e5191906143a7565b60038201555b604080516001600160a01b038b168152602081018a90529081018890527f62a0e7e6165d97cf606eafbe25e28dd5e6e8033bb30b807959547c4e9ac907a89060600160405180910390a1505050505050610eb060018055565b505050565b600f6020528260005260406000206020528160005260406000208181548110610edd57600080fd5b6000918252602090912060089091020180546001820154600283015460038401546004850154600586015460068701546007880180546001600160a01b039889169c5097909616995093975091959094919360ff909316929091610f4090614468565b80601f0160208091040260200160405190810160405280929190818152602001828054610f6c90614468565b8015610fb95780601f10610f8e57610100808354040283529160200191610fb9565b820191906000526020600020905b815481529060010190602001808311610f9c57829003601f168201915b5050505050905088565b610fcb6137f3565b610fd361384c565b6001600160a01b038316610ff95760405162461bcd60e51b81526004016109bd906144a2565b336001600160a01b038416036110515760405162461bcd60e51b815260206004820152601d60248201527f6c656e6441646472657373206973206e6f74206d73672e73656e64657200000060448201526064016109bd565b806000036110715760405162461bcd60e51b81526004016109bd906144e4565b3360009081526013602090815260408083206001600160a01b038716845290915290205460ff166110e45760405162461bcd60e51b815260206004820181905260248201527f6c656e646572206973206e6f7420617070726f7665206d73672e73656e64657260448201526064016109bd565b336000908152600f602090815260408083206001600160a01b0387168452909152902080546111146001826143a7565b8411156111335760405162461bcd60e51b81526004016109bd906143dd565b336000908152600f602090815260408083206001600160a01b0389168452909152812080548690811061116857611168614404565b9060005260206000209060080201905080600401548411156112055760405162461bcd60e51b815260206004820152604a60248201527f5468652072657475726e6564207175616e74697479206d757374206265206c6560448201527f7373207468616e206f7220657175616c20746f2074686520626f72726f7765646064820152691038bab0b73a34ba3c9760b11b608482015260a4016109bd565b6001810154604051636eb1769f60e11b81523360048201523060248201526000916001600160a01b03169063dd62ed3e90604401602060405180830381865afa158015611256573d6000803e3d6000fd5b505050506040513d601f19601f8201168201806040525081019061127a9190614535565b9050808511156112cc5760405162461bcd60e51b815260206004820152601a60248201527f626f72726f776572206c61636b206f6620616c6c6f77616e636500000000000060448201526064016109bd565b60018201546040516370a0823160e01b81523360048201526000916001600160a01b0316906370a0823190602401602060405180830381865afa158015611317573d6000803e3d6000fd5b505050506040513d601f19601f8201168201806040525081019061133b9190614535565b9050858110156113845760405162461bcd60e51b8152602060048201526014602482015273496e73756666696369656e742062616c616e636560601b60448201526064016109bd565b600183015483546000916113a7916001600160a01b03918216913391168a613899565b90508681146113c85760405162461bcd60e51b81526004016109bd9061454e565b8684600401546113d891906143a7565b600485018190556000036113ee57600060058501555b6001600160a01b0389166000908152600e602090815260408083203384529091529020805461141e6001826143a7565b8a111561143d5760405162461bcd60e51b81526004016109bd906143dd565b6001600160a01b038b166000908152600e60209081526040808320338452909152812080548c90811061147257611472614404565b9060005260206000209060070201905089816004015461149291906143a7565b6004820155604080516001600160a01b038e168152602081018d90529081018b90527f9643c1b5b172b26d5f028be7fe646349bd5e3cd9367bb18f9e825afa828b7d939060600160405180910390a1505050505050505050610eb060018055565b6001600160a01b038083166000908152600e602090815260408083209385168352928152828220805484518184028101840190955280855260609492849084015b828210156116495760008481526020908190206040805160e0810182526007860290920180546001600160a01b039081168452600182015416938301939093526002830154908201526003820154606082015260048201546080820152600582015460ff16151560a082015260068201805491929160c0840191906115b890614468565b80601f01602080910402602001604051908101604052809291908181526020018280546115e490614468565b80156116315780601f1061160657610100808354040283529160200191611631565b820191906000526020600020905b81548152906001019060200180831161161457829003601f168201915b50505050508152505081526020019060010190611534565b5092979650505050505050565b61165e613799565b6001600160a01b0381166116c45760405162461bcd60e51b815260206004820152602760248201527f7365727669636546656541646472657373206973206e6f742061207a65726f206044820152666164647265737360c81b60648201526084016109bd565b600554604080516001600160a01b03928316815291831660208301527f1ae120263ff20a7e40d52789037da1608a0f939f1d05ddf25de34fce9f62d4e0910160405180910390a1600580546001600160a01b0319166001600160a01b0392909216919091179055565b61173561384c565b60025460035461174591906145a4565b421115611e035760085415611dfe5760005b600854811015611dfc576000600b60006008848154811061177a5761177a614404565b60009182526020808320909101546001600160a01b031683528281019390935260409182019020805482518185028101850190935280835291929091908301828280156117f057602002820191906000526020600020905b81546001600160a01b031681526001909101906020018083116117d2575b5050505050905060005b8151811015611de9576000600f60006008868154811061181c5761181c614404565b60009182526020808320909101546001600160a01b031683528201929092526040018120845190919085908590811061185757611857614404565b60200260200101516001600160a01b03166001600160a01b03168152602001908152602001600020805480602002602001604051908101604052809291908181526020016000905b828210156119bf57600084815260209081902060408051610100810182526008860290920180546001600160a01b039081168452600182015416938301939093526002830154908201526003820154606082015260048201546080820152600582015460a0820152600682015460ff16151560c082015260078201805491929160e08401919061192e90614468565b80601f016020809104026020016040519081016040528092919081815260200182805461195a90614468565b80156119a75780601f1061197c576101008083540402835291602001916119a7565b820191906000526020600020905b81548152906001019060200180831161198a57829003601f168201915b5050505050815250508152602001906001019061189f565b50505050905080516000036119d45750611dd9565b6000600d6000600887815481106119ed576119ed614404565b60009182526020808320909101546001600160a01b0316835282019290925260400181208551909190869086908110611a2857611a28614404565b60200260200101516001600160a01b03166001600160a01b03168152602001908152602001600020805480602002602001604051908101604052809291908181526020018280548015611a9a57602002820191906000526020600020905b815481526020019060010190808311611a86575b5050505050905060005b8151811015611dd55760005b8351811015611dc457838181518110611acb57611acb614404565b602002602001015160c00151611db4576000848281518110611aef57611aef614404565b6020026020010151608001511115611db4576000611b75878781518110611b1857611b18614404565b602002602001015160088a81548110611b3357611b33614404565b9060005260206000200160009054906101000a90046001600160a01b031684888681518110611b6457611b64614404565b602002602001015160800151611e07565b90506000858381518110611b8b57611b8b614404565b6020026020010151602001516001600160a01b03166370a0823160088b81548110611bb857611bb8614404565b60009182526020909120015460405160e083901b6001600160e01b03191681526001600160a01b039091166004820152602401602060405180830381865afa158015611c08573d6000803e3d6000fd5b505050506040513d601f19601f82011682018060405250810190611c2c9190614535565b905080600003611c3d575050611db4565b6000868481518110611c5157611c51614404565b6020026020010151602001516001600160a01b031663dd62ed3e60088c81548110611c7e57611c7e614404565b60009182526020909120015460405160e083901b6001600160e01b03191681526001600160a01b039091166004820152306024820152604401602060405180830381865afa158015611cd4573d6000803e3d6000fd5b505050506040513d601f19601f82011682018060405250810190611cf89190614535565b905080600003611d0a57505050611db4565b6000611d17838386610922565b90506000611d8d898781518110611d3057611d30614404565b60200260200101516020015160088e81548110611d4f57611d4f614404565b9060005260206000200160009054906101000a90046001600160a01b03168d8d81518110611d7f57611d7f614404565b602002602001015185613899565b9050818114611dae5760405162461bcd60e51b81526004016109bd9061454e565b50505050505b611dbd816145b7565b9050611ab0565b50611dce816145b7565b9050611aa4565b5050505b611de2816145b7565b90506117fa565b505080611df5906145b7565b9050611757565b505b426003555b5050565b60006001600160a01b038516611e2f5760405162461bcd60e51b81526004016109bd906144a2565b81600003611e4f5760405162461bcd60e51b81526004016109bd906144e4565b6001600160a01b038085166000908152600f602090815260408083209389168352929052208054611e816001826143a7565b851115611ea05760405162461bcd60e51b81526004016109bd906143dd565b6001600160a01b038087166000908152600f60209081526040808320938b168352929052908120805487908110611ed957611ed9614404565b906000526020600020906008020190506000611f36670de0b6b3a764000067ffffffffffffffff16611f30600754611f30670de0b6b3a764000067ffffffffffffffff1687600201546138d790919063ffffffff16565b90613959565b90506000611f50670de0b6b3a7640000611f3089856138d7565b9a9950505050505050505050565b600b60205281600052604060002081815481106106f657600080fd5b600e6020528260005260406000206020528160005260406000208181548110611fa257600080fd5b600091825260209091206007909102018054600182015460028301546003840154600485015460058601546006870180546001600160a01b039788169b509690951698509296509094909360ff909216929091611ffe90614468565b80601f016020809104026020016040519081016040528092919081815260200182805461202a90614468565b80156120775780601f1061204c57610100808354040283529160200191612077565b820191906000526020600020905b81548152906001019060200180831161205a57829003601f168201915b5050505050905087565b612089613799565b806000036120e55760405162461bcd60e51b8152602060048201526024808201527f73657276696365466565206d757374206265206120706f736974697665206e7560448201526336b132b960e11b60648201526084016109bd565b6006548111156121475760405162461bcd60e51b815260206004820152602760248201527f43616e6e6f742065786365656420746865206d6178696d756d20696e746572656044820152667374207261746560c81b60648201526084016109bd565b60045460408051918252602082018390527fb4c698dddf4b6b8fbb270a4c12172c4b2906a081e3c98d45790367411f09fd1a910160405180910390a1600455565b6121e460405180610100016040528060006001600160a01b0316815260200160006001600160a01b0316815260200160008152602001600081526020016000815260200160008152602001600015158152602001606081525090565b6001600160a01b038085166000908152600f60209081526040808320938716835292905290812080548490811061221d5761221d614404565b60009182526020918290206040805161010081018252600890930290910180546001600160a01b039081168452600182015416938301939093526002830154908201526003820154606082015260048201546080820152600582015460a0820152600682015460ff16151560c082015260078201805491929160e0840191906122a590614468565b80601f01602080910402602001604051908101604052809291908181526020018280546122d190614468565b801561231e5780601f106122f35761010080835404028352916020019161231e565b820191906000526020600020905b81548152906001019060200180831161230157829003601f168201915b505050919092525091979650505050505050565b6000606061233e61384c565b60025460035461234e91906145a4565b4211156123615760085415159150612366565b600091505b506040805160208101909152600081529250929050565b612385613799565b61238f600061399b565b565b6123996137f3565b6123a161384c565b6001600160a01b0385166124055760405162461bcd60e51b815260206004820152602560248201527f5f617070726f766541646472657373206973206e6f742061207a65726f206164604482015264647265737360d81b60648201526084016109bd565b6001600160a01b03831661245b5760405162461bcd60e51b815260206004820152601c60248201527f5f746f6b656e206973206e6f742061207a65726f20616464726573730000000060448201526064016109bd565b6006548211156124bc5760405162461bcd60e51b815260206004820152602660248201527f4d757374206265206c657373207468616e20746865206d6178696d756d20696e6044820152651d195c995cdd60d21b60648201526084016109bd565b336001600160a01b0386160361251e5760405162461bcd60e51b815260206004820152602160248201527f617070726f76652061646472657373206973206e6f74206d73672e73656e64656044820152603960f91b60648201526084016109bd565b604051636eb1769f60e11b81523360048201523060248201526000906001600160a01b0385169063dd62ed3e90604401602060405180830381865afa15801561256b573d6000803e3d6000fd5b505050506040513d601f19601f8201168201806040525081019061258f9190614535565b9050808211156125da5760405162461bcd60e51b81526020600482015260166024820152754c656e64206c61636b206f6620616c6c6f77616e636560501b60448201526064016109bd565b6040516370a0823160e01b81523360048201526000906001600160a01b038616906370a0823190602401602060405180830381865afa158015612621573d6000803e3d6000fd5b505050506040513d601f19601f820116820180604052508101906126459190614535565b9050808311156126bd5760405162461bcd60e51b815260206004820152603860248201527f54686520617574686f72697a6564207175616e74697479206d7573742062652060448201527f67726561746572207468616e207468652062616c616e6365000000000000000060648201526084016109bd565b3360009081526012602090815260408083206001600160a01b038b16845290915290205460ff1680612747573360008181526012602090815260408083206001600160a01b038d16808552908352818420805460ff19811660ff90911615179055938352601082528220805460018101825590835291200180546001600160a01b03191690911790555b6001600160a01b038816600090815260136020908152604080832033845290915290205460ff16806127d1576001600160a01b038916600081815260136020908152604080832033808552908352818420805460ff19811660ff90911615179055938352601182528220805460018101825590835291200180546001600160a01b03191690911790555b6000600e6000336001600160a01b03166001600160a01b0316815260200190815260200160002060008b6001600160a01b03166001600160a01b031681526020019081526020016000209050806040518060e001604052808a6001600160a01b031681526020018c6001600160a01b03168152602001898152602001888152602001600081526020016000151581526020018b815250908060018154018082558091505060019003906000526020600020906007020160009091909190915060008201518160000160006101000a8154816001600160a01b0302191690836001600160a01b0316021790555060208201518160010160006101000a8154816001600160a01b0302191690836001600160a01b0316021790555060408201518160020155606082015181600301556080820151816004015560a08201518160050160006101000a81548160ff02191690831515021790555060c082015181600601908161293d919061461e565b5050506001600160a01b03808b166000908152600f60209081526040808320338085529083528184208251610100810184529182528d86168285019081528284018e8152606084018e81526080850188815260a0860189815260c087018a81528851808b019099528a895260e08801988952865460018181018955888d529a909b2088516008909c020180549b8d166001600160a01b03199c8d16178155955199860180549a909c1699909a1698909817909955905160028301555160038201559551600487015592516005860155925160068501805491151560ff19909216919091179055519092906007820190612a36908261461e565b50505086888c6001600160a01b03167f6a1aece8c884572ea74ceb28400eeff08a21cd618456b7fa364df088155bdfa48d8d604051612a769291906146de565b60405180910390a4505050505050612a8d60018055565b5050505050565b612ae86040518060e0016040528060006001600160a01b0316815260200160006001600160a01b03168152602001600081526020016000815260200160008152602001600015158152602001606081525090565b6001600160a01b038085166000908152600e602090815260408083209387168352929052908120805484908110612b2157612b21614404565b60009182526020918290206040805160e081018252600790930290910180546001600160a01b039081168452600182015416938301939093526002830154908201526003820154606082015260048201546080820152600582015460ff16151560a082015260068201805491929160c0840191906122a590614468565b601160205281600052604060002081815481106106f657600080fd5b612bc2613799565b60065460408051918252602082018390527f071bd95be08719e929a1ff7d683da62cfb71ae69e3be29a6cd567459ab05c796910160405180910390a1600655565b612c0b613799565b60008111612c5b5760405162461bcd60e51b815260206004820152601d60248201527f4e657720626173652075696e74206d757374206265206772656174203000000060448201526064016109bd565b60075460408051918252602082018390527f8fcde9e17e0cf7ff4c61c958ed4f84559ef4641f2e33866c10566d07d0560b05910160405180910390a1600755565b600d6020528260005260406000206020528160005260406000208181548110612cc457600080fd5b9060005260206000200160009250925050505481565b60088181548110612cea57600080fd5b6000918252602090912001546001600160a01b0316905081565b612d0c6137f3565b612d1461384c565b6001600160a01b038316612d3a5760405162461bcd60e51b81526004016109bd906144a2565b336001600160a01b03841603612d925760405162461bcd60e51b815260206004820152601d60248201527f6c656e6441646472657373206973206e6f74206d73672e73656e64657200000060448201526064016109bd565b80600003612dfd5760405162461bcd60e51b815260206004820152603260248201527f546865206e756d626572206f6620626f72726f77657220616d6f756e7420636160448201527106e6e6f7420626520657175616c20746f20360741b60648201526084016109bd565b3360009081526013602090815260408083206001600160a01b038716845290915290205460ff16612e705760405162461bcd60e51b815260206004820181905260248201527f6c656e646572206973206e6f7420617070726f7665206d73672e73656e64657260448201526064016109bd565b336000908152600f602090815260408083206001600160a01b038716845290915290208054612ea06001826143a7565b841115612ebf5760405162461bcd60e51b81526004016109bd906143dd565b336000908152600f602090815260408083206001600160a01b03891684529091528120805486908110612ef457612ef4614404565b60009182526020909120600890910201600681015490915060ff1615612f2c5760405162461bcd60e51b81526004016109bd9061441a565b80600401548160030154612f4091906143a7565b841115612fca5760405162461bcd60e51b815260206004820152604c60248201527f546865206e756d626572206f66207769746864726177616c73206d757374206260448201527f65206c657373207468616e206f7220657175616c20746f20746865206566666560648201526b31ba34bb3290373ab6b132b960a11b608482015260a4016109bd565b600181015481546040516370a0823160e01b81526001600160a01b03918216600482015260009291909116906370a0823190602401602060405180830381865afa15801561301c573d6000803e3d6000fd5b505050506040513d601f19601f820116820180604052508101906130409190614535565b9050808511156130b05760405162461bcd60e51b815260206004820152603560248201527f546865206c656e642062616c616e6365206973206c657373207468616e2074686044820152746520626f72726f7761626c65207175616e7469747960581b60648201526084016109bd565b8482600401546130c091906145a4565b600483015560058201546000036130d8574260058301555b6001600160a01b0387166000908152600e60209081526040808320338452909152902080546131086001826143a7565b8811156131275760405162461bcd60e51b81526004016109bd906143dd565b6001600160a01b0389166000908152600e60209081526040808320338452909152812080548a90811061315c5761315c614404565b9060005260206000209060070201905087816004015461317c91906145a4565b60048201553360009081526009602052604090205460ff166133d05760088054600181019091557ff3f7a9fe364faab93b216da50a3214154f22a0a2b415b23a84c8169e8b636ee30180546001600160a01b031916339081179091556000908152600960209081526040808320805460ff19811660ff9182161517909155600a83528184206001600160a01b038f168552909252909120541661333c57600b6000336001600160a01b03166001600160a01b031681526020019081526020016000208a9080600181540180825580915050600190039060005260206000200160009091909190916101000a8154816001600160a01b0302191690836001600160a01b03160217905550600a6000336001600160a01b03166001600160a01b0316815260200190815260200160002060008b6001600160a01b03166001600160a01b0316815260200190815260200160002060009054906101000a900460ff1615600a6000336001600160a01b03166001600160a01b0316815260200190815260200160002060008c6001600160a01b03166001600160a01b0316815260200190815260200160002060006101000a81548160ff0219169083151502179055505b336000908152600c602090815260408083206001600160a01b038e16845282528083208c845290915290205460ff166133d057336000818152600d602090815260408083206001600160a01b038f168085529083528184208054600181018255908552838520018e9055938352600c82528083209383529281528282208c8352905220805460ff81161560ff199091161790555b600185015485546000916133f2916001600160a01b039182169116338c613899565b905088811461347a5760405162461bcd60e51b815260206004820152604860248201527f5468652061637475616c206d6f6e6579206c656e74206973206e6f742074686560448201527f2073616d6520617320746865206d6f6e6579206e656564656420746f20626520606482015267189bdc9c9bddd95960c21b608482015260a4016109bd565b604080516001600160a01b038d168152602081018c90529081018a90527f1d37c96186f00aa949bfd16bca10aaa0e7f79a45edc5c1f62634322ae1c0f0c89060600160405180910390a15050505050505050610eb060018055565b6001600160a01b03811660009081526010602090815260409182902080548351818402810184019094528084526060939283018282801561353f57602002820191906000526020600020905b81546001600160a01b03168152600190910190602001808311613521575b50505050509050919050565b6001600160a01b03811660009081526011602090815260409182902080548351818402810184019094528084526060939283018282801561353f576020028201919060005260206000209081546001600160a01b031681526001909101906020018083116135215750505050509050919050565b6135c7613799565b6001600160a01b03811661362c5760405162461bcd60e51b815260206004820152602660248201527f4f776e61626c653a206e6577206f776e657220697320746865207a65726f206160448201526564647265737360d01b60648201526084016109bd565b6136358161399b565b50565b6001600160a01b038083166000908152600f602090815260408083209385168352928152828220805484518184028101840190955280855260609492849084015b8282101561164957600084815260209081902060408051610100810182526008860290920180546001600160a01b039081168452600182015416938301939093526002830154908201526003820154606082015260048201546080820152600582015460a0820152600682015460ff16151560c082015260078201805491929160e08401919061370890614468565b80601f016020809104026020016040519081016040528092919081815260200182805461373490614468565b80156137815780601f1061375657610100808354040283529160200191613781565b820191906000526020600020905b81548152906001019060200180831161376457829003601f168201915b50505050508152505081526020019060010190613679565b6000546001600160a01b0316331461238f5760405162461bcd60e51b815260206004820181905260248201527f4f776e61626c653a2063616c6c6572206973206e6f7420746865206f776e657260448201526064016109bd565b6002600154036138455760405162461bcd60e51b815260206004820152601f60248201527f5265656e7472616e637947756172643a207265656e7472616e742063616c6c0060448201526064016109bd565b6002600155565b600054600160a01b900460ff161561238f5760405162461bcd60e51b815260206004820152601060248201526f14185d5cd8589b194e881c185d5cd95960821b60448201526064016109bd565b60006001600160a01b0385166138b1573491506138cf565b81156138cf57846138cd6001600160a01b0382168686866139eb565b505b509392505050565b6000826000036138e95750600061091c565b60006138f5838561437c565b9050826139028583614393565b146109585760405162461bcd60e51b815260206004820152602160248201527f536166654d6174683a206d756c7469706c69636174696f6e206f766572666c6f6044820152607760f81b60648201526084016109bd565b600061095883836040518060400160405280601a81526020017f536166654d6174683a206469766973696f6e206279207a65726f000000000000815250613a4b565b600080546001600160a01b038381166001600160a01b0319831681178455604051919092169283917f8be0079c531659141344cd1fd0a4f28419497f9722a3daafe3b4186f6b6457e09190a35050565b604080516001600160a01b0385811660248301528416604482015260648082018490528251808303909101815260849091019091526020810180516001600160e01b03166323b872dd60e01b179052613a45908590613a82565b50505050565b60008183613a6c5760405162461bcd60e51b81526004016109bd9190614708565b506000613a798486614393565b95945050505050565b6000613ad7826040518060400160405280602081526020017f5361666545524332303a206c6f772d6c6576656c2063616c6c206661696c6564815250856001600160a01b0316613b549092919063ffffffff16565b805190915015610eb05780806020019051810190613af5919061471b565b610eb05760405162461bcd60e51b815260206004820152602a60248201527f5361666545524332303a204552433230206f7065726174696f6e20646964206e6044820152691bdd081cdd58d8d9595960b21b60648201526084016109bd565b6060610955848460008585843b613bad5760405162461bcd60e51b815260206004820152601d60248201527f416464726573733a2063616c6c20746f206e6f6e2d636f6e747261637400000060448201526064016109bd565b600080866001600160a01b03168587604051613bc9919061473d565b60006040518083038185875af1925050503d8060008114613c06576040519150601f19603f3d011682016040523d82523d6000602084013e613c0b565b606091505b5091509150613c1b828286613c26565b979650505050505050565b60608315613c35575081610958565b825115613c455782518084602001fd5b8160405162461bcd60e51b81526004016109bd9190614708565b6001600160a01b038116811461363557600080fd5b8035613c7f81613c5f565b919050565b60008060408385031215613c9757600080fd5b8235613ca281613c5f565b946020939093013593505050565b600080600060608486031215613cc557600080fd5b505081359360208301359350604090920135919050565b600060208284031215613cee57600080fd5b5035919050565b600080600060608486031215613d0a57600080fd5b8335613d1581613c5f565b95602085013595506040909401359392505050565b600080600060608486031215613d3f57600080fd5b8335613d4a81613c5f565b92506020840135613d5a81613c5f565b929592945050506040919091013590565b60005b83811015613d86578181015183820152602001613d6e565b50506000910152565b60008151808452613da7816020860160208601613d6b565b601f01601f19169290920160200192915050565b600061010060018060a01b03808c168452808b166020850152508860408401528760608401528660808401528560a084015284151560c08401528060e0840152613e0781840185613d8f565b9b9a5050505050505050505050565b600060208284031215613e2857600080fd5b813561095881613c5f565b60008060408385031215613e4657600080fd5b8235613e5181613c5f565b91506020830135613e6181613c5f565b809150509250929050565b600060018060a01b038083511684528060208401511660208501525060408201516040840152606082015160608401526080820151608084015260a0820151151560a084015260c082015160e060c0850152613ecb60e0850182613d8f565b949350505050565b6000602080830181845280855180835260408601915060408160051b870101925083870160005b8281101561164957603f19888603018452613f16858351613e6c565b94509285019290850190600101613efa565b60008060208385031215613f3b57600080fd5b823567ffffffffffffffff80821115613f5357600080fd5b818501915085601f830112613f6757600080fd5b813581811115613f7657600080fd5b866020828501011115613f8857600080fd5b60209290920196919550909350505050565b60008060008060808587031215613fb057600080fd5b8435613fbb81613c5f565b93506020850135613fcb81613c5f565b93969395505050506040820135916060013590565b600060018060a01b03808a16835280891660208401525086604083015285606083015284608083015283151560a083015260e060c083015261402560e0830184613d8f565b9998505050505050505050565b600061010060018060a01b038084511685528060208501511660208601525060408301516040850152606083015160608501526080830151608085015260a083015160a085015260c0830151151560c085015260e08301518160e0860152613a7982860182613d8f565b6020815260006109586020830184614032565b82151581526040602082015260006109556040830184613d8f565b634e487b7160e01b600052604160045260246000fd5b600080600080600060a086880312156140f857600080fd5b853561410381613c5f565b9450602086013567ffffffffffffffff8082111561412057600080fd5b818801915088601f83011261413457600080fd5b813581811115614146576141466140ca565b604051601f8201601f19908116603f0116810190838211818310171561416e5761416e6140ca565b816040528281528b602084870101111561418757600080fd5b8260208601602083013760006020848301015280985050505050506141ae60408701613c74565b94979396509394606081013594506080013592915050565b6020815260006109586020830184613e6c565b6020808252825182820181905260009190848201906040850190845b8181101561421a5783516001600160a01b0316835292840192918401916001016141f5565b50909695505050505050565b6000602080830181845280855180835260408601915060408160051b870101925083870160005b8281101561164957603f19888603018452614269858351614032565b9450928501929085019060010161424d565b80516001600160701b0381168114613c7f57600080fd5b6000806000606084860312156142a757600080fd5b6142b08461427b565b92506142be6020850161427b565b9150604084015163ffffffff811681146142d757600080fd5b809150509250925092565b6000602082840312156142f457600080fd5b815161095881613c5f565b634e487b7160e01b600052601160045260246000fd5b6001600160701b03818116838216028082169190828114614338576143386142ff565b505092915050565b634e487b7160e01b600052601260045260246000fd5b60006001600160701b038084168061437057614370614340565b92169190910492915050565b808202811582820484141761091c5761091c6142ff565b6000826143a2576143a2614340565b500490565b8181038181111561091c5761091c6142ff565b6000602082840312156143cc57600080fd5b815160ff8116811461095857600080fd5b6020808252600d908201526c24b73232bc1027bb32b9393ab760991b604082015260600190565b634e487b7160e01b600052603260045260246000fd5b6020808252602e908201527f54686520617574686f72697a6174696f6e206964207265636f7264206861732060408201526d1899595b8818d85b98d95b1b195960921b606082015260800190565b600181811c9082168061447c57607f821691505b60208210810361449c57634e487b7160e01b600052602260045260246000fd5b50919050565b60208082526022908201527f5f6c656e6441646472657373206973206e6f742061207a65726f206164647265604082015261737360f01b606082015260800190565b60208082526031908201527f546865206e756d626572206f66207061796d656e7420616d6f756e742063616e60408201527006e6f7420626520657175616c20746f203607c1b606082015260800190565b60006020828403121561454757600080fd5b5051919050565b60208082526036908201527f5468652061637475616c20616d6f756e7420616e6420746865206465647563746040820152750cac840c2dadeeadce840c8de40dcdee840dac2e8c6d60531b606082015260800190565b8082018082111561091c5761091c6142ff565b6000600182016145c9576145c96142ff565b5060010190565b601f821115610eb057600081815260208120601f850160051c810160208610156145f75750805b601f850160051c820191505b8181101561461657828155600101614603565b505050505050565b815167ffffffffffffffff811115614638576146386140ca565b61464c816146468454614468565b846145d0565b602080601f83116001811461468157600084156146695750858301515b600019600386901b1c1916600185901b178555614616565b600085815260208120601f198616915b828110156146b057888601518255948401946001909101908401614691565b50858210156146ce5787850151600019600388901b60f8161c191681555b5050505050600190811b01905550565b6040815260006146f16040830185613d8f565b905060018060a01b03831660208301529392505050565b6020815260006109586020830184613d8f565b60006020828403121561472d57600080fd5b8151801515811461095857600080fd5b6000825161474f818460208701613d6b565b919091019291505056fea264697066735822122031063ee206d0125f10727ec2d9205be09b4abd9aa337bfd05fbb8f101f7d65fb64736f6c63430008120033",
  "linkReferences": {},
  "deployedLinkReferences": {}
}