{
  "_format": "hh-sol-artifact-1",
  "contractName": "BuddyDao",
  "sourceName": "contracts/BuddyDao.sol",
  "abi": [
    {
      "inputs": [
        {
          "internalType": "uint256",
          "name": "_serviceFee",
          "type": "uint256"
        },
        {
          "internalType": "address",
          "name": "_serviceFeeAddress",
          "type": "address"
        },
        {
          "internalType": "uint256",
          "name": "_maxFixedRate",
          "type": "uint256"
        }
      ],
      "stateMutability": "nonpayable",
      "type": "constructor"
    },
    {
      "anonymous": false,
      "inputs": [
        {
          "indexed": true,
          "internalType": "address",
          "name": "previousOwner",
          "type": "address"
        },
        {
          "indexed": true,
          "internalType": "address",
          "name": "newOwner",
          "type": "address"
        }
      ],
      "name": "OwnershipTransferred",
      "type": "event"
    },
    {
      "anonymous": false,
      "inputs": [
        {
          "indexed": false,
          "internalType": "address",
          "name": "account",
          "type": "address"
        }
      ],
      "name": "Paused",
      "type": "event"
    },
    {
      "anonymous": false,
      "inputs": [
        {
          "indexed": false,
          "internalType": "address",
          "name": "_lendAddress",
          "type": "address"
        },
        {
          "indexed": false,
          "internalType": "uint256",
          "name": "_index",
          "type": "uint256"
        },
        {
          "indexed": false,
          "internalType": "uint256",
          "name": "_payAmount",
          "type": "uint256"
        }
      ],
      "name": "Payment",
      "type": "event"
    },
    {
      "anonymous": false,
      "inputs": [
        {
          "indexed": true,
          "internalType": "address",
          "name": "recieptor",
          "type": "address"
        },
        {
          "indexed": true,
          "internalType": "address",
          "name": "token",
          "type": "address"
        },
        {
          "indexed": false,
          "internalType": "uint256",
          "name": "amount",
          "type": "uint256"
        }
      ],
      "name": "Redeem",
      "type": "event"
    },
    {
      "anonymous": false,
      "inputs": [
        {
          "indexed": false,
          "internalType": "address",
          "name": "_approveAddress",
          "type": "address"
        },
        {
          "indexed": false,
          "internalType": "uint256",
          "name": "_index",
          "type": "uint256"
        },
        {
          "indexed": false,
          "internalType": "uint256",
          "name": "_cancelAmount",
          "type": "uint256"
        }
      ],
      "name": "ReduceTrust",
      "type": "event"
    },
    {
      "anonymous": false,
      "inputs": [
        {
          "indexed": false,
          "internalType": "uint256",
          "name": "_oldBase",
          "type": "uint256"
        },
        {
          "indexed": false,
          "internalType": "uint256",
          "name": "_newBase",
          "type": "uint256"
        }
      ],
      "name": "SetBaseUnit",
      "type": "event"
    },
    {
      "anonymous": false,
      "inputs": [
        {
          "indexed": false,
          "internalType": "uint256",
          "name": "_oldFixedRate",
          "type": "uint256"
        },
        {
          "indexed": false,
          "internalType": "uint256",
          "name": "_newFixedRate",
          "type": "uint256"
        }
      ],
      "name": "SetMaxFixedRate",
      "type": "event"
    },
    {
      "anonymous": false,
      "inputs": [
        {
          "indexed": false,
          "internalType": "uint256",
          "name": "_old",
          "type": "uint256"
        },
        {
          "indexed": false,
          "internalType": "uint256",
          "name": "_new",
          "type": "uint256"
        }
      ],
      "name": "SetServiceFee",
      "type": "event"
    },
    {
      "anonymous": false,
      "inputs": [
        {
          "indexed": false,
          "internalType": "address",
          "name": "_oldAddress",
          "type": "address"
        },
        {
          "indexed": false,
          "internalType": "address",
          "name": "_newAddress",
          "type": "address"
        }
      ],
      "name": "SetServiceFeeAddress",
      "type": "event"
    },
    {
      "anonymous": false,
      "inputs": [
        {
          "indexed": false,
          "internalType": "uint256",
          "name": "_oldTimeInternal",
          "type": "uint256"
        },
        {
          "indexed": false,
          "internalType": "uint256",
          "name": "_newTimeInternal",
          "type": "uint256"
        }
      ],
      "name": "SetTimeInterval",
      "type": "event"
    },
    {
      "anonymous": false,
      "inputs": [
        {
          "indexed": true,
          "internalType": "address",
          "name": "_address",
          "type": "address"
        },
        {
          "indexed": false,
          "internalType": "address",
          "name": "_token",
          "type": "address"
        },
        {
          "indexed": true,
          "internalType": "uint256",
          "name": "_fixedRate",
          "type": "uint256"
        },
        {
          "indexed": true,
          "internalType": "uint256",
          "name": "_amount",
          "type": "uint256"
        }
      ],
      "name": "Trust",
      "type": "event"
    },
    {
      "anonymous": false,
      "inputs": [
        {
          "indexed": false,
          "internalType": "address",
          "name": "account",
          "type": "address"
        }
      ],
      "name": "Unpaused",
      "type": "event"
    },
    {
      "anonymous": false,
      "inputs": [
        {
          "indexed": false,
          "internalType": "address",
          "name": "_lendAddress",
          "type": "address"
        },
        {
          "indexed": false,
          "internalType": "uint256",
          "name": "_index",
          "type": "uint256"
        },
        {
          "indexed": false,
          "internalType": "uint256",
          "name": "_borrowerAmount",
          "type": "uint256"
        }
      ],
      "name": "WithdrawAssets",
      "type": "event"
    },
    {
      "inputs": [
        {
          "internalType": "address",
          "name": "",
          "type": "address"
        },
        {
          "internalType": "uint256",
          "name": "",
          "type": "uint256"
        }
      ],
      "name": "BorrowerArrary",
      "outputs": [
        {
          "internalType": "address",
          "name": "",
          "type": "address"
        }
      ],
      "stateMutability": "view",
      "type": "function"
    },
    {
      "inputs": [
        {
          "internalType": "address",
          "name": "",
          "type": "address"
        },
        {
          "internalType": "address",
          "name": "",
          "type": "address"
        }
      ],
      "name": "BorrowerBool",
      "outputs": [
        {
          "internalType": "bool",
          "name": "",
          "type": "bool"
        }
      ],
      "stateMutability": "view",
      "type": "function"
    },
    {
      "inputs": [
        {
          "internalType": "address",
          "name": "",
          "type": "address"
        },
        {
          "internalType": "address",
          "name": "",
          "type": "address"
        },
        {
          "internalType": "uint256",
          "name": "",
          "type": "uint256"
        }
      ],
      "name": "BorrowerData",
      "outputs": [
        {
          "internalType": "address",
          "name": "Creditors",
          "type": "address"
        },
        {
          "internalType": "address",
          "name": "Token",
          "type": "address"
        },
        {
          "internalType": "uint256",
          "name": "FixedRate",
          "type": "uint256"
        },
        {
          "internalType": "uint256",
          "name": "CreditLine",
          "type": "uint256"
        },
        {
          "internalType": "uint256",
          "name": "Amount",
          "type": "uint256"
        },
        {
          "internalType": "bool",
          "name": "isCancel",
          "type": "bool"
        }
      ],
      "stateMutability": "view",
      "type": "function"
    },
    {
      "inputs": [
        {
          "internalType": "address",
          "name": "",
          "type": "address"
        },
        {
          "internalType": "address",
          "name": "",
          "type": "address"
        }
      ],
      "name": "BorrowerIsBool",
      "outputs": [
        {
          "internalType": "bool",
          "name": "",
          "type": "bool"
        }
      ],
      "stateMutability": "view",
      "type": "function"
    },
    {
      "inputs": [
        {
          "internalType": "address",
          "name": "",
          "type": "address"
        },
        {
          "internalType": "uint256",
          "name": "",
          "type": "uint256"
        }
      ],
      "name": "BorrowerNumber",
      "outputs": [
        {
          "internalType": "address",
          "name": "",
          "type": "address"
        }
      ],
      "stateMutability": "view",
      "type": "function"
    },
    {
      "inputs": [
        {
          "internalType": "address",
          "name": "_borrowerAddress",
          "type": "address"
        }
      ],
      "name": "GetBorrowerAddress",
      "outputs": [
        {
          "internalType": "address[]",
          "name": "",
          "type": "address[]"
        }
      ],
      "stateMutability": "view",
      "type": "function"
    },
    {
      "inputs": [
        {
          "internalType": "address",
          "name": "_borrowerAddress",
          "type": "address"
        }
      ],
      "name": "GetBorrowerAddressLengeth",
      "outputs": [
        {
          "internalType": "uint256",
          "name": "",
          "type": "uint256"
        }
      ],
      "stateMutability": "view",
      "type": "function"
    },
    {
      "inputs": [
        {
          "internalType": "address",
          "name": "_borrowerAddress",
          "type": "address"
        },
        {
          "internalType": "address",
          "name": "_creditors",
          "type": "address"
        }
      ],
      "name": "GetBorrowerData",
      "outputs": [
        {
          "components": [
            {
              "internalType": "address",
              "name": "Creditors",
              "type": "address"
            },
            {
              "internalType": "address",
              "name": "Token",
              "type": "address"
            },
            {
              "internalType": "uint256",
              "name": "FixedRate",
              "type": "uint256"
            },
            {
              "internalType": "uint256",
              "name": "CreditLine",
              "type": "uint256"
            },
            {
              "internalType": "uint256",
              "name": "Amount",
              "type": "uint256"
            },
            {
              "internalType": "bool",
              "name": "isCancel",
              "type": "bool"
            }
          ],
          "internalType": "struct BuddyDao.Borrower[]",
          "name": "",
          "type": "tuple[]"
        }
      ],
      "stateMutability": "view",
      "type": "function"
    },
    {
      "inputs": [
        {
          "internalType": "address",
          "name": "_borrowerAddress",
          "type": "address"
        },
        {
          "internalType": "address",
          "name": "_creditors",
          "type": "address"
        },
        {
          "internalType": "uint256",
          "name": "_index",
          "type": "uint256"
        }
      ],
      "name": "GetBorrowerIndexData",
      "outputs": [
        {
          "components": [
            {
              "internalType": "address",
              "name": "Creditors",
              "type": "address"
            },
            {
              "internalType": "address",
              "name": "Token",
              "type": "address"
            },
            {
              "internalType": "uint256",
              "name": "FixedRate",
              "type": "uint256"
            },
            {
              "internalType": "uint256",
              "name": "CreditLine",
              "type": "uint256"
            },
            {
              "internalType": "uint256",
              "name": "Amount",
              "type": "uint256"
            },
            {
              "internalType": "bool",
              "name": "isCancel",
              "type": "bool"
            }
          ],
          "internalType": "struct BuddyDao.Borrower",
          "name": "",
          "type": "tuple"
        }
      ],
      "stateMutability": "view",
      "type": "function"
    },
    {
      "inputs": [
        {
          "internalType": "address",
          "name": "_lenderAddress",
          "type": "address"
        }
      ],
      "name": "GetLenderAddress",
      "outputs": [
        {
          "internalType": "address[]",
          "name": "",
          "type": "address[]"
        }
      ],
      "stateMutability": "view",
      "type": "function"
    },
    {
      "inputs": [
        {
          "internalType": "address",
          "name": "_lenderAddress",
          "type": "address"
        }
      ],
      "name": "GetLenderAddressLengeth",
      "outputs": [
        {
          "internalType": "uint256",
          "name": "",
          "type": "uint256"
        }
      ],
      "stateMutability": "view",
      "type": "function"
    },
    {
      "inputs": [
        {
          "internalType": "address",
          "name": "_lenderAddress",
          "type": "address"
        },
        {
          "internalType": "address",
          "name": "_approveAddress",
          "type": "address"
        }
      ],
      "name": "GetLenderData",
      "outputs": [
        {
          "components": [
            {
              "internalType": "address",
              "name": "Address",
              "type": "address"
            },
            {
              "internalType": "address",
              "name": "Token",
              "type": "address"
            },
            {
              "internalType": "uint256",
              "name": "FixedRate",
              "type": "uint256"
            },
            {
              "internalType": "uint256",
              "name": "CreditLine",
              "type": "uint256"
            },
            {
              "internalType": "uint256",
              "name": "Amount",
              "type": "uint256"
            },
            {
              "internalType": "bool",
              "name": "isCancel",
              "type": "bool"
            }
          ],
          "internalType": "struct BuddyDao.Lender[]",
          "name": "",
          "type": "tuple[]"
        }
      ],
      "stateMutability": "view",
      "type": "function"
    },
    {
      "inputs": [
        {
          "internalType": "address",
          "name": "_lenderAddress",
          "type": "address"
        },
        {
          "internalType": "address",
          "name": "_approveAddress",
          "type": "address"
        },
        {
          "internalType": "uint256",
          "name": "_index",
          "type": "uint256"
        }
      ],
      "name": "GetLenderIndexData",
      "outputs": [
        {
          "components": [
            {
              "internalType": "address",
              "name": "Address",
              "type": "address"
            },
            {
              "internalType": "address",
              "name": "Token",
              "type": "address"
            },
            {
              "internalType": "uint256",
              "name": "FixedRate",
              "type": "uint256"
            },
            {
              "internalType": "uint256",
              "name": "CreditLine",
              "type": "uint256"
            },
            {
              "internalType": "uint256",
              "name": "Amount",
              "type": "uint256"
            },
            {
              "internalType": "bool",
              "name": "isCancel",
              "type": "bool"
            }
          ],
          "internalType": "struct BuddyDao.Lender",
          "name": "",
          "type": "tuple"
        }
      ],
      "stateMutability": "view",
      "type": "function"
    },
    {
      "inputs": [
        {
          "internalType": "address",
          "name": "",
          "type": "address"
        },
        {
          "internalType": "address",
          "name": "",
          "type": "address"
        },
        {
          "internalType": "uint256",
          "name": "",
          "type": "uint256"
        }
      ],
      "name": "LenderData",
      "outputs": [
        {
          "internalType": "address",
          "name": "Address",
          "type": "address"
        },
        {
          "internalType": "address",
          "name": "Token",
          "type": "address"
        },
        {
          "internalType": "uint256",
          "name": "FixedRate",
          "type": "uint256"
        },
        {
          "internalType": "uint256",
          "name": "CreditLine",
          "type": "uint256"
        },
        {
          "internalType": "uint256",
          "name": "Amount",
          "type": "uint256"
        },
        {
          "internalType": "bool",
          "name": "isCancel",
          "type": "bool"
        }
      ],
      "stateMutability": "view",
      "type": "function"
    },
    {
      "inputs": [
        {
          "internalType": "address",
          "name": "",
          "type": "address"
        },
        {
          "internalType": "address",
          "name": "",
          "type": "address"
        }
      ],
      "name": "LenderIsBool",
      "outputs": [
        {
          "internalType": "bool",
          "name": "",
          "type": "bool"
        }
      ],
      "stateMutability": "view",
      "type": "function"
    },
    {
      "inputs": [
        {
          "internalType": "address",
          "name": "",
          "type": "address"
        },
        {
          "internalType": "uint256",
          "name": "",
          "type": "uint256"
        }
      ],
      "name": "LenderNumber",
      "outputs": [
        {
          "internalType": "address",
          "name": "",
          "type": "address"
        }
      ],
      "stateMutability": "view",
      "type": "function"
    },
    {
      "inputs": [],
      "name": "MaxFixedRate",
      "outputs": [
        {
          "internalType": "uint256",
          "name": "",
          "type": "uint256"
        }
      ],
      "stateMutability": "view",
      "type": "function"
    },
    {
      "inputs": [
        {
          "internalType": "address",
          "name": "_approveAddress",
          "type": "address"
        },
        {
          "internalType": "address",
          "name": "_token",
          "type": "address"
        },
        {
          "internalType": "uint256",
          "name": "_fixedRate",
          "type": "uint256"
        },
        {
          "internalType": "uint256",
          "name": "_amount",
          "type": "uint256"
        }
      ],
      "name": "NewTrust",
      "outputs": [],
      "stateMutability": "nonpayable",
      "type": "function"
    },
    {
      "inputs": [
        {
          "internalType": "address",
          "name": "_lendAddress",
          "type": "address"
        },
        {
          "internalType": "uint256",
          "name": "_index",
          "type": "uint256"
        },
        {
          "internalType": "uint256",
          "name": "_payAmount",
          "type": "uint256"
        }
      ],
      "name": "Pay",
      "outputs": [],
      "stateMutability": "nonpayable",
      "type": "function"
    },
    {
      "inputs": [
        {
          "internalType": "address",
          "name": "_approveAddress",
          "type": "address"
        },
        {
          "internalType": "uint256",
          "name": "_index",
          "type": "uint256"
        },
        {
          "internalType": "uint256",
          "name": "_cancelAmount",
          "type": "uint256"
        }
      ],
      "name": "RemoveTrust",
      "outputs": [],
      "stateMutability": "nonpayable",
      "type": "function"
    },
    {
      "inputs": [],
      "name": "ServiceFee",
      "outputs": [
        {
          "internalType": "uint256",
          "name": "",
          "type": "uint256"
        }
      ],
      "stateMutability": "view",
      "type": "function"
    },
    {
      "inputs": [],
      "name": "ServiceFeeAddress",
      "outputs": [
        {
          "internalType": "address",
          "name": "",
          "type": "address"
        }
      ],
      "stateMutability": "view",
      "type": "function"
    },
    {
      "inputs": [],
      "name": "StartTimeInterval",
      "outputs": [
        {
          "internalType": "uint256",
          "name": "",
          "type": "uint256"
        }
      ],
      "stateMutability": "view",
      "type": "function"
    },
    {
      "inputs": [],
      "name": "TimeInterval",
      "outputs": [
        {
          "internalType": "uint256",
          "name": "",
          "type": "uint256"
        }
      ],
      "stateMutability": "view",
      "type": "function"
    },
    {
      "inputs": [
        {
          "internalType": "address",
          "name": "",
          "type": "address"
        },
        {
          "internalType": "address",
          "name": "",
          "type": "address"
        },
        {
          "internalType": "uint256",
          "name": "",
          "type": "uint256"
        }
      ],
      "name": "TotalBorrowerBool",
      "outputs": [
        {
          "internalType": "bool",
          "name": "",
          "type": "bool"
        }
      ],
      "stateMutability": "view",
      "type": "function"
    },
    {
      "inputs": [
        {
          "internalType": "address",
          "name": "",
          "type": "address"
        },
        {
          "internalType": "address",
          "name": "",
          "type": "address"
        },
        {
          "internalType": "uint256",
          "name": "",
          "type": "uint256"
        }
      ],
      "name": "TotalBorrowerIndexArrary",
      "outputs": [
        {
          "internalType": "uint256",
          "name": "",
          "type": "uint256"
        }
      ],
      "stateMutability": "view",
      "type": "function"
    },
    {
      "inputs": [
        {
          "internalType": "address",
          "name": "_lendAddress",
          "type": "address"
        },
        {
          "internalType": "uint256",
          "name": "_index",
          "type": "uint256"
        },
        {
          "internalType": "uint256",
          "name": "_borrowerAmount",
          "type": "uint256"
        }
      ],
      "name": "Withdrawal",
      "outputs": [],
      "stateMutability": "nonpayable",
      "type": "function"
    },
    {
      "inputs": [],
      "name": "baseYearOrMonth",
      "outputs": [
        {
          "internalType": "uint256",
          "name": "",
          "type": "uint256"
        }
      ],
      "stateMutability": "view",
      "type": "function"
    },
    {
      "inputs": [
        {
          "internalType": "uint256",
          "name": "_balance",
          "type": "uint256"
        },
        {
          "internalType": "uint256",
          "name": "_allowBalance",
          "type": "uint256"
        },
        {
          "internalType": "uint256",
          "name": "_dailyRate",
          "type": "uint256"
        }
      ],
      "name": "calculatingActualInterest",
      "outputs": [
        {
          "internalType": "uint256",
          "name": "",
          "type": "uint256"
        }
      ],
      "stateMutability": "pure",
      "type": "function"
    },
    {
      "inputs": [
        {
          "internalType": "address",
          "name": "_lendAddress",
          "type": "address"
        },
        {
          "internalType": "address",
          "name": "_borrower",
          "type": "address"
        },
        {
          "internalType": "uint256",
          "name": "_index",
          "type": "uint256"
        },
        {
          "internalType": "uint256",
          "name": "_payAmount",
          "type": "uint256"
        }
      ],
      "name": "calculatingInterest",
      "outputs": [
        {
          "internalType": "uint256",
          "name": "",
          "type": "uint256"
        }
      ],
      "stateMutability": "view",
      "type": "function"
    },
    {
      "inputs": [
        {
          "internalType": "bytes",
          "name": "",
          "type": "bytes"
        }
      ],
      "name": "checkUpkeep",
      "outputs": [
        {
          "internalType": "bool",
          "name": "upkeepNeeded",
          "type": "bool"
        },
        {
          "internalType": "bytes",
          "name": "",
          "type": "bytes"
        }
      ],
      "stateMutability": "view",
      "type": "function"
    },
    {
      "inputs": [
        {
          "internalType": "uint256",
          "name": "amount",
          "type": "uint256"
        }
      ],
      "name": "getTokenPrice",
      "outputs": [
        {
          "internalType": "uint256",
          "name": "",
          "type": "uint256"
        }
      ],
      "stateMutability": "view",
      "type": "function"
    },
    {
      "inputs": [
        {
          "internalType": "address",
          "name": "",
          "type": "address"
        }
      ],
      "name": "isTotalBorrower",
      "outputs": [
        {
          "internalType": "bool",
          "name": "",
          "type": "bool"
        }
      ],
      "stateMutability": "view",
      "type": "function"
    },
    {
      "inputs": [],
      "name": "owner",
      "outputs": [
        {
          "internalType": "address",
          "name": "",
          "type": "address"
        }
      ],
      "stateMutability": "view",
      "type": "function"
    },
    {
      "inputs": [],
      "name": "paused",
      "outputs": [
        {
          "internalType": "bool",
          "name": "",
          "type": "bool"
        }
      ],
      "stateMutability": "view",
      "type": "function"
    },
    {
      "inputs": [
        {
          "internalType": "bytes",
          "name": "",
          "type": "bytes"
        }
      ],
      "name": "performUpkeep",
      "outputs": [],
      "stateMutability": "nonpayable",
      "type": "function"
    },
    {
      "inputs": [],
      "name": "renounceOwnership",
      "outputs": [],
      "stateMutability": "nonpayable",
      "type": "function"
    },
    {
      "inputs": [
        {
          "internalType": "uint256",
          "name": "_newBaseUnit",
          "type": "uint256"
        }
      ],
      "name": "setBaseUnit",
      "outputs": [],
      "stateMutability": "nonpayable",
      "type": "function"
    },
    {
      "inputs": [
        {
          "internalType": "uint256",
          "name": "_maxFixedRate",
          "type": "uint256"
        }
      ],
      "name": "setMaxFixedRate",
      "outputs": [],
      "stateMutability": "nonpayable",
      "type": "function"
    },
    {
      "inputs": [
        {
          "internalType": "uint256",
          "name": "_serviceFee",
          "type": "uint256"
        }
      ],
      "name": "setServiceFee",
      "outputs": [],
      "stateMutability": "nonpayable",
      "type": "function"
    },
    {
      "inputs": [
        {
          "internalType": "address",
          "name": "_newAddress",
          "type": "address"
        }
      ],
      "name": "setServiceFeeAddress",
      "outputs": [],
      "stateMutability": "nonpayable",
      "type": "function"
    },
    {
      "inputs": [
        {
          "internalType": "uint256",
          "name": "_newTimeInterval",
          "type": "uint256"
        }
      ],
      "name": "setTimeInterval",
      "outputs": [],
      "stateMutability": "nonpayable",
      "type": "function"
    },
    {
      "inputs": [
        {
          "internalType": "uint256",
          "name": "",
          "type": "uint256"
        }
      ],
      "name": "totalBorrower",
      "outputs": [
        {
          "internalType": "address",
          "name": "",
          "type": "address"
        }
      ],
      "stateMutability": "view",
      "type": "function"
    },
    {
      "inputs": [
        {
          "internalType": "address",
          "name": "newOwner",
          "type": "address"
        }
      ],
      "name": "transferOwnership",
      "outputs": [],
      "stateMutability": "nonpayable",
      "type": "function"
    }
  ],
  "bytecode": "0x6080604052670de0b6b3a76400006006556301e133806007553480156200002557600080fd5b5060405162004488380380620044888339810160408190526200004891620001aa565b62000053336200015a565b6000805460ff60a01b1916815560018055839003620000c55760405162461bcd60e51b8152602060048201526024808201527f73657276696365466565206d757374206265206120706f736974697665206e7560448201526336b132b960e11b60648201526084015b60405180910390fd5b600654831115620001295760405162461bcd60e51b815260206004820152602760248201527f43616e6e6f742065786365656420746865206d6178696d756d20696e746572656044820152667374207261746560c81b6064820152608401620000bc565b600580546001600160a01b0319166001600160a01b03939093169290921790915560065560045542600355620001f2565b600080546001600160a01b038381166001600160a01b0319831681178455604051919092169283917f8be0079c531659141344cd1fd0a4f28419497f9722a3daafe3b4186f6b6457e09190a35050565b600080600060608486031215620001c057600080fd5b835160208501519093506001600160a01b0381168114620001e057600080fd5b80925050604084015190509250925092565b61428680620002026000396000f3fe608060405234801561001057600080fd5b50600436106102745760003560e01c80638da5cb5b11610151578063becdd077116100c3578063e37f571511610087578063e37f57151461065e578063e3f10b4d1461067e578063e946ca7314610691578063f2fde38b146106a4578063f3cc15be146106b7578063fb3e8002146106c057600080fd5b8063becdd077146105ff578063c305a61e14610612578063c457fb3714610625578063d0a0a45814610638578063df273cb61461064b57600080fd5b8063aadb5b3711610115578063aadb5b3714610590578063adbdbe9314610599578063afe8ec6c146105a2578063b20e01ef146105ab578063b51fbb98146105be578063b71cdec7146105d157600080fd5b80638da5cb5b1461050d5780639d6283a21461051e578063a4ec4c4414610531578063a56acda51461055a578063a99226241461057d57600080fd5b806356a692c2116101ea5780636bac4f23116101ae5780636bac4f23146104595780636e04ff0d14610479578063715018a61461049a57806388f0df1f146104a2578063896485d1146104ab5780638a173f74146104d957600080fd5b806356a692c2146103d457806357d02498146103e75780635c975abb146103fa5780635cdf76f81461041857806360dd53dd1461042b57600080fd5b80632fdb5c391161023c5780632fdb5c391461033f57806332c8827c146103685780633d38134a1461037b5780633da1d7161461039b5780634585e33b146103ae5780635403f658146103c157600080fd5b80631d6abdef1461027957806321f5f91f146102a957806325423a1b146102ca57806325e0c61b146102df5780632a90ed5b146102f2575b600080fd5b61028c610287366004613a9b565b6106e0565b6040516001600160a01b0390911681526020015b60405180910390f35b6102bc6102b7366004613ac7565b610718565b6040519081526020016102a0565b6102dd6102d8366004613af3565b610755565b005b6102dd6102ed366004613b0c565b6107fd565b610305610300366004613b41565b610cb6565b604080516001600160a01b0397881681529690951660208701529385019290925260608401526080830152151560a082015260c0016102a0565b6102bc61034d366004613b82565b6001600160a01b031660009081526010602052604090205490565b6102dd610376366004613b0c565b610d27565b61038e610389366004613b9f565b611246565b6040516102a09190613c1f565b6102dd6103a9366004613b82565b611311565b6102dd6103bc366004613c6d565b6113e8565b6102bc6103cf366004613cdf565b611a25565b61028c6103e2366004613a9b565b611b68565b6103056103f5366004613b41565b611b84565b600054600160a01b900460ff165b60405190151581526020016102a0565b6102dd610426366004613af3565b611bac565b610408610439366004613b9f565b600a60209081526000928352604080842090915290825290205460ff1681565b61046c610467366004613b41565b611cb3565b6040516102a09190613d25565b61048c610487366004613c6d565b611d88565b6040516102a0929190613d83565b6102dd611dba565b6102bc60035481565b6104086104b9366004613b9f565b601360209081526000928352604080842090915290825290205460ff1681565b6104086104e7366004613b41565b600c60209081526000938452604080852082529284528284209052825290205460ff1681565b6000546001600160a01b031661028c565b61046c61052c366004613b41565b611dce565b6102bc61053f366004613b82565b6001600160a01b031660009081526011602052604090205490565b610408610568366004613b82565b60096020526000908152604090205460ff1681565b61028c61058b366004613a9b565b611e33565b6102bc60045481565b6102bc60065481565b6102bc60025481565b6102dd6105b9366004613af3565b611e4f565b6102dd6105cc366004613af3565b611e98565b6104086105df366004613b9f565b601260209081526000928352604080842090915290825290205460ff1681565b6102bc61060d366004613b41565b611f31565b6102dd610620366004613cdf565b611f6f565b6102bc610633366004613af3565b6126bc565b61028c610646366004613af3565b6128ca565b6102dd610659366004613b0c565b6128f4565b61067161066c366004613b82565b6133bc565b6040516102a09190613d9e565b61067161068c366004613b82565b613432565b60055461028c906001600160a01b031681565b6102dd6106b2366004613b82565b6134a6565b6102bc60075481565b6106d36106ce366004613b9f565b61351f565b6040516102a09190613ddf565b601060205281600052604060002081815481106106fc57600080fd5b6000918252602090912001546001600160a01b03169150829050565b60008082851015610739578385101561073257508361074b565b508261074b565b8383101561074857508161074b565b50825b90505b9392505050565b61075d6135d8565b600081116107bc5760405162461bcd60e51b815260206004820152602160248201527f4e65772054696d6520496e74657276616c206d757374206265206772656174206044820152600360fc1b60648201526084015b60405180910390fd5b60025460408051918252602082018390527f8efd7a06dec059364c6a6d160e9ba026bb1d2a1c7befdd940db032506238a60c910160405180910390a1600255565b610805613632565b61080d61368b565b6001600160a01b03831661086f5760405162461bcd60e51b8152602060048201526024808201527f617070726f766541646472657373206973206e6f742061207a65726f206164646044820152637265737360e01b60648201526084016107b3565b806000036108d85760405162461bcd60e51b815260206004820152603060248201527f546865206e756d626572206f662063616e63656c6c6174696f6e732063616e6e60448201526f06f7420626520657175616c20746f20360841b60648201526084016107b3565b336001600160a01b038416036109305760405162461bcd60e51b815260206004820181905260248201527f617070726f766541646472657373206973206e6f74206d73672e73656e64657260448201526064016107b3565b3360009081526012602090815260408083206001600160a01b038716845290915290205460ff166109af5760405162461bcd60e51b8152602060048201526024808201527f6c656e646572206973206e6f7420617070726f766520617070726f76654164646044820152637265737360e01b60648201526084016107b3565b336000908152600e602090815260408083206001600160a01b0387168452909152902080546109df600182613e37565b8411156109fe5760405162461bcd60e51b81526004016107b390613e4a565b336000908152600e602090815260408083206001600160a01b03891684529091528120805486908110610a3357610a33613e71565b600091825260208083206001600160a01b038a168452600f825260408085203386529092529220805460069092029092019250610a71600182613e37565b871115610ab95760405162461bcd60e51b81526020600482015260166024820152753137b93937bbb2b91034b73232bc1027bb32b9393ab760511b60448201526064016107b3565b6001600160a01b0388166000908152600f602090815260408083203384529091528120805489908110610aee57610aee613e71565b600091825260209091206005860154600690920201915060ff1615610b255760405162461bcd60e51b81526004016107b390613e87565b80600401548460030154610b399190613e37565b871115610bc65760405162461bcd60e51b815260206004820152604f60248201527f546865206e756d626572206f662063616e63656c6c6174696f6e732063616e6e60448201527f6f742062652067726561746572207468616e20746865206e756d626572206f6660648201526e20617574686f72697a6174696f6e7360881b608482015260a4016107b3565b83600301548703610c2a576005808501805460ff1980821660ff9283161517909255918301805491821691909216151790556003840154610c08908890613e37565b8460030181905550868160030154610c209190613e37565b6003820155610c58565b868460030154610c3a9190613e37565b8460030181905550868160030154610c529190613e37565b60038201555b604080516001600160a01b038b168152602081018a90529081018890527f62a0e7e6165d97cf606eafbe25e28dd5e6e8033bb30b807959547c4e9ac907a89060600160405180910390a1505050505050610cb160018055565b505050565b600f6020528260005260406000206020528160005260406000208181548110610cde57600080fd5b60009182526020909120600690910201805460018201546002830154600384015460048501546005909501546001600160a01b0394851698509390921695509350919060ff1686565b610d2f613632565b610d3761368b565b6001600160a01b038316610d5d5760405162461bcd60e51b81526004016107b390613ed5565b336001600160a01b03841603610db55760405162461bcd60e51b815260206004820152601d60248201527f6c656e6441646472657373206973206e6f74206d73672e73656e64657200000060448201526064016107b3565b80600003610dd55760405162461bcd60e51b81526004016107b390613f17565b3360009081526013602090815260408083206001600160a01b038716845290915290205460ff16610e485760405162461bcd60e51b815260206004820181905260248201527f6c656e646572206973206e6f7420617070726f7665206d73672e73656e64657260448201526064016107b3565b336000908152600f602090815260408083206001600160a01b038716845290915290208054610e78600182613e37565b841115610e975760405162461bcd60e51b81526004016107b390613e4a565b336000908152600f602090815260408083206001600160a01b03891684529091528120805486908110610ecc57610ecc613e71565b906000526020600020906006020190508060040154841115610f695760405162461bcd60e51b815260206004820152604a60248201527f5468652072657475726e6564207175616e74697479206d757374206265206c6560448201527f7373207468616e206f7220657175616c20746f2074686520626f72726f7765646064820152691038bab0b73a34ba3c9760b11b608482015260a4016107b3565b6001810154604051636eb1769f60e11b81523360048201523060248201526000916001600160a01b03169063dd62ed3e90604401602060405180830381865afa158015610fba573d6000803e3d6000fd5b505050506040513d601f19601f82011682018060405250810190610fde9190613f68565b9050808511156110305760405162461bcd60e51b815260206004820152601a60248201527f626f72726f776572206c61636b206f6620616c6c6f77616e636500000000000060448201526064016107b3565b60018201546040516370a0823160e01b81523360048201526000916001600160a01b0316906370a0823190602401602060405180830381865afa15801561107b573d6000803e3d6000fd5b505050506040513d601f19601f8201168201806040525081019061109f9190613f68565b9050858110156110e85760405162461bcd60e51b8152602060048201526014602482015273496e73756666696369656e742062616c616e636560601b60448201526064016107b3565b6001830154835460009161110b916001600160a01b03918216913391168a6136d8565b905086811461112c5760405162461bcd60e51b81526004016107b390613f81565b86846004015461113c9190613e37565b60048501556001600160a01b0389166000908152600e6020908152604080832033845290915290208054611171600182613e37565b8a11156111905760405162461bcd60e51b81526004016107b390613e4a565b6001600160a01b038b166000908152600e60209081526040808320338452909152812080548c9081106111c5576111c5613e71565b906000526020600020906006020190508981600401546111e59190613e37565b6004820155604080516001600160a01b038e168152602081018d90529081018b90527f9643c1b5b172b26d5f028be7fe646349bd5e3cd9367bb18f9e825afa828b7d939060600160405180910390a1505050505050505050610cb160018055565b6001600160a01b038083166000908152600e602090815260408083209385168352928152828220805484518184028101840190955280855260609492849084015b828210156113025760008481526020908190206040805160c0810182526006860290920180546001600160a01b0390811684526001808301549091168486015260028201549284019290925260038101546060840152600481015460808401526005015460ff16151560a08301529083529092019101611287565b50929450505050505b92915050565b6113196135d8565b6001600160a01b03811661137f5760405162461bcd60e51b815260206004820152602760248201527f7365727669636546656541646472657373206973206e6f742061207a65726f206044820152666164647265737360c81b60648201526084016107b3565b600554604080516001600160a01b03928316815291831660208301527f1ae120263ff20a7e40d52789037da1608a0f939f1d05ddf25de34fce9f62d4e0910160405180910390a1600580546001600160a01b0319166001600160a01b0392909216919091179055565b6113f061368b565b6002546003546114009190613fd7565b421115611a215760085415611a1c5760005b600854811015611a1a576000600b60006008848154811061143557611435613e71565b60009182526020808320909101546001600160a01b031683528281019390935260409182019020805482518185028101850190935280835291929091908301828280156114ab57602002820191906000526020600020905b81546001600160a01b0316815260019091019060200180831161148d575b5050505050905060005b8151811015611a05576000600f6000600886815481106114d7576114d7613e71565b60009182526020808320909101546001600160a01b031683528201929092526040018120845190919085908590811061151257611512613e71565b60200260200101516001600160a01b03166001600160a01b03168152602001908152602001600020805480602002602001604051908101604052809291908181526020016000905b828210156115d55760008481526020908190206040805160c0810182526006860290920180546001600160a01b0390811684526001808301549091168486015260028201549284019290925260038101546060840152600481015460808401526005015460ff16151560a0830152908352909201910161155a565b50505050905080516000036115ea57506119f3565b6000600d60006008878154811061160357611603613e71565b60009182526020808320909101546001600160a01b031683528201929092526040018120855190919086908690811061163e5761163e613e71565b60200260200101516001600160a01b03166001600160a01b031681526020019081526020016000208054806020026020016040519081016040528092919081815260200182805480156116b057602002820191906000526020600020905b81548152602001906001019080831161169c575b5050505050905060005b81518110156119ef5760005b83518110156119dc578381815181106116e1576116e1613e71565b602002602001015160a001516119ca57600084828151811061170557611705613e71565b60200260200101516080015111156119ca57600061178b87878151811061172e5761172e613e71565b602002602001015160088a8154811061174957611749613e71565b9060005260206000200160009054906101000a90046001600160a01b03168488868151811061177a5761177a613e71565b602002602001015160800151611a25565b905060008583815181106117a1576117a1613e71565b6020026020010151602001516001600160a01b03166370a0823160088b815481106117ce576117ce613e71565b60009182526020909120015460405160e083901b6001600160e01b03191681526001600160a01b039091166004820152602401602060405180830381865afa15801561181e573d6000803e3d6000fd5b505050506040513d601f19601f820116820180604052508101906118429190613f68565b9050806000036118535750506119ca565b600086848151811061186757611867613e71565b6020026020010151602001516001600160a01b031663dd62ed3e60088c8154811061189457611894613e71565b60009182526020909120015460405160e083901b6001600160e01b03191681526001600160a01b039091166004820152306024820152604401602060405180830381865afa1580156118ea573d6000803e3d6000fd5b505050506040513d601f19601f8201168201806040525081019061190e9190613f68565b905080600003611920575050506119ca565b600061192d838386610718565b905060006119a389878151811061194657611946613e71565b60200260200101516020015160088e8154811061196557611965613e71565b9060005260206000200160009054906101000a90046001600160a01b03168d8d8151811061199557611995613e71565b6020026020010151856136d8565b90508181146119c45760405162461bcd60e51b81526004016107b390613f81565b50505050505b806119d481613fea565b9150506116c6565b50806119e781613fea565b9150506116ba565b5050505b806119fd81613fea565b9150506114b5565b50508080611a1290613fea565b915050611412565b505b426003555b5050565b60006001600160a01b038516611a4d5760405162461bcd60e51b81526004016107b390613ed5565b81600003611a6d5760405162461bcd60e51b81526004016107b390613f17565b6001600160a01b038085166000908152600f602090815260408083209389168352929052208054611a9f600182613e37565b851115611abe5760405162461bcd60e51b81526004016107b390613e4a565b6001600160a01b038087166000908152600f60209081526040808320938b168352929052908120805487908110611af757611af7613e71565b906000526020600020906006020190506000611b40670de0b6b3a7640000611b3a600754611b3a670de0b6b3a7640000876002015461371690919063ffffffff16565b90613798565b90506000611b5a670de0b6b3a7640000611b3a8985613716565b9a9950505050505050505050565b600b60205281600052604060002081815481106106fc57600080fd5b600e6020528260005260406000206020528160005260406000208181548110610cde57600080fd5b611bb46135d8565b80600003611c105760405162461bcd60e51b8152602060048201526024808201527f73657276696365466565206d757374206265206120706f736974697665206e7560448201526336b132b960e11b60648201526084016107b3565b600654811115611c725760405162461bcd60e51b815260206004820152602760248201527f43616e6e6f742065786365656420746865206d6178696d756d20696e746572656044820152667374207261746560c81b60648201526084016107b3565b60045460408051918252602082018390527fb4c698dddf4b6b8fbb270a4c12172c4b2906a081e3c98d45790367411f09fd1a910160405180910390a1600455565b6040805160c08101825260008082526020808301829052828401829052606083018290526080830182905260a083018290526001600160a01b038781168352600f825284832090871683529052918220805491929184908110611d1857611d18613e71565b60009182526020918290206040805160c081018252600690930290910180546001600160a01b03908116845260018201541693830193909352600283015490820152600382015460608201526004820154608082015260059091015460ff16151560a08201529150509392505050565b60006060611d9461368b565b600254600354611da49190613fd7565b421115611db357600854151591505b9250929050565b611dc26135d8565b611dcc60006137da565b565b6040805160c08101825260008082526020808301829052828401829052606083018290526080830182905260a083018290526001600160a01b038781168352600e825284832090871683529052918220805491929184908110611d1857611d18613e71565b601160205281600052604060002081815481106106fc57600080fd5b611e576135d8565b60065460408051918252602082018390527f071bd95be08719e929a1ff7d683da62cfb71ae69e3be29a6cd567459ab05c796910160405180910390a1600655565b611ea06135d8565b60008111611ef05760405162461bcd60e51b815260206004820152601d60248201527f4e657720626173652075696e74206d757374206265206772656174203000000060448201526064016107b3565b60075460408051918252602082018390527f8fcde9e17e0cf7ff4c61c958ed4f84559ef4641f2e33866c10566d07d0560b05910160405180910390a1600755565b600d6020528260005260406000206020528160005260406000208181548110611f5957600080fd5b9060005260206000200160009250925050505481565b611f77613632565b611f7f61368b565b6001600160a01b038416611fe35760405162461bcd60e51b815260206004820152602560248201527f5f617070726f766541646472657373206973206e6f742061207a65726f206164604482015264647265737360d81b60648201526084016107b3565b6001600160a01b0383166120395760405162461bcd60e51b815260206004820152601c60248201527f5f746f6b656e206973206e6f742061207a65726f20616464726573730000000060448201526064016107b3565b60065482111561209a5760405162461bcd60e51b815260206004820152602660248201527f4d757374206265206c657373207468616e20746865206d6178696d756d20696e6044820152651d195c995cdd60d21b60648201526084016107b3565b336001600160a01b038516036120fc5760405162461bcd60e51b815260206004820152602160248201527f617070726f76652061646472657373206973206e6f74206d73672e73656e64656044820152603960f91b60648201526084016107b3565b604051636eb1769f60e11b81523360048201523060248201526000906001600160a01b0385169063dd62ed3e90604401602060405180830381865afa158015612149573d6000803e3d6000fd5b505050506040513d601f19601f8201168201806040525081019061216d9190613f68565b9050808211156121b85760405162461bcd60e51b81526020600482015260166024820152754c656e64206c61636b206f6620616c6c6f77616e636560501b60448201526064016107b3565b6040516370a0823160e01b81523360048201526000906001600160a01b038616906370a0823190602401602060405180830381865afa1580156121ff573d6000803e3d6000fd5b505050506040513d601f19601f820116820180604052508101906122239190613f68565b90508083111561229b5760405162461bcd60e51b815260206004820152603860248201527f54686520617574686f72697a6564207175616e74697479206d7573742062652060448201527f67726561746572207468616e207468652062616c616e6365000000000000000060648201526084016107b3565b3360009081526012602090815260408083206001600160a01b038a16845290915290205460ff1680612325573360008181526012602090815260408083206001600160a01b038c16808552908352818420805460ff19811660ff90911615179055938352601082528220805460018101825590835291200180546001600160a01b03191690911790555b6001600160a01b038716600090815260136020908152604080832033845290915290205460ff16806123af576001600160a01b038816600081815260136020908152604080832033808552908352818420805460ff19811660ff90911615179055938352601182528220805460018101825590835291200180546001600160a01b03191690911790555b6000600e6000336001600160a01b03166001600160a01b0316815260200190815260200160002060008a6001600160a01b03166001600160a01b031681526020019081526020016000209050806040518060c001604052808b6001600160a01b031681526020018a6001600160a01b031681526020018981526020018881526020016000815260200160001515815250908060018154018082558091505060019003906000526020600020906006020160009091909190915060008201518160000160006101000a8154816001600160a01b0302191690836001600160a01b0316021790555060208201518160010160006101000a8154816001600160a01b0302191690836001600160a01b0316021790555060408201518160020155606082015181600301556080820151816004015560a08201518160050160006101000a81548160ff02191690831515021790555050506000600f60008b6001600160a01b03166001600160a01b031681526020019081526020016000206000336001600160a01b03166001600160a01b031681526020019081526020016000209050806040518060c00160405280336001600160a01b031681526020018b6001600160a01b031681526020018a81526020018981526020016000815260200160001515815250908060018154018082558091505060019003906000526020600020906006020160009091909190915060008201518160000160006101000a8154816001600160a01b0302191690836001600160a01b0316021790555060208201518160010160006101000a8154816001600160a01b0302191690836001600160a01b0316021790555060408201518160020155606082015181600301556080820151816004015560a08201518160050160006101000a81548160ff021916908315150217905550505086888b6001600160a01b03167f8fffc97c3861ba2cbfdf823a0a312f1dc16f631bd0998cdab47a3719e6c7167d8c60405161269f91906001600160a01b0391909116815260200190565b60405180910390a45050505050506126b660018055565b50505050565b6000807357ae7f7700542d33184ae5b8e879074ec77acbb290506000816001600160a01b031663d21220a76040518163ffffffff1660e01b8152600401602060405180830381865afa158015612716573d6000803e3d6000fd5b505050506040513d601f19601f8201168201806040525081019061273a9190614003565b9050600080836001600160a01b0316630902f1ac6040518163ffffffff1660e01b8152600401606060405180830381865afa15801561277d573d6000803e3d6000fd5b505050506040513d601f19601f820116820180604052508101906127a1919061403c565b506001600160701b031691506001600160701b031691506000836001600160a01b031663313ce5676040518163ffffffff1660e01b8152600401602060405180830381865afa1580156127f8573d6000803e3d6000fd5b505050506040513d601f19601f8201168201806040525081019061281c919061408c565b61282790600a614193565b61283190846141a2565b9050836001600160a01b031663313ce5676040518163ffffffff1660e01b8152600401602060405180830381865afa158015612871573d6000803e3d6000fd5b505050506040513d601f19601f82011682018060405250810190612895919061408c565b6128a090600a614193565b826128ab838a6141a2565b6128b591906141b9565b6128bf91906141b9565b979650505050505050565b600881815481106128da57600080fd5b6000918252602090912001546001600160a01b0316905081565b6128fc613632565b61290461368b565b6001600160a01b03831661292a5760405162461bcd60e51b81526004016107b390613ed5565b336001600160a01b038416036129825760405162461bcd60e51b815260206004820152601d60248201527f6c656e6441646472657373206973206e6f74206d73672e73656e64657200000060448201526064016107b3565b806000036129ed5760405162461bcd60e51b815260206004820152603260248201527f546865206e756d626572206f6620626f72726f77657220616d6f756e7420636160448201527106e6e6f7420626520657175616c20746f20360741b60648201526084016107b3565b3360009081526013602090815260408083206001600160a01b038716845290915290205460ff16612a605760405162461bcd60e51b815260206004820181905260248201527f6c656e646572206973206e6f7420617070726f7665206d73672e73656e64657260448201526064016107b3565b336000908152600f602090815260408083206001600160a01b038716845290915290208054612a90600182613e37565b841115612aaf5760405162461bcd60e51b81526004016107b390613e4a565b336000908152600f602090815260408083206001600160a01b03891684529091528120805486908110612ae457612ae4613e71565b60009182526020909120600690910201600581015490915060ff1615612b1c5760405162461bcd60e51b81526004016107b390613e87565b80600401548160030154612b309190613e37565b841115612bba5760405162461bcd60e51b815260206004820152604c60248201527f546865206e756d626572206f66207769746864726177616c73206d757374206260448201527f65206c657373207468616e206f7220657175616c20746f20746865206566666560648201526b31ba34bb3290373ab6b132b960a11b608482015260a4016107b3565b600181015481546040516370a0823160e01b81526001600160a01b03918216600482015260009291909116906370a0823190602401602060405180830381865afa158015612c0c573d6000803e3d6000fd5b505050506040513d601f19601f82011682018060405250810190612c309190613f68565b905080851115612ca05760405162461bcd60e51b815260206004820152603560248201527f546865206c656e642062616c616e6365206973206c657373207468616e2074686044820152746520626f72726f7761626c65207175616e7469747960581b60648201526084016107b3565b848260040154612cb09190613fd7565b60048301556001600160a01b0387166000908152600e6020908152604080832033845290915290208054612ce5600182613e37565b881115612d045760405162461bcd60e51b81526004016107b390613e4a565b6001600160a01b0389166000908152600e60209081526040808320338452909152812080548a908110612d3957612d39613e71565b90600052602060002090600602019050878160040154612d599190613fd7565b60048201553360009081526009602052604090205460ff16612fad5760088054600181019091557ff3f7a9fe364faab93b216da50a3214154f22a0a2b415b23a84c8169e8b636ee30180546001600160a01b031916339081179091556000908152600960209081526040808320805460ff19811660ff9182161517909155600a83528184206001600160a01b038f1685529092529091205416612f1957600b6000336001600160a01b03166001600160a01b031681526020019081526020016000208a9080600181540180825580915050600190039060005260206000200160009091909190916101000a8154816001600160a01b0302191690836001600160a01b03160217905550600a6000336001600160a01b03166001600160a01b0316815260200190815260200160002060008b6001600160a01b03166001600160a01b0316815260200190815260200160002060009054906101000a900460ff1615600a6000336001600160a01b03166001600160a01b0316815260200190815260200160002060008c6001600160a01b03166001600160a01b0316815260200190815260200160002060006101000a81548160ff0219169083151502179055505b336000908152600c602090815260408083206001600160a01b038e16845282528083208c845290915290205460ff16612fad57336000818152600d602090815260408083206001600160a01b038f168085529083528184208054600181018255908552838520018e9055938352600c82528083209383529281528282208c8352905220805460ff81161560ff199091161790555b60018501548554600091612fcf916001600160a01b039182169116338c6136d8565b90508881146130575760405162461bcd60e51b815260206004820152604860248201527f5468652061637475616c206d6f6e6579206c656e74206973206e6f742074686560448201527f2073616d6520617320746865206d6f6e6579206e656564656420746f20626520606482015267189bdc9c9bddd95960c21b608482015260a4016107b3565b60018601546001600160a01b031673ed24fc36d5ee211ea25a80239fb8c4cfd80f12ee036132af57600061308a8a6126bc565b905060006ec097ce7bc90715b34b9f1000000000826004548d6130ad91906141a2565b6130b791906141a2565b6130c191906141b9565b6040516370a0823160e01b81523360048201529091506000907384e13d8aa38a8230db2dae46a6555a5deec532e6906370a0823190602401602060405180830381865afa158015613116573d6000803e3d6000fd5b505050506040513d601f19601f8201168201806040525081019061313a9190613f68565b90508181106131d4576005546040516323b872dd60e01b81527384e13d8aa38a8230db2dae46a6555a5deec532e6916323b872dd9161318b9133916001600160a01b039091169087906004016141db565b6020604051808303816000875af11580156131aa573d6000803e3d6000fd5b505050506040513d601f19601f820116820180604052508101906131ce91906141ff565b5061327a565b6000670de0b6b3a76400006004548e6131ed91906141a2565b6131f791906141b9565b60018b01546005546040516323b872dd60e01b81529293506001600160a01b03918216926323b872dd9261323492339291169086906004016141db565b6020604051808303816000875af1158015613253573d6000803e3d6000fd5b505050506040513d601f19601f8201168201806040525081019061327791906141ff565b50505b670de0b6b3a76400006004548d61329191906141a2565b61329b91906141b9565b6132a5908d613e37565b9b50505050613361565b6000670de0b6b3a76400006004548b6132c891906141a2565b6132d291906141b9565b60018801546005546040516323b872dd60e01b81529293506001600160a01b03918216926323b872dd9261330f92339291169086906004016141db565b6020604051808303816000875af115801561332e573d6000803e3d6000fd5b505050506040513d601f19601f8201168201806040525081019061335291906141ff565b5061335d818b613e37565b9950505b604080516001600160a01b038d168152602081018c90529081018a90527f1d37c96186f00aa949bfd16bca10aaa0e7f79a45edc5c1f62634322ae1c0f0c89060600160405180910390a15050505050505050610cb160018055565b6001600160a01b03811660009081526010602090815260409182902080548351818402810184019094528084526060939283018282801561342657602002820191906000526020600020905b81546001600160a01b03168152600190910190602001808311613408575b50505050509050919050565b6001600160a01b038116600090815260116020908152604091829020805483518184028101840190945280845260609392830182828015613426576020028201919060005260206000209081546001600160a01b031681526001909101906020018083116134085750505050509050919050565b6134ae6135d8565b6001600160a01b0381166135135760405162461bcd60e51b815260206004820152602660248201527f4f776e61626c653a206e6577206f776e657220697320746865207a65726f206160448201526564647265737360d01b60648201526084016107b3565b61351c816137da565b50565b6001600160a01b038281166000908152600f6020908152604080832093851683529281528282208054845181840281018401909552808552606094928490840182156113025760008481526020908190206040805160c0810182526006860290920180546001600160a01b0390811684526001808301549091168486015260028201549284019290925260038101546060840152600481015460808401526005015460ff16151560a08301529083529092019101611287565b6000546001600160a01b03163314611dcc5760405162461bcd60e51b815260206004820181905260248201527f4f776e61626c653a2063616c6c6572206973206e6f7420746865206f776e657260448201526064016107b3565b6002600154036136845760405162461bcd60e51b815260206004820152601f60248201527f5265656e7472616e637947756172643a207265656e7472616e742063616c6c0060448201526064016107b3565b6002600155565b600054600160a01b900460ff1615611dcc5760405162461bcd60e51b815260206004820152601060248201526f14185d5cd8589b194e881c185d5cd95960821b60448201526064016107b3565b60006001600160a01b0385166136f05734915061370e565b811561370e578461370c6001600160a01b03821686868661382a565b505b509392505050565b6000826000036137285750600061130b565b600061373483856141a2565b90508261374185836141b9565b1461074e5760405162461bcd60e51b815260206004820152602160248201527f536166654d6174683a206d756c7469706c69636174696f6e206f766572666c6f6044820152607760f81b60648201526084016107b3565b600061074e83836040518060400160405280601a81526020017f536166654d6174683a206469766973696f6e206279207a65726f000000000000815250613882565b600080546001600160a01b038381166001600160a01b0319831681178455604051919092169283917f8be0079c531659141344cd1fd0a4f28419497f9722a3daafe3b4186f6b6457e09190a35050565b6126b6846323b872dd60e01b85858560405160240161384b939291906141db565b60408051601f198184030181529190526020810180516001600160e01b03166001600160e01b0319909316929092179091526138b9565b600081836138a35760405162461bcd60e51b81526004016107b39190614221565b5060006138b084866141b9565b95945050505050565b600061390e826040518060400160405280602081526020017f5361666545524332303a206c6f772d6c6576656c2063616c6c206661696c6564815250856001600160a01b031661398b9092919063ffffffff16565b805190915015610cb1578080602001905181019061392c91906141ff565b610cb15760405162461bcd60e51b815260206004820152602a60248201527f5361666545524332303a204552433230206f7065726174696f6e20646964206e6044820152691bdd081cdd58d8d9595960b21b60648201526084016107b3565b606061074b848460008585843b6139e45760405162461bcd60e51b815260206004820152601d60248201527f416464726573733a2063616c6c20746f206e6f6e2d636f6e747261637400000060448201526064016107b3565b600080866001600160a01b03168587604051613a009190614234565b60006040518083038185875af1925050503d8060008114613a3d576040519150601f19603f3d011682016040523d82523d6000602084013e613a42565b606091505b50915091506128bf82828660608315613a5c57508161074e565b825115613a6c5782518084602001fd5b8160405162461bcd60e51b81526004016107b39190614221565b6001600160a01b038116811461351c57600080fd5b60008060408385031215613aae57600080fd5b8235613ab981613a86565b946020939093013593505050565b600080600060608486031215613adc57600080fd5b505081359360208301359350604090920135919050565b600060208284031215613b0557600080fd5b5035919050565b600080600060608486031215613b2157600080fd5b8335613b2c81613a86565b95602085013595506040909401359392505050565b600080600060608486031215613b5657600080fd5b8335613b6181613a86565b92506020840135613b7181613a86565b929592945050506040919091013590565b600060208284031215613b9457600080fd5b813561074e81613a86565b60008060408385031215613bb257600080fd5b8235613bbd81613a86565b91506020830135613bcd81613a86565b809150509250929050565b80516001600160a01b0390811683526020808301519091169083015260408082015190830152606080820151908301526080808201519083015260a0908101511515910152565b6020808252825182820181905260009190848201906040850190845b81811015613c6157613c4e838551613bd8565b9284019260c09290920191600101613c3b565b50909695505050505050565b60008060208385031215613c8057600080fd5b823567ffffffffffffffff80821115613c9857600080fd5b818501915085601f830112613cac57600080fd5b813581811115613cbb57600080fd5b866020828501011115613ccd57600080fd5b60209290920196919550909350505050565b60008060008060808587031215613cf557600080fd5b8435613d0081613a86565b93506020850135613d1081613a86565b93969395505050506040820135916060013590565b60c0810161130b8284613bd8565b60005b83811015613d4e578181015183820152602001613d36565b50506000910152565b60008151808452613d6f816020860160208601613d33565b601f01601f19169290920160200192915050565b821515815260406020820152600061074b6040830184613d57565b6020808252825182820181905260009190848201906040850190845b81811015613c615783516001600160a01b031683529284019291840191600101613dba565b6020808252825182820181905260009190848201906040850190845b81811015613c6157613e0e838551613bd8565b9284019260c09290920191600101613dfb565b634e487b7160e01b600052601160045260246000fd5b8181038181111561130b5761130b613e21565b6020808252600d908201526c24b73232bc1027bb32b9393ab760991b604082015260600190565b634e487b7160e01b600052603260045260246000fd5b6020808252602e908201527f54686520617574686f72697a6174696f6e206964207265636f7264206861732060408201526d1899595b8818d85b98d95b1b195960921b606082015260800190565b60208082526022908201527f5f6c656e6441646472657373206973206e6f742061207a65726f206164647265604082015261737360f01b606082015260800190565b60208082526031908201527f546865206e756d626572206f66207061796d656e7420616d6f756e742063616e60408201527006e6f7420626520657175616c20746f203607c1b606082015260800190565b600060208284031215613f7a57600080fd5b5051919050565b60208082526036908201527f5468652061637475616c20616d6f756e7420616e6420746865206465647563746040820152750cac840c2dadeeadce840c8de40dcdee840dac2e8c6d60531b606082015260800190565b8082018082111561130b5761130b613e21565b600060018201613ffc57613ffc613e21565b5060010190565b60006020828403121561401557600080fd5b815161074e81613a86565b80516001600160701b038116811461403757600080fd5b919050565b60008060006060848603121561405157600080fd5b61405a84614020565b925061406860208501614020565b9150604084015163ffffffff8116811461408157600080fd5b809150509250925092565b60006020828403121561409e57600080fd5b815160ff8116811461074e57600080fd5b600181815b808511156140ea5781600019048211156140d0576140d0613e21565b808516156140dd57918102915b93841c93908002906140b4565b509250929050565b6000826141015750600161130b565b8161410e5750600061130b565b8160018114614124576002811461412e5761414a565b600191505061130b565b60ff84111561413f5761413f613e21565b50506001821b61130b565b5060208310610133831016604e8410600b841016171561416d575081810a61130b565b61417783836140af565b806000190482111561418b5761418b613e21565b029392505050565b600061074e60ff8416836140f2565b808202811582820484141761130b5761130b613e21565b6000826141d657634e487b7160e01b600052601260045260246000fd5b500490565b6001600160a01b039384168152919092166020820152604081019190915260600190565b60006020828403121561421157600080fd5b8151801515811461074e57600080fd5b60208152600061074e6020830184613d57565b60008251614246818460208701613d33565b919091019291505056fea26469706673582212205a221caaf84aac97329747704e6ad3a1a2b695632eb474c8b4ad7d5dd8475b8e64736f6c63430008120033",
  "linkReferences": {},
  "deployedLinkReferences": {}
}