{
  "_format": "hh-sol-artifact-1",
  "contractName": "BuddyDao",
  "sourceName": "contracts/BuddyDaoFatten.sol",
  "abi": [
    {
      "inputs": [
        {
          "internalType": "uint256",
          "name": "_serviceFee",
          "type": "uint256"
        },
        {
          "internalType": "address",
          "name": "_serviceFeeAddress",
          "type": "address"
        },
        {
          "internalType": "uint256",
          "name": "_maxFixedRate",
          "type": "uint256"
        }
      ],
      "stateMutability": "nonpayable",
      "type": "constructor"
    },
    {
      "anonymous": false,
      "inputs": [
        {
          "indexed": true,
          "internalType": "address",
          "name": "previousOwner",
          "type": "address"
        },
        {
          "indexed": true,
          "internalType": "address",
          "name": "newOwner",
          "type": "address"
        }
      ],
      "name": "OwnershipTransferred",
      "type": "event"
    },
    {
      "anonymous": false,
      "inputs": [
        {
          "indexed": false,
          "internalType": "address",
          "name": "account",
          "type": "address"
        }
      ],
      "name": "Paused",
      "type": "event"
    },
    {
      "anonymous": false,
      "inputs": [
        {
          "indexed": false,
          "internalType": "address",
          "name": "_lendAddress",
          "type": "address"
        },
        {
          "indexed": false,
          "internalType": "uint256",
          "name": "_index",
          "type": "uint256"
        },
        {
          "indexed": false,
          "internalType": "uint256",
          "name": "_payAmount",
          "type": "uint256"
        }
      ],
      "name": "Payment",
      "type": "event"
    },
    {
      "anonymous": false,
      "inputs": [
        {
          "indexed": true,
          "internalType": "address",
          "name": "recieptor",
          "type": "address"
        },
        {
          "indexed": true,
          "internalType": "address",
          "name": "token",
          "type": "address"
        },
        {
          "indexed": false,
          "internalType": "uint256",
          "name": "amount",
          "type": "uint256"
        }
      ],
      "name": "Redeem",
      "type": "event"
    },
    {
      "anonymous": false,
      "inputs": [
        {
          "indexed": false,
          "internalType": "address",
          "name": "_approveAddress",
          "type": "address"
        },
        {
          "indexed": false,
          "internalType": "uint256",
          "name": "_index",
          "type": "uint256"
        },
        {
          "indexed": false,
          "internalType": "uint256",
          "name": "_cancelAmount",
          "type": "uint256"
        }
      ],
      "name": "ReduceTrust",
      "type": "event"
    },
    {
      "anonymous": false,
      "inputs": [
        {
          "indexed": false,
          "internalType": "uint256",
          "name": "_oldBase",
          "type": "uint256"
        },
        {
          "indexed": false,
          "internalType": "uint256",
          "name": "_newBase",
          "type": "uint256"
        }
      ],
      "name": "SetBaseUnit",
      "type": "event"
    },
    {
      "anonymous": false,
      "inputs": [
        {
          "indexed": false,
          "internalType": "uint256",
          "name": "_oldFixedRate",
          "type": "uint256"
        },
        {
          "indexed": false,
          "internalType": "uint256",
          "name": "_newFixedRate",
          "type": "uint256"
        }
      ],
      "name": "SetMaxFixedRate",
      "type": "event"
    },
    {
      "anonymous": false,
      "inputs": [
        {
          "indexed": false,
          "internalType": "uint256",
          "name": "_old",
          "type": "uint256"
        },
        {
          "indexed": false,
          "internalType": "uint256",
          "name": "_new",
          "type": "uint256"
        }
      ],
      "name": "SetServiceFee",
      "type": "event"
    },
    {
      "anonymous": false,
      "inputs": [
        {
          "indexed": false,
          "internalType": "address",
          "name": "_oldAddress",
          "type": "address"
        },
        {
          "indexed": false,
          "internalType": "address",
          "name": "_newAddress",
          "type": "address"
        }
      ],
      "name": "SetServiceFeeAddress",
      "type": "event"
    },
    {
      "anonymous": false,
      "inputs": [
        {
          "indexed": false,
          "internalType": "uint256",
          "name": "_oldTimeInternal",
          "type": "uint256"
        },
        {
          "indexed": false,
          "internalType": "uint256",
          "name": "_newTimeInternal",
          "type": "uint256"
        }
      ],
      "name": "SetTimeInterval",
      "type": "event"
    },
    {
      "anonymous": false,
      "inputs": [
        {
          "indexed": true,
          "internalType": "address",
          "name": "_address",
          "type": "address"
        },
        {
          "indexed": false,
          "internalType": "string",
          "name": "_alias",
          "type": "string"
        },
        {
          "indexed": false,
          "internalType": "address",
          "name": "_token",
          "type": "address"
        },
        {
          "indexed": true,
          "internalType": "uint256",
          "name": "_fixedRate",
          "type": "uint256"
        },
        {
          "indexed": true,
          "internalType": "uint256",
          "name": "_amount",
          "type": "uint256"
        }
      ],
      "name": "Trust",
      "type": "event"
    },
    {
      "anonymous": false,
      "inputs": [
        {
          "indexed": false,
          "internalType": "address",
          "name": "account",
          "type": "address"
        }
      ],
      "name": "Unpaused",
      "type": "event"
    },
    {
      "anonymous": false,
      "inputs": [
        {
          "indexed": false,
          "internalType": "address",
          "name": "_lendAddress",
          "type": "address"
        },
        {
          "indexed": false,
          "internalType": "uint256",
          "name": "_index",
          "type": "uint256"
        },
        {
          "indexed": false,
          "internalType": "uint256",
          "name": "_borrowerAmount",
          "type": "uint256"
        }
      ],
      "name": "WithdrawAssets",
      "type": "event"
    },
    {
      "inputs": [
        {
          "internalType": "address",
          "name": "",
          "type": "address"
        },
        {
          "internalType": "uint256",
          "name": "",
          "type": "uint256"
        }
      ],
      "name": "BorrowerArrary",
      "outputs": [
        {
          "internalType": "address",
          "name": "",
          "type": "address"
        }
      ],
      "stateMutability": "view",
      "type": "function"
    },
    {
      "inputs": [
        {
          "internalType": "address",
          "name": "",
          "type": "address"
        },
        {
          "internalType": "address",
          "name": "",
          "type": "address"
        }
      ],
      "name": "BorrowerBool",
      "outputs": [
        {
          "internalType": "bool",
          "name": "",
          "type": "bool"
        }
      ],
      "stateMutability": "view",
      "type": "function"
    },
    {
      "inputs": [
        {
          "internalType": "address",
          "name": "",
          "type": "address"
        },
        {
          "internalType": "address",
          "name": "",
          "type": "address"
        },
        {
          "internalType": "uint256",
          "name": "",
          "type": "uint256"
        }
      ],
      "name": "BorrowerData",
      "outputs": [
        {
          "internalType": "address",
          "name": "Creditors",
          "type": "address"
        },
        {
          "internalType": "address",
          "name": "Token",
          "type": "address"
        },
        {
          "internalType": "uint256",
          "name": "FixedRate",
          "type": "uint256"
        },
        {
          "internalType": "uint256",
          "name": "CreditLine",
          "type": "uint256"
        },
        {
          "internalType": "uint256",
          "name": "Amount",
          "type": "uint256"
        },
        {
          "internalType": "string",
          "name": "Alias",
          "type": "string"
        },
        {
          "internalType": "bool",
          "name": "isCancel",
          "type": "bool"
        }
      ],
      "stateMutability": "view",
      "type": "function"
    },
    {
      "inputs": [
        {
          "internalType": "address",
          "name": "",
          "type": "address"
        },
        {
          "internalType": "address",
          "name": "",
          "type": "address"
        }
      ],
      "name": "BorrowerIsBool",
      "outputs": [
        {
          "internalType": "bool",
          "name": "",
          "type": "bool"
        }
      ],
      "stateMutability": "view",
      "type": "function"
    },
    {
      "inputs": [
        {
          "internalType": "address",
          "name": "",
          "type": "address"
        },
        {
          "internalType": "uint256",
          "name": "",
          "type": "uint256"
        }
      ],
      "name": "BorrowerNumber",
      "outputs": [
        {
          "internalType": "address",
          "name": "",
          "type": "address"
        }
      ],
      "stateMutability": "view",
      "type": "function"
    },
    {
      "inputs": [
        {
          "internalType": "address",
          "name": "_borrowerAddress",
          "type": "address"
        }
      ],
      "name": "GetBorrowerAddress",
      "outputs": [
        {
          "internalType": "address[]",
          "name": "",
          "type": "address[]"
        }
      ],
      "stateMutability": "view",
      "type": "function"
    },
    {
      "inputs": [
        {
          "internalType": "address",
          "name": "_borrowerAddress",
          "type": "address"
        }
      ],
      "name": "GetBorrowerAddressLengeth",
      "outputs": [
        {
          "internalType": "uint256",
          "name": "",
          "type": "uint256"
        }
      ],
      "stateMutability": "view",
      "type": "function"
    },
    {
      "inputs": [
        {
          "internalType": "address",
          "name": "_borrowerAddress",
          "type": "address"
        },
        {
          "internalType": "address",
          "name": "_creditors",
          "type": "address"
        }
      ],
      "name": "GetBorrowerData",
      "outputs": [
        {
          "components": [
            {
              "internalType": "address",
              "name": "Creditors",
              "type": "address"
            },
            {
              "internalType": "address",
              "name": "Token",
              "type": "address"
            },
            {
              "internalType": "uint256",
              "name": "FixedRate",
              "type": "uint256"
            },
            {
              "internalType": "uint256",
              "name": "CreditLine",
              "type": "uint256"
            },
            {
              "internalType": "uint256",
              "name": "Amount",
              "type": "uint256"
            },
            {
              "internalType": "string",
              "name": "Alias",
              "type": "string"
            },
            {
              "internalType": "bool",
              "name": "isCancel",
              "type": "bool"
            }
          ],
          "internalType": "struct BuddyDao.Borrower[]",
          "name": "",
          "type": "tuple[]"
        }
      ],
      "stateMutability": "view",
      "type": "function"
    },
    {
      "inputs": [
        {
          "internalType": "address",
          "name": "_borrowerAddress",
          "type": "address"
        },
        {
          "internalType": "address",
          "name": "_creditors",
          "type": "address"
        },
        {
          "internalType": "uint256",
          "name": "_index",
          "type": "uint256"
        }
      ],
      "name": "GetBorrowerIndexData",
      "outputs": [
        {
          "components": [
            {
              "internalType": "address",
              "name": "Creditors",
              "type": "address"
            },
            {
              "internalType": "address",
              "name": "Token",
              "type": "address"
            },
            {
              "internalType": "uint256",
              "name": "FixedRate",
              "type": "uint256"
            },
            {
              "internalType": "uint256",
              "name": "CreditLine",
              "type": "uint256"
            },
            {
              "internalType": "uint256",
              "name": "Amount",
              "type": "uint256"
            },
            {
              "internalType": "string",
              "name": "Alias",
              "type": "string"
            },
            {
              "internalType": "bool",
              "name": "isCancel",
              "type": "bool"
            }
          ],
          "internalType": "struct BuddyDao.Borrower",
          "name": "",
          "type": "tuple"
        }
      ],
      "stateMutability": "view",
      "type": "function"
    },
    {
      "inputs": [
        {
          "internalType": "address",
          "name": "_lenderAddress",
          "type": "address"
        }
      ],
      "name": "GetLenderAddress",
      "outputs": [
        {
          "internalType": "address[]",
          "name": "",
          "type": "address[]"
        }
      ],
      "stateMutability": "view",
      "type": "function"
    },
    {
      "inputs": [
        {
          "internalType": "address",
          "name": "_lenderAddress",
          "type": "address"
        }
      ],
      "name": "GetLenderAddressLengeth",
      "outputs": [
        {
          "internalType": "uint256",
          "name": "",
          "type": "uint256"
        }
      ],
      "stateMutability": "view",
      "type": "function"
    },
    {
      "inputs": [
        {
          "internalType": "address",
          "name": "_lenderAddress",
          "type": "address"
        },
        {
          "internalType": "address",
          "name": "_approveAddress",
          "type": "address"
        }
      ],
      "name": "GetLenderData",
      "outputs": [
        {
          "components": [
            {
              "internalType": "address",
              "name": "Address",
              "type": "address"
            },
            {
              "internalType": "address",
              "name": "Token",
              "type": "address"
            },
            {
              "internalType": "uint256",
              "name": "FixedRate",
              "type": "uint256"
            },
            {
              "internalType": "uint256",
              "name": "CreditLine",
              "type": "uint256"
            },
            {
              "internalType": "uint256",
              "name": "Amount",
              "type": "uint256"
            },
            {
              "internalType": "string",
              "name": "Alias",
              "type": "string"
            },
            {
              "internalType": "bool",
              "name": "isCancel",
              "type": "bool"
            }
          ],
          "internalType": "struct BuddyDao.Lender[]",
          "name": "",
          "type": "tuple[]"
        }
      ],
      "stateMutability": "view",
      "type": "function"
    },
    {
      "inputs": [
        {
          "internalType": "address",
          "name": "_lenderAddress",
          "type": "address"
        },
        {
          "internalType": "address",
          "name": "_approveAddress",
          "type": "address"
        },
        {
          "internalType": "uint256",
          "name": "_index",
          "type": "uint256"
        }
      ],
      "name": "GetLenderIndexData",
      "outputs": [
        {
          "components": [
            {
              "internalType": "address",
              "name": "Address",
              "type": "address"
            },
            {
              "internalType": "address",
              "name": "Token",
              "type": "address"
            },
            {
              "internalType": "uint256",
              "name": "FixedRate",
              "type": "uint256"
            },
            {
              "internalType": "uint256",
              "name": "CreditLine",
              "type": "uint256"
            },
            {
              "internalType": "uint256",
              "name": "Amount",
              "type": "uint256"
            },
            {
              "internalType": "string",
              "name": "Alias",
              "type": "string"
            },
            {
              "internalType": "bool",
              "name": "isCancel",
              "type": "bool"
            }
          ],
          "internalType": "struct BuddyDao.Lender",
          "name": "",
          "type": "tuple"
        }
      ],
      "stateMutability": "view",
      "type": "function"
    },
    {
      "inputs": [
        {
          "internalType": "address",
          "name": "",
          "type": "address"
        },
        {
          "internalType": "address",
          "name": "",
          "type": "address"
        },
        {
          "internalType": "uint256",
          "name": "",
          "type": "uint256"
        }
      ],
      "name": "LenderData",
      "outputs": [
        {
          "internalType": "address",
          "name": "Address",
          "type": "address"
        },
        {
          "internalType": "address",
          "name": "Token",
          "type": "address"
        },
        {
          "internalType": "uint256",
          "name": "FixedRate",
          "type": "uint256"
        },
        {
          "internalType": "uint256",
          "name": "CreditLine",
          "type": "uint256"
        },
        {
          "internalType": "uint256",
          "name": "Amount",
          "type": "uint256"
        },
        {
          "internalType": "string",
          "name": "Alias",
          "type": "string"
        },
        {
          "internalType": "bool",
          "name": "isCancel",
          "type": "bool"
        }
      ],
      "stateMutability": "view",
      "type": "function"
    },
    {
      "inputs": [
        {
          "internalType": "address",
          "name": "",
          "type": "address"
        },
        {
          "internalType": "address",
          "name": "",
          "type": "address"
        }
      ],
      "name": "LenderIsBool",
      "outputs": [
        {
          "internalType": "bool",
          "name": "",
          "type": "bool"
        }
      ],
      "stateMutability": "view",
      "type": "function"
    },
    {
      "inputs": [
        {
          "internalType": "address",
          "name": "",
          "type": "address"
        },
        {
          "internalType": "uint256",
          "name": "",
          "type": "uint256"
        }
      ],
      "name": "LenderNumber",
      "outputs": [
        {
          "internalType": "address",
          "name": "",
          "type": "address"
        }
      ],
      "stateMutability": "view",
      "type": "function"
    },
    {
      "inputs": [],
      "name": "MaxFixedRate",
      "outputs": [
        {
          "internalType": "uint256",
          "name": "",
          "type": "uint256"
        }
      ],
      "stateMutability": "view",
      "type": "function"
    },
    {
      "inputs": [
        {
          "internalType": "address",
          "name": "_approveAddress",
          "type": "address"
        },
        {
          "internalType": "string",
          "name": "_alias",
          "type": "string"
        },
        {
          "internalType": "address",
          "name": "_token",
          "type": "address"
        },
        {
          "internalType": "uint256",
          "name": "_fixedRate",
          "type": "uint256"
        },
        {
          "internalType": "uint256",
          "name": "_amount",
          "type": "uint256"
        }
      ],
      "name": "NewTrust",
      "outputs": [],
      "stateMutability": "nonpayable",
      "type": "function"
    },
    {
      "inputs": [
        {
          "internalType": "address",
          "name": "_lendAddress",
          "type": "address"
        },
        {
          "internalType": "uint256",
          "name": "_index",
          "type": "uint256"
        },
        {
          "internalType": "uint256",
          "name": "_payAmount",
          "type": "uint256"
        }
      ],
      "name": "Pay",
      "outputs": [],
      "stateMutability": "nonpayable",
      "type": "function"
    },
    {
      "inputs": [
        {
          "internalType": "address",
          "name": "_approveAddress",
          "type": "address"
        },
        {
          "internalType": "uint256",
          "name": "_index",
          "type": "uint256"
        },
        {
          "internalType": "uint256",
          "name": "_cancelAmount",
          "type": "uint256"
        }
      ],
      "name": "RemoveTrust",
      "outputs": [],
      "stateMutability": "nonpayable",
      "type": "function"
    },
    {
      "inputs": [],
      "name": "ServiceFee",
      "outputs": [
        {
          "internalType": "uint256",
          "name": "",
          "type": "uint256"
        }
      ],
      "stateMutability": "view",
      "type": "function"
    },
    {
      "inputs": [],
      "name": "ServiceFeeAddress",
      "outputs": [
        {
          "internalType": "address",
          "name": "",
          "type": "address"
        }
      ],
      "stateMutability": "view",
      "type": "function"
    },
    {
      "inputs": [],
      "name": "StartTimeInterval",
      "outputs": [
        {
          "internalType": "uint256",
          "name": "",
          "type": "uint256"
        }
      ],
      "stateMutability": "view",
      "type": "function"
    },
    {
      "inputs": [],
      "name": "TimeInterval",
      "outputs": [
        {
          "internalType": "uint256",
          "name": "",
          "type": "uint256"
        }
      ],
      "stateMutability": "view",
      "type": "function"
    },
    {
      "inputs": [
        {
          "internalType": "address",
          "name": "",
          "type": "address"
        },
        {
          "internalType": "address",
          "name": "",
          "type": "address"
        },
        {
          "internalType": "uint256",
          "name": "",
          "type": "uint256"
        }
      ],
      "name": "TotalBorrowerBool",
      "outputs": [
        {
          "internalType": "bool",
          "name": "",
          "type": "bool"
        }
      ],
      "stateMutability": "view",
      "type": "function"
    },
    {
      "inputs": [
        {
          "internalType": "address",
          "name": "",
          "type": "address"
        },
        {
          "internalType": "address",
          "name": "",
          "type": "address"
        },
        {
          "internalType": "uint256",
          "name": "",
          "type": "uint256"
        }
      ],
      "name": "TotalBorrowerIndexArrary",
      "outputs": [
        {
          "internalType": "uint256",
          "name": "",
          "type": "uint256"
        }
      ],
      "stateMutability": "view",
      "type": "function"
    },
    {
      "inputs": [
        {
          "internalType": "address",
          "name": "_lendAddress",
          "type": "address"
        },
        {
          "internalType": "uint256",
          "name": "_index",
          "type": "uint256"
        },
        {
          "internalType": "uint256",
          "name": "_borrowerAmount",
          "type": "uint256"
        }
      ],
      "name": "Withdrawal",
      "outputs": [],
      "stateMutability": "nonpayable",
      "type": "function"
    },
    {
      "inputs": [],
      "name": "baseYearOrMonth",
      "outputs": [
        {
          "internalType": "uint256",
          "name": "",
          "type": "uint256"
        }
      ],
      "stateMutability": "view",
      "type": "function"
    },
    {
      "inputs": [
        {
          "internalType": "uint256",
          "name": "_balance",
          "type": "uint256"
        },
        {
          "internalType": "uint256",
          "name": "_allowBalance",
          "type": "uint256"
        },
        {
          "internalType": "uint256",
          "name": "_dailyRate",
          "type": "uint256"
        }
      ],
      "name": "calculatingActualInterest",
      "outputs": [
        {
          "internalType": "uint256",
          "name": "",
          "type": "uint256"
        }
      ],
      "stateMutability": "pure",
      "type": "function"
    },
    {
      "inputs": [
        {
          "internalType": "address",
          "name": "_lendAddress",
          "type": "address"
        },
        {
          "internalType": "address",
          "name": "_borrower",
          "type": "address"
        },
        {
          "internalType": "uint256",
          "name": "_index",
          "type": "uint256"
        },
        {
          "internalType": "uint256",
          "name": "_payAmount",
          "type": "uint256"
        }
      ],
      "name": "calculatingInterest",
      "outputs": [
        {
          "internalType": "uint256",
          "name": "",
          "type": "uint256"
        }
      ],
      "stateMutability": "view",
      "type": "function"
    },
    {
      "inputs": [
        {
          "internalType": "bytes",
          "name": "",
          "type": "bytes"
        }
      ],
      "name": "checkUpkeep",
      "outputs": [
        {
          "internalType": "bool",
          "name": "upkeepNeeded",
          "type": "bool"
        },
        {
          "internalType": "bytes",
          "name": "",
          "type": "bytes"
        }
      ],
      "stateMutability": "view",
      "type": "function"
    },
    {
      "inputs": [
        {
          "internalType": "uint256",
          "name": "amount",
          "type": "uint256"
        }
      ],
      "name": "getTokenPrice",
      "outputs": [
        {
          "internalType": "uint256",
          "name": "",
          "type": "uint256"
        }
      ],
      "stateMutability": "view",
      "type": "function"
    },
    {
      "inputs": [
        {
          "internalType": "address",
          "name": "",
          "type": "address"
        }
      ],
      "name": "isTotalBorrower",
      "outputs": [
        {
          "internalType": "bool",
          "name": "",
          "type": "bool"
        }
      ],
      "stateMutability": "view",
      "type": "function"
    },
    {
      "inputs": [],
      "name": "owner",
      "outputs": [
        {
          "internalType": "address",
          "name": "",
          "type": "address"
        }
      ],
      "stateMutability": "view",
      "type": "function"
    },
    {
      "inputs": [],
      "name": "paused",
      "outputs": [
        {
          "internalType": "bool",
          "name": "",
          "type": "bool"
        }
      ],
      "stateMutability": "view",
      "type": "function"
    },
    {
      "inputs": [
        {
          "internalType": "bytes",
          "name": "",
          "type": "bytes"
        }
      ],
      "name": "performUpkeep",
      "outputs": [],
      "stateMutability": "nonpayable",
      "type": "function"
    },
    {
      "inputs": [],
      "name": "renounceOwnership",
      "outputs": [],
      "stateMutability": "nonpayable",
      "type": "function"
    },
    {
      "inputs": [
        {
          "internalType": "uint256",
          "name": "_newBaseUnit",
          "type": "uint256"
        }
      ],
      "name": "setBaseUnit",
      "outputs": [],
      "stateMutability": "nonpayable",
      "type": "function"
    },
    {
      "inputs": [
        {
          "internalType": "uint256",
          "name": "_maxFixedRate",
          "type": "uint256"
        }
      ],
      "name": "setMaxFixedRate",
      "outputs": [],
      "stateMutability": "nonpayable",
      "type": "function"
    },
    {
      "inputs": [
        {
          "internalType": "uint256",
          "name": "_serviceFee",
          "type": "uint256"
        }
      ],
      "name": "setServiceFee",
      "outputs": [],
      "stateMutability": "nonpayable",
      "type": "function"
    },
    {
      "inputs": [
        {
          "internalType": "address",
          "name": "_newAddress",
          "type": "address"
        }
      ],
      "name": "setServiceFeeAddress",
      "outputs": [],
      "stateMutability": "nonpayable",
      "type": "function"
    },
    {
      "inputs": [
        {
          "internalType": "uint256",
          "name": "_newTimeInterval",
          "type": "uint256"
        }
      ],
      "name": "setTimeInterval",
      "outputs": [],
      "stateMutability": "nonpayable",
      "type": "function"
    },
    {
      "inputs": [
        {
          "internalType": "uint256",
          "name": "",
          "type": "uint256"
        }
      ],
      "name": "totalBorrower",
      "outputs": [
        {
          "internalType": "address",
          "name": "",
          "type": "address"
        }
      ],
      "stateMutability": "view",
      "type": "function"
    },
    {
      "inputs": [
        {
          "internalType": "address",
          "name": "newOwner",
          "type": "address"
        }
      ],
      "name": "transferOwnership",
      "outputs": [],
      "stateMutability": "nonpayable",
      "type": "function"
    }
  ],
  "bytecode": "0x6080604052670de0b6b3a76400006006556301e133806007553480156200002557600080fd5b5060405162004a4938038062004a498339810160408190526200004891620001aa565b62000053336200015a565b6000805460ff60a01b1916815560018055839003620000c55760405162461bcd60e51b8152602060048201526024808201527f73657276696365466565206d757374206265206120706f736974697665206e7560448201526336b132b960e11b60648201526084015b60405180910390fd5b600654831115620001295760405162461bcd60e51b815260206004820152602760248201527f43616e6e6f742065786365656420746865206d6178696d756d20696e746572656044820152667374207261746560c81b6064820152608401620000bc565b600580546001600160a01b0319166001600160a01b03939093169290921790915560065560045542600355620001f2565b600080546001600160a01b038381166001600160a01b0319831681178455604051919092169283917f8be0079c531659141344cd1fd0a4f28419497f9722a3daafe3b4186f6b6457e09190a35050565b600080600060608486031215620001c057600080fd5b835160208501519093506001600160a01b0381168114620001e057600080fd5b80925050604084015190509250925092565b61484780620002026000396000f3fe608060405234801561001057600080fd5b50600436106102745760003560e01c80638a173f7411610151578063b71cdec7116100c3578063e37f571511610087578063e37f571514610637578063e3f10b4d14610657578063e946ca731461066a578063f2fde38b1461067d578063f3cc15be14610690578063fb3e80021461069957600080fd5b8063b71cdec7146105bd578063becdd077146105eb578063c457fb37146105fe578063d0a0a45814610611578063df273cb61461062457600080fd5b8063a992262411610115578063a992262414610569578063aadb5b371461057c578063adbdbe9314610585578063afe8ec6c1461058e578063b20e01ef14610597578063b51fbb98146105aa57600080fd5b80638a173f74146104c55780638da5cb5b146104f95780639d6283a21461050a578063a4ec4c441461051d578063a56acda51461054657600080fd5b806356a692c2116101ea5780636bac4f23116101ae5780636bac4f23146104325780636e04ff0d14610452578063715018a61461047357806376e988ec1461047b57806388f0df1f1461048e578063896485d11461049757600080fd5b806356a692c2146103ad57806357d02498146103c05780635c975abb146103d35780635cdf76f8146103f157806360dd53dd1461040457600080fd5b80632fdb5c391161023c5780632fdb5c391461031857806332c8827c146103415780633d38134a146103545780633da1d716146103745780634585e33b146103875780635403f6581461039a57600080fd5b80631d6abdef1461027957806321f5f91f146102a957806325423a1b146102ca57806325e0c61b146102df5780632a90ed5b146102f2575b600080fd5b61028c610287366004613d46565b6106b9565b6040516001600160a01b0390911681526020015b60405180910390f35b6102bc6102b7366004613d72565b6106f1565b6040519081526020016102a0565b6102dd6102d8366004613d9e565b61072e565b005b6102dd6102ed366004613db7565b6107d6565b610305610300366004613dec565b610c8f565b6040516102a09796959493929190613e7d565b6102bc610326366004613ed0565b6001600160a01b031660009081526010602052604090205490565b6102dd61034f366004613db7565b610d93565b610367610362366004613eed565b6112b2565b6040516102a09190613f8f565b6102dd610382366004613ed0565b61141a565b6102dd610395366004613ff1565b6114f1565b6102bc6103a8366004614063565b611bcb565b61028c6103bb366004613d46565b611d0e565b6103056103ce366004613dec565b611d2a565b600054600160a01b900460ff165b60405190151581526020016102a0565b6102dd6103ff366004613d9e565b611d52565b6103e1610412366004613eed565b600a60209081526000928352604080842090915290825290205460ff1681565b610445610440366004613dec565b611e59565b6040516102a091906140a9565b610465610460366004613ff1565b611fce565b6040516102a09291906140bc565b6102dd612000565b6102dd6104893660046140ed565b612014565b6102bc60035481565b6103e16104a5366004613eed565b601360209081526000928352604080842090915290825290205460ff1681565b6103e16104d3366004613dec565b600c60209081526000938452604080852082529284528284209052825290205460ff1681565b6000546001600160a01b031661028c565b610445610518366004613dec565b61270a565b6102bc61052b366004613ed0565b6001600160a01b031660009081526011602052604090205490565b6103e1610554366004613ed0565b60096020526000908152604090205460ff1681565b61028c610577366004613d46565b612775565b6102bc60045481565b6102bc60065481565b6102bc60025481565b6102dd6105a5366004613d9e565b612791565b6102dd6105b8366004613d9e565b6127da565b6103e16105cb366004613eed565b601260209081526000928352604080842090915290825290205460ff1681565b6102bc6105f9366004613dec565b612873565b6102bc61060c366004613d9e565b6128b1565b61028c61061f366004613d9e565b612abf565b6102dd610632366004613db7565b612ae9565b61064a610645366004613ed0565b6135b1565b6040516102a091906141d3565b61064a610665366004613ed0565b613627565b60055461028c906001600160a01b031681565b6102dd61068b366004613ed0565b61369b565b6102bc60075481565b6106ac6106a7366004613eed565b613714565b6040516102a09190614220565b601060205281600052604060002081815481106106d557600080fd5b6000918252602090912001546001600160a01b03169150829050565b60008082851015610712578385101561070b575083610724565b5082610724565b83831015610721575081610724565b50825b90505b9392505050565b61073661386d565b600081116107955760405162461bcd60e51b815260206004820152602160248201527f4e65772054696d6520496e74657276616c206d757374206265206772656174206044820152600360fc1b60648201526084015b60405180910390fd5b60025460408051918252602082018390527f8efd7a06dec059364c6a6d160e9ba026bb1d2a1c7befdd940db032506238a60c910160405180910390a1600255565b6107de6138c7565b6107e6613920565b6001600160a01b0383166108485760405162461bcd60e51b8152602060048201526024808201527f617070726f766541646472657373206973206e6f742061207a65726f206164646044820152637265737360e01b606482015260840161078c565b806000036108b15760405162461bcd60e51b815260206004820152603060248201527f546865206e756d626572206f662063616e63656c6c6174696f6e732063616e6e60448201526f06f7420626520657175616c20746f20360841b606482015260840161078c565b336001600160a01b038416036109095760405162461bcd60e51b815260206004820181905260248201527f617070726f766541646472657373206973206e6f74206d73672e73656e646572604482015260640161078c565b3360009081526012602090815260408083206001600160a01b038716845290915290205460ff166109885760405162461bcd60e51b8152602060048201526024808201527f6c656e646572206973206e6f7420617070726f766520617070726f76654164646044820152637265737360e01b606482015260840161078c565b336000908152600e602090815260408083206001600160a01b0387168452909152902080546109b860018261428b565b8411156109d75760405162461bcd60e51b815260040161078c9061429e565b336000908152600e602090815260408083206001600160a01b03891684529091528120805486908110610a0c57610a0c6142c5565b600091825260208083206001600160a01b038a168452600f825260408085203386529092529220805460079092029092019250610a4a60018261428b565b871115610a925760405162461bcd60e51b81526020600482015260166024820152753137b93937bbb2b91034b73232bc1027bb32b9393ab760511b604482015260640161078c565b6001600160a01b0388166000908152600f602090815260408083203384529091528120805489908110610ac757610ac76142c5565b600091825260209091206006860154600790920201915060ff1615610afe5760405162461bcd60e51b815260040161078c906142db565b80600401548460030154610b12919061428b565b871115610b9f5760405162461bcd60e51b815260206004820152604f60248201527f546865206e756d626572206f662063616e63656c6c6174696f6e732063616e6e60448201527f6f742062652067726561746572207468616e20746865206e756d626572206f6660648201526e20617574686f72697a6174696f6e7360881b608482015260a40161078c565b83600301548703610c03576006808501805460ff1980821660ff9283161517909255918301805491821691909216151790556003840154610be190889061428b565b8460030181905550868160030154610bf9919061428b565b6003820155610c31565b868460030154610c13919061428b565b8460030181905550868160030154610c2b919061428b565b60038201555b604080516001600160a01b038b168152602081018a90529081018890527f62a0e7e6165d97cf606eafbe25e28dd5e6e8033bb30b807959547c4e9ac907a89060600160405180910390a1505050505050610c8a60018055565b505050565b600f6020528260005260406000206020528160005260406000208181548110610cb757600080fd5b60009182526020909120600790910201805460018201546002830154600384015460048501546005860180546001600160a01b039687169a509490951697509195509390929091610d0790614329565b80601f0160208091040260200160405190810160405280929190818152602001828054610d3390614329565b8015610d805780601f10610d5557610100808354040283529160200191610d80565b820191906000526020600020905b815481529060010190602001808311610d6357829003601f168201915b5050506006909301549192505060ff1687565b610d9b6138c7565b610da3613920565b6001600160a01b038316610dc95760405162461bcd60e51b815260040161078c90614363565b336001600160a01b03841603610e215760405162461bcd60e51b815260206004820152601d60248201527f6c656e6441646472657373206973206e6f74206d73672e73656e646572000000604482015260640161078c565b80600003610e415760405162461bcd60e51b815260040161078c906143a5565b3360009081526013602090815260408083206001600160a01b038716845290915290205460ff16610eb45760405162461bcd60e51b815260206004820181905260248201527f6c656e646572206973206e6f7420617070726f7665206d73672e73656e646572604482015260640161078c565b336000908152600f602090815260408083206001600160a01b038716845290915290208054610ee460018261428b565b841115610f035760405162461bcd60e51b815260040161078c9061429e565b336000908152600f602090815260408083206001600160a01b03891684529091528120805486908110610f3857610f386142c5565b906000526020600020906007020190508060040154841115610fd55760405162461bcd60e51b815260206004820152604a60248201527f5468652072657475726e6564207175616e74697479206d757374206265206c6560448201527f7373207468616e206f7220657175616c20746f2074686520626f72726f7765646064820152691038bab0b73a34ba3c9760b11b608482015260a40161078c565b6001810154604051636eb1769f60e11b81523360048201523060248201526000916001600160a01b03169063dd62ed3e90604401602060405180830381865afa158015611026573d6000803e3d6000fd5b505050506040513d601f19601f8201168201806040525081019061104a91906143f6565b90508085111561109c5760405162461bcd60e51b815260206004820152601a60248201527f626f72726f776572206c61636b206f6620616c6c6f77616e6365000000000000604482015260640161078c565b60018201546040516370a0823160e01b81523360048201526000916001600160a01b0316906370a0823190602401602060405180830381865afa1580156110e7573d6000803e3d6000fd5b505050506040513d601f19601f8201168201806040525081019061110b91906143f6565b9050858110156111545760405162461bcd60e51b8152602060048201526014602482015273496e73756666696369656e742062616c616e636560601b604482015260640161078c565b60018301548354600091611177916001600160a01b03918216913391168a61396d565b90508681146111985760405162461bcd60e51b815260040161078c9061440f565b8684600401546111a8919061428b565b60048501556001600160a01b0389166000908152600e60209081526040808320338452909152902080546111dd60018261428b565b8a11156111fc5760405162461bcd60e51b815260040161078c9061429e565b6001600160a01b038b166000908152600e60209081526040808320338452909152812080548c908110611231576112316142c5565b90600052602060002090600702019050898160040154611251919061428b565b6004820155604080516001600160a01b038e168152602081018d90529081018b90527f9643c1b5b172b26d5f028be7fe646349bd5e3cd9367bb18f9e825afa828b7d939060600160405180910390a1505050505050505050610c8a60018055565b6001600160a01b038083166000908152600e602090815260408083209385168352928152828220805484518184028101840190955280855260609492849084015b8282101561140b5760008481526020908190206040805160e0810182526007860290920180546001600160a01b03908116845260018201541693830193909352600283015490820152600382015460608201526004820154608082015260058201805491929160a08401919061136890614329565b80601f016020809104026020016040519081016040528092919081815260200182805461139490614329565b80156113e15780601f106113b6576101008083540402835291602001916113e1565b820191906000526020600020905b8154815290600101906020018083116113c457829003601f168201915b50505091835250506006919091015460ff16151560209182015290825260019290920191016112f3565b50929450505050505b92915050565b61142261386d565b6001600160a01b0381166114885760405162461bcd60e51b815260206004820152602760248201527f7365727669636546656541646472657373206973206e6f742061207a65726f206044820152666164647265737360c81b606482015260840161078c565b600554604080516001600160a01b03928316815291831660208301527f1ae120263ff20a7e40d52789037da1608a0f939f1d05ddf25de34fce9f62d4e0910160405180910390a1600580546001600160a01b0319166001600160a01b0392909216919091179055565b6114f9613920565b6002546003546115099190614465565b421115611bc75760085415611bc25760005b600854811015611bc0576000600b60006008848154811061153e5761153e6142c5565b60009182526020808320909101546001600160a01b031683528281019390935260409182019020805482518185028101850190935280835291929091908301828280156115b457602002820191906000526020600020905b81546001600160a01b03168152600190910190602001808311611596575b5050505050905060005b8151811015611bab576000600f6000600886815481106115e0576115e06142c5565b60009182526020808320909101546001600160a01b031683528201929092526040018120845190919085908590811061161b5761161b6142c5565b60200260200101516001600160a01b03166001600160a01b03168152602001908152602001600020805480602002602001604051908101604052809291908181526020016000905b8282101561177b5760008481526020908190206040805160e0810182526007860290920180546001600160a01b03908116845260018201541693830193909352600283015490820152600382015460608201526004820154608082015260058201805491929160a0840191906116d890614329565b80601f016020809104026020016040519081016040528092919081815260200182805461170490614329565b80156117515780601f1061172657610100808354040283529160200191611751565b820191906000526020600020905b81548152906001019060200180831161173457829003601f168201915b50505091835250506006919091015460ff1615156020918201529082526001929092019101611663565b50505050905080516000036117905750611b99565b6000600d6000600887815481106117a9576117a96142c5565b60009182526020808320909101546001600160a01b03168352820192909252604001812085519091908690869081106117e4576117e46142c5565b60200260200101516001600160a01b03166001600160a01b0316815260200190815260200160002080548060200260200160405190810160405280929190818152602001828054801561185657602002820191906000526020600020905b815481526020019060010190808311611842575b5050505050905060005b8151811015611b955760005b8351811015611b8257838181518110611887576118876142c5565b602002602001015160c00151611b705760008482815181106118ab576118ab6142c5565b6020026020010151608001511115611b705760006119318787815181106118d4576118d46142c5565b602002602001015160088a815481106118ef576118ef6142c5565b9060005260206000200160009054906101000a90046001600160a01b031684888681518110611920576119206142c5565b602002602001015160800151611bcb565b90506000858381518110611947576119476142c5565b6020026020010151602001516001600160a01b03166370a0823160088b81548110611974576119746142c5565b60009182526020909120015460405160e083901b6001600160e01b03191681526001600160a01b039091166004820152602401602060405180830381865afa1580156119c4573d6000803e3d6000fd5b505050506040513d601f19601f820116820180604052508101906119e891906143f6565b9050806000036119f9575050611b70565b6000868481518110611a0d57611a0d6142c5565b6020026020010151602001516001600160a01b031663dd62ed3e60088c81548110611a3a57611a3a6142c5565b60009182526020909120015460405160e083901b6001600160e01b03191681526001600160a01b039091166004820152306024820152604401602060405180830381865afa158015611a90573d6000803e3d6000fd5b505050506040513d601f19601f82011682018060405250810190611ab491906143f6565b905080600003611ac657505050611b70565b6000611ad38383866106f1565b90506000611b49898781518110611aec57611aec6142c5565b60200260200101516020015160088e81548110611b0b57611b0b6142c5565b9060005260206000200160009054906101000a90046001600160a01b03168d8d81518110611b3b57611b3b6142c5565b60200260200101518561396d565b9050818114611b6a5760405162461bcd60e51b815260040161078c9061440f565b50505050505b80611b7a81614478565b91505061186c565b5080611b8d81614478565b915050611860565b5050505b80611ba381614478565b9150506115be565b50508080611bb890614478565b91505061151b565b505b426003555b5050565b60006001600160a01b038516611bf35760405162461bcd60e51b815260040161078c90614363565b81600003611c135760405162461bcd60e51b815260040161078c906143a5565b6001600160a01b038085166000908152600f602090815260408083209389168352929052208054611c4560018261428b565b851115611c645760405162461bcd60e51b815260040161078c9061429e565b6001600160a01b038087166000908152600f60209081526040808320938b168352929052908120805487908110611c9d57611c9d6142c5565b906000526020600020906007020190506000611ce6670de0b6b3a7640000611ce0600754611ce0670de0b6b3a764000087600201546139ab90919063ffffffff16565b90613a2d565b90506000611d00670de0b6b3a7640000611ce089856139ab565b9a9950505050505050505050565b600b60205281600052604060002081815481106106d557600080fd5b600e6020528260005260406000206020528160005260406000208181548110610cb757600080fd5b611d5a61386d565b80600003611db65760405162461bcd60e51b8152602060048201526024808201527f73657276696365466565206d757374206265206120706f736974697665206e7560448201526336b132b960e11b606482015260840161078c565b600654811115611e185760405162461bcd60e51b815260206004820152602760248201527f43616e6e6f742065786365656420746865206d6178696d756d20696e746572656044820152667374207261746560c81b606482015260840161078c565b60045460408051918252602082018390527fb4c698dddf4b6b8fbb270a4c12172c4b2906a081e3c98d45790367411f09fd1a910160405180910390a1600455565b6040805160e0810182526000808252602080830182905282840182905260608084018390526080840183905260a084015260c083018290526001600160a01b038781168352600f825284832090871683529052918220805491929184908110611ec457611ec46142c5565b60009182526020918290206040805160e081018252600790930290910180546001600160a01b03908116845260018201541693830193909352600283015490820152600382015460608201526004820154608082015260058201805491929160a084019190611f3290614329565b80601f0160208091040260200160405190810160405280929190818152602001828054611f5e90614329565b8015611fab5780601f10611f8057610100808354040283529160200191611fab565b820191906000526020600020905b815481529060010190602001808311611f8e57829003601f168201915b50505091835250506006919091015460ff16151560209091015295945050505050565b60006060611fda613920565b600254600354611fea9190614465565b421115611ff957600854151591505b9250929050565b61200861386d565b6120126000613a6f565b565b61201c6138c7565b612024613920565b6001600160a01b0385166120885760405162461bcd60e51b815260206004820152602560248201527f5f617070726f766541646472657373206973206e6f742061207a65726f206164604482015264647265737360d81b606482015260840161078c565b6001600160a01b0383166120de5760405162461bcd60e51b815260206004820152601c60248201527f5f746f6b656e206973206e6f742061207a65726f206164647265737300000000604482015260640161078c565b60065482111561213f5760405162461bcd60e51b815260206004820152602660248201527f4d757374206265206c657373207468616e20746865206d6178696d756d20696e6044820152651d195c995cdd60d21b606482015260840161078c565b336001600160a01b038616036121a15760405162461bcd60e51b815260206004820152602160248201527f617070726f76652061646472657373206973206e6f74206d73672e73656e64656044820152603960f91b606482015260840161078c565b604051636eb1769f60e11b81523360048201523060248201526000906001600160a01b0385169063dd62ed3e90604401602060405180830381865afa1580156121ee573d6000803e3d6000fd5b505050506040513d601f19601f8201168201806040525081019061221291906143f6565b90508082111561225d5760405162461bcd60e51b81526020600482015260166024820152754c656e64206c61636b206f6620616c6c6f77616e636560501b604482015260640161078c565b6040516370a0823160e01b81523360048201526000906001600160a01b038616906370a0823190602401602060405180830381865afa1580156122a4573d6000803e3d6000fd5b505050506040513d601f19601f820116820180604052508101906122c891906143f6565b9050808311156123405760405162461bcd60e51b815260206004820152603860248201527f54686520617574686f72697a6564207175616e74697479206d7573742062652060448201527f67726561746572207468616e207468652062616c616e63650000000000000000606482015260840161078c565b3360009081526012602090815260408083206001600160a01b038b16845290915290205460ff16806123ca573360008181526012602090815260408083206001600160a01b038d16808552908352818420805460ff19811660ff90911615179055938352601082528220805460018101825590835291200180546001600160a01b03191690911790555b6001600160a01b038816600090815260136020908152604080832033845290915290205460ff1680612454576001600160a01b038916600081815260136020908152604080832033808552908352818420805460ff19811660ff90911615179055938352601182528220805460018101825590835291200180546001600160a01b03191690911790555b6000600e6000336001600160a01b03166001600160a01b0316815260200190815260200160002060008b6001600160a01b03166001600160a01b031681526020019081526020016000209050806040518060e001604052808c6001600160a01b031681526020018a6001600160a01b03168152602001898152602001888152602001600081526020018b815260200160001515815250908060018154018082558091505060019003906000526020600020906007020160009091909190915060008201518160000160006101000a8154816001600160a01b0302191690836001600160a01b0316021790555060208201518160010160006101000a8154816001600160a01b0302191690836001600160a01b0316021790555060408201518160020155606082015181600301556080820151816004015560a08201518160050190816125a091906144df565b5060c091820151600691909101805460ff19169115159190911790556001600160a01b038b81166000908152600f6020908152604080832033808552908352818420825160e0810184529182528e86168285019081528284018f8152606084018f815260808501888152865180890190975288875260a08601968752998501889052835460018181018655858a5297909820855160079099020180546001600160a01b0319908116998b169990991781559251968301805490981696909816959095179095559251600285015593516003840155935160048301559251600582019061268c90826144df565b5060c08201518160060160006101000a81548160ff021916908315150217905550505086888c6001600160a01b03167f6a1aece8c884572ea74ceb28400eeff08a21cd618456b7fa364df088155bdfa48d8d6040516126ec92919061459f565b60405180910390a450505050505061270360018055565b5050505050565b6040805160e0810182526000808252602080830182905282840182905260608084018390526080840183905260a084015260c083018290526001600160a01b038781168352600e825284832090871683529052918220805491929184908110611ec457611ec46142c5565b601160205281600052604060002081815481106106d557600080fd5b61279961386d565b60065460408051918252602082018390527f071bd95be08719e929a1ff7d683da62cfb71ae69e3be29a6cd567459ab05c796910160405180910390a1600655565b6127e261386d565b600081116128325760405162461bcd60e51b815260206004820152601d60248201527f4e657720626173652075696e74206d7573742062652067726561742030000000604482015260640161078c565b60075460408051918252602082018390527f8fcde9e17e0cf7ff4c61c958ed4f84559ef4641f2e33866c10566d07d0560b05910160405180910390a1600755565b600d602052826000526040600020602052816000526040600020818154811061289b57600080fd5b9060005260206000200160009250925050505481565b6000807357ae7f7700542d33184ae5b8e879074ec77acbb290506000816001600160a01b031663d21220a76040518163ffffffff1660e01b8152600401602060405180830381865afa15801561290b573d6000803e3d6000fd5b505050506040513d601f19601f8201168201806040525081019061292f91906145c9565b9050600080836001600160a01b0316630902f1ac6040518163ffffffff1660e01b8152600401606060405180830381865afa158015612972573d6000803e3d6000fd5b505050506040513d601f19601f8201168201806040525081019061299691906145fd565b506001600160701b031691506001600160701b031691506000836001600160a01b031663313ce5676040518163ffffffff1660e01b8152600401602060405180830381865afa1580156129ed573d6000803e3d6000fd5b505050506040513d601f19601f82011682018060405250810190612a11919061464d565b612a1c90600a614754565b612a269084614763565b9050836001600160a01b031663313ce5676040518163ffffffff1660e01b8152600401602060405180830381865afa158015612a66573d6000803e3d6000fd5b505050506040513d601f19601f82011682018060405250810190612a8a919061464d565b612a9590600a614754565b82612aa0838a614763565b612aaa919061477a565b612ab4919061477a565b979650505050505050565b60088181548110612acf57600080fd5b6000918252602090912001546001600160a01b0316905081565b612af16138c7565b612af9613920565b6001600160a01b038316612b1f5760405162461bcd60e51b815260040161078c90614363565b336001600160a01b03841603612b775760405162461bcd60e51b815260206004820152601d60248201527f6c656e6441646472657373206973206e6f74206d73672e73656e646572000000604482015260640161078c565b80600003612be25760405162461bcd60e51b815260206004820152603260248201527f546865206e756d626572206f6620626f72726f77657220616d6f756e7420636160448201527106e6e6f7420626520657175616c20746f20360741b606482015260840161078c565b3360009081526013602090815260408083206001600160a01b038716845290915290205460ff16612c555760405162461bcd60e51b815260206004820181905260248201527f6c656e646572206973206e6f7420617070726f7665206d73672e73656e646572604482015260640161078c565b336000908152600f602090815260408083206001600160a01b038716845290915290208054612c8560018261428b565b841115612ca45760405162461bcd60e51b815260040161078c9061429e565b336000908152600f602090815260408083206001600160a01b03891684529091528120805486908110612cd957612cd96142c5565b60009182526020909120600790910201600681015490915060ff1615612d115760405162461bcd60e51b815260040161078c906142db565b80600401548160030154612d25919061428b565b841115612daf5760405162461bcd60e51b815260206004820152604c60248201527f546865206e756d626572206f66207769746864726177616c73206d757374206260448201527f65206c657373207468616e206f7220657175616c20746f20746865206566666560648201526b31ba34bb3290373ab6b132b960a11b608482015260a40161078c565b600181015481546040516370a0823160e01b81526001600160a01b03918216600482015260009291909116906370a0823190602401602060405180830381865afa158015612e01573d6000803e3d6000fd5b505050506040513d601f19601f82011682018060405250810190612e2591906143f6565b905080851115612e955760405162461bcd60e51b815260206004820152603560248201527f546865206c656e642062616c616e6365206973206c657373207468616e2074686044820152746520626f72726f7761626c65207175616e7469747960581b606482015260840161078c565b848260040154612ea59190614465565b60048301556001600160a01b0387166000908152600e6020908152604080832033845290915290208054612eda60018261428b565b881115612ef95760405162461bcd60e51b815260040161078c9061429e565b6001600160a01b0389166000908152600e60209081526040808320338452909152812080548a908110612f2e57612f2e6142c5565b90600052602060002090600702019050878160040154612f4e9190614465565b60048201553360009081526009602052604090205460ff166131a25760088054600181019091557ff3f7a9fe364faab93b216da50a3214154f22a0a2b415b23a84c8169e8b636ee30180546001600160a01b031916339081179091556000908152600960209081526040808320805460ff19811660ff9182161517909155600a83528184206001600160a01b038f168552909252909120541661310e57600b6000336001600160a01b03166001600160a01b031681526020019081526020016000208a9080600181540180825580915050600190039060005260206000200160009091909190916101000a8154816001600160a01b0302191690836001600160a01b03160217905550600a6000336001600160a01b03166001600160a01b0316815260200190815260200160002060008b6001600160a01b03166001600160a01b0316815260200190815260200160002060009054906101000a900460ff1615600a6000336001600160a01b03166001600160a01b0316815260200190815260200160002060008c6001600160a01b03166001600160a01b0316815260200190815260200160002060006101000a81548160ff0219169083151502179055505b336000908152600c602090815260408083206001600160a01b038e16845282528083208c845290915290205460ff166131a257336000818152600d602090815260408083206001600160a01b038f168085529083528184208054600181018255908552838520018e9055938352600c82528083209383529281528282208c8352905220805460ff81161560ff199091161790555b600185015485546000916131c4916001600160a01b039182169116338c61396d565b905088811461324c5760405162461bcd60e51b815260206004820152604860248201527f5468652061637475616c206d6f6e6579206c656e74206973206e6f742074686560448201527f2073616d6520617320746865206d6f6e6579206e656564656420746f20626520606482015267189bdc9c9bddd95960c21b608482015260a40161078c565b60018601546001600160a01b031673ed24fc36d5ee211ea25a80239fb8c4cfd80f12ee036134a457600061327f8a6128b1565b905060006ec097ce7bc90715b34b9f1000000000826004548d6132a29190614763565b6132ac9190614763565b6132b6919061477a565b6040516370a0823160e01b81523360048201529091506000907384e13d8aa38a8230db2dae46a6555a5deec532e6906370a0823190602401602060405180830381865afa15801561330b573d6000803e3d6000fd5b505050506040513d601f19601f8201168201806040525081019061332f91906143f6565b90508181106133c9576005546040516323b872dd60e01b81527384e13d8aa38a8230db2dae46a6555a5deec532e6916323b872dd916133809133916001600160a01b0390911690879060040161479c565b6020604051808303816000875af115801561339f573d6000803e3d6000fd5b505050506040513d601f19601f820116820180604052508101906133c391906147c0565b5061346f565b6000670de0b6b3a76400006004548e6133e29190614763565b6133ec919061477a565b60018b01546005546040516323b872dd60e01b81529293506001600160a01b03918216926323b872dd92613429923392911690869060040161479c565b6020604051808303816000875af1158015613448573d6000803e3d6000fd5b505050506040513d601f19601f8201168201806040525081019061346c91906147c0565b50505b670de0b6b3a76400006004548d6134869190614763565b613490919061477a565b61349a908d61428b565b9b50505050613556565b6000670de0b6b3a76400006004548b6134bd9190614763565b6134c7919061477a565b60018801546005546040516323b872dd60e01b81529293506001600160a01b03918216926323b872dd92613504923392911690869060040161479c565b6020604051808303816000875af1158015613523573d6000803e3d6000fd5b505050506040513d601f19601f8201168201806040525081019061354791906147c0565b50613552818b61428b565b9950505b604080516001600160a01b038d168152602081018c90529081018a90527f1d37c96186f00aa949bfd16bca10aaa0e7f79a45edc5c1f62634322ae1c0f0c89060600160405180910390a15050505050505050610c8a60018055565b6001600160a01b03811660009081526010602090815260409182902080548351818402810184019094528084526060939283018282801561361b57602002820191906000526020600020905b81546001600160a01b031681526001909101906020018083116135fd575b50505050509050919050565b6001600160a01b03811660009081526011602090815260409182902080548351818402810184019094528084526060939283018282801561361b576020028201919060005260206000209081546001600160a01b031681526001909101906020018083116135fd5750505050509050919050565b6136a361386d565b6001600160a01b0381166137085760405162461bcd60e51b815260206004820152602660248201527f4f776e61626c653a206e6577206f776e657220697320746865207a65726f206160448201526564647265737360d01b606482015260840161078c565b61371181613a6f565b50565b6001600160a01b038083166000908152600f602090815260408083209385168352928152828220805484518184028101840190955280855260609492849084015b8282101561140b5760008481526020908190206040805160e0810182526007860290920180546001600160a01b03908116845260018201541693830193909352600283015490820152600382015460608201526004820154608082015260058201805491929160a0840191906137ca90614329565b80601f01602080910402602001604051908101604052809291908181526020018280546137f690614329565b80156138435780601f1061381857610100808354040283529160200191613843565b820191906000526020600020905b81548152906001019060200180831161382657829003601f168201915b50505091835250506006919091015460ff1615156020918201529082526001929092019101613755565b6000546001600160a01b031633146120125760405162461bcd60e51b815260206004820181905260248201527f4f776e61626c653a2063616c6c6572206973206e6f7420746865206f776e6572604482015260640161078c565b6002600154036139195760405162461bcd60e51b815260206004820152601f60248201527f5265656e7472616e637947756172643a207265656e7472616e742063616c6c00604482015260640161078c565b6002600155565b600054600160a01b900460ff16156120125760405162461bcd60e51b815260206004820152601060248201526f14185d5cd8589b194e881c185d5cd95960821b604482015260640161078c565b60006001600160a01b038516613985573491506139a3565b81156139a357846139a16001600160a01b038216868686613abf565b505b509392505050565b6000826000036139bd57506000611414565b60006139c98385614763565b9050826139d6858361477a565b146107275760405162461bcd60e51b815260206004820152602160248201527f536166654d6174683a206d756c7469706c69636174696f6e206f766572666c6f6044820152607760f81b606482015260840161078c565b600061072783836040518060400160405280601a81526020017f536166654d6174683a206469766973696f6e206279207a65726f000000000000815250613b1d565b600080546001600160a01b038381166001600160a01b0319831681178455604051919092169283917f8be0079c531659141344cd1fd0a4f28419497f9722a3daafe3b4186f6b6457e09190a35050565b613b17846323b872dd60e01b858585604051602401613ae09392919061479c565b60408051601f198184030181529190526020810180516001600160e01b03166001600160e01b031990931692909217909152613b54565b50505050565b60008183613b3e5760405162461bcd60e51b815260040161078c91906147e2565b506000613b4b848661477a565b95945050505050565b6000613ba9826040518060400160405280602081526020017f5361666545524332303a206c6f772d6c6576656c2063616c6c206661696c6564815250856001600160a01b0316613c269092919063ffffffff16565b805190915015610c8a5780806020019051810190613bc791906147c0565b610c8a5760405162461bcd60e51b815260206004820152602a60248201527f5361666545524332303a204552433230206f7065726174696f6e20646964206e6044820152691bdd081cdd58d8d9595960b21b606482015260840161078c565b6060610724848460008585843b613c7f5760405162461bcd60e51b815260206004820152601d60248201527f416464726573733a2063616c6c20746f206e6f6e2d636f6e7472616374000000604482015260640161078c565b600080866001600160a01b03168587604051613c9b91906147f5565b60006040518083038185875af1925050503d8060008114613cd8576040519150601f19603f3d011682016040523d82523d6000602084013e613cdd565b606091505b5091509150612ab482828660608315613cf7575081610727565b825115613d075782518084602001fd5b8160405162461bcd60e51b815260040161078c91906147e2565b6001600160a01b038116811461371157600080fd5b8035613d4181613d21565b919050565b60008060408385031215613d5957600080fd5b8235613d6481613d21565b946020939093013593505050565b600080600060608486031215613d8757600080fd5b505081359360208301359350604090920135919050565b600060208284031215613db057600080fd5b5035919050565b600080600060608486031215613dcc57600080fd5b8335613dd781613d21565b95602085013595506040909401359392505050565b600080600060608486031215613e0157600080fd5b8335613e0c81613d21565b92506020840135613e1c81613d21565b929592945050506040919091013590565b60005b83811015613e48578181015183820152602001613e30565b50506000910152565b60008151808452613e69816020860160208601613e2d565b601f01601f19169290920160200192915050565b600060018060a01b03808a16835280891660208401525086604083015285606083015284608083015260e060a0830152613eba60e0830185613e51565b905082151560c083015298975050505050505050565b600060208284031215613ee257600080fd5b813561072781613d21565b60008060408385031215613f0057600080fd5b8235613f0b81613d21565b91506020830135613f1b81613d21565b809150509250929050565b600060018060a01b038083511684528060208401511660208501525060408201516040840152606082015160608401526080820151608084015260a082015160e060a0850152613f7960e0850182613e51565b60c0938401511515949093019390935250919050565b6000602080830181845280855180835260408601915060408160051b870101925083870160005b82811015613fe457603f19888603018452613fd2858351613f26565b94509285019290850190600101613fb6565b5092979650505050505050565b6000806020838503121561400457600080fd5b823567ffffffffffffffff8082111561401c57600080fd5b818501915085601f83011261403057600080fd5b81358181111561403f57600080fd5b86602082850101111561405157600080fd5b60209290920196919550909350505050565b6000806000806080858703121561407957600080fd5b843561408481613d21565b9350602085013561409481613d21565b93969395505050506040820135916060013590565b6020815260006107276020830184613f26565b82151581526040602082015260006107246040830184613e51565b634e487b7160e01b600052604160045260246000fd5b600080600080600060a0868803121561410557600080fd5b853561411081613d21565b9450602086013567ffffffffffffffff8082111561412d57600080fd5b818801915088601f83011261414157600080fd5b813581811115614153576141536140d7565b604051601f8201601f19908116603f0116810190838211818310171561417b5761417b6140d7565b816040528281528b602084870101111561419457600080fd5b8260208601602083013760006020848301015280985050505050506141bb60408701613d36565b94979396509394606081013594506080013592915050565b6020808252825182820181905260009190848201906040850190845b818110156142145783516001600160a01b0316835292840192918401916001016141ef565b50909695505050505050565b6000602080830181845280855180835260408601915060408160051b870101925083870160005b82811015613fe457603f19888603018452614263858351613f26565b94509285019290850190600101614247565b634e487b7160e01b600052601160045260246000fd5b8181038181111561141457611414614275565b6020808252600d908201526c24b73232bc1027bb32b9393ab760991b604082015260600190565b634e487b7160e01b600052603260045260246000fd5b6020808252602e908201527f54686520617574686f72697a6174696f6e206964207265636f7264206861732060408201526d1899595b8818d85b98d95b1b195960921b606082015260800190565b600181811c9082168061433d57607f821691505b60208210810361435d57634e487b7160e01b600052602260045260246000fd5b50919050565b60208082526022908201527f5f6c656e6441646472657373206973206e6f742061207a65726f206164647265604082015261737360f01b606082015260800190565b60208082526031908201527f546865206e756d626572206f66207061796d656e7420616d6f756e742063616e60408201527006e6f7420626520657175616c20746f203607c1b606082015260800190565b60006020828403121561440857600080fd5b5051919050565b60208082526036908201527f5468652061637475616c20616d6f756e7420616e6420746865206465647563746040820152750cac840c2dadeeadce840c8de40dcdee840dac2e8c6d60531b606082015260800190565b8082018082111561141457611414614275565b60006001820161448a5761448a614275565b5060010190565b601f821115610c8a57600081815260208120601f850160051c810160208610156144b85750805b601f850160051c820191505b818110156144d7578281556001016144c4565b505050505050565b815167ffffffffffffffff8111156144f9576144f96140d7565b61450d816145078454614329565b84614491565b602080601f831160018114614542576000841561452a5750858301515b600019600386901b1c1916600185901b1785556144d7565b600085815260208120601f198616915b8281101561457157888601518255948401946001909101908401614552565b508582101561458f5787850151600019600388901b60f8161c191681555b5050505050600190811b01905550565b6040815260006145b26040830185613e51565b905060018060a01b03831660208301529392505050565b6000602082840312156145db57600080fd5b815161072781613d21565b80516001600160701b0381168114613d4157600080fd5b60008060006060848603121561461257600080fd5b61461b846145e6565b9250614629602085016145e6565b9150604084015163ffffffff8116811461464257600080fd5b809150509250925092565b60006020828403121561465f57600080fd5b815160ff8116811461072757600080fd5b600181815b808511156146ab57816000190482111561469157614691614275565b8085161561469e57918102915b93841c9390800290614675565b509250929050565b6000826146c257506001611414565b816146cf57506000611414565b81600181146146e557600281146146ef5761470b565b6001915050611414565b60ff84111561470057614700614275565b50506001821b611414565b5060208310610133831016604e8410600b841016171561472e575081810a611414565b6147388383614670565b806000190482111561474c5761474c614275565b029392505050565b600061072760ff8416836146b3565b808202811582820484141761141457611414614275565b60008261479757634e487b7160e01b600052601260045260246000fd5b500490565b6001600160a01b039384168152919092166020820152604081019190915260600190565b6000602082840312156147d257600080fd5b8151801515811461072757600080fd5b6020815260006107276020830184613e51565b60008251614807818460208701613e2d565b919091019291505056fea264697066735822122001f6d2c37c2d951f91d1c22f0f9a3657dd84ea2e0b4eefe42d69ca187f783fde64736f6c63430008120033",
  "linkReferences": {},
  "deployedLinkReferences": {}
}